S00F00006E6F6465746573742E7333377F
S31508004000806B0020255001085148010855480108D1
S31508004010A70A0A0100410008040B03AC20667E00CB
S315080040200000000000000000000000000000000082
S315080040300000000000000000000000000000000072
S315080040400000000000000000FFFFFFFFFFFFFFFF6A
S31508004050FFFFFFFF00E0030800000000000000006B
S31508004060FFFFFFFFFFFFFFFFFF000000000000004B
S315080040700000000000000000000000000000000032
S31508004080F07F002000000000F07F0020F07F002075
S31508004090806B0020ED780108545101082062002049
S311080040A0C4110020000004080080002065
S31508004100806B0020255001089D500108A150010828
S31508004110A5500108A9500108AD500108000000008B
S31508004120000000000000000000000000B95001086F
S31508004130BD50010800000000C950010807A3000887
S31508004140CD500108D9500108DD500108E950010891
S31508004150ED500108F1500108FD5001080951010808
S315080041600D5101081151010815510108195101088D
S3150800417025510108295101082D510108315101081D
S3150800418035510108415101084D51010851510108A5
S31508004190704700002DE9F047DFF8284823A10FF201
S315080041A060590FF26C5ADFF820880646207800F02E
S315080041B036FE0027AAA512E0294600F030FE0CE0DC
S315080041C093681268494600F02AFE306800F0A8FA9B
S315080041D0F2D00FF2345100F022FE7F1CBFB23068D5
S315080041E000EB07122078516849B14145E8D1516979
S315080041F0002918BF4145F0D012685146EBE700BFC9
S3150800420029A100F00CFE207831A100F008FE2078E4
S315080042103BA100F004FE207844A100F000FE2078BF
S315080042202946BDE8F04700F0FABD0000434F4D4D62
S31508004230414E44205B504152414D45544552535DD1
S31508004240205B2D204445534352495054494F4E5DF7
S315080042500D0A202077686572653A20623D627566A8
S315080042606665722C2073313D696E74385F742C2034
S3150800427073323D696E7431365F742C2075313D7525
S31508004280696E74385F742C2075323D75696E7431A9
S31508004290365F742C2075343D75696E7433325F74DD
S315080042A00D0A0D0A0000000020202120202D205292
S315080042B06563616C6C7320746865207072657669D5
S315080042C06F757320636F6D6D616E640D0A00000073
S315080042D020205B7461625D202D20417474656D70C9
S315080042E0747320746F2074616220636F6D706C65DF
S315080042F0746520636F6D6D616E640D0A00000000C1
S31508004300202020202A2A204E4F54453A20616C6CE2
S3150800431020696E7075742076616C7565732061729C
S315080043206520696E20686578210D0A002020202006
S315080043302A2A20436F6D6D616E6473206172652051
S315080043404E4F5420636173652073656E7369746993
S3150800435076650D0A00000000A0F141011A293CBF4C
S315080043602030C0B2704700002DE9F84F8046DFF8CC
S315080043705C16D8F8080000680A68DFF84866C3B211
S31508004380002412F803900025B9F1200F06DD3078D5
S3150800439034A1BDE8F84F202200F041BDC0B200F0BC
S315080043A06FFD8246A34607E01AF80B00FFF7D4FF15
S315080043B00AF80B000BF1010BCB45F5DB4FEA0902B6
S315080043C039A1504601F007F830B9012504E03078E4
S315080043D037A13A4600F023FDD8F800202101101D28
S315080043E0405800283AD0DFF8E0B5641C5845A4B216
S315080043F0F2D15758002DEAD1384601F01BF8484546
S31508004400EAD14A465146384600F0DAFF0028E3D199
S31508004410404625460FF2DC280FF2EC290FF2980ADF
S31508004420044621682F01081DC059B8B1584515D052
S31508004430C819836802683078514600F0F0FC206895
S31508004440C019C26830781AB9414600F0E8FC02E0A3
S31508004450494600F0E4FC6D1CADB2E2E7BDE8F18F19
S315080044600D0A00004572726F723A206C69737420E7
S31508004470617267756D656E7420746F6F206C6F6EF0
S31508004480672C207765206F6E6C7920737570706F56
S31508004490727420757020746F202575206279746592
S315080044A0732E0D0A000000006D6F64756C6573004D
S315080044B025700D0A000000002570202570000000F8
S315080044C070B5044688B0A068016801B10121DFF81B
S315080044D000552970406800B10120DFF8F864307093
S315080044E016A001F003FAA068C16801B10121DFF83E
S315080044F0E8241170006900B10120DFF8E01400BF5C
S3150800450018A308700493127891F800000FF25C0162
S3150800451018A305920790069101203278009376A198
S3150800452003900291019204F111012B780FF24C02CB
S3150800453014A001F0DBF908B070BD00005475726E66
S31508004540696E67206F66662074616773206E6F7484
S315080045502079657420737570706F727465640D0ABE
S315080045600000000064656C696D000000746578746D
S3150800457000000000636F6D6D616E640068656164BC
S31508004580657200007B264E20566572626F736974E9
S3150800459079206F7074696F6E732073657420746FF9
S315080045A03A0D0A2674750D0A2674750D0A26747551
S315080045B00D0A2674750D0A2674757D0D0A0000000D
S315080045C0DFF81C14007CDFF8FC3351F8202018783B
S315080045D001A100F024BC00004349204572726F72A5
S315080045E03A2025700D0A000038B5DFF8D843207840
S315080045F040A5294600F013FC94F800000CA100F031
S315080046000EFC2078294600F00AFC207811A100F05B
S3150800461006FC207839A100F002FC207810A100F0F1
S31508004620FEFB207811A1BDE8344000F0F8BB00007D
S31508004630456D626572204E6F6465205465737420FB
S315080046404170706C69636174696F6E2076312E30C3
S3150800465000000000417567203135203230313900BD
S3150800466030393A31313A3530000000000D0A0D0A6A
S31508004670000000002DE9F24F054692462E6B0027F2
S3150800468012E01CA100F0CBFB0BE08B681CA1CD4C03
S3150800469000F0C5FB286800F043F8F2D01AA100F034
S315080046A0BEFB7F1CBFB21036706808B3D6F8008010
S315080046B0DDF8009000240BE019F8010BFFF74CFE1B
S315080046C0834618F8010BFFF747FE8345E9D1641CBA
S315080046D0A0B25045F0D3BB4B286800EB07111878F9
S315080046E04C68B94B0A689C42CFD100BF08A1D6E7EF
S315080046F0BDE8F18F0D0A0000746167002C200000E8
S315080047002020257020257000202D2025700D0A00F8
S315080047102D2D2D2D202570202D2D2D2D0D0A000037
S3150800472000EB0710C2682078002A70472DE9F0438D
S31508004730ADF5017D0DF10400AAA14FF4807201F0D8
S3150800474005F94FF000098DF80190A52001F050F900
S3150800475001F09CF9012300220F21002001F00AFB39
S31508004760804630B1012300220A21002001F002FB15
S315080047708046012300220F21012001F0FBFA0700E1
S3150800478006D0012300220A21012001F0F3FA074688
S31508004790012300220F21022001F0ECFA060006D0C0
S315080047A0012300220A21022001F0E4FA064601F05C
S315080047B0EFFCB8F1000F834D0AD0002F64D0002E0D
S315080047C000F067804FF40071C6A001F0E7FC03E033
S315080047D0002F18BF002E58D085F80090281D01F02C
S315080047E016FE281DFFF700FFC2A628780FF20C3820
S315080047F000F0A2F928780FF2603100F010FB6EA7DE
S3150800480000F09DF9281D02F081F800F094F9287847
S315080048100FF2503100F003FB00F091F9281D02F069
S3150800482093F800F088F928780FF2443100F0F7FA87
S3150800483000F085F9281D02F005F900F07CF92878C2
S315080048400FF2383100F0EBFA00F079F9281D03F081
S315080048507BFE00F070F928780FF22C3100F0DFFAB1
S3150800486000F06DF9281D03F08CFE00F064F9287835
S31508004870A4A100F0D4FA00F062F9281D04F062FD44
S315080048804EA64FA741AC93E0002E66D001202870B3
S31508004890A4E702212970A1E728780DF10103FF2278
S315080048A041A901F0F9FA002848D001F09DF801F075
S315080048B05FFA04F0F9FF04F09BF99DF8010010B3C4
S315080048C041A9084410F8011C09291CD100F037F940
S315080048D09DF80100411E8DF8011041A99DF801209F
S315080048E0281DFFF7C7FE9DF801100020605400F050
S315080048F01EF9002004E000F015F99DF80000401CA0
S3150800490000F008F9F7D39DF804012128C4D100F076
S3150800491016F94A4601A941A800F004FDA9F10100CB
S315080049208DF8010000F003F9002000F0F3F8B3D287
S3150800493000F0F8F89DF80000401CF6E700218DF815
S3150800494000109DF80020A05C511C0A2818BF0D28ED
S3150800495018BF0028F3D116E02E702878FF289AD1C0
S3150800496000266946F0B201F045FA38B99DF800000C
S315080049700D2818BF0A2818BF2A28EDD0761CF1B2D0
S315080049800329EEDBE9E70D20A0548DF8001041A9B4
S315080049909DF80020281D01F047FD9DF8002041A93B
S315080049A001A800F0BFFC9DF8009000218DF80110C9
S315080049B000F0BDF870E700005D0D0A0025630000F1
S315080049C00D0A0000806B002091410008B86C002099
S315080049D0526D0020536D0020546D0020556D002047
S315080049E0FC6C00200D000000000000000000000024
S315080049F000000000000000000000000000000000A9
S31508004A000000000000000000000000000000000098
S31508004A100000000000000000000000000000000088
S31508004A200000000000000000000000000000000078
S31508004A300000000000000000000000000000000068
S31508004A400000000000000000000000000000000058
S31508004A500000000000000000000000000000000048
S31508004A600000000000000000000000000000000038
S31508004A700000000000000000000000000000000028
S31508004A800000000000000000000000000000000018
S31508004A900000000000000000000000000000000008
S31508004AA000000000000000000000000000000000F8
S31508004AB000000000000000000000000000000000E8
S31508004AC000000000000000000000000000000000D8
S31508004AD000000000000000000000000000000000C8
S31508004AE000000000706C6174666F726D7465737493
S31508004AF02E6300005B494E49542000000D0A3E20F3
S31508004B0000000000736574506572546573745478B8
S31508004B10000000008DF800009DF801109DF80000C7
S31508004B2088427047225C2878314600F078B94146B9
S31508004B30287800F074B92878314600F070B92878DA
S31508004B40394600F06CB980B504F054FFBDE8024060
S31508004B500020EBE5002070476372617368696E6632
S31508004B606F0000007265736574737472696E67000E
S31508004B70696E6974546F6B656E730000696E69744B
S31508004B80526164696F00000073656564506E7267F0
S31508004B900000000070B513461044DCB264B101F0A1
S31508004BA00F060909451E0A2EACBF37243024A4195E
S31508004BB028462C705B1EF0E7104470BDF0B5002344
S31508004BC041B1002806D52D2313700123B0F1004FFB
S31508004BD018BF4042002100240FF28025002601E07C
S31508004BE0C01B761C55F82470B842F9D2F7B20FB933
S31508004BF00F0004D0D9B2303656545B1C0121641C10
S31508004C00092CEBDBD9B2303050545B1CD8B2F0BD5E
S31508004C102DE9F84F80468AB006A8894615469B4670
S31508004C2002AF4FF0000A0024019011E00124054666
S31508004C3000E007460198874209D39DF80020BF1A6D
S31508004C4000F0D1F8002850D1FFB2BA4402AF6D1C6B
S31508004C5002A88DF800009DF800002978381A002966
S31508004C600BD0252903D014B907F8011BE2E7002C5D
S31508004C7014BF00246D1C29780A0000F0A780B1F142
S31508004C80250216D00B3A092A40F28380283A78D0B2
S31508004C900A3A12D0521E3FD0521E5AD0083A58D05D
S31508004CA0121F3CD0D21E3AD0921E52D0D21E68D0C5
S31508004CB0C0E7252007F8010BBCE7DBF80010DBF896
S31508004CC00420099138460BF1080B08920027089A28
S31508004CD09742AED20999C95D0222FFF75BFF019997
S31508004CE0884206D300F083F8002878D1F6B2B24499
S31508004CF002A80899491E8F423CBF202200F8012BC2
S31508004D000199884206D300F072F8002867D1F6B2F6
S31508004D10B24402A87F1CDAE75BF8040BCAE75BF823
S31508004D20046B074600F05FF8002858D1FFB2BA4472
S31508004D30314602AF064600E0761CF0B2085C002851
S31508004D40FAD1F2B24846C047002848D1F6B2B24472
S31508004D5070E76C290AD16A785BF8040B752A0EBFCE
S31508004D6000210121642A07D16D1C05E075295BF82D
S31508004D70040B0CBF002101213A46FFF71FFF074429
S31508004D8058E75BF8041B0222C9B23846FFF702FF50
S31508004D904FE768780124782818BF5828F0D16D1C89
S31508004DA00024681E322904D15BF8040B81B2042260
S31508004DB0EBE734297FF43AAF5BF8046B0422310C35
S31508004DC03846FFF7E7FE0422B1B2DFE70546EAB246
S31508004DD000F00AF818B9AA445FFA8AF000E0002041
S31508004DE00BB0BDE8F08FFAB202A9484640479DF8D5
S31508004DF00020861AF2B202A94846404714A10EE0DE
S31508004E000CB438B5044604AA00F011F8054610A1FA
S31508004E10204600F004F8284632BC5DF80CFB0CB4BA
S31508004E2080B502AA00F003F802BC5DF80CFB58B581
S31508004E301346084A165C0024012E06D10A46014686
S31508004E400548FFF7E5FE00B90124204652BD0000DB
S31508004E500D0A0000786100084D60000800CA9A3BF8
S31508004E6000E1F5058096980040420F00A0860100F3
S31508004E7010270000E8030000640000000A00000094
S31508004E80DFF870140A6802EB40107047DFF86824F0
S31508004E901368195470472DE9F0415FEA000831D0CC
S31508004EA004F062FFDFF85424DFF854141678DFF8AC
S31508004EB05454FF23FE2E19D10027DFF84C64DFF87F
S31508004EC04CC4177034782C7007E07C1C0EF8074029
S31508004ED0DCF800E00EF80730E7B23478D1F800E0E5
S31508004EE0A742F2DB0EEB040606F8013C2E7846458F
S31508004EF00AD204F03FFF052004F076FF00211B20AC
S31508004F0004F0F6FFFF2020E0A6EB08062E701578C1
S31508004F10DFF8FC631778D6F800E001240EF807409E
S31508004F20A8F10108D1F800C01CF8074014705FFA10
S31508004F3088F4002CEED1DFF8C0230CF807300021E6
S31508004F401368595504F016FF2846BDE8F08110B5D8
S31508004F50044604F009FFDFF8B81309680A5D521C15
S31508004F600A55BDE8104004F005BFF8B5044600F040
S31508004F7031F8054604F0F8FEDFF88033DFF884736D
S31508004F80DFF87CC3DFF888E301E02C46FF25FF2C19
S31508004F901CD022460FE0DCF80010895C0026A654D7
S31508004FA03C78641C3C70FF29DCF800601C78B4541B
S31508004FB01A70EAD00A46DEF800108C5C661E8E541B
S31508004FC0DEF80040A15C11F07F0FE4D0BDE8F240A6
S31508004FD004F0D0BE10B5DFF838130A68145C210651
S31508004FE005D5DFF8102313684001185C10BDFF20B3
S31508004FF010BD7CB504460D4605F11F000004400DA2
S31508005000C0B2FFF748FFFF2806460DD0DFF8E802D2
S3150800501001688D553CB1012000902B46002231468F
S31508005020204600F002F8304676BDF3B5054681B055
S31508005030DFF8C40201681E469DF80830CC5C1746A6
S31508005040F019844203DA4FF4B77100F0DFF8300044
S315080050500CD0089C394602A800F0DCF802469DF8F8
S31508005060081000943346284600F001F8F7BD2DE9EC
S31508005070F047089DDFF88862DFF878A280468946FF
S3150800508014461F460DE02900224612BF4146014636
S31508005090404600F047F930683F1BA04410F80990D5
S315080050A00024F8B268B1DAF8000000EB49131819C1
S315080050B0FBB2E1182029B2BFFCB2C4F12004E4B265
S315080050C0E1E7BDE8F0872DE9FC410746DFF828024D
S315080050D088460168CC5D15461E462919CBB2A342FF
S315080050E006DB28000DD0C9B2384600F05BF808B1D7
S315080050F0182007E000962B46224639464046FFF719
S3150800510094FF0020BDE8F6810123DCE70A4600E0AB
S31508005110521C1378002BFBD1521A0123D2B2D2E7C4
S315080051202DE9F041804601F11F0402F11F00E40455
S31508005130C004240E000E04B9012400B901208442DB
S315080051402AD0DFF8BC5119DA001BC0B2FFF7A3FE5C
S315080051500746FF2808BF00201FD0641E00F01FF86E
S315080051602E68305CFF2804D000F019F8305CFFF791
S31508005170FCFE00F014F829680F540DE08A420BD2A1
S31508005180411EC9B200F00CF804462868005DFFF716
S31508005190ECFE2968FF2008550120BDE8F081E1B240
S315080051A0404610E070B5DFF85061336805460C4696
S315080051B0595D2246FFF7B4FF18B130684455002000
S315080051C070BD182070BD04E0DFF834211368185C40
S315080051D0491ECAB2002AF7D1704731B50C46DFF826
S315080051E018110A68155CAC4203D340F2052100F099
S315080051F00DF82146684600F00DF8DFF8F8109DF81E
S3150800520000300A6802EB4311084432BD0FF204105D
S3150800521000F0C4BF38B504460D46C9042078090E07
S31508005220FFF7D1FF207005F01F0032BD80B5FFF7EC
S31508005230D4FF007802BD10B51446FFF7CEFF047000
S3150800524010BD70B500F00AF8064600F004F800EB49
S31508005250062080B270BD29462046E7E70D46691C40
S315080052600446C9B2E2E7FDB5089C20000D461E4675
S315080052701BD1F7BD1F4B9DF804001B6803EB4010BC
S31508005280C2F12002D2B2BA42B8BF174681199DF8B8
S31508005290000003EB40133A46581900F043F8E41BA4
S315080052A07D19BE19A0B200B9F7BDA9B26846FFF7C5
S315080052B0B1FF0546B1B201A8FFF7ACFF0646B542F5
S315080052C0A7B2B4BF32462A46D4E770B504460D469F
S315080052D004F04AFD0D4A23781268FF2B08BF55557E
S315080052E003D013441E7856551D702570BDE87040CE
S315080052F004F040BDB46C0020B86C0020626D00203C
S31508005300C06C00205E6D00205D6D0020C46C00201E
S31508005310BC6C00207061636B65742D62756666658A
S31508005320722E630070B5814224D210441144401E87
S31508005330491E10E011F8013900F80139121F11F859
S31508005340014900F8014911F8015900F8015911F805
S31508005350016900F8016993B2042BEBDA93B2002BCA
S315080053601EBF11F8013900F80139521EF6D170BD79
S3150800537000F00DF893B2042BFADA93B2002B1EBF95
S3150800538011F8013B00F8013B521EF6D170BD11F829
S31508005390013B00F8013B121F11F8014B00F8014BC5
S315080053A011F8015B00F8015B11F8016B00F8016B5D
S315080053B07047130003D00A46194604F0A3BD704788
S315080053C010B5034600E0521E90B218B100F00FF86F
S315080053D0F9D0001B10BD10B5034600E0521E90B26E
S315080053E020B100F004F8F9D0001B40B210BD13F844
S315080053F0010B11F8014BA042704730B4002513E0A9
S3150800540050F8042BD30744BFA9F101039A18091FC2
S31508005410042942F8045BFAD213468C0744BF158068
S315080054209B1CC90748BF1D7050F8041B0029E7D10B
S3150800543030BC704700F10103810704D010F8011B46
S31508005440820781B1FAD10268A2F10131914311F0C4
S31508005450803104BF50F8042FF6E709BAB1FA81F192
S3150800546000EBD100401CC01A7047F0B40246106821
S3150800547095681318506803EB5004C0071DD54D44B2
S315080054801BE013F8017B05F8017B491EF9D1A0B191
S31508005490B60813F8011B06F00306032E08BF13F817
S315080054A0016B01EB06214942801C294405D011F8FD
S315080054B0016B05F8016B401EF9D1A3420ED013F813
S315080054C0016B16F0030104BF13F8011BC91C300950
S315080054D00F28DAD113F8010B0F30D6E7F0BC02F12A
S315080054E00C00704738B50446651D206A2368451BBD
S315080054F02079EAB2611D984708B1002032BD94F8B8
S3150800550029002D18611D84F829502162012032BD19
S3150800551038B50446002500E06D1CE8B2085C002892
S31508005520FAD120792368EAB2984730B994F8290065
S315080055302D1884F82950012032BD002032BD2DE9EE
S31508005540FF4B07460C46781D386207F1150179624C
S315080055500020904687F82900DFF8C05315E02AB1E5
S31508005560791D396201E01100F9D1044626B100F02F
S315080055709DF97D2001F8010D386A796A884203D3BE
S3150800558000F09AF9002867D0641C2178002900F0F9
S315080055906B812529687818BF26290ED07B291CBF60
S315080055A07D29232907D10028E6D03A6A521C3A6297
S315080055B002F8011DE0E7A878F5E714F8013F252B66
S315080055C018BF262B04D100F071F901F8013DD3E785
S315080055D026290BD150B101266E2B18BF4E2B11D0A0
S315080055E000F064F97B2001F8010D00E0002621781F
S315080055F000224E2906D0542923D06E2902D07429B8
S315080056001FD032E0287858F804BB0028B4D036B149
S31508005610386A7B210170821C3A622823437000F0A5
S315080056204BF9002818D000F036F9002814D0002EBF
S31508005630A2D0386A29210170821C3A627D23437000
S315080056409AE700F037F9002806D000F024F9002878
S3150800565002D000F031F9002800F0828000F026F927
S315080056603A2001F8010D0122641C207894F801E023
S31508005670A0F13003DBB2981E052835D2BEF1640FBF
S3150800568018BFBEF1750F2FD158F8040B012180B24F
S31508005690BEF1640F4FF0000C814606D15FEA004E5A
S315080056A003D5C043401C8C4680B248B14FF00A0E61
S315080056B090FBFEF080B200280CF1010CF6D10BE04D
S315080056C00CF1010C08E0D7F820E00EF1010EC7F83E
S315080056D020E020200EF8010D604600F1010CC0B252
S315080056E09842F0DB641C00E0002194F800C0601EBC
S315080056F0BCF1000F3FF437AFBCF1320F18BFBCF155
S31508005700340F00F08D80BCF1480F0AD0BCF1580F59
S3150800571016D0BCF1630F15D0BCF1640F24D0BCF1D0
S31508005720680F72D0BCF16C0F51D0BCF1700F18BF66
S31508005730BCF1730F0DD0BCF1750F15D0BCF1780F05
S3150800574065D00CE7386A411C396258F8041B0170A9
S315080057500CE700F0AFF818B100F09DF80028F7D173
S31508005760002004B0BDE8F08B002912BF1FFA89F0AB
S3150800577058F8040B80B228B900F098F8302001F8E0
S31508005780010DF3E60023BCF1640F0ED101040CD51C
S315080057903A6A521C3A622D21B0F5004F02F8011DF3
S315080057A003D0404280B2002866D04FF00A0C90FB26
S315080057B0FCFC0A2101FB1C00D9B25B1C0DF8010098
S315080057C01FFA8CF0EFE7D8B200F078F854E058F8F2
S315080057D0040B0028D0D0002200280AD500F066F86D
S315080057E02D23B0F1004F01F8013D02D040420028B8
S315080057F048D00A23B0FBF3F30A2101FB1300D1B208
S31508005800521C0DF801001846F1E700F047F802228D
S3150800581058F8041B386AC9B2FFF7BCF93862A5E61E
S3150800582014F8010F682818BF48280BD100F036F87D
S3150800583014F8011C386A32290AD158F8041B0422C4
S3150800584089B2E9E7782818BF5828F1D0641E8DE692
S3150800585058F804BB04224FEA1B41FFF79BF938624C
S3150800586004221FFA8BF1D7E700F026F800283FF448
S3150800587077AF97F8290074E71846431EC0B2002888
S31508005880A1D173E61046421EC0B20028F9D0D0B2A4
S3150800589000F014F8F6E75946384639E6386A3021F2
S315080058A00170821C3A62782343707047396A491C32
S315080058B03962704758F804BB384613E6396A1DF84A
S315080058C00000491C3962303001F8010D70470EB4EA
S315080058D010B5134A014610788BB0002428B1114A36
S315080058E000F013F800B9012420460AE00EB410B5FA
S315080058F00C4A8BB0014600F008F8002400B90124D0
S3150800590020460BB010BC5DF810FB074813780090D2
S315080059108DF804300DAA684611E60000536D002084
S31508005920526D0020806B00204D60000862B38B0723
S3150800593008D0521E11F8013B00F8013B00F0248004
S315080059408B07F6D1830740F0208000BF103A07D3B3
S3150800595030B4B1E83810103AA0E83810F9D230BCA3
S31508005960530724BFB1E80810A0E8081044BF51F84F
S31508005970043B40F8043BD20724BF31F8022B20F839
S31508005980022B44BF0B7803707047121F17D35B00B6
S3150800599009D151F8043B20F8023B1B0C121F20F8D2
S315080059A0023BF6D20BE051F8043B00F8013B1B0A18
S315080059B020F8023B1B0C121F00F8013BF3D238BF3C
S315080059C0121D521E24BF11F8013B00F8013BF8D8FE
S315080059D07047000004F07FBB2348012181604EF622
S315080059E0BE22426001607047204901200860704766
S315080059F0A52805D11C484DF6AD614160022202601A
S31508005A0070471948016811F0010018BF0120704756
S31508005A1080B5174910200860BFF34F8FBFF36F8F0B
S31508005A20144A15491078154A60B1032807BF0020A3
S31508005A3010600123136040F651000860002004F04E
S31508005A40C5FD06E0022313604FF40060086004F009
S31508005A5005FB0B4807210160012202641020094951
S31508005A600860002002BD0000006000400860004099
S31508005A7080E100E0C97F00200C600040080000407B
S31508005A8014A0004000E100E07047704780B5A648C2
S31508005A900021416041708170A5220270012004F046
S31508005AA06DF904F09CF900F01EF8002002BD9F482D
S31508005AB00168CA0700D4704780B59D490B6823F46E
S31508005AC040630B60016849084900016002681102D9
S31508005AD0FCD4984A106810B1642004F068FD964812
S31508005AE00021016001BD10B59448954A0168954C9E
S31508005AF041F080710160012010600020924904F095
S31508005B0073FD9248924B0221016000229148924906
S31508005B101A6001600122914B84491A600C6040F2B8
S31508005B20014202654FF480308D49086010BD8249F4
S31508005B30086800281EBF7F490868002805D07F49E5
S31508005B400868000E00F00100704700207047D12257
S31508005B5002704170090A817082490A78C27004206D
S31508005B60521C0A7070472DE9F84F82467E48016834
S31508005B7011F80A6004F077FD761DF6B2002400904D
S31508005B804FF6FF7B4EE0811EC9B25046FFF74EFB2B
S31508005B900546594604F092FD834630E0B74246DA98
S31508005BA004F061FD0099401A80B240F2F512904265
S31508005BB03DD24FF06048D8F80010012932D10027AD
S31508005BC0B9462046C1B211B95B2501201CE001295E
S31508005BD005D16548016811F80A50022014E0441CF2
S31508005BE0F21E914208BF5D4609D0B31E994208BF0E
S31508005BF04FEA1B2503D0721E914202D15D2520462D
S31508005C0002E0B142BFD10025EDB24FEAC9018D408D
S31508005C1009F101092F435FFA89F2042AD2D304460F
S31508005C20C8F80070FFF783FF0028E7B2B6D14FF433
S31508005C30C87004F0BCFCB7420CBF00200120BDE8C8
S31508005C40F28F10B548490A68145C042C01D2012069
S31508005C5010BDBDE8104086E72DE9F047324D6C7857
S31508005C60002C44D004F0FFFC804621460020FFF7B4
S31508005C70C0F90646FF28B14602D10020687036E012
S31508005C80202CB4BF27462027FFF7FAF86860AF70C4
S31508005C90DFF8D8A0687860B304F0E5FCA0EB08004C
S31508005CA080B240F2F511884223D2A8780028F1D1B3
S31508005CB0E41BE4B2002C6C70ECD0DAF8000010F8A3
S31508005CC00990202CACBF202727464846FFF7D8F86E
S31508005CD06860AF70DEE7304604F017FD02E000208A
S31508005CE06870A8703046BDE8F047FFF73EB9BDE8D2
S31508005CF0F087002C01BF68780028A8780028EED124
S31508005D0019490868805D841EE1B23046FFF799FAA2
S31508005D101228E0D1E1B23046FFF744FA31461220A4
S31508005D2004F0A6FDDEE70000F07F0020800E00E00C
S31508005D30001000E034000040100004E0FCED00E034
S31508005D40040004E00D00010020A10700F00004E0B3
S31508005D50040304E0B00F00E055CEACC5000E00E029
S31508005D6000E100E0CF7F0020B86C0020C06C002066
S31508005D70704700002DE9F04781460C4690469A4642
S31508005D8000F0ECF9002801BF4E460FF2EC30815DB9
S31508005D90012921D1DFF8B45355F8267003F0E4FF42
S31508005DA00021B9803980798003F0E4FF05EB86008D
S31508005DB0056903F0D9FF0021A98029806980DFF8E9
S31508005DC09023915503F0D6FF53464246214648464E
S31508005DD0BDE8F04704F0EFBD2120BDE8F08710B517
S31508005DE0044604F087FFDFF8640300EB84010A69C0
S31508005DF0908810BD2DE9F843044688462646DFF804
S31508005E004C1301EB8602176900F0A8F908B10120C6
S31508005E1040E0DFF83C53A85D05EB460968B1B9F8E0
S31508005E2004007988884208D103F09EFFAC5D002102
S31508005E30A95503F09FFF20462CE0204604F05AFFA0
S31508005E40B88800281EBF0FF23C3131F81640002CE6
S31508005E501FD003F089FF798839448A7988F80020A9
S31508005E607988491C91FBF4F304FB13147C80B988E8
S31508005E704A1EBA8003F07EFFA85D40B1B9F8040057
S31508005E804FF6FF71884204BF3A88A9F8042000201B
S31508005E9000E02620BDE8F283F8B51F4604463878A8
S31508005EA00D46164608B1B04208D30020287005E012
S31508005EB03878411C39709DF800202A5469462046D6
S31508005EC0FFF798FF010056D19DF800008028F5DA03
S31508005ED0397819B90A2818BF0028EFD0B14207D374
S31508005EE0002139709DF800000D2818BF0028E5D05C
S31508005EF09DF80000082818BF7F280CD1387800289C
S31508005F00DCD0401E38700021C0B229548EA120462C
S31508005F1000F058F8D2E73978891C8E42BCBF0D20AC
S31508005F208DF800009DF80010204600F038F89DF81E
S31508005F30000061381A2805D29DF80000A0F120015A
S31508005F408DF800109DF800000D2818BF0A28AFD15B
S31508005F503878002129549DF800200D2A05D10A21F8
S31508005F60204600F01CF8002603E00D21204600F02C
S31508005F7016F83E700020F2BD7CB5044600200D469A
S31508005F8016468DF8000001E0FFF72EFD6B463246F7
S31508005F9029462046FFF780FF0028F5D176BD02B5D1
S31508005FA00122694600F052F802BD0000B0F804006C
S31508005FB06FA333F811108A1A904201DA012070474C
S31508005FC0002070472DE9F04781464F466AA0C25D1A
S31508005FD0012A0DD15D480FF2B41850F827500FF278
S31508005FE09C1A00240E461FE000F07CF8002000E012
S31508005FF00120BDE8F08703F0B7FEA98801B901249E
S315080060003AF8171069B12B8832782B449A712A8886
S31508006010521C92FBF1FC01FB1C212980A988491C12
S31508006020A98003F0A7FE761C30780028DCD000F0A3
S3150800603055F80028DFD114B100F054F8002418F8F8
S3150800604007000028F3D12220D3E700002DE9F84FF6
S315080060508146C84648A010F80830012B0FD13B48A6
S315080060600FF2281A50F8285044A030F818B0002427
S315080060700E4617461FE000F035F8002000E0012024
S31508006080BDE8F28F03F070FEA98801B90124BBF1BF
S31508006090000F0DD02A8831782A4491712988491C25
S315080060A091FBFBF30BFB13112980A988491CA980D6
S315080060B003F060FE761C3846471EC0B20028DAD0C8
S315080060C000F00CF80028DDD114B100F00BF800241C
S315080060D01AF808000028F3D12220D1E70022494601
S315080060E0284663E7484604F0FABC000080B5014636
S315080060F021A2535C012B05D1144A52F8212091881C
S315080061000029FCD104F052FD002002BD0CB438B5BC
S3150800611004460D4604F019FD04AB2A4621460D48EF
S31508006120FEF776FD4FEA040013A10A5C012A07D19F
S31508006130064951F82020908810B1204604F0CFFC7B
S3150800614032BC00205DF80CFB08200800DC6C00203F
S31508006150E87C00205DAB000870470000042805DADB
S3150800616005A1085C401E8041C00F7047012070479A
S31508006170800080008000800001010101800080000D
S3150800618080008000400040004000800001010101BD
S31508006190002181F31188704742DE704738B50446FE
S315080061A00D46FFF721FC03F0DFFD2946204604F0E3
S315080061B097FA2B464FEA040278A10120FFF7A6FFBB
S315080061C029462046BDE83440E6E76B482DE9F84302
S315080061D06A4E0168B1654FF42068026A6849F2653B
S315080061E00B683366416A7166826AB266C16AF1668D
S315080061F0026B3267806B96F83810706748074CBF99
S31508006200346CF46B04F07EFE002232658442DFF8BB
S3150800621074E1014624BFAEF12007A742A146716585
S3150800622006F18C02584BDFF864C118D3A069706474
S31508006230E469B464B56DC5F30805062D13D1604548
S3150800624011D398420FD200884DF64264A0420AD173
S315080062507068B4685060946040F2017803E00024E6
S315080062607464B46481464A48814238BF0146084688
S31508006270704570D20C68B4F1CD3F08BF091DF6D041
S3150800628069E0062C09D1C4B2002C0CBF0520401EBB
S3150800629006F17804C5B244F82510F1451FD25EF818
S315080062A0041D6145F9D39942F7D2CC07F5D50024E8
S315080062B006F1780555F824708F42E2D0641C062C46
S315080062C0F8D3DEE7B16F002306F1780506EB830401
S315080062D0E46F45F823405B1C042BF7D9116001468F
S315080062E0481EC9B20029EDD1B06DC0F308000228D6
S315080062F00AD0032815D0042816D0052817D0062852
S3150800630018D00C281CD01EE022480268910748BF06
S3150800631040F602181CD40068C10719D540F2025885
S3150800632016E040F6012813E040F6022810E040F691
S3150800633003280DE0B8F5206F0AD140F6042807E0D7
S3150800634040F6052804E018B1242838BF40F6072887
S315080063504046BDE8F2831049081AF064002100207F
S3150800636006F17804C5B2401CC7B244F82510062FBA
S31508006370F8D3002091E7000004ED00E000000020BB
S3150800638000E300E0806B00205451010890410008AA
S31508006390980000201CA00040806B00200D0A5B417D
S315080063A053534552543A25703A25645D0D0A000048
S315080063B02DE9F8438146DFF8C403016811F809504E
S315080063C000260027E90748BF00201ED400240FF244
S315080063D0D448E0B2A84213DAE1B24846FEF726FFEF
S315080063E018F8002002F00F02E00758BF170105D57C
S315080063F03A43F1B24846FEF71EFF761C641CE8E7EE
S31508006400F1B24846FEF742FD0120BDE8F28300F1ED
S315080064102401FF228A700023C373C3830B7083731E
S315080064200068C860704700002DE9F74F82B005463E
S3150800643000208DF8010005F1240608E0687B7072DB
S315080064400122EA7329469DF8000000F0A9F903988D
S315080064500027002460BB9DF810006946FFF7CAFCB8
S31508006460002839D0262826D00121284600F08AF9A6
S3150800647078208DF80000A046102700218DF801101D
S31508006480E97B0829E3D8DFE811F00A004B008E0003
S31508006490EA00EA0041014D01AD009E00D7E7102F42
S315080064A0CCD09DF80000232836D10821E973CEE721
S315080064B09DF8100020B99DF8010005B0BDE8F08FE1
S315080064C00398401C039010F8011D9DF810008DF8E4
S315080064D00010411E8DF81010A0469DF80000672890
S315080064E00FD29DF800100FF2BC30405C00F0300768
S315080064F000F00F08400607D5717A884504DA0124AA
S3150800650002E07B2838BF10279DF800000A2818BF2C
S315080065100D28B2D10121B1E7202F98D0032027E119
S31508006520102F1CBF9DF800005F2800D01CB13078E2
S315080065300C28F3DA86E7202F18BF302F3FD13278A0
S3150800654005F11101002088544FF00009F068019008
S315080065500DE01AF8010B00F01CF91BF8011B81422B
S315080065600CD0019800F1100109F101090191019976
S31508006570486820B3D1F800A005F1110B9BF800007C
S315080065800028E6D19AF800100029EAD1A5F81E904D
S31508006590F068E98B00EB0112002190682862A97364
S315080065A031700222EA73002C687B70722FD02B2080
S315080065B03072C6F804800421687B707276E703217E
S315080065C0284600F0DFF89DF80100002809D0287C4D
S315080065D020B1696828468847002028742846FFF7AE
S315080065E016FF34E79DF8010018B1284600F0E4F8D4
S315080065F0F4E79DF80000232805D1284600F0DCF8CA
S315080066000820E87323E7202FFCD00420B0E09DF88B
S3150800661000002D2818BF2B2804D130720021716084
S315080066200321C9E722280AD10120FEF734FCFF28F6
S31508006630B0700BD00021FEF729FC0520E1E77B2886
S31508006640D0D10120FEF727FCFF28B07000F08F801C
S315080066500021FEF71BFC10207072062126E744B1C4
S315080066607068717A042201FB0088EA73C6F8048010
S31508006670EDE69DF80000782818BF582804D1706800
S3150800668010B910217172E2E69DF80000742818BF4F
S31508006690542803D1706808B90A21F3E7032956D0AC
S315080066A0202F18BF302F52D1296A08784A78337AB2
S315080066B071682D2B08BF4942752808D1342A1AD08B
S315080066C00020312A14BF4FF6FF72FF220FE073280D
S315080066D008D1312A07BF6FF07F007F22284847F686
S315080066E0FF7204E00421284600F04CF86BE781426B
S315080066F0A8BF8A4208DB0222284600F07CF8002858
S31508006700F4D00220E8734EE70621ECE79DF8000076
S3150800671022281ED10021284600F082F80028B2D08F
S3150800672002206EE79DF800007D280DD1B078FFF7AE
S315080067303FFE04460121284600F072F808B10220FF
S31508006740E873002C9FD102E0202F9CD00CB90720BB
S315080067500EE00A49B0780A68145CFF2C08BF0820C6
S3150800676006D001226946FEF7CFFC00288BD002200E
S315080067708DF800009DF8001022E70000B86C002094
S315080067800080FFFF027C1AB90823C37301745DE019
S315080067907047A0F141011A293CBF2030C0B27047AA
S315080067A038B50C4694F82450FFF7F3FF61196D1CB1
S315080067B0487484F8245031BD10B50446216A087817
S315080067C030B162280CBF01200220085C2A2807D1B4
S315080067D0216BE28B01EB021320465968884706E0D5
S315080067E004202074204661688847002020742046CB
S315080067F0BDE810402AE010B5837B047BA34201D193
S3150800680005211FE0846844F82310817B491C8173A5
S31508006810016A8B5C2A2B1CBF89180162012010BDF6
S3150800682010B500F1200213681C78622C01D00421EF
S3150800683008E09379FF2494710122BDE8104003EB28
S315080068400121D8E7FFF79EFF002010BD70B504466A
S31508006850206BE18B00EB011200269568A17BF0B254
S31508006860884212D22878622818BF022007D1A16868
S31508006870F2B251F82200C0B2FEF777FB0120295C7C
S315080068802A2918BF2D18761CE8E70020A07394F86B
S315080068902600FF2804D0FEF768FBFF2084F82600B0
S315080068A070BD00000000000000000000002020204D
S315080068B0202000000000000000000000000000008A
S315080068C0000000002000303000000000000000300A
S315080068D000300000404142434445464748490000CD
S315080068E000000000005A5B5C5D5E5F10101010101F
S315080068F0101010101010101010101010101010306A
S3150800690000000000005A5B5C5D5E5F0010B504F095
S3150800691051FB40F2A174C440E0070BD5064C207821
S3150800692004F060FB207804F0E5FB2078BDE8104011
S3150800693004F0E3BC10BD00BF806B00205FF02A01A5
S315080069400AA0FFF72BBC000010B503F0C3F90446F4
S3150800695003F0B6F902462346DFF80C0007A10078D3
S31508006960BDE81040FEF75BBA806B00207265736560
S31508006970742D746573742E630000000052455345E8
S31508006980543A25702D25700D0A0000002DE9104097
S31508006990DFF8684705A12078FEF741FA94F8000069
S315080069A006A1BDE81040FEF73ABA0000286C6974E3
S315080069B0746C6520656E6469616E00002C20616CDC
S315080069C06C206461746120726570726573656E749B
S315080069D065642061732062797465206172726179D9
S315080069E0290D0A0001460878A0F130030A2B38BFA2
S315080069F030380AD3A0F14103062B38BF373804D301
S31508006A00A0F16102062A02D25738000100E00020F0
S31508006A104978A1F130030A2B02D2081830380EE063
S31508006A20A1F14103062B02D20818373807E0A1F175
S31508006A306102062A39BF081857380006000FC0B287
S31508006A407047000010B504F061FF020018D0DFF8A7
S31508006A50AC462078042A08BF0FF2280107D0062A78
S31508006A6008BF0FF26C0102D0072A03D129A1FEF74D
S31508006A70D6F902E039A1FEF7D2F9207844A190E7C9
S31508006A8010BD000068616C537461636B496E69746C
S31508006A90546F6B656E73204641494C4544207769AF
S31508006AA0746820454D4245525F454550524F4D5FEB
S31508006AB04D46475F535441434B5F56455253494FE2
S31508006AC04E5F4D49534D415443480D0A000000009E
S31508006AD068616C537461636B496E6974546F6B6556
S31508006AE06E73204641494C454420776974682045B1
S31508006AF04D4245525F454550524F4D5F4D46475FA3
S31508006B0056455253494F4E5F4D49534D415443489C
S31508006B100D0A000068616C537461636B496E697491
S31508006B20546F6B656E73204641494C45442077691E
S31508006B30746820454D4245525F454550524F4D5F5A
S31508006B40535441434B5F56455253494F4E5F4D4947
S31508006B50534D415443480D0A0000000068616C53C8
S31508006B607461636B496E6974546F6B656E73204606
S31508006B7041494C4544207769746820456D626572C1
S31508006B805374617475733A2025580D0A0000000085
S31508006B90546F6B656E7320617265207374696C6CD3
S31508006BA020616374697665207768656E20757369F8
S31508006BB06E672074686973206170706C69636174AC
S31508006BC0696F6E2E0D0A00002DE9F84FC0B0806877
S31508006BD0DFF828750568FFF7D9FEA8B204F014FF98
S31508006BE08046A8B205F0E0F80446A8B205F0C5F953
S31508006BF08346002C38781ABF4FF6FF7290450FF27D
S31508006C00045128D02346AAB20FF2D811FEF707F985
S31508006C1000250FF270290FF2702A06E000F01CF822
S31508006C20761CF0B2A042F9DB6D1CE8B2584510DAC2
S31508006C30BBF1010F234603D17F2201F05BFA06E080
S31508006C40EAB201F057FA38785146FEF7E8F8002616
S31508006C50E7E7387851465BE01DF800203878494662
S31508006C60FEF7DDB82DE9F84F0446C0B0A168DFF895
S31508006C708C740E68B0B205F097F88046B0B204F08E
S31508006C80C3FE8346B0B205F078F90646B8F1000FA0
S31508006C90AFA006D104F11101FEF728FE0FF2B421C8
S31508006CA035E04FF6FF72934504F1110104D1FEF762
S31508006CB01DFE0FF2C4212AE0FEF718FE97F8000021
S31508006CC016A14246FEF7ABF800240FF2B8190FF2E8
S31508006CD0B81A06E0FFF7C0FF6D1CE8B24045F9DBBD
S31508006CE0641CE0B2B04211DA012E434604D17F2279
S31508006CF0594601F000FA07E0E2B2594601F0FBF9FD
S31508006D0038785146FEF78BF80025E6E708A138786B
S31508006D10FEF785F841B0BDE8F08F00007B73697A0D
S31508006D20653A25647D7B76616C75653A00000000DE
S31508006D307D7D0D0A000000002DE9F047C0B080688F
S31508006D4007684468DFF8B463FFF720FEB8B205F0B9
S31508006D502BF88046B8B204F057FE8146B8B205F063
S31508006D600CF90546B8F1000F30781ABF4FF6FF72D6
S31508006D7091450FF2903130D0A5F1010A15B1E1B273
S31508006D808A450BDA0FF28831FEF749F830780FF2A8
S31508006D90B83153460022FEF742F820E04346BAB21D
S31508006DA010A1FEF73CF8012D08BF7F244346E2B246
S31508006DB0494601F0A0F934A530782946FEF72FF8A0
S31508006DC0002430A704E01DF8012001F0A1F9641C95
S31508006DD0E1B230784145F6DB2946FEF720F840B0A7
S31508006DE0BDE8F0875B2532785D28256429203D00BB
S31508006DF02DE9F847C1B08068C04F0668FFF7C6FDA1
S31508006E00B0B204F0D1FF8046B0B204F0FDFD824670
S31508006E10B0B205F0B2F8B8F1000F1CBF4FF6FF711B
S31508006E208A45064605D138780FF2D821FDF7F7FFCF
S31508006E3027E000240FF234391FE006FB08F3387800
S31508006E405B1E08FB04524946FDF7E9FF3878032222
S31508006E506946FFF791F86846FFF7C4FD01A948554A
S31508006E606D1C4545E9DB012E434601AA14BFE1B274
S31508006E707F21504604F0A2FD641CB442B8BF002529
S31508006E80EFDB61E0202558000D0A00002DE9F047E8
S31508006E900646C2B0B0689A49076840680A688DF81D
S31508006EA00400B8B29DF80430D45C04F07DFF0546B2
S31508006EB0B8B204F0A9FD8246B8B205F05EF881467C
S31508006EC028008E4F0FF2880804D100F0BDF800BFE5
S31508006ED020A136E04FF6FF718A4503D100F0B4F8D9
S31508006EE025A12EE0EA2D05DD00F0AEF85FF0EA02F6
S31508006EF02BA106E0AC4208D000F0A6F84FEA05023E
S31508006F003AA13878FDF78BFF1EE0002000902B464B
S31508006F109DF80410002202A8FEF787F80024E0B2C4
S31508006F2048450BDAB9F1010F2B4602AA14BFE1B2A4
S31508006F307F21504604F042FD641CF0E700F084F817
S31508006F403DA13878FDF76BFF42B0BDE8F087000039
S31508006F507B264E007B72657475726E3A317D7B7442
S31508006F606F6B656E2073697A65206973207A65721E
S31508006F706F7D7D0D0A0000007B72657475726E3A2E
S31508006F80317D7B696E76616C696420746F6B656EA2
S31508006F9020616464726573737D7D0D0A00000000CC
S31508006FA07B72657475726E3A317D7B6F6E6C792073
S31508006FB0746F6B656E73206F662073697A652075CA
S31508006FC07020746F20256442206172652073757085
S31508006FD0706F7274656420627920746869732063BF
S31508006FE06F6D6D616E647D7D0D0A00007B72657440
S31508006FF075726E3A317D7B74686520656E7465724C
S3150800700065642062756666657220646F6573206EB6
S315080070106F74206D61746368207468697320746F77
S315080070206B656E27732073697A6520282564422963
S315080070307D7D0D0A000000007B72657475726E3ADC
S31508007040307D7D0D0A00000006F111014046FEF76D
S315080070504DBC00002DE9F847C1B080680468466851
S31508007060DFF8485EFFF792FCA0B204F09DFE80466A
S31508007070A0B204F0C9FC8246A0B204F07EFF044622
S31508007080B8F1000F28781CBF4FF6FF72924503D15E
S315080070901CA1FDF7C4FE30E0671E14B1F1B28F42A1
S315080070A00ADA00BF1AA1FDF7BAFE287826A13B46E0
S315080070B00022FDF7B4FE20E000270FF2B00911E028
S315080070C02878A8F101033A464946FDF7A8FE28782C
S315080070D003226946FEF750FF6846FFF783FC01A9BD
S315080070E0C8557F1C4745EBDB012C08BF7F26434666
S315080070F001AAF1B2504604F061FC25E7806B002036
S31508007100B86C00206E6F7420666F756E640D0A0089
S315080071104552524F523A2044657369726564206934
S315080071206E646578206973206F7574206F662072A7
S31508007130616E676520666F72207468697320746F64
S315080071406B656E0D0A0000002020202020202056A6
S31508007150616C69642072616E6765206973202558C1
S3150800716020746872752025580D0A000064617461E0
S3150800717020627974655B2564206F662025645D3A14
S31508007180000000002DE9F043A5B0DFF8205DDFF828
S31508007190209DFFF7FBFB28784CF24432FFF75FFD92
S315080071A02878DFF8101DFEF70DFFDFF80C0D0188B3
S315080071B0182300F0A5FF0024D9A700F0A5FF641C3A
S315080071C0E0B21828F9D30FF25C3800F0A4FF28784B
S315080071D04FF26402FFF743FD2878DFF8E01CFEF75C
S315080071E0F1FEDFF8DC0C0188062300F089FF002495
S315080071F000F08AFF641CE0B20628F9D300F08BFF82
S3150800720028784FF26442FFF72AFD2878DFF8B41C85
S31508007210FEF7D8FEDFF8B00C0188062300F070FFF1
S31508007220002400F071FF641CE0B20628F9D300F0D0
S3150800723072FF28784EF24552FFF711FD2878DFF8DD
S315080072408C1CFEF7BFFEDFF8880C0188082300F0C7
S3150800725057FF002400F058FF00F044FFFAD300F06F
S315080072605AFF28784FF26E42FFF7F9FC2878DFF8C4
S31508007270641CFEF7A7FEDFF8600C0188142300F0F3
S315080072803FFF002400F040FF641CE0B21428F9D345
S3150800729000F041FF28784FF24242FFF7E0FC2878D9
S315080072A0DFF8381CFEF78EFEDFF8340C018814234D
S315080072B000F026FF002400F027FF641CE0B2142823
S315080072C0F9D300F028FF28784FF26242FFF7C7FC8F
S315080072D028780FF63841FEF775FEDFF8080C0188A6
S315080072E00A2300F00DFF002400F00EFF641CE0B234
S315080072F00A28F9D300F00FFF28784FF27422FFF717
S31508007300AEFC28780FF61C41FEF75CFE0124DFF878
S31508007310D80B00F0F3FE9DF8002000F0F8FE9DF86B
S31508007320012000F0F4FE641EF1D100F0F4FE287886
S315080073304FF27622FFF793FC28780FF6F831FEF71E
S3150800734041FE0124DFF8A40B00F0D8FE9DF80020CA
S3150800735000F0DDFE9DF8012000F0D9FE641EF1D193
S3150800736000F0D9FE28784FF27662FFF778FC287885
S315080073700FF6D431FEF726FE0124DFF8740B00F071
S31508007380BDFE9DF8002000F0C2FE9DF8012000F029
S31508007390BEFE641EF1D100F0BEFE28784FF26342AD
S315080073A0FFF75DFC28780FF6B431FEF70BFE0124D3
S315080073B0DFF8400B00F0A2FE9DF8002000F0A7FEC3
S315080073C09DF8012000F0A3FE641EF1D100F0A3FE93
S315080073D028784FF27442FFF742FC28780FF68C3172
S315080073E0FEF7F0FD0124DFF8100B00F087FE9DF88C
S315080073F0002000F08CFE9DF8012000F088FE641E37
S31508007400F1D100F088FE28784FF60972FFF727FCBD
S3150800741028780FF66831FEF7D5FD0124DFF8DC0A77
S3150800742000F06CFE9DF8002000F071FE9DF801202A
S3150800743000F06DFE641EF1D100F06DFE28784EF264
S315080074406362FFF70CFC28780FF64031FEF7BAFDA9
S315080074500124DFF8AC0A00F051FE9DF8002000F088
S3150800746056FE9DF8012000F052FE641EF1D100F090
S3150800747052FE28784EF26F62FFF7F1FB28780FF676
S315080074802031FEF79FFDDFF87C0A0188082300F00B
S3150800749037FE00F039FE00F025FEFAD300F03BFE79
S315080074A028784EF26F32FFF7DAFB28780FF6FC21C0
S315080074B0FEF788FDDFF8500A0188102300F020FE49
S315080074C0002400F021FE00F011FEFAD300F023FE9E
S315080074D028784CF25632FFF7C2FB28780FF6D821E7
S315080074E0FEF770FD0124DFF8380C00F007FE9DF862
S315080074F0002000F00CFE9DF8012000F008FE641E36
S31508007500F1D100F008FE28784EF24532FFF7A7FBC6
S3150800751028780FF6B821FEF755FDDFF8080C03E0CA
S31508007520202558000D0A00000188082300F0E8FD10
S3150800753000F0EAFD00F0D6FDFAD300F0ECFD28785D
S315080075404EF67352FFF78BFB28780FF69421FEF759
S3150800755039FDDFF8D40B0188102300F0D1FD002493
S3150800756000F0D2FD00F0C2FDFAD300F0D4FD287871
S315080075704CF24E22FFF773FB28780FF67021FEF7C0
S3150800758021FDDFF8A80B0188102300F0B9FD0024BF
S3150800759000F0BAFD00F0AAFDFAD300F0BCFD287889
S315080075A04CF64412FFF75BFB28780FF65021FEF7DE
S315080075B009FD0124DFF8780B00F0A0FD9DF80020F6
S315080075C000F0A5FD9DF8012000F0A1FD641EF1D193
S315080075D000F0A1FD28784DF24302FFF740FB28781A
S315080075E00FF62821FEF7EEFC0124DFF8480B00F021
S315080075F085FD9DF8002000F08AFD9DF8012000F029
S3150800760086FD641EF1D100F086FD28784CF24B22E7
S31508007610FFF725FB28780FF60421FEF7D3FCDFF8E1
S31508007620180B0188102300F06BFD00F06DFD00F0CB
S315080076305DFDFAD300F06FFD28784CF65352FFF73C
S315080076400EFB28780FF6EC11FEF7BCFCDFF8EC0A07
S315080076500188082300F054FD002400F055FD00F0D1
S3150800766041FDFAD300F057FD28784CF24312FFF794
S31508007670F6FA28780FF6D011FEF7A4FC0024DFF8F6
S31508007680C00A01880223E2B200F035FD9DF8002009
S3150800769000F03DFD9DF8012000F039FD641C60B244
S315080076A01428ECDB00F037FD28784CF24232FFF75D
S315080076B0D6FA28780FF6A011FEF784FCDFF8840ABC
S315080076C001885C2300F01CFD002400F01DFD641CED
S315080076D0E0B25C28F9D300F01EFD28784CF6431278
S315080076E0FFF7BDFA28780FF68011FEF76BFCDFF876
S315080076F0580A0188142300F003FD002400F004FD55
S31508007700641CE0B21428F9D300F005FD28784BF282
S315080077105422FFF7A4FA28780FF66411FEF752FCF4
S315080077200124DFF8280A00F0E9FC9DF8002000F0A3
S31508007730EEFC9DF8012000F0EAFC641EF1D100F091
S31508007740EAFC28784DF24632FFF789FA28780FF6D0
S315080077504811FEF737FC0124DFF8F40900F0CEFCE7
S315080077609DF8002000F0D3FC9DF8012000F0CFFC26
S31508007770641EF1D100F0CFFC28784BF25322FFF7B4
S315080077806EFA28780FF62811FEF71CFC0124DFF89C
S31508007790C40900F0B3FC9DF8002000F0B8FC9DF881
S315080077A0012000F0B4FC641EF1D100F0B4FC287886
S315080077B04DF24332FFF753FA28780FF60C11FEF70D
S315080077C001FC0124DFF8900900F098FC9DF80020E0
S315080077D000F09DFC9DF8012000F099FC641EF1D193
S315080077E000F099FC28784CF24332FFF738FA2878EB
S315080077F00FF68411FEF7E6FB0124DFF8600900F0B6
S315080078007DFC9DF8002000F082FC9DF8012000F028
S315080078107EFC641EF1D100F07EFC28784DF24232DF
S31508007820FFF71DFA28780FF66411FEF7CBFBDFF891
S3150800783030090188102300F063FC00F065FC00F0B5
S3150800784055FCFAD300F067FC28784CF25452FFF73F
S3150800785006FA28780FF65011FEF7B4FBDFF804098C
S315080078600188062300F04CFC002400F04DFC641C43
S31508007870E0B20628F9D300F04EFC28784CF24532DF
S31508007880FFF7EDF928780FF63811FEF79BFBDFF8BE
S31508007890D8080188942300F033FC002400F034FC57
S315080078A0641CE0B29428F9D300F035FC28784DF62C
S315080078B05402FFF7D4F928780FF61811FEF782FB61
S315080078C00124DFF8A80800F019FC9DF8002000F054
S315080078D01EFC9DF8012000F01AFC641EF1D100F090
S315080078E01AFC28784CF64B22FFF7B9F928780FF6D8
S315080078F0F001FEF767FBDFF878080188222300F01D
S31508007900FFFB00F001FC641CE0B22228F9D300F06A
S3150800791002FC28784BF23462FFF7A1F928780FF6B3
S31508007920D401FEF74FFBDFF84C080188082300F066
S31508007930E7FB002400F0E8FB00F0D4FBFAD300F0E4
S31508007940EAFB28784FF60172FFF789F928780FF6CF
S31508007950B001FEF737FB012402237F22002100F045
S31508007960CAFB9DF8002000F0D2FB9DF8012000F02C
S31508007970CEFB641EF0D100F0CEFB28784EF223121F
S31508007980FFF76DF928780FF69001FEF71BFB042325
S315080079907F22012100F0AFFB00F0B6FB00F09EFB52
S315080079A0FAD300F0B8FB28784EF27542FFF757F97C
S315080079B028780FF67C01FEF705FB11237F220221AA
S315080079C000F099FB002400F09FFB00F08FFBFAD92A
S315080079D000F0A1FB28784EF26322FFF740F92878D9
S315080079E00FF66001FEF7EEFA04237F22032100F06A
S315080079F082FB002400F088FB00F070FBFAD300F04D
S31508007A008AFB28784EF26352FFF729F928780FF691
S31508007A104801FEF7D7FA04237F22042100F06BFB06
S31508007A20002400F071FB00F059FBFAD300F073FB59
S31508007A3028784EF26212FFF712F928780FF62C0111
S31508007A40FEF7C0FA012402237F22052100F053FB2A
S31508007A509DF8002000F05BFB9DF8012000F057FB25
S31508007A60641EF0D100F057FB28784EF67932FFF7FE
S31508007A70F6F828780FF60C01FEF7A4FA11237F22F0
S31508007A80062100F038FB00F03FFB00F02FFBFAD987
S31508007A9000F041FB28784EF66462FFF7E0F8287894
S31508007AA00FF2EC71FEF78EFA10237F22072100F001
S31508007AB022FB002400F028FB00F018FBFAD300F0A4
S31508007AC02AFB28784EF22412FFF7C9F828780FF215
S31508007AD0D071FEF777FA1A237F22082100F00BFBF4
S31508007AE0002400F011FB641CE0B21A28F9D300F058
S31508007AF012FB28784EF22512FFF7B1F828780FF214
S31508007B00B471FEF75FFA08237F22092100F0F3FA21
S31508007B10002400F0F9FA00F0E5FAFAD300F0FBFACF
S31508007B2028784EF22612FFF79AF828780FF2A071F5
S31508007B30FEF748FA0A237F220A2100F0DCFA00241D
S31508007B4000F0E2FA641CE0B20A28F9D300F0E3FA7E
S31508007B5028784EF22712FFF782F828780FF28471F8
S31508007B60FEF730FA012402237F220B2100F0C3FA24
S31508007B709DF8002000F0CBFA9DF8012000F0C7FA26
S31508007B80641EF0D100F0C7FA28784EF22812FFF7E3
S31508007B9066F828780FF26C71FEF714FA18237F221C
S31508007BA00C2100F0A8FA00F0AFFA641CE0B218281D
S31508007BB0F9D300F0B0FA28784EF22912FFF74FF8F9
S31508007BC028780FF25C71FEF7FDF901237F220D215B
S31508007BD000F091FA9DF8002000F099FA00F09BFA5F
S31508007BE028784DF24522FFF73AF828780FF24871BF
S31508007BF0FEF7E8F900240423E2B20E2100F07BFA2E
S31508007C000026F1B200F081FA761CF0B20428F8D307
S31508007C10641C61B21029EEDB00F07DFA28784EF27A
S31508007C201022FFF71CF828780FF21C71FEF7CAF924
S31508007C3000F071FA28784EF21122FFF710F828782A
S31508007C400FF22071FEF7BEF900F065FA28784EF2B9
S31508007C501222FFF704F828780FF22871FEF7B2F916
S31508007C6000F059FA28784EF21322FEF7F8FF287822
S31508007C700FF23471FEF7A6F900F04DFA28784EF2A5
S31508007C801422FEF7ECFF28780FF24071FEF79AF9F6
S31508007C9000F041FA28784EF21522FEF7E0FF287820
S31508007CA00FF25071FEF78EF900F035FA28784EF289
S31508007CB02022FEF7D4FF28780FF25871FEF782F9D2
S31508007CC004237F22152100F016FA002400F01CFA7E
S31508007CD000F004FAFAD300F01EFA28784EF22122B0
S31508007CE0FEF7BDFF28780FF25071FEF76BF900F02A
S31508007CF012FA28784EF27422FEF7B1FF28780FF2AE
S31508007D006471FEF75FF900F006FA28784FF60D72EF
S31508007D10FEF7A5FF28780FF26071FEF753F90024E5
S31508007D200B23E2B2182100F0E6F90026F1B200F0C2
S31508007D30ECF9761CF0B20A28F8D9641C61B2062957
S31508007D40EEDB00F0E8F928784EF25642FEF787FF98
S31508007D5028780FF23871FEF735F900F0DCF9287843
S31508007D604FF46542FEF77BFF28780FF23071FEF775
S31508007D7029F900F0D0F928784EF20352FEF76FFF82
S31508007D8028780FF23071FEF71DF900240123E2B2BC
S31508007D901B2100F0B0F99DF8002000F0B8F9641C2A
S31508007DA060B20628F2DB00F0B6F928784EF20152E6
S31508007DB0FEF755FF28780FF21871FEF703F910231E
S31508007DC07F221C2100F097F9002400F09DF900F0AD
S31508007DD08DF9FAD300F09FF928784EF20252FEF791
S31508007DE03EFF28780FF2F861FEF7ECF828237F2289
S31508007DF01D2100F080F9002400F086F9641CE0B229
S31508007E002828F9D300F087F928784EF25822FEF789
S31508007E1026FF28780FF2DC61FEF7D4F812237F22BA
S31508007E201E2100F068F9002400F06EF9641CE0B227
S31508007E301128F9D900F06FF928784EF25922FEF781
S31508007E400EFF28780FF2BC61FEF7BCF80024342335
S31508007E50E2B21F2100F04FF90026F1B200F055F901
S31508007E60761CF0B23428F8D3641C61B20529EEDB1F
S31508007E7000F051F928784EF25A22FEF7F0FE2878DB
S31508007E800FF29861FEF79EF800F045F928784EF251
S31508007E905B22FEF7E4FE28780FF29461FEF792F86B
S31508007EA000F039F925B0BDE8F0830000806B0020AA
S31508007EB0F46A0108FC6A0108247701080C6B0108BA
S31508007EC0267701081C6B0108287701082C6B010826
S31508007ED02A770108406B01082C770108586B0108BE
S31508007EE02E770108307701083277010834770108C0
S31508007EF036770108387701083A7701083C77010890
S31508007F003E77010840770108427701084D46475FEA
S31508007F10414E414C4F475F5452494D5F424F54487A
S31508007F20000000004D46475F5245475F5452494D91
S31508007F30000000004D46475F3156385F5245475F9F
S31508007F40564F4C54414745004D46475F56524546A5
S31508007F505F564F4C54414745000000004D46475F69
S31508007F6054454D505F43414C000000004D46475F65
S31508007F70544553545F54454D500000004D46475FE5
S31508007F804649425F56455253494F4E004D46475F54
S31508007F904649425F434845434B53554D0000000050
S31508007FA04D46475F4649425F4F4253004D46475F3D
S31508007FB04349425F4F4253004D46475F435553542A
S31508007FC04F4D5F56455253494F4E00004D46475F49
S31508007FD0435553544F4D5F4555495F3634000000AD
S31508007FE04D46475F535452494E4700004D46475F3A
S31508007FF0424F4152445F4E414D4500004D46475F52
S315080080004D414E55465F4944000000004D46475FC6
S315080080105048595F434F4E46494700004D46475F13
S31508008020424F4F544C4F41445F4145535F4B45596E
S31508008030000000004D46475F455A53505F53544F62
S3150800804052414745000000004D46475F4153485F8F
S31508008050434F4E46494700004D46475F43424B450E
S315080080605F444154410000004D46475F494E535412
S31508008070414C4C4154494F4E5F434F444500000024
S315080080804D46475F4F534332344D5F424941535F34
S315080080905452494D000000004D46475F53594E540F
S315080080A0485F465245515F4F4646534554000000C7
S315080080B04D46475F4F534332344D5F534554544CF6
S315080080C0455F44454C4159004D46475F5345435526
S315080080D0524954595F434F4E46494700641CE0B223
S315080080E004287047641CE0B208287047641CE0B294
S315080080F0102870474146684603F04CBC01880223A5
S315080081007F22684603F046BCE1B21DF801202878B4
S315080081103946FCF784BE28784146FCF780BE000045
S315080081204477010846770108487701084A77010825
S315080081304C7701084E7701085077010852770108F5
S315080081405477010856770108587701085A770108C5
S315080081505C7701085E770108607701086277010895
S315080081606477010866770108687701086A77010865
S315080081706C7701086E7701084D46475F4343415FB8
S315080081805448524553484F4C440000004D46475FFB
S315080081905345435552455F424F4F544C4F41444512
S315080081A0525F4B45590000004D46475F45544845C8
S315080081B0524E45545F414444524553530000000013
S315080081C04D46475F43424B455F3238334B315F4438
S315080081D0415441004D46475F584F5F54554E450040
S315080081E04D46475F5448524541445F4A4F494E5FA2
S315080081F04B4559004D46475F4555495F36340000A3
S31508008200535441434B5F4E56444154415F56455281
S3150800821053494F4E00000000535441434B5F4150B1
S31508008220535F4652414D455F434F554E54455200A4
S31508008230535441434B5F414C5445524E4154455F5C
S315080082404B455900535441434B5F424F4F545F438C
S315080082504F554E5445520000535441434B5F4E4FC1
S315080082604E43455F434F554E544552005354414380
S315080082704B5F414E414C595349535F5245424F4F0C
S3150800828054000000535441434B5F4B45595300007B
S31508008290535441434B5F4E4F44455F44415441005C
S315080082A0535441434B5F54525553545F43454E54C0
S315080082B045520000535441434B5F4E4554574F5265
S315080082C04B5F4D414E4147454D454E540000000019
S315080082D0535441434B5F504152454E545F494E46B5
S315080082E04F000000535441434B5F504152454E5492
S315080082F05F4144444954494F4E414C5F494E464FAD
S3150800830000000000535441434B5F4D554C54495FA0
S315080083105048595F4E574B5F494E464F0000000084
S31508008320535441434B5F4D494E5F52454345495669
S3150800833045445F5253534900535441434B5F4341AD
S315080083404C5F4441544100004D554C54495F4E45DD
S3150800835054574F524B5F535441434B5F4B45595308
S31508008360000000004D554C54495F4E4554574F5236
S315080083704B5F535441434B5F4E4F44455F44415412
S31508008380410000004D554C54495F4E4554574F52D5
S315080083904B5F535441434B5F414C5445524E4154F5
S315080083A0455F4B45590000004D554C54495F4E45B5
S315080083B054574F524B5F535441434B5F5452555396
S315080083C0545F43454E544552000000004D554C54E9
S315080083D0495F4E4554574F524B5F535441434B5F89
S315080083E04E4554574F524B5F4D414E4147454D45BB
S315080083F04E5400004D554C54495F4E4554574F5204
S315080084004B5F535441434B5F504152454E545F496D
S315080084104E464F004D554C54495F4E4554574F52A2
S315080084204B5F535441434B5F4E4F4E43455F434F5B
S31508008430554E5445520000004D554C54495F4E4523
S3150800844054574F524B5F535441434B5F504152452B
S315080084504E545F4144444954494F4E414C5F494E3E
S31508008460464F0000535441434B5F42494E44494EE0
S31508008470475F5441424C4500535441434B5F434880
S31508008480494C445F5441424C450000005354414313
S315080084904B5F4B45595F5441424C45005354414349
S315080084A04B5F43455254494649434154455F5441FD
S315080084B0424C4500535441434B5F41444449544957
S315080084C04F4E414C5F4348494C445F444154410038
S315080084D0535441434B5F5A4C4C5F4441544100004E
S315080084E0535441434B5F5A4C4C5F5345435552498D
S315080084F054590000535441434B5F47505F4441541D
S3150800850041000000535441434B5F47505F50524F60
S3150800851058595F5441424C450000000053544143AA
S315080085204B5F47505F53494E4B5F5441424C4500A1
S31508008530535441434B5F47505F494E434F4D494E55
S31508008540475F46430000000010B50446002004F0CB
S3150800855045F9002004F059F901F07CFC012004F0EB
S3150800856016F804F003F810F0060018BF012004F00E
S31508008570BBFA204604F0F6FE2046BDE8104000F09F
S31508008580EBBE80B5022100F0DFF8009805F03CF854
S3150800859001BD8068DFF81C1402680A700878022892
S315080085A0A8BF0FF2484305DA002814BF0FF2484364
S315080085B00FF24C43DFF800140FF22042D1F8901363
S315080085C0FFE70FF20C40FDF791B980B504F0CFF83C
S315080085D0DFF8E8130FF2704251F82030DFF8D803BD
S315080085E0D0F8D0130FF24440FDF780F9BDE80240F9
S315080085F076E038B50446DFF8C023A0680568D2F8E7
S31508008600E0130FF25040FDF771F9EDB215B1012DE7
S3150800861007D00CE00FF24440FDF768F904F049F87A
S3150800862005E00FF24C40FDF761F904F06FF80FF220
S315080086305040FDF75BF92046BDE83240C5E770B506
S3150800864004460D46284605F0EEF906462B460FF277
S31508008650AC420FF2904004F11101FDF747F9AE4222
S315080086600FF2504405D032460FF2A0412046FDF7DE
S315080086703DF9284605F0DDF910F1010F0FF2084320
S315080086800FF20C4102D10FF2104202E018B90FF2B4
S31508008690104218460BE0DFF82823DFF82413B0FB56
S315080086A0F2F201FB120129B90FF210412046FDF73B
S315080086B01DF913E0DFF80C2313784FF47A74B0FB36
S315080086C0F4F2214601FB120100290EBF0FF2F43124
S315080086D002460FF200411846FCF7A1FBBDE87040C0
S315080086E08AA0FDF703B910B5044605F0E4F901467A
S315080086F02046BDE81040A2E738B5054604F037F82D
S315080087000400DFF8B402D0F8B0130FF2084018BF1F
S315080087100124FDF7EBF803F0F9FFA8680068C0B27A
S3150800872005F0C1F902460FF2FC210FF21C40FDF7D5
S31508008730DDF80CB103F0BDFF05F0BDF9014628468A
S31508008740BDE834407BE70121684605F081BE38B5AF
S31508008750054604F00CF8040018BF012403F0D6FF00
S31508008760502001F024FF04F0F1F8034685A205F134
S3150800877011010FF2DC30FDF7B9F81CB1BDE8314044
S3150800878003F097BF31BD2DE9F84F84B007460C4674
S3150800879015461E4603F0EBFF010018BF01218DF8B0
S315080087A0021003F0F5FF002D8DF8010013D1012505
S315080087B0002003F0F0FF642001F0F9FE05F07BF9D4
S315080087C08DF800000397029644B99DF800600124CD
S315080087D0B440002006E0EBD56D42E9E7002624F018
S315080087E000440120019013E0039800F1110133467B
S315080087F04A460FF29430FDF779F804E0FDF776F86B
S3150800880042A0FDF773F80120B040241A761CF6B290
S31508008810002C65D024FA06F0C007F7D505F04BF909
S3150800882086420FF2E02904D0304605F03CF90028CC
S31508008830DAD14FF07F0A6FF07F080027AB460DE0CC
S31508008840802001F0B4FE03F0BCFFC7198045B8BF0D
S3150800885080465045B8BF8246ABF1010BBBF1000F0D
S31508008860EEDC9DF8400097FBF5F758B1504603F04B
S3150800887049FC824678B203F045FC0746404603F0B9
S3150800888041FC8046039800F1110148A0FDF72EF837
S31508008890019828B1324649460FF2C020FDF726F85E
S315080088A002980FF2C02920B1014652464846FDF704
S315080088B01DF80E9820B101463AB24846FDF716F85B
S315080088C00F9820B1014642464846FDF70FF89DF835
S315080088D04000002814BF0FF294200FF2A4208DE761
S315080088E09DF80000864218BF05F0DDF89DF80100E6
S315080088F003F051FF9DF8020020B105B0BDE8F04F26
S3150800890003F0D7BE05B0BDE8F08F00007D0D0A0064
S31508008910E0B5002102910191009101220FF288230E
S3150800892008E0E0B50121002202910192009220A3FD
S3150800893001220021FFF727FF07BD3EB58368847B28
S315080089401A680FF274250021022CA8BF5968002363
S31508008950029300950FF268240FF254230194FFF74F
S3150800896012FF37BD80B504F042F80346DFF8480029
S315080089700FF26422D0F8301493A0BDE80050FCF73B
S31508008980B5BF00004343410010B50B4AD2F8401466
S315080089904FEA000494A0FCF7A9FFA068016848B252
S315080089A003F0FFFF2046BDE81040DBE77B264E00BC
S315080089B045440000576D002084640108B86B002008
S315080089C040420F00806B002081680968C9B236E60C
S315080089D07B264E202674737D0D0A000050455220D2
S315080089E054657374204D6F6465000000656E61629E
S315080089F06C65642D6E657700656E61626C656400F2
S31508008A0064697361626C65640000000061736C657B
S31508008A10657000006177616B65000000656E6572C0
S31508008A206779000073746174757300007B264E20A5
S31508008A30526164696F20706F776572207374617410
S31508008A406520267473000000706F77657220737452
S31508008A50617465007B264E2000000000536C656536
S31508008A6070696E6720726164696F2E2E2E00000091
S31508008A7057616B696E6720726164696F2E2E2E00CE
S31508008A80646F6E657D0D0A00202674700000000074
S31508008A906672657100000000696C6C6567616C0040
S31508008AA050657252616D526164696F436F6E666993
S31508008AB06700000020267475000000006672657164
S31508008AC04D487A00207B667265714B487A3A256C68
S31508008AD07D000000207B66726571487A3A256C7DB8
S31508008AE0000000007B264E20526164696F2063688F
S31508008AF0616E6E656C202674680000006368616E9E
S31508008B006E656C006368616E00000000507469430E
S31508008B1068616E007B264E2053657474696E672003
S31508008B206368616E6E656C20616E642063616C6952
S31508008B3062726174696E6720286173206E65656468
S31508008B406564292E2E2E00002674687D0D0A000005
S31508008B507B264E202674647D0D0A00002026746844
S31508008B60000000002026746400000000205B3830F6
S31508008B70322E31352E3420756E6974735D0000000F
S31508008B80205B64426D5D00007B264E2026746820BB
S31508008B905B696E76616C6964206368616E6E656C8C
S31508008BA05D7D0D0A00000000525353490000000085
S31508008BB06D696E52535349006176675253534900A3
S31508008BC06D617852535349007B264E2026746420E3
S31508008BD064426D7D0D0A0000434341205468726566
S31508008BE073686F6C640000007B264E7D0D0A0000DA
S31508008BF080B5002003F04CFFBDE8014004F028BC16
S31508008C0010B5DFF81441DFF81431607D18710122C0
S31508008C10E0694FF4806105F0C8FC01001CBF012122
S31508008C20217510BDDFF8F010C861887DDFF8EC10FB
S31508008C304871E5E770B58EB00C460CA805F0ACFC9B
S31508008C40054605F0DBFC064605F0A4FCBDF8361023
S31508008C500FF24C02BDF830300B910A92059303953A
S31508008C600346BDF834100FF240020FF244050FF226
S31508008C7048000991089201960095BDF832100FF246
S31508008C808002079106920FF280010FF28402049186
S31508008C9002922146DFF88820FCF728FE0EB070BD48
S31508008CA07375737000000000637269740000000039
S31508008CB0616363656C0000007B264E202674752070
S31508008CC026743268202674642F31303025250D0A23
S31508008CD020202674642F3130302525202674642FF1
S31508008CE03130302525202674642F31303025252053
S31508008CF02674642F31303025257D0D0A00000000CA
S31508008D006C696D690000000074616C6B00000000FE
S31508008D107573656400000000C86B0020F0740020BD
S31508008D202C8D000838786946FDF764B86D6F646560
S31508008D30000000002DE9F04706468846924605F0F1
S31508008D4052FCDFF8A074F8700409387818BF641E5E
S31508008D5028B1386B07EB8000416A491C41628C2EAA
S31508008D60BE70DFF898550FF2401941D003F002FDA6
S31508008D7056B1402E20D0892E42D08C2E38D08D2E3A
S31508008D8034D08F2E0CD03EE03869396A401C3861E1
S31508008D9064183C62287D00283FD040F23A5139E0F9
S31508008DA0B869396A401CB86164183C62287D002895
S31508008DB033D040F23F512DE0F869396A401CF8611A
S31508008DC0641838783C6260B105F01AFC032806D1AD
S31508008DD0786B401C7863386B80F00100386305F0C7
S31508008DE011FC287DC8B140F24B5113E005F0FAFB9F
S31508008DF07869401C7861287D78B140F2525109E0C3
S31508008E0040F2565106E032462DA10120FDF77EF9C3
S31508008E1040F263514846FDF7C1F9402E87F801A094
S31508008E20C7F83C8019D13879012811DD411E3889E7
S31508008E303971401C3881C9B22A2005F0E7FBE86978
S31508008E4000224FF4806105F0B0FB064628B929E0F8
S31508008E5000212A2005F0DAFB03E0002E18BF8F2E2A
S31508008E601ED0787901281BDD401E79897871491C46
S31508008E707981DFF82805017801290ADDE969DFF833
S31508008E802005814205D10278082A02DDC178491CED
S31508008E90C170688B01F08BFBBDE8F047FFF7B0BEE9
S31508008EA001202875BDE8F0877068792D636F6D6DB0
S31508008EB06F6E2D74782D746573742E630000000030
S31508008EC0656D626572526164696F5472616E736D25
S31508008ED06974436F6D706C65746549737243616C30
S31508008EE06C6261636B207374617475733A203078B1
S31508008EF02578000080B504F0E1FD0346DFF8A804F4
S31508008F000FF21002D0F8F01405A0BDE80050FCF7E7
S31508008F10EDBC000061637475616C506F7765720013
S31508008F207B264E2026746464426D7D003EB5044659
S31508008F30A1680D6868B204F0C5FDCDF804006BB2EF
S31508008F400FF29441DFF8600406A20091D0F80015EC
S31508008F5008A0FCF7CBFC16A0FCF7C8FC2046BDE829
S31508008F603E40C7E7726571756573746564506F77BF
S31508008F70657200007B264E2026746464426D2026A6
S31508008F8074647D00E0B5DFF810140FF280420B8B95
S31508008F900092019300F111010FF258420FF240407E
S31508008FA038E18168DFF8F0330A681A83EAE70000D7
S31508008FB00D0A00002DE9F14F84B081680A880192F4
S31508008FC0511E8941C90F02914FF0010A03F0CFFBE8
S31508008FD000B101208DF801004FF0000B814DDFF83C
S31508008FE01C636869804FADF80200D84601980128CD
S31508008FF011D000F006F93878029921B10FF22C4108
S31508009000FBF70DFF03E0019A75A1FBF708FF00F0D7
S31508009010F2F800F0EBF8DFF88843DFF89093802247
S3150800902049462046FCF782FCDFF8700301780129DF
S31508009030C4BF2078082819DD99F8011001F020012D
S3150800904041F0C1016170D0461821A170211802981B
S3150800905018B101F805BC002004E0019801F8050CD8
S31508009060019800122178611801F8040CD94663E0CA
S3150800907000208DF8000069463878FCF7BBFE00F042
S31508009080C5F85FD09DF800103878642906D100F03D
S31508009090A1F8049800F11101002007E0442907D13E
S315080090A000F098F8049800F111010120FFF7C2FDBD
S315080090B009F10100DFF8F8121FFA80F9087820B1E3
S315080090C005F0F8F908B105F0A3FA308B01F06FFA4C
S315080090D0DFF8C8120878A0B1B8F1000F18BF84F8F5
S315080090E003A0207803280CDD201800F803AC4FEA0B
S315080090F02A202178611801F8020C0AF101001FFAEA
S3150800910080FA002030750121A9702046FFF78AFDF4
S315080091108346B8B901F0A7FA8346307D50B9FFF700
S3150800912067FD01F0A0FAA0EB0B0080B240F2D17106
S315080091308842F2D395F802B00298002898D101988F
S31508009140814595DB38780FF208314A46FBF767FE0A
S31508009150707B40B1AA8ABDF802000FF21031121ACC
S315080091603878FBF75CFE38780FF224315A46FBF75D
S3150800917056FEDFF840020FF2343102883878FBF7E2
S315080091804EFE38780FF24431FBF749FE6978387895
S31508009190002914BF0FF250310FF25431FBF73FFE8E
S315080091A003F0EDFB28B1AA6B38780FF24C31FBF7C8
S315080091B036FEEA6B38780FF26C31FBF730FE642026
S315080091C001F0F5F99DF8010008B103F072FA05B04F
S315080091D0BDE8F08F4A460FF27821FBF720BE000063
S315080091E025750000F0740020806B002038780FF297
S315080091F0DC11FBF714BE328B38780FF23C21FBF7F3
S315080092000EBE38780FF21C21FBF709BE9DF8000048
S3150800921065287047FCF76AFB07BD38B500F035F8D6
S3150800922000F02CF818BF0124FBF7F9FD03F06EFADD
S3150800923003F03FFB02E02878FFF775FDFFF7E6FF2E
S31508009240F9D103F03EFB15E038B500F01EF800F042
S3150800925015F818BF0124FBF7E2FD03F057FA03F0EF
S315080092603AFB02E02878FFF75EFDFFF7CFFFF9D15A
S3150800927003F056FB0CB103F01CFA31BDDFF8385188
S315080092800FF2481104002878704700208DF8000076
S3150800929003F06DBA2DE9F041DFF81C410FF2B42155
S315080092A020780FF2C0250FF2B428DFF80071FBF71B
S315080092B0B6FD002615E0BA5D20784146FBF7AFFDFE
S315080092C0711006EB91729210B6EB820007D13978CD
S315080092D08E4204DA207832462946FBF7A0FD761C32
S315080092E0F6B23878401C8642E5DBBDE8F081806836
S315080092F0DFF8B8200168117070470000C86B0020BD
S315080093002DE9F84304460027A068DFF8AC50066844
S315080093100FF25C28DFF89490761CF6B2802E06DAF7
S31508009320A06800EB8701486809F8060005E0287878
S315080093307B1C721E4146FBF772FD7F1C042FEBDB7C
S31508009340BDE8F18319481421017001214A1E4254CF
S31508009350491C8029FAD3704710B51248174B184C88
S31508009360184A0021016141618161C1610162196088
S31508009370216001814181116010BD8068064A00782C
S31508009380010018BF0121517302280F490CBF0120A3
S315080093900020087070470000C86B0020576D002039
S315080093A0247E0020F074002084640108A47D002037
S315080093B0586D0020247D0020806B0020287D002029
S315080093C0307D0020907D00201F7D00202765276EB8
S315080093D0642E2E2E000000007374617475730000ED
S315080093E07B264E202674647573202674327875732E
S315080093F07D0000007472616E736D69742064656C1B
S315080094006179202864656329000000007472616E22
S31508009410736D69742064656C61792028686578299C
S31508009420000000005478696E67200000696E66695E
S315080094306E69746500000000207061636B65747363
S315080094402025752075732061706172742E200000C6
S315080094500D0A2575207061636B65747320747261DB
S315080094606E736D69747465642E0D0A002575206621
S3150800947061696C65642064756520746F2063686132
S315080094806E6E656C20627573792E0D0A00000000F9
S315080094904C617374207061636B65742073746174B6
S315080094A075733A2030782532780D0A004C6173744A
S315080094B0207061636B6574206261636B6F66663AE0
S315080094C02030782532780D0A000000004672616D5A
S315080094D0652070656E64696E6720696E206C6173BD
S315080094E0742041434B3A20005965732E0D0A00003B
S315080094F04E6F2E0D0A0000005346442074696D65B0
S315080095002028766961205346442073656E7420636B
S31508009510616C6C6261636B293A2030782532780D6C
S315080095200A0000005346442074696D652028766950
S315080095306120545820636F6D706C65746520636193
S315080095406C6C6261636B293A2030782532780D0A93
S3150800955000000000206C656E3A20000030782578FF
