S0290000626F6F746C6F616465722D73746F726167652D696E7465726E616C2D73696E676C652E73333745
S113000080100020612400008B040000C10D00005A
S11300100305000087050000BB0500000000000088
S1130020000000000000000058000000BF0A0000AB
S1130030F70F00008C0000006F2200004323000033
S11300404546523332000000010000000100000068
S11300500040080000A0070007B0CD5E01000000CA
S11300600200090188240000004000000000100084
S1130070F0000100550F0000590F0000E5100000CA
S11300800322000035220000CC00000013B779FAE7
S1130090C925DDB7ADF3CFE0F1B614B80101000016
S11300A00000000084240000400000000200090158
S11300B0000000000000000000000000000000003C
S11300C0000000000000000000000000000100002B
S11300D0CD13000023140000511400006F1400001D
S11300E0B5140000C1230000A7230000D72300009B
S11300F0D5140000FD1400005915000099090000F2
S1130100A3090000C1090000F7090000002070479E
S1130110002070470048704786E20F0000281CBF8B
S1130120242100F0AFB9704770B505000C4616469F
S113013018BF002C02D16FF0210070BD242100F003
S1130140A1F9802E1CBFC02EB6F5807F02D06FF0BF
S11301501F0070BD2E60F2082146281D00F096F99C
S1130160002070BD2DE9F8470600144691B00F46F3
S11301701D4618BF002C00D015B96FF0210055E0C2
S11301803068802818BFC02805D0B0F5807F18BF1C
S11301906FF01F004AD109A8202100F073F9012F44
S11301A00FF2602191E88C000CBFDFF84C02DFF8FD
S11301B04C020990684680E88C00301D009030683D
S11301C00FF24C2206A9C00840F00050029092E8B9
S11301D0884009A881E888400FF24021069491E8FC
S11301E0000703AC694684E80007039500F08AF928
S11301F006A909A800F086F903A909A800F08CF95A
S1130200316809A800F01EF8102109A800F08EF941
S113021000F0B5F950B909A800F092F900F009F816
S113022004F47024002C0CBF0020204612B0BDE85A
S1130230F087DFF8CC010168C902FCD5046900F03D
S1130240A0B911A8C90800F071B90000002A2DE96D
S1130250F64F99B014BF14680024002600280090BB
S11302604FF0000A1FBFDDF89480B8F1000FDDF8ED
S11302709890B9F1000F04D01D001CBF249F002FDB
S113028002D16FF0210099E00068019180281CBF21
S1130290C028B0F5807F04D06FF01F008EE000F01E
S11302A090F80198824580F08280002CF7D1A0EB71
S11302B00A005FEA101B5DD063A611A85AA1202290
S11302C000F0F4F896E80E0008A84FEA0B1B80E84B
S11302D00E000099081D089000990BA80A680EA941
S11302E0D20842F000520A925AA292E8484081E8A9
S11302F048400E955AA191E84C000DF1140E80E887
S11303004C000B9559A090E80E0008EB0A008EE80B
S11303100E0005904BF00051079100BF56A393E8DF
S1130320414002AA09EB0A0382E8414000F059F86F
S11303300EA900F059F805A900F056F800F04DF8A0
S11303400BA900F04BF800980168FFF77AFF5946B3
S113035011A800F0EBF800F012F900282ED111A832
S113036000F0EEF800F043F8066900F00AF9DA4408
S113037006F4702616B120E000F023F80198B0EBE3
S11303800A008ED0002CF7D100983B462A46012162
S1130390FFF7E8FE002041422944CA7B521CCA737D
S11303A0D2B2002AE8D1401C0F28F4D9E4E71A9805
S11303B000B104600EB9002000E030461BB0BDE877
S11303C0F08F18F80A10385D641C04F00F044140E3
S11303D009F80A100AF1010A704702A911A800F0ED
S11303E09BB80293049108A911A800F08BB80448A3
S11303F00168C902FCD57047000100040001010432
S11304004400004C00000000010000000000000057
S113041000000000010000001000002000000000A7
S1130420010000001000002003030004000000008D
S113043000000000000000000000000000000000B8
S113044000000000000000000000000001000000A7
S11304500000000000000000010000001000002067
S11304600000000001000000100000200000000057
S11304700100000000000000000000000100000076
S113048000000000002200F07FB8FEE762B38B0793
S113049008D0521E11F8013B00F8013B00F0248003
S11304A08B07F6D1830740F0208000BF103A07D3B2
S11304B030B4B1E83810103AA0E83810F9D230BCA2
S11304C0530724BFB1E80810A0E8081044BF51F84E
S11304D0043B40F8043BD20724BF31F8022B20F838
S11304E0022B44BF0B7803707047083A07D3B1E876
S11304F00810083A40F8043B40F804CBF7D25307FD
S1130500E4E7FEE7426812B94160704752685068F8
S11305100128FBD151607047826812B9816070472D
S1130520526850680128FBD151607047C269042A9F
S113053005D200EB8202D160C169491CC1617047D8
S113054010B5C169042909D910BD00EB8203DC6828
S1130550521C0C60C3699A42F7D310BD4FF0984106
S11305600A6CD302FAD5C269121D92000A650268A8
S11305700A6043680B6082680A600022EAE7002090
S1130580704700207047FEE700B500BF1300964691
S11305909446103928BFA0E80C50FAD85FEA417C91
S11305A028BF0CC048BF40F8042BC90728BF20F857
S11305B0022B48BF00F8012B00BDFEE72DE9F847E8
S11305C091B006460D4691461F461A9C0DF1240033
S11305D03BA12022FFF76AFF41A393E807000DF136
S11305E0180A03AB8AE80700CDF818903FA090E8FA
S11305F0004600BF40A2694683E80046039592E89E
S1130600280181E8280100971EB1022E33D021D39E
S113061036E00998A10140F40070099009A8FFF799
S113062085FF00F047F840F014000590029840F070
S11306301400029003A909A8FFF764FF06A909A8FA
S1130640FFF760FF694609A8FFF766FFFFF797FF0A
S1130650C0B126E00998A10140F44070099009A8AE
S1130660FFF764FF00F026F840F0200005900298A0
S113067040F02000DDE70998A10140F48060EDE737
S113068009480EE009A8FFF75BFF08480168C902A2
S1130690FCD50469FFF775FF14F4702F0CBF00201C
S11306A0034812B0BDE8F08780AFFFFF4400004C60
S11306B080ADFFFF089840EA8414089405987047B9
S11306C00000010300000000000000000000000022
S11306D00000000000000000000000000000000016
S11306E000000000010000000000002000000000E5
S11306F001000000000000200000000001000000D4
S1130700000000202DE9F84F834602281FD814006A
S113071055D00B9A9846D2F800C0BCF13F0F18D8B8
S11307205068002818BF5FEA080A13D1BBF1000F14
S113073004D0BBF1020F07D003D308E00FF2B01AC4
S113074008E00FF2CC1A05E00FF2E41A02E04B487D
S113075036E0C2460CF03F06A444C6F14005C2F898
S113076000C0A44502D25068401C506089460A9FCC
S11307708EB1AC420FD32A46B819FFF787FE012089
S1130780009043463A4651465846FFF717FFC24683
S1130790A944641B00263F2C0BD9A50900954346A8
S11307A04A4651465846FFF709FF09EB8519A4EB61
S11307B0851424B122464946B819FFF767FE002084
S11307C0BDE8F28F2DE9F843044686B08846164604
S11307D01F46200003D0022C30D02DD330E0142546
S11307E0002100200DF1080C57F8203042429200FD
S11307F0D21D01EBC3010CF8021002A9114457F8F1
S11308002020C91E52098A7057F82020520B4A70C2
S113081057F82020520D0A7057F82010401C490F39
S11308200128E1D93A7802F03F02382A34BFC2F1F4
S11308303802C2F1780205E01C25D1E72025CFE774
S11308400E4817E0DDF83890019700964FEA080348
S11308503FA12046FFF756FF019700964346082222
S113086002A92046FFF74EFF2A4641464846FFF7B5
S11308700DFE002007B0BDE8F083000080AFFFFF4D
S113088000281CBF6C21FFF7FDBD70470022002922
S113089002604260CCBF0121002180F86810002072
S11308A070473EB590F86830019000F12805002BA0
S11308B000F10803009514BF012402242046FFF729
S11308C021FF3EBD80B5034693F86800009103F113
S11308D02802002803F1080114BF0120022003E0CC
S11308E0D4E70000DDE7EDE7FFF76CFF02BD000091
S11308F067452301EFCDAB8998BADCFE10325476FC
S1130900C3D2E1F00000000000000000000000007D
S1130910C1059ED8367CD5073070DD17F70E5939DE
S1130920FFC00B316858151164F98FA7BEFA4FA4A4
S11309306A09E667BB67AE853C6EF372A54FF53A6C
S1130940510E527F9B05688C1F83D9AB5BE0CD1998
S11309508000000000000000000000000000000013
S11309600000000000000000000000000000000083
S11309700000000000000000000000000000000073
S11309800000000000000000000000000000000063
S11309902CA07047002070472748006800F0010031
S11309A0704710B50B461118244CA14205D20146DC
S11309B01846FFF76BFD002010BD40F2024010BD49
S11309C038B513181D4D40F20244AB420BD200233C
S11309D000E01B1D934208D21D5815F1010FF8D0F9
S11309E040F2034032BD204632BD00F04BF80028EF
S11309F0F9D0002032BD70B505460C46E00401D1A3
S1130A00E90402D040F2044070BD60190B4940F281
S1130A100246884203D300E008B9304670BD284638
S1130A2000F022F805F50055B4F50054F4D100287F
S1130A30F3D0002070BD00001C0003400100100032
S1130A400020704701020300280000002800000075
S1130A50002000000000100040000000040000001E
S1130A6000F072B800F078B810B50446FFF7F8FF4C
S1130A70204600F07CF80446FFF7F4FF601E804136
S1130A80C00F10BD70B50546144615F0030F0E4691
S1130A9008BF14F0030F01D0002070BD0CB9012071
S1130AA070BDFFF7DDFF22463146284600F07FF88F
S1130AB00446FFF7D7FF601E8041C00F70BDFEE7FC
S1130AC010B5524A524C534B1B68234207D1034082
S1130AD08B420DD0521EF6D16FF0020010BD4E486D
S1130AE0034202D06FF0010010BD4FF0FF3010BD83
S1130AF0002010BD70B5494D6860E8680E46410796
S1130B0002D54FF0FF3070BD56F8040B141F02E0FD
S1130B1056F8040B241FA86044B108210820FFF7ED
S1130B20CFFF0100F4D00421296070BD04202860A7
S1130B3000212120FFF7C4FF010004D1002121205E
S1130B40BDE87040BCE770BD41F6713034490860BF
S1130B500122344B1A60704710B5314841F67131A7
S1130B60016001222F4B1A600024046010BD70B58F
S1130B7041F67131294C01222B4BE568E1621A6080
S1130B80606002262660002121202D0CFFF798FFCB
S1130B9005F00105010003D100212120FFF790FF9A
S1130BA00121204A11600DB10021E16270BD2DE9DF
S1130BB0F843184F3D688946144641F67131804622
S1130BC02D0C39620122184B002005F001051A6032
S1130BD009E0324649464046FFF78CFF01000DD13B
S1130BE0B044B144A41B4CB108F50056760B76030F
S1130BF0A6EB0806B442ECD22646EAE70121094AEC
S1130C0011600DB100213962BDE8F283809698002D
S1130C10060001001C000340020001001000034014
S1130C203C0003400C2003400C10034005490968B4
S1130C308A0902F03F0201F03F0382704370090BFE
S1130C400170704714C007402DE9F04F5FEA0008B7
S1130C500E4697B017461D4618BF002E00D017B990
S1130C6040F201605DE0209C002D0FA833A116BF67
S1130C70002CDFF8B490DFF8B4902022FFF716FCC4
S1130C8049460FA8FFF752FC20210FA8FFF74EFC9E
S1130C9032A292E808500CA9002D81E808500C9566
S1130CA031A191E8010C0DF1240918BF002C89E849
S1130CB0010C099405D00CA900F03CF809A900F036
S1130CC039F800BF2BA191E81C0006A806A980E80A
S1130CD01C00CDF8188000F02DF800BF28A191E881
S1130CE01C0003A86D4680E81C00039627A696E81E
S1130CF0004303A90FA885E800430097FFF702FC0F
S1130D00694600F017F80FA8FFF71AFC08480168B5
S1130D10C902FCD5006910F4702F0CBF002040F20A
S1130D20046017B0BDE8F08F1F24FC841F240080EA
S1130D304400004C0FA8FFF7E5BB000000000106CB
S1130D40000000000000000000000000000000009F
S1130D50000000000000000000000000000000008F
S1130D60010000002000002000000000010000003D
S1130D7020000020000000000100000020000020EE
S1130D80000000000100000020000020000000001E
S1130D90010000002000002030B5084B01241C6035
S1130DA000255D60DA609C6002E010F8014BDC61B4
S1130DB00A46511E002AF8D1186A30BD0480084042
S1130DC04FF4017000F098B880B56846FFF72EFF25
S1130DD03E48816ACA0311D441686FF3162141F475
S1130DE0B81141F405414160016821F4704141F4B6
S1130DF040410160026842F4E06202609DF8010033
S1130E00012804BF9DF80000002807D14FF00051CD
S1130E1006200A6801F58041401EFAD100F09AF8D4
S1130E2000F065F800F09AF848B940F2012000F0AB
S1130E3063F84FF4017000F05FF8002002BD24490C
S1130E4001E00099491E009100990129F9DA40F264
S1130E5005429042EDD140F20320ECE71D4838B53D
S1130E600168012401254A060CD500F05FF840F220
S1130E700221401A04D0C01E02D0C01E012801D88D
S1130E800024002544F20400016811F1010F06D189
S1130E904FF40270BDE8324000F022B831BD2DB1EC
S1130EA04FF4804000F01EF90400F1D0002CF5D07E
S1130EB04FF480400849086002461046016881F3F7
S1130EC0088881F3098840688746FEE730C00040FF
S1130ED000350C009440004008ED00E0002070470D
S1130EE04FF0005108804FF20F00488070474CF2D9
S1130EF03C300B49088070474FF0005108804FF296
S1130F000F004880BFF34F8F06490A68064802F471
S1130F10E06202430A60BFF34F8F00BFFDE70000A9
S1130F20020000200CED00E00400FA054FF000512F
S1130F3048884FF20F02904201D108887047002878
S1130F4004BF0888012802D140F2022070474FF400
S1130F5000707047FFF71EBDFFF772BD10B5E0B01B
S1130F604FF4C0726946002000F0B4FA00216846CC
S1130F7000F0C4FA40F201218842F7D040F2032283
S1130F8040F20544904233D19DF8000000F0030084
S1130F9002282DD09DF8000041070BD50A9800F0D7
S1130FA04DF938B15C9800F03DFB18B100F0ACFB92
S1130FB000F074F99DF8000081070FD5282002681D
S1130FC0019993688B4209D25C9800F03FFB78B199
S1130FD000F09AFB099900F0F9F809E09DF8000087
S1130FE0C10705D503995C9800F052FB00B10024B9
S1130FF0204660B010BDFEE7F8B50446600B0D4610
S11310001646B4EB403004BF2046FFF72DFD04F52F
S113101000577F0B7F0304E03846FFF725FD07F5F3
S1131020005730198742F7D3324629462046BDE897
S1131030F840FFF727BD38B504460D4600F03AF8EE
S113104050B16069012802D1207C022801D300201C
S113105032BDA069286000E02C60012032BD38B5A3
S113106028231B681C69A04222BF5B691518AB4288
S113107002D3BDE83840BFE731BDF8B504460D469C
S1131080164600F041FB2718F0199949884210D2FE
S11310904CB900F039FB282109684A6990423CBFE9
S11310A00869FFF7E1FC324629463846BDE8F840B6
S11310B0A2E7F1BD7FB504464FEA0D0094A11022CA
S11310C0FFF7F4F9002046420DEB0605E97B225CAC
S11310D0914205D1401C1028F5D3012004B070BD05
S11310E00020FBE758B504462268824B606802F191
S11310F06042616B9A422CD2282213681A6990428A
S113110027D37B4B984224D240320E46914201D3DE
S1131110994205D3FFF7E2FE401E8041C00F52BD45
S1131120FFF7DCFEB8B93046FFF7C4FFB8B1307C36
S113113002280ED2706990B102280CD1B0694FF028
S1131140FF32001D011B2046FFF726FE6A49884234
S113115005D0002052BD2046BDE8524001E00120E8
S113116052BD30B504469DB0606B01A9FFF763FF23
S113117050B328210A6801981369984228BFA042F5
S113118003D301465A48814201D300201CE002A83F
S113119000F0BFFA01982146021B02A800F0C3FA2E
S11311A002A800F0C2FA019CFEF7B2FF0546FEF762
S11311B0ADFF0199203403460095224602A8FFF7AB
S11311C043FD401E8041C00F1DB030BD70B590B0CE
S11311D004460D464FF0FF32FFF7DEFD464B9842C2
S11311E013D168464EA100F055F800F08DF8294659
S11311F000F08BF86846FFF7A3F9404E3068C00250
S1131200FCD5306910F4702F02D0002010B070BDEE
S113121040F20220FFF764FE0DF1200048A100F027
S113122039F800F06DF8294600F06BF808A8FFF7CC
S113123087F93068C002FCD53169E6E72DE9F84347
S11312408CB004464FF0FF35009504A844A100F08B
S113125021F800BF4AA696E8800301AD01A985E8FC
S11312608003CDF804D004A8FFF756F904A8FFF7CB
S113127067F922480168C902FCD5006910F4702F8F
S113128018BF002003D10098A0428041C00F0DB0C8
S1131290BDE8F0832022FFF709B9000038B590B00B
S11312A00446684639A1FFF7F5FF00F02DF86846BB
S11312B0FFF746F9114D2868C002FCD5286910F4DF
S11312C0702F11D140F20220FFF70AFE0DF1200029
S11312D036A1FFF7DFFF00F013F808A8FFF730F995
S11312E02868C002FCD52969002011B030BD000077
S11312F00100100001800100E320BBDE4400004C2B
S1131300214608A8FFF712B921466846FFF70EB92F
S1131310B814B6F1E0CFF3ADB7DD25C9FA79B71348
S11313200100054300000000000000000000000070
S113133000000000000000000000000000000000A9
S1131340010006430000000000000000000000004F
S11313500000000000000000000000000000000089
S1131360000008430000000000000000000000002E
S11313700000000000000000000000000000000069
S113138000000000010000000400002000000243EF
S11313900000000000000000000000000000000049
S11313A000000000000000000000000000000343F3
S11313B00000000000000000000000000000000029
S11313C000000000000000000000000010B5040050
S11313D00CD04FF480302060002161603C480278DA
S11313E022724068E060FFF7D3FA206110BD78B53F
S11313F004460D4604F5B876A1B0B1683068802380
S113140001AA00F025F80095802301AA214604F1E1
S11314102C0000F0FFFAF060B0688030B06022B0B9
S113142070BD024640F20140002900D1704710B55A
S1131430274B5C68A24203D300220A604A6010BDB5
S113144003EBC20082680A60C0684860002010BDD7
S113145038B500F021F800D326E000F017F800D2E8
S113146025E09B68C018BDE83840FFF79ABA38B544
S113147000F012F800D317E000F008F800D216E0EC
S11314809B68C018BDE83840FFF79ABA03EBC40361
S1131490DC681518AC4270470446084611461A46E3
S11314A00B4B5D68AC42704740F2014032BD40F2E4
S11314B0024032BD06494A68904202D340F20140DC
S11314C0704701EBC000C1688068FFF794BA000060
S11314D0480000003EB504460D461146284600F07B
S11314E090FE50B969462046FFF79BFF28B905F5E1
S11314F0B87004600199416000203EBD38B584B0E5
S113150004460D4668461021FEF7BCFF029504F51B
S1131510BA75A86888B96868296888420DD269468E
S11315202046FFF764FFA86800281CBF41F20701AA
S113153088420BD140F2012008E0A07800281DBFAA
S1131540E078002840F2032040F2022005B030BDCC
S11315500120187070470000F0B585B004460D46B0
S1131560164600278DF800700DF1040052A100F01A
S113157084F8CDF804D037601C212846FEF782FF9A
S113158004F5BA779DF8000080B994F87200132826
S11315900CD0B86850B978683968884206D201A975
S11315A02046FFF724FFEDE705B0F0BD2078810762
S11315B044BF606830602178C80705D51C2204F157
S11315C008012846FEF772FF9DF80010002905BFA8
S11315D020780028002040F20640E5E770B5044674
S11315E00D46202304F5827204F1BC0104F12C00A1
S11315F000F0D5F904F5BA76B06850B9706831686E
S1131600884206D229462046FFF7F1FEF4E700207F
S113161070BDA07800281CBFE0780028F7D0012016
S113162070BD000080B5E4B000F02AF808B10020D5
S113163009E004208DF811004FEA0D0022A100F00A
S11316401CF800F021F865B000BD000010B5E4B04E
S1131650282213689C688C4202D200F011F808B169
S1131660002008E002208DF8110068461AA100F05D
S113167004F800F009F864B010BD1022FEF716BF9C
S11316804FF4C07204A925E7694604A8A6E7000040
S113169080B5E4B0FFF7F4FF08B1002009E00120B1
S11316A08DF811004FEA0D000FA1FFF7E6FFFFF7D9
S11316B0EBFF65B000BD0000000000005115000004
S11316C0511500005115000000000000000000004A
S11316D0000000007B10000000000000000000007B
S11316E0000000007B100000000000005F100000FC
S11316F00000000000000000002070470020704738
S113170028200168086970474FF4004070470120A1
S1131710704710B50446FFF7B3F820460021BDE832
S11317201040FFF7DDB8FFF7DDB80146FFF7DBB87F
S11317302DE9F8431E467368002B4ED00C4614F076
S1131740030118BF41F2020048D115460746FFF7CE
S1131750D7FF396E001D6A18824221D300F11803A5
S113176099421DD28C46844505EB010800F118020C
S113177038BF84469045ACEB0101ACEB000088BF58
S1131780904604EB0109A8EB0C083844424649464C
S11317906830FEF77BFEFF224146484600F068FDB4
S11317A0FFF7B2FF396E001D884222BF6A18031D7D
S11317B09A4209D3411A6018026807F180010A604D
S11317C0FF22042100F054FD21463368386E74680A
S11317D02A46A047386E2D183D660020BDE8F283E6
S11317E070B54B688C689C4206D200F140021B1B0A
S11317F014781B19412B01D3002070BD0D68537858
S11318001478E4188B6804F03F04EE5C06558C6889
S1131810641C8C6013785B1C13708C684B689C424E
S1131820ECD3012070BD90F840004A688968101814
S1131830401A70472DE9F0410C4617461D46804674
S1131840FFF7F1FF08F14006A84206D221464046C0
S1131850FFF7C6FF10B300204DE000210CE07078C4
S113186018F800207A5473783078491C5B1C03F014
S11318703F03421E73703270307808B1A942EED330
S1131880A0686268904238BFA9420CD22368185CF1
S11318907854A268491C521CA260F1E71420B0716C
S11318A041F2020027E0A942F8D1B26C069C294615
S11318B03846FFF771FAB06424B1F0682A46394615
S11318C0FFF731FF079838B1F07878B1B0682B464C
S11318D03A46394600F022FDF07838B1B169F06932
S11318E028188842F06124BF0020F07070692D1818
S11318F0756141F20300BDE8F081F8B584B0144687
S11319000026054601960096082302AAFFF792FFD7
S113191041F20306B0423BD195F8430005F1480774
S113192038B100F037F83868082302AA02A900F099
S1131930F5FC9DF80A209DF80B009DF8091012048F
S113194042EA00629DF8080042EA01220243226052
S11319509DF80E009DF80F1000F049FC9DF80D1045
S113196040EA01209DF80C100843606095F843009C
S113197048B9DFF824188A421CBFDFF820088242E5
S113198001D000F007F860680021F960B8603046C3
S113199005B0F0BD7868082202A9FFF7C4BEF8B507
S11319A0064606F1400700200D46B8717870F870BD
S11319B0387100214FF0FF3014463970797103F00B
S11319C02003B86439627962BB70FF22182106F1E2
S11319D0680000F04DFCFF22042106F1800000F0B5
S11319E047FCFF22042106F1840000F041FCBD60A5
S11319F0FC60FFF783FE00B11DB1FFF77DFE18B157
S1131A0014B941F20B00F2BD14B1F868FFF781FE7E
S1131A100020F2BD2DE9FB4F824600210023002463
S1131A209AB005A880E81A0005921C9A269D09918F
S1131A3006920AF148060AF1420710E000F0C6FBDC
S1131A400899884235D104980021F160B060039868
S1131A50DFF84C17884240F03F8102223A71079820
S1131A601C99884280F0DD8241F2030208923979A0
S1131A700DF128081429F2D8DFE811F01600170038
S1131A80D7022E0169036B03F10250016B034B0172
S1131A906B0316036B034B012E02D0026E03A402E8
S1131AA0A702DF01D002DAE7C8E700F08FFB08994C
S1131AB0884240F0B782B87820B10398DFF8DC168A
S1131AC0884246E03A78D1074DD5787800284AD143
S1131AD00398DFF8CC1688421CBFDFF8C81688428A
S1131AE025D0DFF8C41688421FBFDFF8C01688422D
S1131AF0DFF8BC1688421AD0DFF8B816884222D024
S1131B00DFF8941688426BD0DFF8AC16884213D005
S1131B10DFF8A81688420DD0DFF88016884215D069
S1131B20DFF89C1688421CBFDFF89816884200F044
S1131B30D38010E0102291E711203871B1680020A1
S1131B40706131618BE7142139716CE0FFF7D4FDCA
S1131B50002843D13EE01420387103A800F0EDFBC7
S1131B60002860D005E30398DFF8381688421CD0BB
S1131B70DFF8341688421DD0DFF83016884216D0BC
S1131B80DFF82C16884218D0DFF80C16884223D0D0
S1131B90DFF80816884216D0DFF82416884210D0E1
S1131BA0DFF8201688420AD01CE00B2256E70420F6
S1131BB0387154E70621397151E70720F8E7092104
S1131BC0F9E70D20F4E7FFF797FD002804BF7878C4
S1131BD0002803D10E21EEE77878002840F07C80BD
S1131BE01221E8E703A800F0A8FBA8B10398132189
S1131BF070643971039800F0A2FB0990387881066B
S1131C00DAD5099800281CBF41680029D4D0504671
S1131C1088470028D0D0ACE278781421397110B10B
S1131C2041F20400FEE141F20800FBE198F80500EE
S1131C3098F8041041EA00210291C90704D53878C4
S1131C4040F00100387002E0FFF758FD40B9FFF79B
S1131C5053FD002800F0EB810298C10500F1E781F3
S1131C601420387141F20A00DCE1F978052038715A
S1131C7041F00101F9700020F061F068082880F05B
S1131C80748201210191009100F0B5FA089988420B
S1131C90EAD1207840F00200207098F8020098F809
S1131CA003109DF8282000F0A2FA98F8011040EAE9
S1131CB0012010436060B0680838606298F806003C
S1131CC098F8071098F8042000F091FA98F8051095
S1131CD040EA01201043C8D01420387149E20120A1
S1131CE000F07DFA08998842BED198F8021098F85D
S1131CF003009DF82820090441EA006198F80100D6
S1131D0041EA002111430291B068052824BF0298DA
S1131D10B061F0680428E2D30A214CE70020F061A6
S1131D20082148E72B6842460AA9F069E047F069B0
S1131D304044F061B068F168814280F01382A0EB06
S1131D400108B8F1040F05A9504608D3FFF76BFD4D
S1131D50042808D205A95046FFF742FD61E1FFF7C8
S1131D6062FD4045F6D3B8F1410F05A9504628BF9E
S1131D704FF04008FFF757FD404502D200F02BFA20
S1131D808046B8F1040F0AAA05A924BF4FEA9800B7
S1131D904FEA8008012001900090434600F024FAA5
S1131DA00899884240F03E813879082804D1D5F852
S1131DB008C0BCF1000FB5D1C8F1040BB8F1040F91
S1131DC006D20AA8FF225946404400F051FAD844EA
S1131DD039790A2906D12B4642460AA95046FFF70B
S1131DE0A7FCA7E7052918D199F80100820714D5A3
S1131DF0E86890B1F069052818D208EB00010729BA
S1131E0014D30AA9091D081A01680AF18402116091
S1131E10FF22042100F02CFA08E00C298AD199F859
S1131E200100410786D5E868002883D02B68424624
S1131E300AA9F069D5F80CC078E73978880640F12A
S1131E409681706C00F07BFA0990002840F08F8135
S1131E508FE14FF0010900F0BEF9484582D3B06824
S1131E60F168A0EB0109B9F1410F05A9504628BF5B
S1131E704FF04009FFF7D7FC814502D300F0ABF9DE
S1131E8081460120019000904B4600F0ABF908997F
S1131E9088422FD1387881060DD5002C1CBFD4F888
S1131EA008C0BCF1000FD3D02B464A460AA95046BD
S1131EB0E04700281ED1F068B168884280F05C8158
S1131EC038788106C5D5002C1CBF21690029C0D0F3
S1131ED0504688478146BEE7002000F080F9089903
S1131EE0884207D1306CB849884204D014223A7130
S1131EF041F2050096E0FFF7FFFB18B91B9901209A
S1131F00C87003E01B99C87800283FD0F87810F017
S1131F10030F1CBFEC68002C05D02B6804220AF1C7
S1131F2084010420A047B06900281CBF6868002809
S1131F302CD04FF0FF3102910AF180040422214693
S1131F4002A800F0FFF940B1FFF7DEFB28B12146FB
S1131F502B686C680422001DA04704220AF1680162
S1131F6002A800F0EFF988B1FFF7CAFB2B686C6890
S1131F7014220AF16C010830A047FFF7C1FB2B685B
S1131F806C6804220AF16801001DA0471B99012016
S1131F9088700F20387144E00020012101900091E5
S1131FA0102300F01FF9089988423BD1FEF7B2F8DC
S1131FB0009080210191306801230BAA022100F0D6
S1131FC08AF9CBE00120787026E0B87820BB0021A4
S1131FD001910090402300F005F90899884221D12D
S1131FE07068FFF7A2FBFEF793F80446FEF78EF83D
S1131FF000940346706812AA0AA9FEF725FE38B1B8
S11320001B990020C8701420387141F2060009E0C1
S11320101B990120C870B8700121CCE541F207007A
S113202000E000201DB0BDE8F08FDDF86C90F06892
S1132030082819D2002101200191009000F0DBF85A
S113204008998842EED198F803000006B0F1407F69
S11320503FF4ECAD1420387141F20900E2E7DDF8F9
S11320606C90B368F06898427CD201210191009190
S113207000F0B8F808998842D4D11C220AA909F1C1
S11320800800FEF713FA99F8000040F0010089F8FF
S1132090000009F10800FFF73AFB0028E1D1142001
S11320A0387141F20C00BDE71B9CF06808285CD233
S11320B001210191009108230CAA00F094F80899D9
S11320C08842AFD1207840F00400207098F80E00C8
S11320D098F80F1098F80C2000F089F898F80D1073
S11320E040EA01201043A062607841072CD5EB2020
S11320F08DF82800A620172188F8020088F801101E
S11321000AF150005E2188F8031002680AF1840184
S11321100A600022F261F87840F00200F870D5F805
S11321200CC0BCF1000F0FD02B6804220AA90020B8
S1132130E047F0692B68D5F80CC008220CA90830D8
S1132140E047F0691030F0610C203871ADE71B9C5A
S113215093E5DDF86C90EDE5DDF86C90F0681028FF
S1132160FFF41AAFCDF86C9056E71B9477E4099C02
S1132170A1E641F2010055E7099438788106F3D5C8
S1132180002C1CBFE268002A04D029465046904720
S11321900028F0D140E70000F70A0AF7FC0404FC29
S11321A0EB17A603EB17A65EF40A0AF4F50909F582
S11321B0F60808F6F70909F7F90707F9FA0606FA1F
S11321C0FD0303FDFE0101FEE320BBDE03AA05A916
S11321D05046FFF792BB05A95046FFF724BB019078
S11321E0009004230AAA05A95046FFF723BB000464
S11321F040EA0160704708230AAA05A95046FFF780
S113220019BB10B50446B1F5C07F02D240F20520D7
S113221010BD4FF4C071FEF735F90020607004F56D
S1132220827204F1BC0104F12C000023BDE81040CB
S1132230FFF7B5BB1CB504460091214604F12C0000
S1132240FFF7E8FB0028C4F87C011CBF41F207013A
S113225088420BD1A07838B1E07810B140F2032065
S113226016BD40F2022016BD40F2012016BDFEE765
S113227062F30F2262F31F42401810F0030308D0E8
S1132280C91A1FD3DB0748BF00F8012D28BF20F867
S1132290022D130030B414461546103928BF20E926
S11322A03C00FAD8490728BF20E90C0048BF40F891
S11322B0042D890028BF20F8022D48BF00F8012D05
S11322C030BC7047C91818BF00F8012DCB0728BFD0
S11322D000F8012D70472DE9F84380460E469146DB
S11322E01C46089D099FFDF719FF29463A464046BA
S11322F0FDF71AFF08F124000021016006750C2285
S1132300494608F13900FEF7C1F808F14500210CEF
S1132310220A017042708470BDE8F1833EB51C4608
S11323200292019100F12805009500F1380300F1B3
S113233024022146FDF78AFF37BD002070470020A4
S11323407047FEE70300002013F0030F09D0521E6C
S113235022BF13F8010B11F801CBB0EB0C00F3D042
S11323607047121F22BF53F8040B51F804CB604589
S1132370F7D0121D0AD200BA9CFA8CFCB0EB0C0008
S113238038BF6FF0000088BF01207047521E22BF83
S113239013F8010B11F801CBB0EB0C00F6D0521C72
S11323A008BF104670470022026001224FF0FF333D
S11323B002E040F82230521C8A42FAD300207047CF
S11323C00068002818BF10F1010F02D040F2045039
S11323D070470020704740F2025070470448054996
S11323E008600548026842F4700202607047000009
S11323F00000000008ED00E088ED00E04EF6885192
S1132400CEF20001086840F470000860BFF34F8FFB
S1132410BFF36F8F4FF00070E1EE100A70470000B9
S113242000F00DF8002801D0AFF30080AFF3008076
S11324300020AFF30080FEF7C7FC00F002F8012093
S1132440704700F001B800000746384600F002F873
S1132450FBE700002021090326311820ABBEF9E771
S113246080B5FFF7BBFFFEF7F9FCBDE8014000F0C3
S113247000B8AFF30080FFF7C1FFFFF7D1FF000002
S10724800000000054
S903247365
