S024000044796E616D69634D756C746970726F746F636F6C537769746368536F632E733337F7
S3150000000018C80320052A030091B30100D124030078
S31500000010A70A02020001000004180FAC20667E0049
S3150000002000000000000000000000000000000000CA
S3150000003000000000645D03000000000000000000F6
S315000000400000000000000000FFFFFFFFFFFFFFFFB2
S31500000050FFFFFFFFFFFFFFFFFFFFFFFFFFFFFFFFAA
S3150000006000700F000000000000000000FFFFFFFF0F
S31500000070FFFFFFFF1C000000000000000000000062
S315000000800000000000000000ECFF0320ECFF03204E
S3150000009018C803209EB703001E2A0300B8BE03201B
S311000000A0601100200000100000000000AD
S3150000010018C80320052A030091B30100D124030077
S31500000110D9240300D5240300DD24030000000000D9
S3150000012000000000000000000000000007190000A9
S31500000130E1240300270D0000231D00008730000086
S3150000014025550200DDD5020099720000E92403005E
S315000001502DD102001DD60200E3D50200E5D502002E
S31500000160DFD5020003F6020071F802004B690200B7
S31500000170F92A0200E9240300E924030057270300B3
S31500000180E9240300E92403007FF80200E9240300C0
S31500000190E9240300E9240300E9240300E924030019
S315000001A0E9240300E9240300E9240300E924030009
S315000001B01FD60200E1D50200D35202004DD602003E
S315000001C0E9240300B1280300E9240300E92403001D
S315000001D0E9240300E9240300E9240300E9240300D9
S315000001E0E9240300E9240300E9240300E9240300C9
S315000001F0E9240300E9240300E9240300E9240300B9
S31500000200E9240300E924030000000000104210B5B1
S315000002107849784A01E021B1491E1369DC07FAD40E
S3150000022011B96FF0020010BD506001201060116915
S31500000230480702D54FF0FF3010BD002010BD2DE954
S31500000240F041044610460B460022002B41D06FF0C9
S315000002500105301024086649674FA8B994469C45A5
S3150000026037D254F8040BF8600CF1010C0820386002
S31500000270084601E080B3401E3E69F65E102458B37E
S3150000028038698007EBD523E0EFF3108072B6944609
S315000002900FE03E6906F01906102E08BF3E603E6963
S315000002A03607F6D542336BFE42400A10263E609C66
S315000002B045F3D318B962B6A610013869C3481009C8
S315000002C001B942463869810700D52A8E106BBDE810
S315000002D0F0814246FAE72DE9F84F464CA56BADB2E0
S315000002E005B1012541F67136A6634FEA9208424EE2
S315000002F037683668266846F0010626604FF0000922
S3150000030006468A469B46002013E0C7F30A07C7F550
S315000003100067BF08A8EB0900B84238BF07465A462F
S3150000032039465046FFF788FF010010D1B9440AEB61
S31500000330870AC1450BD206EB8907381812641810D4
S315000003402EE2D0216849084900216003E022685264
S315000003500852002260EDB20DB10021A163BDE8F2A2
S315000003608F70B5234B21490246986B80B200B101CC
S31500000370208E3008349C631F4C256824681E8A240E
S31500000380101E609A6001225A605C69620704D500FB
S31500000390F021F868100170BD021424185A69D407B8
S315000003A010D5002918BF491EF8D10BE0002919689D
S315000003B004D100F010F89E100D70BD00F00BF8008F
S315000003C02070BD5A699407F03C12031812011832C6
S315000003D019941015196008B100209863704700231E
S315000003E074E7809698000C000E4008040002043062
S315000003F00E40000080B5002000F0CBFA012002BDBF
S315000004001E482DE9F04100688189007D091A1446CD
S315000004109846CE1E0027002506E0B2B2B9B2404685
S3150000042000F006FDFF1C6D1CE8B2A042F5D30020CB
S3150000043000F0AFFA0120BDE8F0812DE9F8430F4E38
S3150000044030688189007D091A90469946CF1E00249E
S31500000450002509E000F014F8E41C00F011F8A41CD3
S3150000046000F00EF8E41C6D1CE8B24045F2D330688B
S31500000470002100F0D0FA0120BDE8F28388D90320DC
S31500000480BAB2A1B2484600F0D3BC704780B501F0BD
S315000004905CF8FF2805D0032803D2DFF86417085C50
S315000004A002BD002002BD10B50268DFF85817138898
S315000004B00B8054884C8052790A7103681A794A7104
S315000004C04FF48A53CB80026893799A06DFF838276F
S315000004D044BF4FF48B53CB801378816939B9C088F8
S315000004E0DFF82817088003F0FD03137010BD43F0F2
S315000004F00203137016228169DFF81447204601F0C3
S31500000500A3F90022227010BD80B5002001F001FA87
S31500000510FF2001F073F801F00AFA00F004FD02462C
S315000005200121DFF8DC0601F0D6F9DFF8D836DFF86E
S31500000530E426DFF8E406522101F0B1FA01F063FB8C
S3150000054001F0F0FB01F0DCFC01F0BCFD02F059FD0E
S3150000055002F098FD02F098FDBDE8014000F0BABD3A
S31500000560704780B502F071FE20B904F08BF808B927
S3150000057004F028F904F07DF9BDE8014004F088B9DB
S3150000058070B5034600204FF6FF72DFF8904634F848
S31500000590305095420ED09D4209D1B3F57C4F0ADB0F
S315000005A004EBC0056E888E4205D00D0003D0401CBA
S315000005B080B2ECE7104670BD10B50446FFF7E0FFC9
S315000005C0DFF85C160B884FF6FF72904203D1224685
S315000005D0DFF8501606E0DFF8441601EBC000DFF83E
S315000005E048164268BDE81040184604F09CB9DFF88A
S315000005F03C06006800B1008A70471CB5DFF830166B
S315000006000446087800283CD004F066FA0246DFF873
S315000006102416022004F087F9206841880091437966
S31500000620A289DFF81416022004F07DF9022004F0F6
S3150000063035F920B12068218A4088FFF7BDFFE07BAD
S3150000064028B1228ADFF8F415022004F06CF9E07C68
S31500000650DFF8EC150090A0680278A37C022004F075
S3150000066062F9217DA289A468521A012392B221441B
S31500000670022004F049FABDE81C40AAA1022004F0B9
S315000006804CB913BD10B504462168487900F05DFFEA
S31500000690FF281DD0DFF8AC1501EB0010217F027B8F
S315000006A08A4215D1226840881188884206D04FF6C2
S315000006B0FF7399420CD1B0F5004F09DA2079022870
S315000006C018BF032806D11189507904F08DF808B9AE
S315000006D0002010BDA07B0028204602D004F0A2FA1C
S315000006E001E004F0CFFA00B1012010BD3EB514467A
S315000006F0227855074CBF05220322934209D2009265
S315000007000220DFF84425DFF8441504F006F900203E
S315000007103EBD089D069A28602971EA80AC60AB81CF
S31500000720207800F00100A8732178890801F0010102
S31500000730E973012120782975C00800F00100687569
S31500000740E87B30B11A46204600F072FB297D891CF1
S31500000750297507992882287D421C2A75531C205C1E
S31500000760A874D2B22B75A05CE874A96104F09DFD53
S31500000770287701203EBD2DE9F14F84B00F46924601
S315000007800E9EDDF83C80DFF8C854DFF8C8149B469F
S315000007902846202204F060FE0295CDF804800096DB
S315000007A05B46049852463946FFF7A0FF002400280E
S315000007B0DFF8789469D0C9F80050A87CDFF898145F
S315000007C008702846FFF719FF2846FFF76CFE2846F3
S315000007D004F096FE30BBB8F1000F25D1042F18BFE8
S315000007E0052F03D0022F18BF032F01D1012200E0ED
S315000007F000222868E9880191012143880093038833
S31500000800E87C00F00AF998B12868817988060FD447
S31500000810DFF84844012121700022284600F0BDF887
S3150000082000202070012430E098F8140081072CD5B0
S3150000083028684179FF2924D10026DFF8C88300F013
S3150000084072FBF1B2814220D2F0B200F080FE074680
S31500000850F0B200F06CFB90B1286841882A8A3846CD
S3150000086000F0BBFD58B12846FFF71DFE286847710A
S3150000087088F804702846FFF705FF00B10124761CAE
S31500000880DDE72846FFF7FEFE044600F04DFA162285
S315000008900021DFF87C0301F01EF80020C9F80000F3
S315000008A005B02046BDE8F08FDFF8B4130878401C89
S315000008B00870FFE700F07F007047DFF84C130A78F6
S315000008C0002814BF42F0010202F0FE020A707047CF
S315000008D0DFF890130870704780B1DFF88813097845
S315000008E0012904D1018841F04001018070470229A5
S315000008F004D102884FF6BF710A400280704778B172
S31500000900DFF864130A78012A04D1DFF8602313782C
S315000009100B7001E0022A03D1017841F01001017049
S31500000920704700005D000000FEB5B74C2178CA078D
S3150000093001D50020FEBDC84A1378B74A15786E0760
S315000009404CBFD3705370B34B1D88890708D5294611
S31500000950AF4805F042F8217801F0FD012170FEBD97
S31500000960AA4BA8491C884FF6FC77BC4208DA0092CD
S3150000097001900A462B462146002005F019FAFEBDD5
S31500000980009013462A46204605F0E1F9FEBD0020F8
S31500000990CAE70146A5480068002270B504460E461F
S315000009A02079002818BF012815460BD1A0680178C8
S315000009B0CA0601D5300005D0A07B002804BFE07C24
S315000009C00B2801D1002070BD924A00211180607D64
S315000009D0E17B00280CBF0820002011B900F0BBF90C
S315000009E006E040F0040000F0B6F9208A00F0C2F9F3
S315000009F0A07C00F0B0F90B2000F0ADF9E07C00F02F
S31500000A00AAF9304600F0A7F92046FFF74CFD284624
S31500000A10BDE8704088E70022BFE770B51D46944BDD
S31500000A208E4E1C78012C01D0337813B10020307023
S31500000A3070BD0B0002D10AB1002070BD002C1EBF94
S31500000A40049C4FF657439C4206D003460A4621466D
S31500000A50284603F0BBFE00B1012070BD0000000077
S31500000A6038B5D2885224950648BF4924550548BF53
S31500000A70083C150548BF083C1204034648BFA41E9F
S31500000A800846032B4FF6FD710ED8DFE803F0090286
S31500000A90060BC0B205F010FD02E0C0B205F046FF3D
S31500000AA0014601E0641EE4B2084603F0AEFE241AD5
S31500000AB0E0B232BD42540844120A427070470844FC
S31500000AC0110A0270130C120E41708370C2707047C7
S31500000AD070B505460C00164608BF002003D02178E5
S31500000AE0FF2902D1FF20287070BD204600F0C2F910
S31500000AF0864288BF06463246611C681C00F0A4FE8A
S31500000B002E7070BD70B50C000546164603D1002048
S31500000B106870297070BD2078FF2804BF6078FF28B0
S31500000B2002D12870687070BD204600F0A8F9864290
S31500000B3088BF06463246A11CA81C00F085FE2E7012
S31500000B40360A6E7070BD2DE9F041541E0BB3042AAF
S31500000B5046DC0023002698465FFA88F5954225D2A2
S31500000B60651B002814BF10F805C04FF0000C571E77
S31500000B70A7EB08074D5DFF000CFA07FC05FA07F71F
S31500000B804CEA03033E4308F10108E5E7AE4224DBE5
S31500000B905B1CDDB2954223D2651B00280CBF0026E4
S31500000BA0465D4D5DB542F1DA01201AE0042A10DAFD
S31500000BB0D5000120D2006D1E00FA02F2524243FA1D
S31500000BC005F1CC0748BF134346FA05F0C00748BFF6
S31500000BD016439E42E8DBB34202DA4FF0FF3000E0F4
S31500000BE00020BDE8F0810021224A01E0891CC9B23B
S31500000BF0535C8342FAD350184078704700000000D7
S31500000C0064D90320A0D8032082FF0320C0FE03205E
S31500000C108CD90320C2FE0320ACD80320284703004A
S31500000C20C6FE032090460300A846030088D9032089
S31500000C30ACD40320B0460300B8460300D8460300F0
S31500000C40E4460300C8D703202047030004470300F7
S31500000C5068D9032068470300B0D403207EFF032031
S31500000C60B1D403207FFF032080FF032081FF0320F0
S31500000C70AFD4032088470300283808288041C00FD6
S31500000C80704710B500F009F8FF2801D1A32010BD68
S31500000C90002104F83010002010BD0446084600F07C
S31500000CA054BC38B500F00BF8FF2801D1A32032BDA3
S31500000CB0294604EBC000BDE8344000F0D4BF04462A
S31500000CC00846154600F041BC40B11C280BD01D2833
S31500000CD00CD01E2818BF1F2805D009E00B39102993
S31500000CE006D2002070471B29FBDB01E00929F8DB4F
S31500000CF08A20704710F0E00011D0802806D0A02886
S31500000D0006D0C02806D0E02806D007E01C20704791
S31500000D101D2070471E2070471F207047FF20704718
S31500000D2000F01F007047704780B54C4900200870DE
S31500000D3006F056F84A4A108052220021494800F02F
S31500000D40CAFD4949002008800C22BDE80840002160
S31500000D50464800F0C0BD10B543490A88522A07DA52
S31500000D60404CA054521C0A8092B2A018401E10BDDE
S31500000D70002010BD38B50546C0B2FFF7ECFF0446AB
S31500000D80280AFFF7E8FF002C18BF002801D02046EC
S31500000D9032BD002032BDF8B50746C0B2FFF7DBFF13
S31500000DA006463804000EFFF7D6FF05463802000E49
S31500000DB0FFF7D1FF0446380EFFF7CDFF002E18BF10
S31500000DC0002D05D0002C18BF002801D03046F2BDFA
S31500000DD00020F2BDF8B5244D2B880C462646F718A0
S31500000DE0522F0CDA1F4F01462246F81800F02CFD50
S31500000DF02B88E4182C80A4B2A41B3819F2BD00205D
S31500000E00F2BD30B504460020CD18AA4208DA30BD3E
S31500000E1051FA83F222445B1E12F8015C05EB0020B6
S31500000E20DAB2002AF4D130BD0423EAE70323E8E767
S31500000E3080B50223FFF7E5FF80B202BD034691426B
S31500000E400B4800D3704710B55C5CFF2C08BF00242C
S31500000E500C19641CA242A8BF581810BD82FF0320BB
S31500000E60C0FE0320ACD80320C2FE0320A0D8032076
S31500000E70C4FE03200078FF2808BF0020704780B515
S31500000E8002220021FFF7D4FF4FF6FF72904208BFFF
S31500000E90002002BDF0B5DFF86819DFF868490A6876
S31500000EA0DFF8641988B003A80260D1E9002704A816
S31500000EB0D4E90056C0E9002706ABDFF85019C3E9AC
S31500000EC0005601A80A68DFF84849DFF8481925687E
S31500000ED0026002AB0320002408701D60009400210C
S31500000EE0DFF8340906AE03ACDFF83029655C02EBA7
S31500000EF0011204AC157036F81130538034F81130F5
S31500000F00938002AC01AB655C95715C5C00EBC4053B
S31500000F10956001251DF801401473491C022955737B
S31500000F20E1DD08B0F0BDDFF8EC0800787047DFF8C7
S31500000F30EC1801EB0010407B00F0010070474128DF
S31500000F4018BF422803D0432818BF442801D10120E6
S31500000F50704700207047412818BF422801D1012060
S31500000F60704700207047432818BF442801D101204C
S31500000F70704700207047F8B515461E46069A079B2F
S31500000F80044600F043FA60B1042100F0C5FB0700F7
S31500000F9007D0204600F0C2FC324629462046B84714
S31500000FA094E0F1BD2DE9FC4714001CBF0A9D002DFD
S31500000FB0814688461F461FD0F7B128780C9B01074B
S31500000FC0618820794CBF4022802200F01FFA98B138
S31500000FD0082100F0A1FB824670B10B9E207900F03B
S31500000FE09DFC019600953B46224641464846D04721
S31500000FF0BDE8F34700F09BBCBDE8F387F8B516469D
S31500001000069C1A460546234600F000FAD0B1210098
S315000010100BD1022100F080FB040013D0284600F01B
S315000010207DFC31462846A0470BE0102100F074FBFA
S31500001030070007D0284600F071FC224631462846B4
S31500001040B84743E0F1BD2DE9F8439046089C1A469F
S315000010500646234600F0DAF908B9862016E0002590
S315000010609CB9202100F058FB814670B10B9F0A9C69
S31500001070099D304600F052FC009723462A46414619
S315000010803046C847054600F052FC2846BDE8F283C4
S31500001090F8B50446A568207800F040FC002611E06B
S315000010A02868F1B21422514347182078398803F092
S315000010B08CFB0121384600F02FFB01001CBF207875
S315000010C08847761C2979F0B28842E9D3BDE8F14019
S315000010D000F02DBC38B50024DFF838570AE0DFF8F9
S315000010E03C07210600EB1150427BD10748BFFFF7B2
S315000010F0CFFF641C2978E0B28842F0D331BD7CB5BD
S31500001100069D96781C462B0008BFD378412E18BF43
S31500001110422E06D0432E09D19A1E92B2FFF7F2FC58
S3150000112016E05A1ED2B2FFF7D3FC11E0442EF3D0DC
S3150000113034B92C0004D0D278954201D2892076BDEC
S3150000114000291A4602D100F0C6FB01E000F07CFB44
S31500001150002076BD10B5002301E0001D5B1C9CB28B
S315000011608C4204D204889442F7D1408810BD0020F6
S3150000117010BDDFF8AC16401A0C2290FBF2F292B2C8
S315000011800021DFF8A006E5E70288B2F57C4FA8BF8C
S3150000119000F002B80846ECE7DFF88C16401A142275
S315000011A090FBF2F292B20021DFF88006D2E710B58A
S315000011B00C460188628891420DD1037B2279134245
S315000011C009D0B1F57C4F04DBFFF7E6FF21898842A1
S315000011D001D1012010BD002010BD10B514460A88AB
S315000011E0E3889A420AD10288B2F57C4F04DAFFF707
S315000011F0CBFF2189884201D1012010BD002010BDFE
S315000012002DE9F74F82B004469A460025002704E0F0
S315000012108068C1886D187F1CFFB2DFF8F8150A7860
S31500001220974280F0A480DFF8F405237800EB0710DE
S3150000123002789A42ECD181680091407BC107EAD5D9
S315000012404FF0000804E0B9F80A002D1808F101086B
S3150000125000990A795FFA88F09042DCD20A685FFA50
S3150000126088FC142010FB0CFC02EB0C0921464846B6
S31500001270FFF79DFF0028E6D04FF0000B07E030791E
S3150000128010F0300F04BFF0782D180BF1010BB9F8F0
S3150000129008101FFA8BF08842D8D2D9F804001FFA3A
S315000012A08BF20C214A438618224631464846FFF700
S315000012B094FF0028E3D027460398344600B1046023
S315000012C02079810610D5DFF85805002105E002795E
S315000012D0930644BFC27889180C30A042F7D3DFF8D2
S315000012E0500589B2461803E0DFF84815ADB24E192D
S315000012F0DDF83880049DB8F1000F40461BD00195FB
S3150000130021464846FFF740FF024623887988387809
S31500001310DFF824B503F053FAF0B12079C1061DD5E4
S3150000132021464846FFF730FF00950346798838780E
S315000013302246D8471CE0DDB1214648460196FFF714
S3150000134023FF0246238879883878DFF8F0B403F063
S3150000135034FA00282E46E0D17E2009E00199CDF826
S3150000136000A0434622463046FFF7C9FE00E086202D
S3150000137005B0BDE8F08F2DE9F843044688461646C9
S31500001380994600252179E8B2884221D22068EAB23E
S3150000139014235A4387183888404517D131000AD09C
S315000013A0802E03D1397B0A0605D40FE0402E0DD1DD
S315000013B0397B4A060AD5B0F57C4F0CDB3846FFF779
S315000013C0EBFE484518BF5FEA090004D06D1CD9E75B
S315000013D00020BDE8F2833846FBE780B5134607E0F8
S315000013E080B51346402204E080B51346802200E013
S315000013F0002200F00BF800B1012002BD80B50023E9
S315000014004022F6E780B500238022F2E770B50C464D
S3150000141015461E4600F099F8FF2801D1002070BD40
S3150000142006E070B50C4615461E46002100F035F85C
S315000014302146DFF8E84304EB0010334680682A466D
S31500001440BDE8704097E71346402201E00022FAE724
S315000014502DE9F84F82468B4690469946FFF7D6FF10
S31500001460002608B9FF2016E00027DFF8B043DFF8B2
S31500001470A4532978F8B288420CD20001205C50456A
S3150000148008D04B4642465946FFF7CBFF00B1761CC3
S315000014907F1CEEE7F0B2BDE8F28F70B50022DFF8F0
S315000014A07C33DFF870532E78D4B2B4420BD22401C9
S315000014B01D5D854205D10D0007D01C44647BE50700
S315000014C003D4521CEDE7FF2070BDD0B270BD80B5CD
S315000014D00021FFF7E2FFFF2801D1002002BD00F046
S315000014E061F8407B00F0010002BD70B50E4604466F
S315000014F00021FFF7D2FFFF2801D1002070BDDFF8E1
S315000015001C1301EB00153200687B00F0010114BFCB
S3150000151040F001000020B142687314D076B128462D
S31500001520FFF7B6FD0FE00068142251430844027B22
S315000015300188D209204600F0E7FB761CA8680279EC
S31500001540F1B29142EFD3012070BD0121A5E7DFF88A
S31500001550CC120001085C7047F8B50C46FFF7F5FFA2
S3150000156001460020FF291FBFDFF8B02202EB011160
S315000015708968002915D0002214270D79D3B2AB4211
S315000015800ED20B68D6B27E433344451C1B7B260025
S3150000159001D11B0600E05E0648BF2846521CECE758
S315000015A0C0B2F2BD9D4901EB00107047F8B50C467C
S315000015B01546FFF7CAFF01460022FF291CD000236B
S315000015C04FF0140C01E0521C5B1C944800EB011612
S315000015D0DFB2B0680679B7420ED200681CFB07F787
S315000015E03844067B15B1760602D4EDE73706EBD50F
S315000015F0D6B2A642E7D1F2BD0020F2BD002109E035
S3150000160010B50446012100F005F82046BDE810405B
S3150000161003F075BF2DE9F84F86B0814603F045FE0D
S315000016207C49DFF8F8A10A78059004924FF0000B88
S3150000163007E00AEB0010017B059881420FD00BF101
S31500001640010B04995FFA8BF0884246DAB9F1FF0F75
S31500001650EFD04846FFF779FFFF2883463DD00027A5
S315000016603FE00328ACBFA26804F108020120009005
S315000016700023002101A8FFF7C3FD761C2989B0B21B
S3150000168088422DD26868B2B20C214A438418237965
S31500001690D906F2D41AF808208DF804202988ADF866
S315000016A00610207941064CBF802140218DF8081094
S315000016B028462188ADF80A102146FFF765FDADF8EA
S315000016C00C002179E0784A07CBD5A2680328CDDB48
S315000016D01268CBE7B9F1FF0FB1D007B0BDE8F08FC4
S315000016E07F1C4FEA0B604FEA10580AF10800F9B266
S315000016F050F8080002799142ECD20168FBB214203E
S315000017004343CD1840F22D112A898A42A8BF05F01D
S31500001710F5FD0026B2E7704730B5047B01220023B1
S315000017200C4205D1002030BD144218BF5B1C52008C
S31500001730D5B28D42F8D30069DBB250F8230030BD34
S315000017403F49401A8003020C00213E4802E52DE97C
S31500001750FE4F00270028487D4FF0010806D008B943
S31500001760022407E0012804D1012403E008B9082473
S3150000177000E004240C9D0E980D9EDDF83CB0ADF8FB
S315000017800020B9468A460193ADF830508DF83800EE
S315000017902B4800EB8905BDF800002988814224D139
S315000017A0E978214221D0A9789DF8380081421CD3DE
S315000017B0E9789AF80F00CA0608D5B0B12846FFF7AF
S315000017C0BFFFBAF81010814201D00EE068B9BB45E0
S315000017D013D0BDF8300087420FDA0198A978C155B9
S315000017E07F1C3288521C3280BFB209F10109B9F15F
S315000017F0320FCDDB4046BDE8FE8F4FF00008F9E71B
S31500001800B8380300BC380300C4380300D0380300DE
S31500001810CC38030079FF0320D03B0300C8D7032050
S31500001820C0390300EC3B0300E03A0300E83B030049
S3150000183028D80320F8D70320F1470000ED47000021
S31500001840F4380300BC39030070B5814224D2104439
S315000018501144401E491E10E011F8013900F8013903
S31500001860121F11F8014900F8014911F8015900F851
S31500001870015911F8016900F8016993B2042BEBDAFA
S3150000188093B2002B1EBF11F8013900F80139521E20
S31500001890F6D170BD00F00DF893B2042BFADA93B2CC
S315000018A0002B1EBF11F8013B00F8013B521EF6D17A
S315000018B070BD11F8013B00F8013B121F11F8014BF6
S315000018C000F8014B11F8015B00F8015B11F8016BA0
S315000018D000F8016B7047130003D00A46194605F05D
S315000018E02DBD704710B5034600E0521E90B218B1E8
S315000018F000F003F8F9D0001B10BD13F8010B11F826
S31500001900014BA0427047FEE70C490D4808600020D5
S31500001910704700B1702070470020704780B500F016
S3150000192013F8FF2801D1A32002BD002002BD00202C
S315000019307047704700BF03480078704700D90320FE
S31500001940C6980300C8D7032080B5FFF7FEFDFF2821
S3150000195018BF002002BD00210170704700F091B948
S315000019602DE9F24F022940F39580190005D0BDF804
S3150000197000100529F7DB42F0040282460126180012
S315000019808AF8002005D08AF8013003261B0A8AF857
S3150000199002304FF0000B0A9CFEF786FF0AF806009D
S315000019A0761CB0B2761C0AF80040DDF8309007E0ED
S315000019B0BAB241465044FFF747FFBE190BF1010B7F
S315000019C00B985FFA8BF1405C002865D00025002457
S315000019D07328A04634DC4C2859F8048B1CBF5328C6
S315000019E0622811D159F8047B4C2806D1BDB24FF6B6
S315000019F0FF70854236D0022434E0532832D1FDB23E
S31500001A00FF2D2FD001242DE06C2804D14046FFF78E
S31500001A1036FA871C26E0732804D14046FFF72AFAD7
S31500001A20471C1FE0A0F130010A2938BFA0F130079A
S31500001A3018D3A0F1410107292CD2A0F1370711E0F4
S31500001A400027752808BF01240AD0762808BF02247B
S31500001A5006D0782808BF032402D077281AD1042498
S31500001A6059F8045BB9B2BDF8000011FA86F10919FC
S31500001A70884205DA0EE00AF80050761C2D0A641E2C
S31500001A80E1B20029B0B2F6D1B9B2002996D0B8F1C8
S31500001A90000F8DD1002000E0B0B2BDE8F28F10B586
S31500001AA0454C20604548018045490A60454A136017
S31500001AB010BD7FB50C4608A9009202913F4D3E4EDF
S31500001AC001930246298830680023FFF749FF3C4905
S31500001AD03C4B0A6810804FF48A5219684C80CA80C1
S31500001AE004B070BD38B5364C25682988034632489F
S31500001AF002683448006801B0BDE8304004F084B99B
S31500001B000020EFE77FB500F02BF804F0CAF804B028
S31500001B1070BD0023F6E77CB50192294D264A2E6852
S31500001B2014680094274C3388226804F041F976BD86
S31500001B300022F0E738B500F003F804F008F932BDEA
S31500001B4000911F4C1C490B6825681E492A880968A4
S31500001B5070477FB500F004F804F00EF904B070BDCC
S31500001B60009102930192164C134925680B68154E95
S31500001B702A88316870470023EBE70021DAE7F8B5D9
S31500001B800D4D0F4F2E6884B00A9C03963E6835882B
S31500001B90019402950B4C26687588009504F068F947
S31500001BA005B0F0BD074800687047064A136818710B
S31500001BB0106841717047000094D80320F2FB03209F
S31500001BC098D803209CD8032070B5044616460D46C7
S31500001BD03046FFF7A3FE002020703046A847BDE838
S31500001BE07040FFF7A4BE01223D493E48ECE70122C2
S31500001BF03D493E48E8E702223B493D48E4E7F222F8
S31500001C0039493C48E0E780B5012005F019FD3A481E
S31500001C1005F0AAFC3949087001BD80B505F024FD20
S31500001C20012805D035480078BDE8024005F087BC9C
S31500001C3001BDF0B5002400E0641C314D2E88E3B2EE
S31500001C40B3420ED2E7B20C252E4B6F433B441E78AF
S31500001C50864201BF5D888D421E799642ECD11846B8
S31500001C60F0BD0020F0BD80B519B905F0E9FB0020F4
S31500001C7002BDB1F1004F02D205F0ECFBF7E70220FE
S31500001C8002BDB1F5000F3CBF0902FFF7ECBF022011
S31500001C90704770B505461E46FFF7CBFF04000ED011
S31500001CA02846FFF714FC50B1A0683146FFF7DBFF6A
S31500001CB028B905980499A0716171002070BD0220B1
S31500001CC070BD1CB500931346049C01940022FFF7D7
S31500001CD0E0FF16BD80B500230093FFF7F2FF02BDBB
S31500001CE00330020058D703204531020060D7032095
S31500001CF068D7032070D70320B833030077FF03208B
S31500001D007ED4032020CA032080B5FFF792FF20B1BE
S31500001D10806800210170002002BD022002BD002261
S31500001D20F2E7FEE736E0DFF818010178022901DB69
S31500001D30012070470020704738B5DFF8045104468B
S31500001D402878A04203D0214602F06AFD2C7031BDEE
S31500001D5010B5DFF8F040207860B900F01BF805F008
S31500001D60A9FC0121217028B10288B2F5817F24BF28
S31500001D70007D2070207810BDDFF8C4100978012896
S31500001D8003D10129D8BF022002DD10B9012900DDE7
S31500001D90D2E770472A480178022900DB704710B560
S31500001DA005F06AFC02462849284C012002F0B5FDE0
S31500001DB00120FFF7E1FF2078FF281BD105F07AFC10
S31500001DC0B8B140880006400E00F0010020701822CD
S31500001DD0FF211F48FFF77FFD207801280AD1FFF772
S31500001DE0B7FF052806DBBDE81040D921194805F0E4
S31500001DF0B7BC207010BD80B5FFF7CCFFBDE8014031
S31500001E0005F058BC70B504460D461646FFF7C2FFEE
S31500001E100420FFF791FF32462946204605F07CFC58
S31500001E20044600F003F8204670BD8146022083E791
S31500001E3080B5FFF7AFFFBDE8014005F07CBC0000B0
S31500001E40B0FF0320B1FF0320D46E0300B6D40320F5
S31500001E5038F50320C86E030080B58749022002F0DA
S31500001E605CFDFF20FFF7CCFBFF2002F0AAFCFF2061
S31500001E7002F0AAFC00F044F802F0E9FC7F490020D9
S31500001E80088001BDF8B500F069F8009800F001007F
S31500001E9005B000BD18B5794B794C002287B01A8081
S31500001EA001A9684605F060F99DF80F00A0700822A8
S31500001EB0BDF80C00208001A9201DFFF7C5FC9DF888
S31500001EC01400704960732046097800290CBF00226F
S31500001ED06D4A06F0AFF808B010BD80B5684605F04B
S31500001EE04DF9932809D1694801680A788DF80020D0
S31500001EF0012A04BF02218DF800109DF8000002BDE2
S31500001F00F8B5002006F05BFE614806F06EFE6148FB
S31500001F1006F06EFE00F022F80098C1071CD55E4957
S31500001F20022002F0FAFC594801680878012808BF27
S31500001F30022006F0B0FA022006F045FE00F00EF888
S31500001F40009840F080000090684606F016FE00F00B
S31500001F5008F8032002F002FC05B000BD684606F052
S31500001F6001BE78B58FB005A84C49282203F074FA53
S31500001F7004F03AFF08B100201BE001A802F0DFFBE5
S31500001F800400474D474E03D000903246464B0BE0C7
S31500001F9005A802F05BFC05A901A806F048FA0400B2
S31500001FA006D000903246414B2946022002F0B5FC8D
S31500001FB0204610B070BD80B53048018841F40071EC
S31500001FC0018006F05CFE48B102463949022002F063
S31500001FD0A4FC06F09BFDBDE801403DE701BD38B518
S31500001FE0264D0446288810F08F0F84B026D0902CFA
S31500001FF002D1FFF74FFF3CE0912C3AD002900194BA
S315000020002C482D4B274A2D490090022002F085FCD2
S31500002010287801062DD404F0E7FE03280AD12848C3
S315000020200178042906DA491C01700120002101F01B
S31500002030D7FB1EE0022007F0C7F91AE0800504D599
S31500002040912C16D1FFF708FF13E0FFF787FF902CBE
S315000020500FD10098C1070CD542085200009200210A
S3150000206001910291ADF80C10684606F086FD07F066
S31500002070C6FB05B030BD0000842D0300CAFB03205B
S3150000208054D6032057FE032040D7032000D903204F
S31500002090008810020070EF05542D0300A02D0300E8
S315000020A0C82D0300DC2D0300E42D0300FC2D0300E6
S315000020B0142E03007C2E0300642E0300442E03001E
S315000020C074FF03201CB5DFF8B04A0A22002120461F
S315000020D0FFF701FC60220021DFF8A40CFFF7FBFBF1
S315000020E0A0206080052120208DF80410009001AB0F
S315000020F010222121F22007F0C0FB13BDDFF8781A69
S31500002100002000B508704FF0FF3187B0002304911E
S315000021108DF818000021039002900191009304AA03
S3150000212008F04CF907B000BD18B5DFF84C4A207A24
S31500002130C10787B010D5002204928DF8182008F048
S31500002140C9FC002000210023207203910290019017
S31500002150009304AA08F032F9DFF8281C0020087062
S3150000216008B010BD80B5FFF7C9FFDFF81C1C0020C2
S31500002170087001BD2DE9F04700F00108C0F34204E4
S31500002180894692460609450900F0C3F806F001069D
S3150000219005F0010526D1DFF8E079387820B108F09E
S315000021A0D4FFF98888421DD1B8F1000F18D008F085
S315000021B0CCFFF880A0210120387079807C70E2077E
S315000021C07D7146BF4FF47A7101FB09F1DFF8BC1B44
S315000021D0DFF8B40B05F03EF926B187F804A001E05C
S315000021E0FFF78CFF0120BDE8F087002070472DE93E
S315000021F0F34F8FB00746DDF884901546984600F0F9
S3150000220084F8780A00F0030AC7F341108DF8180025
S315000022100024F80A00F0070BDFF8880B384008287E
S31500002220DFF8840B01680A7908BFA146042A08BFB3
S3150000223001242B001A9D08BF0AAB05B90AAD1F9EE3
S3150000224006B90AAE109ACDF8008007F0070107A874
S3150000225009F032F8002854D0DFF8501B012002F0B4
S3150000226062FB00F056F84CD1BAF1010F49D09DF847
S315000022702400C0B1022844D10022082107A802F098
S315000022804FFA00283DD107F01800182839D0ABF1D5
S315000022900500022835D39DF8180068B9F8060BD456
S315000022A07CBB85202BE0079858B310F1070FEAD3C3
S315000022B010F1010F25D1E6E71E9A20981C991B9B69
S315000022C0049201900091CDF814900396029507A907
S315000022D09DF81820384609F06CFB38B1DFF89808ED
S315000022E0417888070DD5FFF709FF0AE0380708D5BA
S315000022F009F085F8FF2808BF002C02D18920FEF7D7
S3150000230048FB012011B0BDE8F08F0AA8142109F09E
S31500002310FFBBDFF8940A01680A685079F228704713
S315000023202DE9F0438FB081468846169C16461D4619
S31500002330FFF7EBFF04B90AACFFF7EBFF4ED1189F8E
S31500002340179A2946199DF02F49D0F32F61D1002203
S3150000235000298DF8242007923CD109F030FD8045F4
S315000023603AD1DFF8205ADFF81048287810B1207AE1
S31500002370810764D504F03AFD0B3840F0100004AA3A
S3150000238001238DF810000021019200930391029120
S31500002390F32307AA012008F011F80120207204F0A7
S315000023A025FD06F10B0188420BD001200B3600FA01
S315000023B006F10022032008F0D6FA207A40F0FD004C
S315000023C002E0207A40F00200207241F2883128466D
S315000023D005F040F8012033E0FFF7A6FE2FE019F0E4
S315000023E007008DF8180008BF049101D000F02BF803
S315000023F009F0E5FC804503D100F02FF8F0231AE040
S31500002400002000210023039002910190009304AA6A
S3150000241013E0F72F03DAA7F1B003102B0FD219F050
S3150000242003008DF8180008BF049101D000F00BF8E6
S3150000243000F013F83B4604AA012007F0BFFF002076
S315000024400FB0BDE8F08302218DF818108DF8192021
S315000024502146082204A8FFF7F7B9002000216A1CCC
S315000024600390029101922B780093704700207047E9
S315000024702DE9F04704468846626892B2002140463C
S31500002480FEF718FB207C08F1020520B9A26800F0CF
S31500002490A2F82D1D07E0022805D1082204F1080143
S315000024A000F09FF80835207C022804BF607C05F800
S315000024B0010B6168880403D5A28A00F097F8AD1C69
S315000024C0606841040ED5A07D05F8010B0021A269C4
S315000024D000F082F82D1D102204F11C0100F081F895
S315000024E0103505E0800603D5A26900F074F82D1DAD
S315000024F0207941064FF00C0A0ED500F05EF800F088
S3150000250061F805D100F06BF800F06EF800F04EF8B7
S315000025107F1CF9B20229F2DB6068C10517D500F00D
S315000025204CF8FAB204F12C011AFB02F28E18337839
S31500002530022B08D1728800F059F8AD1CB28800F061
S3150000254055F800F033F87F1CF9B20229E9DB04F1F3
S315000025504400017805F8011B227902F01802182AB6
S315000025601CBF407805F8010B6268100403D5120CF5
S3150000257000F03CF8AD1C6068C10312D500F01DF8F0
S3150000258000F020F809D100F02AF800F02DF899F8AB
S3150000259000000A30AD1C89F800007F1CF9B2022940
S315000025A0EEDBA5EB080188B2BDE8F08799F80000DC
S315000025B0401CAD1C89F8000070470027A94605F8A5
S315000025C0017B7047FAB204F12C011AFB02F28E1855
S315000025D03378032B704700212846FEF770BA08228D
S315000025E0B11C2846FFF730B9083572890021284604
S315000025F0FEF760BA2DE9F84FB6B00F4600F00701B6
S31500002600C0F3C1008DF8041000909346984607A8C1
S31500002610FFF77CFEDFF89017096800260025BBF15E
S31500002620000F087908BF0DF11C0B00284DD1096871
S315000026304879F2283CD10FA9E8B208F06CFE0028D0
S3150000264036D19DF83C00FF2818BF761C6D1CE8B2F9
S315000026500428F0DD9DF80001DFF83859DFF83899D5
S31500002660DFF838A90690F4B2009860BB9DF8041014
S31500002670CDF800803A465B460CA808F01DFE0028FF
S3150000268000F07F800CA808F09CFEFF28064622D0AA
S3150000269000200122FF2305900490039202930194E7
S315000026A0009000F074F80FA9304608F034FE0028B8
S315000026B06BD1288809EB00010FA8FFF7D9FE2988FE
S315000026C0401828805BE0009801285AD19DF8000147
S315000026D0F6B2B04209D300210591049103918B22F1
S315000026E0069902910194009247E00020059000218E
S315000026F006980491FF22039202900194009100F043
S3150000270046F800279DF800B10024B8460FA95FFAE5
S3150000271088F008F000FE002837D19DF83C00FF281D
S3150000272015D07F1CFAB2934511D221A90FA8FFF745
S315000027309FFE06462888811952290ED2324621A9C3
S315000027404844FFF781F8288836182E80641C08F163
S3150000275001085FFA88F10429D8DD89F80640FEF7FA
S3150000276016F974280DD100200590039000210698D3
S315000027700491FFB202900197009100F008F8FEF76D
S3150000278006F9012037B0BDE8F08F0020FAE753467E
S315000027900B2221210120FFF78CB92DE9F04F0024EF
S315000027A0F22808BF2129A7B04FF0000A4DD1112AFF
S315000027B002BF802B3098002847D1DDF8C480B8F1DD
S315000027C0050F42DD1120FEF7D5FADFF8C857DFF80E
S315000027D0C8972E88361DB6B2B34600276946F8B2AA
S315000027E008F099FD30BB9DF80000FF280FD012A914
S315000027F06846FFF73DFE0446301980451CDB22463D
S3150000280012A909EB0600FFF71FF8A619B6B27F1C3E
S31500002810F8B20528E2DB5FEA0A00A6EB0B060ED14A
S315000028200020FEF798FA4320FEF795FAB0B2FEF7BD
S31500002830A1FA06E0002009E04FF0890AEBE7FEF76F
S315000028408AFA288836182E800124204627B0BDE84B
S31500002850F08F2DE9F04FC84E8BB0307868B10A93EF
S31500002860187A002804BF1B68002B06D0199CE02CA0
S3150000287018BFE22C01D0179B0BB1012018E1DDF83F
S3150000288074901C9DDDF868A0DDF85480149F8DF8C7
S3150000289024208DF82510834609F091FA0690CDF88C
S315000028A020A09DF82510189807910290CDF8149055
S315000028B09DF824100A980495039401970091024606
S315000028C0437A01684BEA071040EA881444F4006032
S315000028D008F099FCFFF766F90446F2202071607152
S315000028E0052009F091FB707910B100F012F80DE0A7
S315000028F09DF82400A0F10C05E088A57240F00200C6
S31500002900E0800A980AF0C2FF00F08CF800F03AF96D
S31500002910B3E7F1880020FFF70BB92DE9F84F1C4605
S315000029208AB00546207A002804BF2368002B77D09A
S3150000293030B9236813F1070F02D313F1010F6FD1DA
S3150000294002280AD10023D8B2205C18B95B1CDEB27B
S31500002950082EF8DBDBB2082B62D0169800285FD170
S31500002960179E237A300018BF43F008037E2D159872
S3150000297018BF7F2D03D143F4007300B10420149DCA
S31500002980DFF8F491DDF868A0DDF87080DDF874B04A
S315000029908DF824202F0143EA801347F400673B4358
S315000029A099F80500ADF826300F4698B109F007FAF8
S315000029B000F03EF8002E14BF2020052009F024FB6D
S315000029C0FFF7F0F800F0DAF80020B9F80610FFF784
S315000029D0AFF823E009F0F3F900F02AF8FFF7E2F880
S315000029E000F0CCF89DF82410A1F10C05C188857281
S315000029F041F00201C1804EB17F0907F00607C7F119
S31500002A0003077F073F0E2037B8B200E0052009F024
S31500002A10FBFA20460AF03AFF00F004F800F0B2F89C
S31500002A20012045E00146EAB24FF6FD70FFF7A3B874
S31500002A300690CDF820A00797CDF814B0CDF81080F9
S31500002A40019522469DF864001899039002919DF81D
S31500002A5024000090637A2168BDF8260008F0D3BBF5
S31500002A6001E0000000BF2DE9F84F8AB0DDF854E020
S31500002A70DDF858C0DDF85080179FDDF86090199E8C
S31500002A80DDF868A01B9D1C9CDDF874B0CDF808C06D
S31500002A90CDF804E0CDF824B008940795CDF818A039
S31500002AA00596CDF810900397CDF80080FFF735FF17
S31500002AB00BB0BDE8F08F2DE9F84F2F4E8AB0347871
S31500002AC0002C1EBF347A04F00304012C52D00825D2
S31500002AD07E281598149CDDF860B0DDF86480DDF87A
S31500002AE068A0DDF874908DF8242008BF4FF40275B5
S31500002AF0800140EA041040F400602843ADF8260047
S31500002B000F461C9D707968B109F059F900F03DF83F
S31500002B10FFF748F800F032F8202009F075FAFFF7C1
S31500002B20F8FE25E01E4609F04AF900F02EF8FFF7F8
S31500002B3039F800F023F87F0907F006079DF82410FE
S31500002B40C7F103077F07A1F10C04C18841F0020118
S31500002B503F0E8472C1802037B8B209F055FA30466C
S31500002B600AF094FE0146E2B24FF6FD70FFF703F855
S31500002B7000F008F801209BE77CF10320F2210171A7
S31500002B8041717047002009F03FBA0690CDF820A0A9
S31500002B900797CDF814900495CDF80C80CDF808B0C1
S31500002BA0019400239DF8240000900022BDF8260021
S31500002BB0002108F028BB2DE9F84F9AB092462B98D1
S31500002BC00246FF2A0F461C4600F0D6804821DFF851
S31500002BD0D0334A4319680D1D091DAB5843F40073E1
S31500002BE08B5008A943F48063AB5008F094FB00288F
S31500002BF040F0C2800794002194F808904FF00C082A
S31500002C0008A808FB01F2104490F82C00002814BF15
S31500002C10032849F0080903D0022808BF49F0200913
S31500002C20491C0229ECDB9DF82400299D279C0106FE
S31500002C302499259848BF49F0100949EA811242EAC9
S31500002C400020E02D40F4A04018BFE12D1FFA80F9C6
S31500002C5003D1DFF85023107810B10CB149F40069A4
S31500002C608DF818A0289E01B95646DDF8B4B0DDF8F7
S31500002C70B0A009F0A4F8FF2105910490CDF80CB09E
S31500002C80CDF808A0019500967F090798437A016858
S31500002C90024607F006074846C7F1030708F076FA2A
S31500002CA07F073F0E07F120059DF818A0079F4FF0FC
S31500002CB00009AAF1090B08A808FB09F1084400F16C
S31500002CC02C063078002818BF03280DD1FEF76AFFBE
S31500002CD0FFF754FF002C14BF2020052009F094F9BB
S31500002CE07189FFF717FE1CE002281CD1FEF75AFF78
S31500002CF0FFF744FF80F80AB000F04AF814BFA8B204
S31500002D00052009F081F9B0884FF6FF71884204BFAB
S31500002D1038460AF0BBFD014670885FFA8BF2FEF773
S31500002D20F8FEFFF72FFF09F10109B9F1020FC2DB27
S31500002D309DF8240001061FD5FEF734FFFFF71EFF9E
S31500002D4080F80AA000F024F814BFA8B2052009F004
S31500002D505BF90998810448BFBDF8348003D438462E
S31500002D600AF094FD804638460AF090FD52464146E8
S31500002D70FEF7CFFEFFF706FF01201BB0BDE8F08F80
S31500002D8088F10320F0F10320E8F10320007102002E
S31500002D90002CC18841F00201C1809DF86410C17207
S31500002DA0704700000800020088D90320D4560300AB
S31500002DB0012070472DE9F84F06467A480C46017AFD
S31500002DC0C8079EB0154603D59DF8B410E32972D105
S31500002DD09DF8A0000B93002802BF724908780028CE
S31500002DE010D1184608F0EDFAFF280BD00CA908F010
S31500002DF092FA00285FD10D9841045CD49DF84600F4
S31500002E00002858D1002E18BF7C2E8DF8286005D0DA
S31500002E107F2E50D16349087800284CD061498DF83F
S31500002E202A408DF829500878299C2A9D2B9EDDF88A
S31500002E30B090DDF8B8A02F9FDDF8C080DDF8C4B0F3
S31500002E40002863D0280003D000F079F8FFF701FDD1
S31500002E509DF828007F2804BF9DF8A000032805D10F
S31500002E609DF8B40000F05DF8032145E09DF8B4003C
S31500002E70E02836D02AD3E2281ED002D3E32820D079
S31500002E8024E09DF8A0100B9B9DF829200091E120DD
S31500002E900590CDF824B09DF82A109DF82800CDF8AD
S31500002EA020800797CDF818A0CDF8109003960295CC
S31500002EB00194FFF7D5FD31E000F043F8FFF7D2FDAE
S31500002EC02CE000F03EF8FFF7F6FD27E09DF828100D
S31500002ED07C2909D1A0F1E4020C2A24BFB0381028BD
S31500002EE018D200F02CF80EE07F2913D19DF8B4001B
S31500002EF09DF8A01000F015F800910B9B9DF8292075
S31500002F009DF82A107E20FFF708FD07E09DF8B40023
S31500002F10E22803D000F013F8FFF74DFE1FB0BDE81E
S31500002F20F08FCDF824B0CDF820800797CDF818A003
S31500002F300590CDF8109003960295019470479DF880
S31500002F40B4009DF8A010059000910B9B9DF82920D8
S31500002F509DF82A109DF82800CDF824B0CDF82080E1
S31500002F600797CDF818A0CDF8109003960295019416
S31500002F707047002800D0704710B50A4C207AC10768
S31500002F8007D507F0A7FD00202072BDE81040FFF727
S31500002F90CBB810BDC2FE0320ACD80320E056030018
S31500002FA0DCD103207CF10320912800D0704780B546
S31500002FB000F04BF918B9BDE801400AF08FBD01BD1C
S31500002FC080B5A0B080787D22694604F026F801001D
S31500002FD01CBF694602F0CBFB21B000BD38B50A46DE
S31500002FE0014610460AF098FEFF28044601D1182033
S31500002FF032BD0BF0A5FD054620460AF00AFE28461E
S3150000300032BD80B502F0B4FABDE80240012010B529
S31500003010040014BF084800200BF07CFE50B1002CC1
S31500003020BDE8104014BF054A054A0346054902207B
S3150000303001F073BC10BD0000A45303008C530300C1
S31500003040985303006053030038B50BF0CBFF0BF029
S31500003050D0FF78B101F0EBFB60B1094C207804F0A9
S31500003060A7FA0546207804F0E4FA3DB1BDE8314000
S3150000307001F0DCBBBDE831400CF00AB831BD000000
S3150000308077FF03207047FEE780B5522200215048A3
S31500003090FEF721FCBDE8084091E02DE9F641044623
S315000030A001F086FA0646204601F092FA9DF80010D5
S315000030B022464FF6FF7516B3019B1B78212A1EDAAE
S315000030C04220022B434E09DA4343F01830F81230FF
S315000030D0AB4214D05B1C20F8123010E00FD1002355
S315000030E006EB420700FB03F637F806E0AE451CBFC9
S315000030F00EF1010E27F806E05B1C022BF2DBDFF86F
S31500003100D8C0334E3CF8123036F812709F428041D8
S31500003110C043C00FAF421CBF7F1C26F81270092C9B
S31500003120BCF8147018BF0B2C08D1B6F814C001EB0C
S315000031300C0EBE450FDA6144B1820DE01D2C0BD199
S31500003140B6F83AE0BCF83AC001EB0E08E04502DA00
S315000031507144718700E0B78236F81210994203D3A2
S3150000316010B9204601F05BFB00201C49C6B28A5DFF
S31500003170A24204D0401CC6B2112EF7DB17E0112E76
S3150000318015DA02F094F80446154801788C4203DB00
S31500003190E021144804F0E4FA2220134944430819B4
S315000031A030F81610A9421CBF491C20F81610BDE8BD
S315000031B0F381522200210648FEF78DBB00BF522242
S315000031C0FF210548FEF787BB034A22F81010704717
S315000031D070F503203CF60320C4F50320D4770300E2
S315000031E0C5D40320C477030018F60320DFF8EC19D2
S315000031F0C873704710B5DFF8E8492068427B112A8A
S3150000320004D0B021DFF8340B04F0AAFA206841217B
S31500003210417310BD80B5022002F04FF802F056F857
S31500003220DFF8BC19DFF8100B0A68137B042B03D1F7
S31500003230017C491D017404E04FF47A71183004F0E2
S3150000324009F9BDE8014002F042B8DFF894090168C7
S31500003250487B33281CBF4328532801D101207047DF
S31500003260002070472DE9FF410BF026FF08F0ACFE69
S31500003270002851D0DFF8644900202076DFF8C00A24
S3150000328001790C3000F0F0FF607D18B10CF0A6F863
S315000032900020607500212173002500F03FF80CF036
S315000032A0FCFF0BF059FFDFF89C8ADFF83469DFF882
S315000032B0987A3978E8B288422ED202F007F8306858
S315000032C041884FF6FF72914218BF012007D10022B4
S315000032D00821001D01F024FA401E8041C00F94F819
S315000032E0281001F00101014212D030684188ADF882
S315000032F008100822011D6846FEF7A6FA0A230A22CC
S3150000330000F0F8FF02230B22414600200DF0C0F921
S3150000331001F0DDFF6D1CCCE7BDE8FF8110B5DFF8DD
S31500003320C0080068017B032918BF042906D141881B
S315000033304FF6FF72914208BF032008D001F057F9FB
S31500003340044601F058F9214603F07FFA022001F005
S315000033505AF90DF04DFA00F053FEBDE810400CF09E
S31500003360C7BF38B5DFF87448DFF87458E07300213A
S315000033704FF6FF7001F08EF82968487B032818BFC6
S3150000338000281ED0332818BF432814D101F030F886
S315000033902868017B032918BF042906D1032141733C
S315000033A0E07BBDE8324001F0F0BFE07B01F0EDFFCD
S315000033B0BDE83140B2E721204873BDE8314005F051
S315000033C0C1BC31BD10B5DFF81818DFF86C490A68C2
S315000033D0002050734FF6FE7008F0F5FC4FF6FF70B4
S315000033E008F0F9FC01F004F8E07BBDE8104001F0BC
S315000033F0CCBF000038B504462346182200F0FAFF79
S31500003400DFF834090021220080F8201002D0FF2CBA
S3150000341002D10121017507E00122A50002756D1C8C
S315000034202902203004F016F800F0EAFD002032BD33
S31500003430DFF80409007D7047DFF8FC18002081F8EA
S315000034402000D7E738B50D4688B00446686907906E
S315000034501622297C0691E8890590297B0491E87A51
S315000034600390032095F90A1002912B890BA1019371
S31500003470009523460DF039FB01200BF0D7FF287B82
S3150000348000280CBF4FF6FE7008F099FC2B4622462A
S3150000349009B0BDE830400146012092E04242387052
S315000034A057424242574244002DE9F041DFF8305777
S315000034B00E4629688046487B002814461F464BD195
S315000034C0200049D0042C47DCDFF8800801780B295E
S315000034D042D101F0FDFE00283ED101F0FBFE08B10D
S315000034E0042C39DB387B032816D14FF6FE718E4249
S315000034F014D1012C08BF002610D0022C2CD108F0C4
S315000035005EFC4FF6FC71884202DA08F058FC01E0D6
S315000035100DF023FB064601E0012C1DD0B8F1000F8B
S315000035200CD0387B03280CBF012100212046012C3A
S3150000353018BF00200DF054FD010026D13946304653
S3150000354000F03DFE010020D101F0BCFE01F0A1FE1D
S3150000355020B101F0BFFE08B1702016E02868407B5C
S31500003560332818BF532803D0DFF87016002088735D
S31500003570204600F0FCFDDFF8081A087820B101F0BB
S31500003580A9FE08B90EF081FE0020BDE8F08138B52D
S315000035900446DFF8485608222146281DFEF754F94E
S315000035A0207B0328A8BF00209421E9732870DFF848
S315000035B0301628780A6800280CBF01203120507385
S315000035C031BD10B51C46FFF76FFF01002BD1207BE4
S315000035D00328204602D1BDE8104050E0FFF7D7FF90
S315000035E0DFF8F805DFF8F845002181814FF0010387
S315000035F02068817B480905D1DFF81C0C027803FAA4
S3150000360001F108E001F01F0140F0180003FA01F192
S31500003610052241EAC061052007F0A5F9010002D0A4
S3150000362022680021517310BD38B5DFF8B4552968FA
S3150000363004462078887301F006FE2968DFF8240C1A
S315000036400A7B825C218960890FF06DF9040004D041
S315000036509420FFF786FE204632BDDFF88045942091
S31500003660E073022001F028FE00F004F80320207425
S31500003670002032BDC82104F1180003F0EBBE10B5DE
S3150000368004460022082101F04BF808B1012010BDC4
S3150000369008F095FB00224FF6FF7100F0BFFD217C7C
S315000036A0204600F0E1FD6269E189207C0DF0D0F84A
S315000036B0DFF82C0501680A7B012A08BF0EF028FAFC
S315000036C0FFF72CFE002010BD7CB5DFF814552968E5
S315000036D00446487B002802BFDFF8701608780B28DE
S315000036E001D0702076BD0BF0AAFEDFF8F0642CB195
S315000036F00222214606F12800FEF7A6F8684600F0E9
S31500003700A1FE08B1932076BD9DF80030142200F08A
S3150000371071FE00F0F3FD010061D19DF8000000F09C
S3150000372026FD2868007B012818BF022807D0032839
S3150000373018BF042838D1002000F0CDFEA0B300F059
S31500003740F4FD2868007B032814BF04280FF0B9F99C
S31500003750FFF7E4FD01200FF0D5F901003FD12868FD
S31500003760007B032818BF04280ED196F828108A0774
S3150000377008D50522DFF88418012000F045F801007D
S315000037802CD076BD032801D0042827D1DFF8B44514
S3150000379002230B22214601200CF07AFF20784107F4
S315000037A01CD50BF0D1FD19E02968132048730022BF
S315000037B072734FF001022868817B480908BF02FA3C
S315000037C001F107D001F01F0140F0180002FA01F1E3
S315000037D041EAC0610522072007F0C5F8002076BD42
S315000037E010E0000038B504461046032818BF042828
S315000037F00D4601D0022032BD00F0B9FC2946204614
S31500003800BDE83840FF2200BF2DE9FC418046DFF8C5
S31500003810D00300680D46017B0129164640D0477B40
S31500003820022F07D0032F3BD15FEA080102D1007DAA
S31500003830810735D4332000F0E6FE0BF03DFC15F091
S31500003840784F12BF0522DFF8D009027829460520F5
S3150000385007F089F80446A8B9DFF8DC74387301204C
S315000038600BF0E4FD08F0B3FA78805FEA080014BFB5
S31500003870022001203870381D00F0FBFD002078730F
S31500003880BE7302E0384600F0BEFE5FEA080031462D
S31500003890284602D00FF057F903E00FF053F900E085
S315000038A070240194009543465FF02C0203A1032087
S315000038B00DF01BF92046BDE8F68100004242444265
S315000038C00000000038B504460AF02EF905462046E9
S315000038D00FF061F92C1820460FF068FA4FF6FF51E9
S315000038E001402046BDE834400FF067BAFEB50546F4
S315000038F008F065FABA4C216806462878887301F004
S31500003900A2FC6889002100F0C5FD00F01BFF60B134
S31500003910300003D04FF6F8718E4206DB0DF01DF92C
S3150000392021684A8890420646F8D0304608F04BFA9D
S31500003930288908F050FA06208DF80800DFF82419C7
S315000039402068027B8B5C8DF8093000210191009183
S315000039500223408802AA01210FF080FBFF280646B9
S3150000396004D11820FFF7FDFC1820FEBD20689B4DF2
S31500003970418830460FF050F9287802281CBF30469F
S31500003980FFF7A0FF00F063F8074630460AF041F95A
S31500003990CFB19420E873022001F08EFC2068017BF1
S315000039A0042908D1C82105F1180003F053FD0320AE
S315000039B028740020FEBD4FF4167105F1180003F0BF
S315000039C049FD0020F4E79420FFF7CBFC0120FEBD63
S315000039D078B587B00C4616461D4630B920460FF01E
S315000039E003FD03A90EF05FFB03A8019007230C99C2
S315000039F08DF8096001208DF808308DF80B100090C5
S31500003A00360A8DF80A60042302AA012120460FF027
S31500003A1025FBFF28064618D021460FF0FDF815B9FC
S31500003A203046FFF74FFF0D9808B930460DE02046A7
S31500003A300EF072FB18B130460FF004FD01E000F005
S31500003A4006F830460AF0E5F8FF2008B070BD0022FF
S31500003A500021304610F038B82DE9F34F83B0824686
S31500003A6014461D4600274FF6FF7954B120460FF045
S31500003A7030FB667876084FF0010B804606F00106AB
S31500003A8005E008460FF031F9BB460026804600F0F7
S31500003A90E5FB087B032818BF042800F09C806D1CFA
S31500003AA09DF81000E9B20AF055FA0546400800F004
S31500003AB001008DF809008DF808A0280600F0CEFB5D
S31500003AC04A7B58BF45F08005022A04D1434A107D3F
S31500003AD050EA0A0101D1022729E0404608F01EF902
S31500003AE0ADF8000003219DF810000FF04EF8814656
S31500003AF008B94FF0010930000CBF4FF0050A4FF02E
S31500003B00010ABBF1000F03D0201D0FF04FF901E0B1
S31500003B10BDF800000146CDF8009053462A464046BF
S31500003B200EF0DCF900F0D3FC814608BF0127DCB1BA
S31500003B309DF8080018B9484600F0C9FC02D1201DBE
S31500003B400FF034F9012101910097014633464A46A8
S31500003B504046FFF73DFF9DF8090050B94FF6FF714B
S31500003B60404610F08EFA04E03A46494640460EF0CA
S31500003B70B3FE87BB9DF8090028B14146484610F0C0
S31500003B80A4FA10F0F1FA30001EBF48464FF6FF7156
S31500003B9088420BD00FF028FCDFF8B8190A6832F813
S31500003BA010304BF6FF710B4022F810309CB108F034
S31500003BB006F90EB1002405E09DF80810002914BF8F
S31500003BC003240124014643464A46204605B0BDE883
S31500003BD0F04F10F06FBC05B0BDE8F08F58F8032029
S31500003BE020F903202DE9FC470C46054601A90020D3
S31500003BF00860904620460EF0D8FF29000646DFF8FA
S31500003C00587907D00FF065FA814630460FF056FA1C
S31500003C10824604E020460FF068F88146BA46002046
S31500003C20009004234246214601A80AF091F80DF1BE
S31500003C3005000FF0BBF880469DF80740280006D027
S31500003C40082239465046FDF74DFE00286FD1DFF8B1
S31500003C500C793968C87E10B17078820712D52800B1
S31500003C6010D0487B022808BF002C0BD1404608F034
S31500003C70AAF80CF012FB992300F0BBFB992001F087
S31500003C8084FB54E000F05EFD002818BF002C03D032
S31500003C909420FFF766FB4AE000F054FD002846D06A
S31500003CA0484610F07FF8FF2801D0290004D1386873
S31500003CB04088494610F009FA10F056FA38681E4C4A
S31500003CC041884A46404600F0A9FA1D4890F902107C
S31500003CD0090261853868417B012916BF3129112106
S31500003CE043214173022001F0E7FADFF87408016806
S31500003CF0FFF7C1FC0EF0E5FE002020743968C87E8F
S31500003D0020B904F1180003F09BFB0EE02DB170788A
S31500003D10820702D5FFF7A6FA07E0087B042804D13C
S31500003D200521FFF7A8FC09202074AD21E17301F0FD
S31500003D308AFABDE8F387000058F80320944500008E
S31500003D4090F803205AFA0320C5D40320DFD40320B9
S31500003D502DE9F04F8DB005460EF027FF82460EF096
S31500003D606FFF009028460EF0C0FF814602AB052289
S31500003D7005A9284610F0D0FE0228804620D0284605
S31500003D800EF009FF00999DF80820DFF8D077081893
S31500003D908618F1B228460AF0DDF8F41C01284FF621
S31500003DA0FF7B0ED0022813D0042800F0C680062818
S31500003DB01CD0072876D0082829D07C2800F08980D6
S31500003DC0DBE0F3B2002229460020FFF745FED4E0EF
S31500003DD03868417B012902BFDFF888271078002860
S31500003DE003D1F2B22946FFF7FDFEC6E048460EF0C3
S31500003DF040F9014658451CBF48460EF039FD386863
S31500003E00417B022902D148460EF08DFEB5E0711CB9
S31500003E10C9B228460AF052F98246E1B228460AF0AB
S31500003E204DF90446B61DF1B228460AF047F9584541
S31500003E300646EBD00EF045FE3868417B132908D1C3
S31500003E4000F073FA28460EF050FF0146204610F0A7
S31500003E503CF93868407B022818BF13281CD130462D
S31500003E6007F0B1FF504607F0B6FF0021002000F032
S31500003E70FBF94946204600F00DFBDFF8EC06DFF8BB
S31500003E80EC16C0780F28B4BF401C0F20087000F055
S31500003E90B7F83868417B13296FD12322427306F0A5
S31500003EA023FE6AE000980121504409F035FF0446DC
S31500003EB000230022214601200EF040FE0028204665
S31500003EC059D009F0A6FE05AA414628460BF0C4FAC9
S31500003ED053E0284609F028FEF6B280194178652994
S31500003EE004BF80786D2848D1DFF884160A68515DD2
S31500003EF0E0B2884241D20822494603A8FDF7A4FC55
S31500003F006B460022E1B228460EF080FFA8BB9DF862
S31500003F100000FF2831D0DFF85C460120207001F058
S31500003F20D0F99DF8001003A80EF0F2FD01F0CFF9CC
S31500003F30002020709DF800001DE028460EF0F4FEDB
S31500003F4004460FF260600088ADF80A000021019176
S31500003F50009102230DF10A02012120460FF07EF89E
S31500003F60FF28054609D021460EF056FE00212846B8
S31500003F700AF014FB284609F04CFE0DB0BDE8F08FA0
S31500003F80DCD4032038B5022001F097F901F09EF940
S31500003F90DFF8D045DFF8C4550020207608F014F885
S31500003FA028B12968C87E10B9FFF75CF920E008F04F
S31500003FB00BF810B900F0C6FB48B1207C38B1FFF70A
S31500003FC059FB207C411E21740AF0D7FB10E02868BB
S31500003FD0417B132909D000F0B5FB30B92868407B36
S31500003FE011281CBF4328412802D1E07BFFF7B9F90D
S31500003FF0FAE1DFF8701500200874704700F8FF0733
S3150000400010B501F072F9FF28DFF8584503D0207D7E
S3150000401010B1012000E000200EF032FB002060808D
S315000040200822201DBDE810400021FDF754BC2DE9F3
S31500004030F8438946DFF82C45DFF82C850121054633
S31500004040617384B0174640460BF0D3F904F09DFB2C
S3150000405000281ED1012D01D028001BD100974B4608
S31500004060262297A103200CF040FD01F02AF9DFF883
S31500004070080504683CB1012D08BF06F0D5FE394697
S315000040804846A04703E03946484603F0D4F801F015
S315000040901EF95FE0DFF8C4643068407B23280DD149
S315000040A000F0A5FA044600F0A6FA214602F0CDFB80
S315000040B0022000F0A8FA0BF04FF84BE0002F49D190
S315000040C021281CBF0428532802D104F03BFE41E0FE
S315000040D000F038FBF0B10BF0A5F928B9207B0028D9
S315000040E00CBFAB2094202AE011F007FA40460BF0F3
S315000040F080F928B140F2AC610FF2984003F030FB32
S3150000410020780028404602D1FFF78EFA22E0FFF71A
S31500004110EDFB1FE03068417B132916D100F0E6F86D
S31500004120BDF8000007F057FE00F0FFF83068017B8D
S31500004130032918BF042905D1332141739620FFF7BF
S3150000414010F907E0FFF7EAF804E0042D04BF48463B
S3150000415012F014F84FF400600DF00AFE10B90FF0DB
S3150000416011FD08B10AF04EFA05B0BDE8F08338B586
S31500004170DFF8E85304462868017BA14203D00473A4
S31500004180204601F0FBF804F00FFA40B11CB90020FC
S3150000419004F006FA0EE0012004F002FA00E01CB179
S315000041A02868017B042905D101F05AF8FF2808BFC9
S315000041B0012000D00020BDE832400AF0F5BC38B539
S315000041C00C460546E07A10F021FFFF2801D18A202F
S315000041D032BD94F90A0000F0C1FA08B18B2032BD55
S315000041E0DFF878030268E17A91730068A17AC173F7
S315000041F0284607F0E8FD4FF6FE7085420CBF4FF6E5
S31500004200FF70208907F0E7FD2089DFF85813488002
S31500004210002032BD00000000DDD4032038B50C4676
S31500004220154607F0D0FD0CF067FC2946204600F045
S3150000423031F90BF0F7F838B1DFF82C03C0780F2806
S31500004240ACBF0F20401C06E000F008F80A7B012AEC
S315000042500CBF00200120C549087031BDBF48016868
S3150000426070470000602301007FB504460D4600F04C
S315000042703DF8BA4E94B1424A002128460CF0E8FABD
S31500004280306801788DF804100822007B8DF805004F
S31500004290214602A8FDF7D8FA12F0EDF83068817BC6
S315000042A08DF80310C17B8DF8021007F090FDADF874
S315000042B0000007F084FDADF8060000F019F87FBD98
S315000042C0424242001FB5044600F010F81CB100201F
S315000042D08DF8050007E007F072FDADF8060007F05F
S315000042E076FDADF8000000F003F81FBD684649E012
S315000042F010230722694600200CF0CAB980B58AB09F
S31500004300FFF7F4FFBDF80000ADF8180004A99DF80A
S3150000431003008DF81B009DF802008DF81A00BDF809
S315000043200600FFF74CFF0BB000BD70B586B001204C
S3150000433000F0D1F80FF270210400D1E90023CDE995
S3150000434000234FF6FF752E4607D08448006846883E
S31500004350011D08226846FDF777FA12F097F802A8C1
S3150000436000F010F8002C0EBF00226A463546BDF854
S315000043700E002946FFF752FF07F0F1F906B070BDAF
S3150000438000F8FF0701461023072201200CF080B930
S3150000439038B5082000F091FF054600F097FF6F4CF6
S315000043A0764822680178917300F08EFFA84208BF14
S315000043B000F01EFF00210020FFF756FF2068007B5B
S315000043C0032818BF042802D112F019FB01E00DF0F2
S315000043D07AFF9B2300F00DF89B2000F0D6FF2068A3
S315000043E0002120F8441F4180BDE8314000F06FBF36
S315000043F0E37B132256A103200CF077BB10B50446CD
S3150000440010F004FEFF2801D18A2010BDFFF726FF19
S31500004410487B022818BF032801D0702010BD5748DA
S315000044200470082000F048FF554801780B2901D098
S315000044303D2010BD53480AF068F808B9A12010BD08
S31500004440002010BD1FB504466846FFF79BFF9DF888
S31500004450050040B1042806DC40490A689DF80410AE
S3150000446013788B4201D0932001E02070002004B025
S3150000447010BD1FB504466846FFF784FF082202A94F
S315000044802046FDF7E1F91FBD34493F480A68137B12
S31500004490C05C704710B5314C2368588029B9BDE817
S315000044A010400822181DFDF716BA0822181DFDF740
S315000044B0CBF9216848884FF6FF72904204D0BDE8D8
S315000044C01040091D0EF042BB10BDBDF808004FF6A6
S315000044D0FF71884270471FB50446224890F828109D
S315000044E0C80707D500F016F8FFF7EFFF02D000F077
S315000044F00CF808B1002006E024B1BDF808006946B2
S31500004500FFF7C8FF012004B010BD0822FF2168464E
S3150000451000F006B90A230A22694601200CF0B8B851
S315000045201A4A107000281EBF19490988002905D0AB
S315000045304FF47A704143101D02F08CBF7047134848
S315000045400078704711480021017101707047000022
S3150000455042420000A4D1032028F9032020F90320B9
S315000045604CD2032058F8032090F80320E0FF0320E4
S3150000457090D10320C4F80320FCF80320CEFF0320CB
S31500004580DFD40320914300006023010084F8032058
S3150000459092D403206173736F63696174696F6E2EC1
S315000045A06300000004600000FFFFFFFFFFFFFFFF46
S315000045B020B500217BA2CBB2D35C834205D0491C37
S315000045C0CDB2082DF7D3002020BD012020BD00006C
S315000045D020B5002175A2CBB2D35C834205D0491C1D
S315000045E0CDB2082DF7D3002020BD012020BD6A489A
S315000045F001684888704768480168081D7047664822
S315000046000168C87E704738B5634C644D21684873AD
S315000046100228634915D12068027B042A1CBF08467C
S3150000462002F00EFF2068007B03281EBF04282846E0
S3150000463002F006FF20684169C80054BF9024BC24DC
S3150000464010E000200870287012F0EEF92068007B58
S31500004650032818BF042802D112F0D1F901E00DF0A9
S3150000466032FE9124204603F0CFFD50B92346132293
S3150000467048A103200CF039FA2046BDE8324000F08C
S3150000468084BE31BD44480168487B00F00F00704786
S31500004690414801684A7B02F00F02022A01D101203B
S315000046A070470020704738B50446FFF7F1FF3A4DD2
S315000046B028B92868417B032901D0932032BD07F031
S315000046C086FB20812868C17BA1722868817BE17204
S315000046D02046FFF7CEFE0020207304F1140104F1FA
S315000046E010000CF08DF8E081002032BD70B52A4D27
S315000046F02E680C46FFF7CCFF20B9707B032801D04B
S31500004700932070BDF07B20702968887B10F0D5FA65
S3150000471060702868817B01F01F01A170002070BDC8
S3150000472010B5002300E05B1CDCB28C4205D210F809
S31500004730014B9442F7D0002010BD012010BD082186
S3150000474012F074B914480168487B01281CBF31284F
S31500004750332801D1012070470020704710B5044668
S3150000476010F014FC010002D10B490A68D47310BD85
S315000047700948016891F90F00704707480168887B6E
S31500004780704701207047044801688A7B500918BFAA
S31500004790012070474242000020F9032058FB032005
S315000047A060FB03200001020304051D20020304052B
S315000047B008090A0B70470120704701207047012045
S315000047C070477047B52070477047704700207047A4
S315000047D00020704700207047002070470020704777
S315000047E00020704700207047002070470120704766
S315000047F001207047B52070470020704700207047A1
S315000048000020704700207047704700207047002046
S315000048107047002070478420704770477047704784
S3150000482070470120704770477047704770470120F6
S3150000483070470020704700207047034801680878D9
S31500004840012808BF0220704700D90320704770472F
S3150000485070470020704700207047002070470020F6
S3150000486070470020704700207047002070470020E6
S3150000487070477047B520704700207047002070478A
S3150000488070477047704770477047B520704770474C
S315000048907047704700207047704770474FF6FF72A9
S315000048A09042014608D0000A01D0002070473A48DD
S315000048B0027811EA020000D001207047020A07D1EF
S315000048C0354A1378002914BF184323EA00001070F4
S315000048D0704710B5830800EB5374C108E408012241
S315000048E0A0EBC40002FA00F000EB012080B210BD7C
S315000048F0F8B504460D4616461F46FFF7CFFF58B1DA
S315000049003A463146202012F0EFF91DB11FA12020B2
S3150000491012F0E2F921480480F1BD0CB480B50A46D4
S3150000492002AB012104E00CB480B50A4602AB0021BB
S31500004930FFF7DEFF01BC5DF80CFB2DE9FC4100240E
S31500004940174DDFF8608012A712A6A0B2FFF7C1FFCD
S31500004950FFF7A4FF002814BF3046384600902246D1
S3150000496058F824302946202012F0A3F9202012F00E
S3150000497006FA641C052CE8DBBDE8F3810122FF2161
S3150000498001E0012200210448FCF7A5BF0D0A000042
S315000049906E6F000059455300AED40320C6FE0320B7
S315000049A06C43030084CA032080B5FFF792FFBDE87D
S315000049B00440012182E780B5FFF78BFFBDE8044084
S315000049C000217BE7F0B50A463F4C3F49B0FBF4F4C3
S315000049D001FB14004FF46165B0FBF5F515714FF45A
S315000049E0616115794D43411B3C26B1FBF6F65671C4
S315000049F03C21577911FB0755401B907101234FF459
S31500004A00FA6010809370D37000262E4D03E00023C9
S31500004A1000E00123761CA64235D29078190003D017
S31500004A20022808BF1D2102D0291811F8011CD778C9
S31500004A30B94203BF401C907001277F1C9078D77045
S31500004A400D28E7D113885B1C1380012090709BB260
S31500004A505F0803EB97708008B3EB8001D7D1642021
S31500004A6093FBF0F0642101FB10300028D1D14FF404
S31500004A70C87093FBF0F04FF4C87101FB10335B1E56
S31500004A809B41DB0FC6E7F0BD18B587B0044605A904
S31500004A90FFF798FF9DF81A009DF819109DF817303A
S31500004AA09DF816200390029104949DF81800BDF815
S31500004AB0141001900091054805490088FFF72DFF65
S31500004AC008B010BD3046030080510100C6FE032029
S31500004AD00C460300FFF7D8BEFFF78EBE2DE9F04166
S31500004AE004460D4616469846FFF7D8FE50B10027F5
S31500004AF005E02A5C41462046FFF715FF7F1CB8B249
S31500004B00B042F6D3BDE8F081002B14BF3BA33CA313
S31500004B10E4E738B504460D462846FCF7ABF90246ED
S31500004B20691CFFE7204601B0BDE8304035A3D5E754
S31500004B3018B587B001783A4C06914278059281788B
S31500004B400491C278039201790291427901923E2240
S31500004B5081790091C37920883049FFF7E4FE08B0D7
S31500004B6010BD014600220220FFE72DE9F84F8846D6
S31500004B709246002625A726A40FF28C09284D8DF80B
S31500004B8000009DF800B05E4515DA2888012308224A
S31500004B9008EBC601FFF7B8FF5FEA0A0004D1701CF4
S31500004BA0584518BF4A4600D1224628883946FFF79D
S31500004BB0BAFE761CE5E7BDE8F18F2DE9F041184D08
S31500004BC004462888FFF76AFEB0B10120002611A727
S31500004BD00FF24408E1070AD518B928884146FFF7BD
S31500004BE0A2FE2888F2B23946FFF79DFE0020761C09
S31500004BF06408F1B21B29EDDBBDE8F08125782000C1
S31500004C0025780000256300000000000020257000C4
S31500004C100D0A0000256400002C200000FC42030061
S31500004C20C6FE03201CB5044621684879FBF72EFC16
S31500004C3088B92068418803290DD0E27C0192009151
S31500004C4043790A4A0A490120FFF767FE01212046F7
S31500004C50FBF7E1FE07E0204612F0B5F801001CBFA5
S31500004C602046FBF7D8FE012016BD00BFA84303006F
S31500004C707C4303000098002100E0491CCAB282422E
S31500004C80FBD370472DE9F04F044687B02168E07CDE
S31500004C90B1F802900490607DD4F80880A689277D3B
S31500004CA0002807BF40228DF80C2080238DF80C3099
S31500004CB04879FBF7EBFB88B90498002818BF02284F
S31500004CC00CD003281CBF0528B9F1030F06D0DFF866
S31500004CD024140120FFF721FE0121E8E1E07B18B151
S31500004CE0218A002900F03681DFF80C3400221A8070
S31500004CF0617D00290CBF0821002108B141F00401A3
S31500004D000846FCF728F8E07B10B1208AFCF732F859
S31500004D10A07CDFF8E8B3FCF71EF8049AF51B791CB3
S31500004D20162A88B208EB070A00F21081DFE812F0B3
S31500004D3017001A01830034004501830009014A0166
S31500004D4014014F0154015901D10070010E010E01E9
S31500004D500E018101AA018101B401D1007001012077
S31500004D60FBF7F9FF9DF80CA0DFF88C53B8B2801C56
S31500004D708642C0F2AB803246B9B24046FCF758F8DC
S31500004D80834600F0DBF900F0BFFB18B900F0D6F956
S31500004D9004F081FEBF1CE9E70420FBF7DCFF0025D9
S31500004DA0ADF80E902BE00598CDF808B001904A4674
S31500004DB0218A9DF80C3000912068BDF80E104079CC
S31500004DC004F081FD010017D010E0584612F098FB60
S31500004DD082465846FCF7B3F800285FFA8AFAE2D012
S31500004DE0F01BA0EB0A00C01EDDD58020FBF7B3FF49
S31500004DF04846FBF7BFFF6D1C5744FF1CBFB2F81CAB
S31500004E008642C0F25D8100F094F9814608F1020005
S31500004E1008F1030110F807B0394405915846FCF72C
S31500004E208EF80028D1D00598FCF724F800F1010A85
S31500004E30CFE7B14908800420FBF78DFF0025ADF8C8
S31500004E400E90CDF81480AA46069620E0FBF783FF65
S31500004E504046FBF78FFF6D1C15E0304612F050FB05
S31500004E6081460296CDF804B04246208A9DF80C3061
S31500004E70BDF80E1000902068407904F0CDFC0100CA
S31500004E80E4D10AF1010A57FA89F7FF1CBFB2069965
S31500004E90F81C884280F220818AB205983946FBF7D1
S31500004EA0C7FF80460598811CCE5DC11C01EB070B30
S31500004EB03046FCF744F80028CFD05846FBF7DAFF17
S31500004EC000F10109CDE70020FBF745FFFBF75FFD89
S31500004ED0F0E00C2A0CBF0D201620FBF73CFF00F07B
S31500004EE028F9054608F10200049910F807800C29F4
S31500004EF005D1B8F11A0F09DB4FF0190806E015299C
S31500004F0004D1B8F1140FA8BF4FF013087A480188EE
S31500004F100BEB01070020FBF71EFF04989DF80C30F1
S31500004F20CDF8048015280CBF0120002002902A46E7
S31500004F30208A009049462468607904F0DFFC3870C6
S31500004F40C4E72046FFF744FC0028C1D1E07B0028D7
S31500004F5000F0B4808421AAE02046FFF786FC0028F2
S31500004F60B6D1F3E7B9F10A0F22D1DFF894B19BF875
S31500004F700000E8B1E07B002804BFF01B082817D129
S31500004F8000F0D7F8002802BF08F10201C85D00282A
S31500004F9004BF9AF80300E2280AD13F1D3246B9B28F
S31500004FA04046FBF741FFFFF795FD00208BF8000018
S31500004FB000F0AFF800F0BBFA77E000F0AAF8FFF7D0
S31500004FC069FC72E000F0A5F8FFF704FC6DE000F064
S31500004FD0A0F8FFF74CFC68E000F09BF800F0A9FA97
S31500004FE063E089B29AF8007018F80150208A9DF89B
S31500004FF00C10019000912B46246860793A46494688
S31500005000FBF7B9FF2A4639464846FFF7E5FB51E06C
S315000050109AF8001001B10121162A0CBF01220022C4
S315000050200092361A08EB0002B3B24846FFF7D6FBE9
S315000050303BE09AF800809AF80170112A04D11220F8
S31500005040FBF789FE002003E01420FBF784FE012015
S31500005050294D298803970E46CDF80880C1F15101E4
S31500005060019589B200914A460BEB06014B1C21467D
S31500005070FCF76DFB00B101200BF806002888401CE8
S31500005080288023E700F049F80020FFF7F3FD00F041
S3150000509039F8FFF7A7FB08E000F03FF80120FFF71B
S315000050A0E9FD00F02FF8FFF79BFB18B90021204619
S315000050B0FBF7B1FC012007B0BDE8F08F8221F6E7CF
S315000050C0EDB2BDF80E90002DDBD1E07B277D0028E8
S315000050D014BF04200220ACE6049905292046E9D035
S315000050E0EDB2002DCDD15FFA8AF100297FF4EBAE47
S315000050F08021DDE7B0430300C2FE0320ACD80320C5
S315000051007CFF0320B6B200964346218A3A464846BB
S315000051107047AAB25146484670479AF8007007B1E0
S3150000512001278044361AB0B2009043463A464946B3
S315000051307047324639464046FBF77ABE2888C0F1AA
S31500005140520080B201905346218A00915A46D4F803
S3150000515000C09CF80500494670478268521C826070
S31500005160426832B10268531C036011704168491EDF
S315000051704160704738B57448744C006820606060C0
S3150000518048220021FCF7A7FB714A216810780870B5
S315000051904FF6FF71206800224180027323685A731C
S315000051A00B222068827314232268D3734FF6FE7392
S315000051B020680382418212F0CBF92168087612F04A
S315000051C0C7F92168487612F0C3F92168614B8876E1
S315000051D0614821680278CA76604920680A6840F802
S315000051E0282F1D7805715E4822680168116331BD5C
S315000051F010B50FF0B8FE554C6168897B884203D024
S3150000520008460FF0B7FD50B90FF0B1FE616891F98D
S315000052100F10884205D008460FF0B8FE08B10120ED
S3150000522010BD6068008A10F0E0FA6068408A10F0ED
S31500005230FAFA6068017B01290CBF0120002010F0FA
S31500005240C1FA002010BD10B5464C0020207009F0B0
S31500005250C4FC20B92046BDE8104002F0F1B868E071
S3150000526080B5002000F015F828B1002000F005F800
S3150000527008B1002002BDFF2002BD34480168487B0A
S3150000528002281CBF1128432801D1012070470020A5
S3150000529070472E480168087B01281CBF0228032896
S315000052A001D1012070470020704700207047002080
S315000052B070472D49087070477047002070470120DD
S315000052C0704770470020704700207047704770474E
S315000052D00020704780B50020FFF7CFFF20B10020E7
S315000052E0FFF7D7FF00B1012002BD80B50020FFF710
S315000052F0C4FF30B1154801680A7B032A01DA002091
S3150000530002BDFF2002BD000010B5040000F00580BC
S315000053104FF4BA7141A002F023FA1349087808B98C
S31500005320702010BD0849094B0A68482044431019EB
S315000053305860BDE810405BE704484168088A70473A
S3150000534002484168488A7047C8D1032020F90320E3
S31500005350D0D40320C6D40320D1D40320CCD103203B
S31500005360D0D1032010F90320E2D403207047002097
S3150000537070470020704709F000BA7047002818BF30
S3150000538012F00AB9704701F085BF01F03BBE82B04A
S315000053908DF80010DDE9002311461A4602B0FDF72C
S315000053A07CBE33B585B005468DF80420FFF700F9BD
S315000053B004462846FFF70CF97CB10028BDF8180012
S315000053C00FD1FFF7E0F98DF80000FF2804BF002198
S315000053D08DF80010CDF808D016E0A8B106A8029006
S315000053E012E0FFF7D0F98DF80000FF2804BF002176
S315000053F08DF800109DF80000BDF818108DF80C000F
S3150000540003AAADF80E100292DDE901010A46014633
S315000054102846FDF742FE07B030BD0000656D6265A7
S31500005420722D6D756C74692D6E6574776F726B2D48
S31500005430737475622E63000062B38B0708D0521E28
S3150000544011F8013B00F8013B00F024808B07F6D1F0
S31500005450830740F0208000BF103A07D330B4B1E88C
S315000054603810103AA0E83810F9D230BC530724BFE0
S31500005470B1E80810A0E8081044BF51F8043B40F812
S31500005480043BD20724BF31F8022B20F8022B44BF7D
S315000054900B7803707047121F17D35B0009D151F8C0
S315000054A0043B20F8023B1B0C121F20F8023BF6D2ED
S315000054B00BE051F8043B00F8013B1B0A20F8023BC5
S315000054C01B0C121F00F8013BF3D238BF121D521EEF
S315000054D024BF11F8013B00F8013BF8D8704780B5AE
S315000054E002F0BFFDBDE80140FBF70EB880B502F043
S315000054F0B7FDFBF735F8BDE80140FDF7A5BD7047E0
S31500005500FFF7ABB902F0ECBD3EB5069D079C0194D2
S315000055100095FDF742F93EBD38B504460D46FFF746
S31500005520BBF929462046BDE8344012F036B9FFF7EC
S315000055309AB902F0A3BD30B4002513E050F8042B4D
S31500005540D30744BFA9F101039A18091F042942F899
