S01200005A33537769746368536F632E733337BE
S31500004000A053002029EF020029AD010071E902004A
S31500004010A70A0A010041000004180FAC20667E00C2
S31500004020000000000000000000000000000000008A
S3150000403000000000801E03000000000000000000D9
S315000040400000000000000000FFFFFFFFFFFFFFFF72
S31500004050FFFFFFFF007003000000000000000000EB
S31500004060FFFFFFFFFFFFFFFF100000000000000042
S31500004070000000000000000000000000000000003A
S3150000408000000000000000008C7E00208C7E0020D6
S31500004090A0530020616D030042EF0200404A002059
S311000040A0181100200000040000000000C1
S31500004100A053002029EF020029AD010071E9020049
S3150000411079E9020075E902007DE90200000000006D
S315000041200000000000000000000000004B590000E5
S3150000413081E90200B34D0000AB5D00002362000080
S31500004140CD370200799E0200DDA10000F59902003C
S31500004150B99E02007F9E0200819E02007B9E0200A5
S31500004160C3BD020031C00200B34B02000D0C0200B9
S3150000417089E9020089E90200F7EB020089E90200F9
S3150000418089E902003FC0020089E9020089E90200CC
S3150000419089E9020089E9020089E9020089E9020049
S315000041A089E9020089E9020089E90200BB9E020052
S315000041B07D9E02007B350200EB9E020089E902002B
S315000041C051ED020089E90200104210B57B497B4A95
S315000041D001E021B1491E1369DC07FAD411B96FF069
S315000041E0020010BD5060012010601169480702D519
S315000041F04FF0FF3010BD002010BD2DE9F041044600
S3150000420010460B460022002B41D06FF001053010FE
S31500004210240869496A4FA8B994469C4537D254F890
S31500004220040BF8600CF1010C08203860084601E028
S3150000423080B3401E3E69F65E102458B33869800785
S31500004240EBD523E0EFF3108072B694460FE03E699B
S3150000425006F01906102E08BF3E603E693607F6D5F1
S3150000426042336BFE42400A10263E609C45F3D3184B
S31500004270B962B6A610013869C348100901B94246A9
S315000042803869810700D52A8E1065BDE8F08142465F
S31500004290FAE72DE9F24F494CA16B834600208DB217
S315000042A005B1012541F67131A1634FEA92082768ED
S315000042B047F0010727608146DDF800A01F4613E09E
S315000042C0C6F30A06C6F50066B608A8EB0900B042B2
S315000042D038BF06463A4631465046FFF78BFF010087
S315000042E00CD1B1440AEB860AC14507D20BEB89060D
S315000042F03018126718100FE2D00FE00099DBF800B3
S31500004300200B689A4209D05818125B18102E04D157
S3150000431000983A460121FFF76CFF216849084900D9
S315000043202160EDB20DB10021A163BDE8F28F30B579
S31500004330224B1F490246986B80B200B101209C14A3
S3150000434004349C631D68454424101D609A60012254
S315000043505A605C69620704D500F021F874100130D8
S31500004360BD021410125A69D40710D5002918BF4986
S315000043701EF8D10BE0002919686C2401F010F8AA88
S31500004380100330BD00F00B8C100530BD5A69940740
S31500004390F03C12031812011832198410151960081E
S315000043A0B100209863704700236EE7809698000C52
S315000043B0000E40080400000080B5002000F057FB06
S315000043C0012002BD1E482DE9F04100688189007D6B
S315000043D0091A14469846CE1E0027002506E0B2B2FA
S315000043E0B9B2404600F038FDFF1C6D1CE8B2A04291
S315000043F0F5D3002000F03BFB0120BDE8F0812DE95C
S31500004400F8430F4E30688189007D091A9046994617
S31500004410CF1E0024002509E000F014F8E41C00F08B
S3150000442011F8A41C00F00EF8E41C6D1CE8B240451F
S31500004430F2D33068002100F05CFB0120BDE8F28376
S3150000444078610020BAB2A1B2484600F005BD7047B7
S3150000445080B501F09CF8FF2805D0022803D2DFF8CA
S315000044606418085C02BD002002BD10B50268DFF8C2
S31500004470581813880B8054884C8052790A71036847
S315000044801A794A714FF48A53CB80026893799A0657
S31500004490DFF8382844BF4FF48B53CB8013788169FB
S315000044A039B9C088DFF82818088003F0FD031370B7
S315000044B010BD43F00203137016228169DFF8144819
S315000044C0204601F0E3F90022227010BD80B50020DD
S315000044D001F041FAFF2001F0B3F801F04AFA00F0CA
S315000044E044FD02460121DFF8DC0701F016FADFF889
S315000044F0D837DFF8E427DFF8E407522101F018FB8C
S3150000450001F0C2FB01F052FC01F03EFD01F047FE56
S3150000451001F086FE01F086FEBDE8014000F0FCBD1C
S31500004520704780B501F024FF20B903F0F0F808B910
S3150000453003F093F903F0F3F9BDE8014003F0FEB987
S3150000454070B5034600204FF6FF72DFF8944734F843
S31500004550305095420ED09D4209D1B3F57C4F0ADB0F
S3150000456004EBC0056E888E4205D00D0003D0401CBA
S3150000457080B2ECE7104670BD10B50446FFF7E0FFC9
S31500004580DFF860170B884FF6FF72904203D1224680
S31500004590DFF8541706E0DFF8481701EBC000DFF834
S315000045A04C174268BDE81040184603F012BADFF80F
S315000045B04007006800B1008A70471CB5DFF8341761
S315000045C00446087800283CD003F0DCFA0246DFF8FF
S315000045D02817042003F0FDF92068418800914379EB
S315000045E0A289DFF81817042003F0F3F9042003F07A
S315000045F0ABF920B12068218A4088FFF7BDFFE07B38
S3150000460028B1228ADFF8F816042003F0E2F9E07CEC
S31500004610DFF8F0160090A0680278A37C042003F06F
S31500004620D8F9217DA289A468521A012392B22144A5
S31500004630042003F0BFFABDE81C40C2A1042003F029
S31500004640C2B913BDF8B50446DFF8BC5621684879EF
S3150000465000F09DFF2268FF280BD100F065F8DFF817
S31500004660AC16022003F0B5F92068DFF8A4164279EB
S3150000467044E00001DFF89C16DFF89C660B181F7BF0
S31500004680237F9F4209D000F04FF82068DFF88C3670
S3150000469000F045F8227FACA130E0891CDFF8807677
S315000046A0085A1188884210D04FF6FF73994202D1FA
S315000046B0B0F5004F09DB00F037F82068DFF8643604
S315000046C000F02DF82068028817E02079022818BF2C
S315000046D0032818D11189507903F0D1F898B92068C8
S315000046E04288E37C2946022003F073F92068DFF84C
S315000046F0383600F014F8206802893946022003F0A3
S3150000470062F90020F2BDA07B0028204602D003F00B
S31500004710DFFA01E003F00CFB00B10120F2BD4279A3
S315000047203146022003F055B9E37C5288294602201F
S3150000473003F04FB93EB51446227855074CBF052203
S315000047400322934209D200920420DFF8E025DFF825
S31500004750E01503F038F900203EBD089D069A286052
S315000047602971EA80AC60AB81207800F00100A87363
S315000047702178890801F00101E97301212078297562
S31500004780C00800F001006875E87B30B11A46204683
S3150000479000F062FB297D891C297507992882287DEE
S315000047A0421C2A75531C205CA874D2B22B75A05CDF
S315000047B0E874A96103F0D4FD287701203EBD2DE9F8
S315000047C0F14F84B00F4692460E9EDDF83C80DFF82E
S315000047D06455DFF864159B462846202203F01AFE2E
S315000047E00295CDF8048000965B46049852463946F9
S315000047F0FFF7A0FF00240028DFF8F4947AD0C9F868
S315000048000050A87CDFF8341508702846FFF7D5FE5F
S315000048102846FFF72AFE284603F056FE002836D122
S31500004820B8F1000F35D1042F18BF052F03D0022F82
S3150000483018BF032F01D1012200E000222868E98871
S3150000484001910121438800930388E87C00F053F925
S3150000485018B3286881798A061FD44288DFF8E014E5
S31500004860DFF8E044022003F0AEF8012020700022B9
S315000048700121284600F0FFF838B10346DFF8C824C6
S31500004880DFF8C814022003F09EF8002020700124EF
S3150000489030E098F8140081072CD528684179FF2963
S315000048A024D10026DFF8208400F05FFBF1B28142BC
S315000048B020D2F0B200F06DFE0746F0B200F059FBD0
S315000048C090B1286841882A8A384600F0A8FD58B178
S315000048D02846FFF7CAFD2868477188F804702846FD
S315000048E0FFF7B0FE00B10124761CDDE72846FFF78E
S315000048F0A9FE044600F05EFA16220021DFF8D40372
S3150000490001F00BF80020C9F8000005B02046BDE80C
S31500004910F08FDFF83C140878401C0870FFE700F0C1
S315000049207F007047DFF8A4130A78002814BF42F00E
S31500004930010202F0FE020A707047DFF818140870D0
S31500004940704700005D0000002564000080B1DFF8BC
S3150000495004140978012904D1018841F0400101803D
S315000049607047022904D102884FF6BF710A400280BF
S31500004970704778B1DFF8E0130A78012A04D1DFF82E
S31500004980DC2313780B7001E0022A03D1017841F091
S315000049901001017070472DE9FE43DFF8304322789D
S315000049A0D30706D5DFF8B813022003F00CF8002071
S315000049B059E0DFF82853DFF884132B780978DFF8FD
S315000049C008835E07DFF810634CBFE97069703188B1
S315000049D092070AD52A46BF4804F006F88146207891
S315000049E000F0FD004927207018E0B94A14884FF6F8
S315000049F0FC72944209DA01900B4600954246214624
S31500004A00002004F0BFF9552707E000900A462B4620
S31500004A104146204604F09BF94227814698F8060055
S31500004A2081064CBFDFF83C4343A403F0ABF80246D3
S31500004A300294CDF8049000970220DFF82C33DFF8BB
S31500004A402C1302F0C0FFDFF82813022002F0C1FF8A
S31500004A50328801232946022003F0ACF837A1022050
S31500004A6002F0B1FF4846BDE8FE83002093E7014609
S31500004A709F480068002270B504460E46207900283B
S31500004A8018BF012815460BD1A0680178CA0601D5C2
S31500004A90300005D0A07B002804BFE07C0B2801D1A4
S31500004AA0002070BD8C4A00211180607DE17B0028CA
S31500004AB00CBF0820002011B900F093F906E040F081
S31500004AC0040000F08EF9208A00F09AF9A07C00F02C
S31500004AD088F90B2000F085F9E07C00F082F9304679
S31500004AE000F07FF92046FFF7C0FC2846BDE870407D
S31500004AF051E70022BFE770B51D469E4B914E1C78CC
S31500004B00012C01D0337813B10020307070BD0B003A
S31500004B1002D10AB1002070BD002C1EBF049C4FF6C6
S31500004B2057439C4206D003460A462146284602F0D1
S31500004B3098FE00B1012070BD000000005D0000007D
S31500004B4038B5D2885224950648BF4924550548BF32
S31500004B50083C150548BF083C1204034648BFA41E7E
S31500004B600846032B4FF6FD710ED8DFE803F0090265
S31500004B70060BC0B204F094FC02E0C0B204F0A0FE42
S31500004B80014601E0641EE4B2084602F089FE241ADA
S31500004B90E0B232BD70B505460C00164608BF0020CF
S31500004BA003D02178FF2902D1FF20287070BD20464E
S31500004BB000F072F9864288BF06463246611C681CC0
S31500004BC000F064FE2E7070BD70B50C0005461646EA
S31500004BD003D100206870297070BD2078FF2804BFBB
S31500004BE06078FF2802D12870687070BD204600F0FA
S31500004BF058F9864288BF06463246A11CA81C00F01A
S31500004C0045FE2E70360A6E7070BD2DE9F041541EB9
S31500004C100BB3042A46DC0023002698465FFA88F583
S31500004C20954225D2651B002814BF10F805C04FF029
S31500004C30000C571EA7EB08074D5DFF000CFA07FC9A
S31500004C4005FA07F74CEA03033E4308F10108E5E7D6
S31500004C50AE4224DB5B1CDDB2954223D2651B0028E5
S31500004C600CBF0026465D4D5DB542F1DA01201AE023
S31500004C70042A10DAD5000120D2006D1E00FA02F2D5
S31500004C80524243FA05F1CC0748BF134346FA05F0F2
S31500004C90C00748BF16439E42E8DBB34202DA4FF034
S31500004CA0FF3000E00020BDE8F0810021324A01E03B
S31500004CB0891CC9B2535C8342FAD3501840787047B6
S31500004CC0000000007C7D002094600020307E0020E3
S31500004CD0747D00207C610020767D0020A06000208D
S31500004CE0200E03007A7D0020380C0300500C0300D0
S31500004CF078610020B65B0020580C0300600C0300AE
S31500004D00800C03008C0C0300AC0C0300CC0C0300DD
S31500004D10E80C03008C5F0020F00C0300180D030064
S31500004D20280D0300200D0300300D0300540D030071
S31500004D30380D030058610020600E0300BA5B0020A6
S31500004D405C0D03002C7E0020AC0D0300840D0300D7
S31500004D50BB5B00202D7E00202E7E00202F7E0020B3
S31500004D60B40D0300000E0300F80D0300DC0D030074
S31500004D70100E0300B95B0020800E030028380828B7
S31500004D808041C00F704740B11C280BD01D280CD0A5
S31500004D901E2818BF1F2805D009E00B39102906D296
S31500004DA0002070471B29FBDB01E00929F8DB8A207C
S31500004DB07047704780B540490020087004F0C8FF6E
S31500004DC03E4A1080522200213D4800F0A6FD3D4992
S31500004DD0002008800C22BDE8084000213A4800F077
S31500004DE09CBD10B537490A88522A07DA344CA054BC
S31500004DF0521C0A8092B2A018401E10BD002010BDA1
S31500004E0038B50546C0B2FFF7ECFF0446280AFFF79F
S31500004E10E8FF002C18BF002801D0204632BD002034
S31500004E2032BD70B500245E18B2421D460DDA1A4630
S31500004E30264900F02EF8002070BD51FA85F2024492
S31500004E406D1E12F8013C03EB0424EAB2002AF4D1E9
S31500004E50204670BD0423E4E780B50223FFF7E1FF97
S31500004E6080B202BD38B50B469342194C194928BF8A
S31500004E70194A08D2C55CFF2D08BF00255D196D1CB7
S31500004E80AA4204DA154A00F004F8204632BD184456
S31500004E9032BD022002F097BD0078FF2808BF00202F
S31500004EA0704780B502220021FFF7D6FF4FF6FF724A
S31500004EB0904208BF002002BD307E0020747D002095
S31500004EC0A0600020767D0020946000201C04030072
S31500004ED0787D0020340403004404030058040300D2
S31500004EE07FB5DFF86029DFF8600913680088ADF840
S31500004EF0060003A9DFF854090568DFF8540900889D
S31500004F000B60ADF8020002ACDFF84819DFF848097B
S31500004F100988ADF804100222002102702560ADF860
S31500004F20001003AEDFF834090DF10604DFF830296E
S31500004F30655C02EB011202AC157036F81130538035
S31500004F4034F81130938001AC0DF10203655C957164
S31500004F505C5C00EBC405956001251DF801401473E7
S31500004F60491C02295573DFDB7FBDDFF8EC080078AA
S31500004F707047DFF8EC1801EB0010407B00F00100F1
S31500004F807047412818BF422803D0432818BF442839
S31500004F9001D10120704700207047412818BF4228E0
S31500004FA001D10120704700207047432818BF4428CC
S31500004FB001D10120704700207047F8B515461E46FE
S31500004FC0069A079B044600F043FA60B1042100F0FC
S31500004FD0C5FB070007D0204600F0C2FC3246294632
S31500004FE02046B84794E0F1BD2DE9FC4714001CBFEC
S31500004FF00A9D002D814688461F461FD0F7B12878A6
S315000050000C9B0107618820794CBF4022802200F06A
S315000050101FFA98B1082100F0A1FB824670B10B9EE1
S31500005020207900F09DFC019600953B4622464146BC
S315000050304846D047BDE8F34700F09BBCBDE8F38780
S31500005040F8B51646069C1A460546234600F000FAB1
S31500005050D0B121000BD1022100F080FB040013D057
S31500005060284600F07DFC31462846A0470BE010217B
S3150000507000F074FB070007D0284600F071FC2246BA
S3150000508031462846B84743E0F1BD2DE9F84390463E
S31500005090089C1A460646234600F0DAF908B9862027
S315000050A016E000259CB9202100F058FB814670B11E
S315000050B00B9F0A9C099D304600F052FC0097234640
S315000050C02A4641463046C847054600F052FC284667
S315000050D0BDE8F283F8B50446A568207800F040FCE8
S315000050E0002611E02868F1B21422514347182078AF
S315000050F0398802F0B5FB0121384600F02FFB01008C
S315000051001CBF20788847761C2979F0B28842E9D3FB
S31500005110BDE8F14000F02DBC38B50024DFF8385763
S315000051200AE0DFF83C07210600EB1150427BD1076D
S3150000513048BFFFF7CFFF641C2978E0B28842F0D35E
S3150000514031BD7CB5069D96781C462B0008BFD378EA
S31500005150412E18BF422E06D0432E09D19A1E92B276
S31500005160FFF732FD16E05A1ED2B2FFF713FD11E02B
S31500005170442EF3D034B92C0004D0D278954201D213
S31500005180892076BD00291A4602D100F0C6FB01E04F
S3150000519000F07CFB002076BD10B5002301E0001D69
S315000051A05B1C9CB28C4204D204889442F7D140889E
S315000051B010BD002010BDDFF8AC16401A0C2290FB83
S315000051C0F2F292B20021DFF8A006E5E70288B2F516
S315000051D07C4FA8BF00F002B80846ECE7DFF88C1653
S315000051E0401A142290FBF2F292B20021DFF88006F8
S315000051F0D2E710B50C460188628891420DD1037B37
S315000052002279134209D0B1F57C4F04DBFFF7E6FFA4
S315000052102189884201D1012010BD002010BD10B5A2
S3150000522014460A88E3889A420AD10288B2F57C4F6E
S3150000523004DAFFF7CBFF2189884201D1012010BD96
S31500005240002010BD2DE9F74F82B004469A4600258E
S31500005250002704E08068C1886D187F1CFFB2DFF864
S31500005260F8150A78974280F0A480DFF8F4052378D1
S3150000527000EB071002789A42ECD181680091407BDE
S31500005280C107EAD54FF0000804E0B9F80A002D1866
S3150000529008F1010800990A795FFA88F09042DCD299
S315000052A00A685FFA88FC142010FB0CFC02EB0C0960
S315000052B021464846FFF79DFF0028E6D04FF0000B39
S315000052C007E0307910F0300F04BFF0782D180BF19D
S315000052D0010BB9F808101FFA8BF08842D8D2D9F81A
S315000052E004001FFA8BF20C214A43861822463146E7
S315000052F04846FFF794FF0028E3D027460398344634
S3150000530000B104602079810610D5DFF85805002128
S3150000531005E00279930644BFC27889180C30A04292
S31500005320F7D3DFF8500589B2461803E0DFF84815D1
S31500005330ADB24E19DDF83880049DB8F1000F404635
S315000053401BD0019521464846FFF740FF02462388B9
S3150000535079883878DFF824B502F07CFAF0B1207944
S31500005360C1061DD521464846FFF730FF0095034686
S31500005370798838782246D8471CE0DDB12146484670
S315000053800196FFF723FF0246238879883878DFF8ED
S31500005390F0B402F05DFA00282E46E0D17E2009E046
S315000053A00199CDF800A0434622463046FFF7C9FED4
S315000053B000E0862005B0BDE8F08F2DE9F8430446ED
S315000053C088461646994600252179E8B2884221D2B8
S315000053D02068EAB214235A4387183888404517D103
S315000053E031000AD0802E03D1397B0A0605D40FE09E
S315000053F0402E0DD1397B4A060AD5B0F57C4F0CDB21
S315000054003846FFF7EBFE484518BF5FEA090004D0AF
S315000054106D1CD9E70020BDE8F2833846FBE780B56E
S31500005420134607E080B51346402204E080B51346D4
S31500005430802200E0002200F00BF800B1012002BD3E
S3150000544080B500234022F6E780B500238022F2E7EC
S3150000545070B50C4615461E4600F099F8FF2801D196
S31500005460002070BD06E070B50C4615461E460021AC
S3150000547000F035F82146DFF8E84304EB0010334628
S3150000548080682A46BDE8704097E71346402201E04F
S315000054900022FAE72DE9F84F82468B469046994658
S315000054A0FFF7D6FF002608B9FF2016E00027DFF831
S315000054B0B043DFF8A4532978F8B288420CD2000131
S315000054C0205C504508D04B4642465946FFF7CBFF75
S315000054D000B1761C7F1CEEE7F0B2BDE8F28F70B526
S315000054E00022DFF87C33DFF870532E78D4B2B44252
S315000054F00BD224011D5D854205D10D0007D01C4449
S31500005500647BE50703D4521CEDE7FF2070BDD0B2E3
S3150000551070BD80B50021FFF7E2FFFF2801D1002012
S3150000552002BD00F061F8407B00F0010002BD70B5DD
S315000055300E4604460021FFF7D2FFFF2801D10020C6
S3150000554070BDDFF81C1301EB00153200687B00F01C
S31500005550010114BF40F001000020B142687314D06D
S3150000556076B12846FFF7B6FD0FE0006814225143D6
S315000055700844027B0188D209204600F009FC761C0B
S31500005580A8680279F1B29142EFD3012070BD0121E2
S31500005590A5E7DFF8CC120001085C7047F8B50C46A9
S315000055A0FFF7F5FF01460020FF291FBFDFF8B022F5
S315000055B002EB01118968002915D0002214270D7904
S315000055C0D3B2AB420ED20B68D6B27E433344451CEF
S315000055D01B7B260001D11B0600E05E0648BF28465D
S315000055E0521CECE7C0B2F2BD9D4901EB00107047BA
S315000055F0F8B50C461546FFF7CAFF01460022FF29FB
S315000056001CD000234FF0140C01E0521C5B1C944884
S3150000561000EB0116DFB2B0680679B7420ED2006819
S315000056201CFB07F73844067B15B1760602D4EDE776
S315000056303706EBD5D6B2A642E7D1F2BD0020F2BDC1
S31500005640002109E010B50446012100F005F82046C6
S31500005650BDE8104002F037BF2DE9F84F86B081460D
S3150000566002F07EFE7C49DFF8F8A10A7805900492E4
S315000056704FF0000B07E00AEB0010017B0598814212
S315000056800FD00BF1010B04995FFA8BF0884246DAD2
S31500005690B9F1FF0FEFD04846FFF779FFFF288346A1
S315000056A03DD000273FE00328ACBFA26804F1080202
S315000056B0012000900023002101A8FFF7C3FD761CFE
S315000056C02989B0B288422DD26868B2B20C214A4309
S315000056D084182379D906F2D41AF808208DF8042004
S315000056E02988ADF80610207941064CBF802140215B
S315000056F08DF8081028462188ADF80A102146FFF7D4
S3150000570065FDADF80C002179E0784A07CBD5A26893
S315000057100328CDDB1268CBE7B9F1FF0FB1D007B094
S31500005720BDE8F08F7F1C4FEA0B604FEA10580AF174
S315000057300800F9B250F8080002799142ECD20168EB
S31500005740FBB214204343CD1840F22D112A898A4218
S31500005750A8BF04F075FD0026B2E7704730B5047B9C
S31500005760012200230C4205D1002030BD144218BF8F
S315000057705B1C5200D5B28D42F8D30069DBB250F8FB
S31500005780230030BD3F49401A8003020C00213E48E9
S3150000579002E52DE9FE4F00270028487D4FF001085D
S315000057A006D008B9022407E0012804D1012403E049
S315000057B008B9082400E004240C9D0E980D9EDDF81F
S315000057C03CB0ADF80020B9468A460193ADF830509A
S315000057D08DF838002B4800EB8905BDF800002988B4
S315000057E0814224D1E978214221D0A9789DF8380058
S315000057F081421CD3E9789AF80F00CA0608D5B0B1E1
S315000058002846FFF7BFFFBAF81010814201D00EE01C
S3150000581068B9BB4513D0BDF8300087420FDA01984E
S31500005820A978C1557F1C3288521C3280BFB209F15B
S315000058300109B9F12F0FCDDB4046BDE8FE8F4FF0D1
S315000058400008F9E788FD0200665603008CFD020099
S31500005850286A030042570300277E002064000300E5
S315000058608C5F002058FE02007800030060FF0200F3
S3150000587074000300C85F0020AC5F0020877800003A
S315000058808378000098FD020054FE020070B5814244
S3150000589024D210441144401E491E10E011F801396B
S315000058A000F80139121F11F8014900F8014911F8F1
S315000058B0015900F8015911F8016900F8016993B21C
S315000058C0042BEBDA93B2002B1EBF11F8013900F856
S315000058D00139521EF6D170BD00F00DF893B2042BBB
S315000058E0FADA93B2002B1EBF11F8013B00F8013B18
S315000058F0521EF6D170BD11F8013B00F8013B121F94
S3150000590011F8014B00F8014B11F8015B00F8015B3F
S3150000591011F8016B00F8016B7047130003D00A46BB
S31500005920194604F0ADBC704710B5034600E0521EA0
S3150000593090B218B100F003F8F9D0001B10BD13F8AF
S31500005940010B11F8014BA0427047FEE70C490D48C8
S3150000595008600020704700B1702070470020704733
S3150000596080B500F013F8FF2801D1A32002BD002066
S3150000597002BD00207047704700BF0348007870479B
S31500005980F46000202A6A03008C5F002080B5FFF7D0
S31500005990FEFDFF2818BF002002BD002101707047E0
S315000059A0007800B10120704700F09EB900F0AAB956
S315000059B02DE9F34F022981B005DD19000AD0BDF8A3
S315000059C00840052C04DA9249022001F0FCFFAAE007
S315000059D042F00402012700901900027005D00098D9
S315000059E043701B0A0098837003270C9CFEF791FFF7
S315000059F00099C8557F1C0098BBB27F1CC4544FF059
S31500005A000009DDF8388007E0009B21461844FFF7BF
S31500005A103DFF5F4409F101090D985FFA89F1405C89
S31500005A20002800F08280002600240546732D4FF0E2
S31500005A30000A39DC4C2D58F8044B1CBF532D622D3F
S31500005A4014D158F804BB4C2D07D11FFA8BFA4FF628
S31500005A50FF7082453ED002263CE0532D3AD15FFAD4
S31500005A608BFABAF1FF0F35D0012633E06C2D05D144
S31500005A702046FFF716FA00F1020B2BE0732D05D135
S31500005A802046FFF709FA00F1010B23E0A5F13000EB
S31500005A900A2838BFA5F1300B1CD3A5F14100072811
S31500005AA023D2A5F1370B15E0752DA34608BF0126B5
S31500005AB00ED0762D08BF02260AD0782D05D10326F2
S31500005AC006E02B46B21853492AE0772D0DD104265D
S31500005AD058F804AB1FFA8BF2BDF8081012FA87F3D8
S31500005AE0F3189942EDDB00990BE02A464A49022059
S31500005AF001F069FF17E001F800A07F1C4FEA1A2A9F
S31500005B00761EF3B2002BB8B2F5D100911FFA8BF1D5
S31500005B1000293FF47FAF002C7FF476AF2B463F4938
S31500005B20022001F050FF002000E0B8B2BDE8FE8F71
S31500005B3010B53B4C20603B4801803B490A603B4A1C
S31500005B40136010BD7FB50C4608A900920291354D31
S31500005B50334E01930246298830680023FFF728FF59
S31500005B603149324B0A6810804FF48A5219684C80CA
S31500005B70CA8004B070BD38B52B4C25682988034609
S31500005B80274802682948006801B0BDE8304003F0A4
S31500005B9025B90020EFE77CB50192234D204A2E68F7
S31500005BA014680094214C3388226803F0EBF876BD24
S31500005BB00022F0E738B500F003F803F0C8F832BD6C
S31500005BC00091194C16490B68256818492A880968F6
S31500005BD070470021EEE7F8B5114D134F2E6884B0DB
S31500005BE00A9C03963E683588019402950F4C2668F8
S31500005BF07588009503F026F905B0F0BD0B480068DE
S31500005C0070470A4A1368187110684171704700009E
S31500005C107C000300C0000300A4000300F40003009E
S31500005C2088600020AA7A00208C6000209060002006
S31500005C3038B504460D461046FFF78DFE002020704D
S31500005C40A847BDE83140FFF794BE002245494648C3
S31500005C50EEE7002245494648EAE770B5044616468F
S31500005C600D463046FFF77CFE002020703046A847E0
S31500005C70BDE87040FFF77DBE01223E493E48ECE795
S31500005C8002223C493D48E8E780B5012004F03EFC8D
S31500005C903B4804F0CFFB3B49087001BD80B504F0DA
S31500005CA049FC012805D037480078BDE8024004F0D9
S31500005CB0ACBB01BDF0B5002400E0641C324D2E885B
S31500005CC0E3B2B3420ED2E7B20C25304B6F433B44EE
S31500005CD01E78864201BF5D888D421E799642ECD1C0
S31500005CE01846F0BD0020F0BD80B519B904F00EFBD2
S31500005CF0002002BDB1F1004F02D204F011FBF7E71C
S31500005D00022002BDB1F5000F3CBF0902FFF7ECBF50
S31500005D100220704770B505461E46FFF7CBFF04000C
S31500005D200ED02846FFF7F5FB50B1A0683146FFF7C5
S31500005D30DBFF28B905980499A0716171002070BD38
S31500005D40022070BD1CB500931346049C01940022EA
S31500005D50FFF7E0FF16BD80B500230093FFF7F2FFC3
S31500005D6002BD0000F37B01002C5F0020E171010001
S31500005D70345F0020171102001C5F0020245F002002
S31500005D8064F80200257E00207E5B0020B0550020CE
S31500005D9080B5FFF78FFF20B18068002101700020D9
S31500005DA002BD022002BD0022F2E7FEE736E0DFF880
S31500005DB018010178022901DB012070470020704795
S31500005DC038B5DFF8045104462878A04203D02146AE
S31500005DD001F075FD2C7031BD10B5DFF8F04020786C
S31500005DE060B900F01BF804F0E8FB0121217028B12E
S31500005DF00288B2F5817F24BF007D2070207810BD17
S31500005E00DFF8C4100978012803D10129D8BF022080
S31500005E1002DD10B9012900DDD2E770472A48017872
S31500005E20022900DB704710B504F09FFB02462849A3
S31500005E30284C012001F0C7FD0120FFF7E1FF207883
S31500005E40FF281BD104F0B9FBB8B140880006400E0C
S31500005E5000F0010020701822FF211F48FFF75DFDAA
S31500005E60207801280AD1FFF7B7FF052806DBBDE831
S31500005E701040D921194804F037BC207010BD80B5F8
S31500005E80FFF7CCFFBDE8014004F097BB70B50446B0
S31500005E900D461646FFF7C2FF0420FFF791FF324674
S31500005EA02946204604F0DCFB044600F003F82046B1
S31500005EB070BD8146022083E780B5FFF7AFFFBDE8DE
S31500005EC0014004F0EBBB0000587E0020597E002004
S31500005ED0B8320300BF5B002048740020AC320300D8
S31500005EE080B58B49042001F06EFDFF20FFF7AAFB69
S31500005EF0FF2001F0B1FCFF2001F0B1FC00F044F8F6
S31500005F0001F0F9FC83490020088001BDF8B500F0D6
S31500005F1069F8009800F0010005B000BD18B57D4B8A
S31500005F207D4C002287B01A8001A9684604F0D2F899
S31500005F309DF80F00A0700822BDF80C00208001A972
S31500005F40201DFFF7A3FC9DF81400744960732046DA
S31500005F50097800290CBF0022714A04F064FD08B0DC
S31500005F6010BD80B5684604F0BFF8932809D16D4886
S31500005F7001680A788DF80020012A04BF02218DF8F5
S31500005F8000109DF8000002BDF8B5002005F06CFA7F
S31500005F90654805F07FFA654805F07FFA00F022F8BB
S31500005FA00098C1071CD56249042001F00CFD5D482C
S31500005FB001680878012808BF022004F0C4FE022008
S31500005FC005F056FA00F00EF8009840F080000090B8
S31500005FD0684605F029FA00F008F8032001F000FCF5
S31500005FE005B000BD684605F014BA78B58FB005A8AF
S31500005FF05049282202F00EFA03F0AEFE08B1002046
S315000060001BE001A801F0DEFB04004B4D4B4E03D014
S31500006010009032464A4B0BE005A801F06BFC05A93F
S3150000602001A804F05DFE040006D000903246454B00
S315000060302946042001F0C7FC204610B070BD80B58B
S315000060403448018841F40071018005F06AFA48B1CC
S3150000605002463D49042001F0B6FC05F0AEF9BDE864
S3150000606001403DE701BD38B52A4D0446288810F0A9
S315000060708F0F84B026D0902C02D1FFF74FFF3CE063
S31500006080912C3AD0029001943048314B2B4A314939
S315000060900090042001F097FC287801062DD403F027
S315000060A05BFE03280AD12C480178042906DA491C2C
S315000060B001700120002100F0FBFB1EE0022005F02C
S315000060C0DAFD1AE0800504D5912C16D1FFF708FFFA
S315000060D013E0FFF787FF902C0FD10098C1070CD56E
S315000060E0420852000092002101910291ADF80C1075
S315000060F0684605F099F905F0DCFF05B030BD0548A6
S31500006100017811F08F0018BF0120704700000000D1
S31500006110A8F20200DE790020F45D00200B7D00204D
S31500006120045F0020F4600020008810020070EF0574
S3150000613078F20200C4F20200ECF2020000F3020060
S3150000614008F3020020F3020038F30200A0F3020075
S3150000615088F3020068F30200227E002080B5A0B01A
S3150000616080787D22694603F00EFF01001CBF694658
S3150000617002F0FCFA21B000BD38B50A4601461046C9
S3150000618006F09CF8FF28044601D1182032BD06F01F
S3150000619033FF0546204606F00EF8284632BD80B588
S315000061A002F0E4F9BDE80240012010B5040014BF76
S315000061B00848002007F00CF850B1002CBDE810404C
S315000061C014BF054A054A03460549042001F0FBBBF6
S315000061D010BD00002C1B0300141B0300201B030032
S315000061E0E81A030038B507F059F907F05EF978B1F7
S315000061F001F070FB60B1094C207804F03FF90546C8
S31500006200207804F07CF93DB1BDE8314001F061BB76
S31500006210BDE8314007F098B931BD0000257E002069
S315000062207047FEE780B5522200213D48FFF775FB17
S31500006230BDE808406BE0F7B5044601F005FA0546EF
S31500006240204601F011FA9DF8041022464FF6FF731E
S3150000625015B3029D2D78212A1EDA4220022D314ED9
S3150000626009DA4543701930F812509D4214D06D1C5E
S3150000627020F8125010E00FD1002506EB420700FB74
S3150000628005F637F806E09E451CBF0EF1010E27F80D
S3150000629006E06D1C022DF2DB234F214E37F812501B
S315000062A036F812C0AC458041C043C00F9C451CBFA8
S315000062B00CF1010326F81230092CBB8A18BF0B2CEF
S315000062C007D1B78A01EB070C9C450EDAC919B182D2
S315000062D00CE01D2C0AD1B6F83AC07F8F01EB0C0EEC
S315000062E0BE4502DA6144718700E0B38236F81210C7
S315000062F0A94205D320B92046BDE8FE4001F0DEBA2A
S31500006300F7BD522200210648FFF707BB00BF522205
S31500006310FF210548FFF701BB034A22F8101070471A
S31500006320C07400206875002014750020DFF8C81AB4
S31500006330C873704710B5DFF860492078112804D07B
S31500006340B021DFF8B80A04F0CFF94121217010BD61
S31500006350DFF84819DFF8A00A0A78042A03D1017C7D
S31500006360491D017470474FF47A71183003F0D8BF95
S31500006370DFF82409007833281CBF4328532801D1AD
S3150000638001207047002070472DE9FE4307F0F0F822
S3150000639007F094FA00284DD0DFF85C4A00202076FA
S315000063A0DFF85C0A01790C3000F0B2FF607D18B1AD
S315000063B008F094FE0020607500212173002600F08D
S315000063C03BF809F065FD07F023F9DFF8388ADFF8B6
S315000063D0389ADFF8387ADFF8385A2978F0B28842E6
S315000063E028D238884FF6FF72904218BF012007D195
S315000063F000220821484601F0D6F9401E8041C00F10
S3150000640094F8281001F00101014211D03888ADF846
S315000064100800082249466846FFF738FA0A230A2286
S3150000642000F0C2FF02230B224146002009F094FE31
S31500006430761CD2E7BDE8F78310B500F058FE18BF0A
S31500006440042808D1DFF8C40901884FF6FF7291428B
S3150000645008BF032008D001F016F9044601F016F92A
S31500006460214603F0BBF9022001F015F909F0FEFE02
S3150000647000F020FEBDE8104009F035BD38B5DFF864
S315000064807849DFF81458E07300214FF6FF7001F0E9
S3150000649043F82878032818BF00281DD0332818BFD2
S315000064A0432813D100F0ECFF00F021FE18BF0428AA
S315000064B006D103202870E07BBDE8324003F058BDCA
S315000064C0E07B03F055FDBDE83140B5E7212028709B
S315000064D0BDE8314005F084B831BD10B5DFF8B82706
S315000064E0DFF81449002111704FF6FE700AF057F9D3
S315000064F04FF6FF700AF059F900F0C2FFE07BBDE8E5
S31500006500104003F035BD000038B504462346182276
S3150000651000F0B8FFDFF8E0080021220080F8201024
S3150000652002D0FF2C02D10121017507E00122A5004E
S3150000653002756D1C2902203003F0F2FE00F0BAFD50
S31500006540002032BDDFF8B018002081F82000DBE71C
S3150000655038B50D4688B00446686907901622297C2E
S315000065600691E8890590297B0491E87A0390032037
S3150000657095F90A1002912B890BA1019300952346E8
S315000065800AF093F9012008F0D1FD287B00280CBF02
S315000065904FF6FE700AF000F92B46224609B0BDE818
S315000065A03040014601207AE042423870574242426A
S315000065B0574244002DE9F041DFF8DC768046387812
S315000065C00C4615461E4660BB28002AD0052D28DA43
S315000065D0DFF8400801780B2923D1307B03281ED130
S315000065E04FF6FE718C4202D1012D09D10024B8F17B
S315000065F0000F20D0307B03280CBF0121002112E0C0
S31500006600022D0ED10AF0C8F84FF6FC71884203DA63
S315000066100AF0C2F80446EAE70AF07EF9FAE7012D25
S31500006620E5D1702020E02846012D18BF00200AF091
S3150000663095FB010018D13146204600F01DFE0100F1
S3150000664012D13878332818BF532803D0DFF8A8179B
S3150000665000208873284600F0EDFDDFF8E019087881
S3150000666008B10BF0A6F90020BDE8F08138B5044664
S31500006670DFF8845708222146281DFFF707F9207BFB
S315000066800328A8BF002028709421E9732878DFF832
S31500006690081600280CBF01203120087031BD10B546
S315000066A01C46FFF787FF01002BD1207B03282046DD
S315000066B002D1BDE810404DE0FFF7D8FFDFF83807FC
S315000066C0002181814FF00103DFF8640B017848094E
S315000066D005D1DFF8A00B027803FA01F108E001F01A
S315000066E01F0140F0180003FA01F1052241EAC061DA
S315000066F005200BF078F9010003D0DFF89C25002176
S31500006700117010BD10B50446DFF8241B2078087000
S3150000671001F0E7FDDFF88415DFF8B40B0A78825C38
S31500006720218960890BF0C3FE040004D09420FFF792
S31500006730A5FE204610BDDFF8C0469420E07300F0A9
S3150000674004F803202074002010BDC82104F11800AD
S3150000675003F0E6BD10B504460022082101F023F837
S3150000676008B1012010BD0AF017F800224FF6FF719C
S3150000677000F0B0FD217C204600F0CAFD6269E18987
S31500006780207C09F0A3FDDFF814050178012908BF74
S315000067900BF068F8FFF750FE002010BD7CB5DFF85F
S315000067A0F85404462878002802BFDFF868160878EF
S315000067B00B2801D0702076BD08F0C1FCDFF83866E2
S315000067C02CB10222214606F12800FFF75FF8684641
S315000067D000F07CFE08B1932076BD9DF800301422AF
S315000067E000F050FE00F0E4FD010060D19DF80000CD
S315000067F0DFF8A84400F01EFD2078012818BF022803
S3150000680007D0032818BF042836D1002000F0A3FEC5
S3150000681090B300F0E4FD2078032814BF04280BF0A1
S31500006820F9FEFFF709FE01200BF018FF01003ED12B
S315000068302078032818BF04280ED196F828108A0756
S3150000684008D50522DFF8B018012000F045F8010050
S315000068502CD076BD032801D0042827D1DFF8A44523
S3150000686002230B222146012009F076FC20784107FD
S315000068701CD506F0AEFF19E01320287000217173B5
S31500006880DFF8AC29117848094FF0010208BF02FA77
S3150000689001F107D001F01F0140F0180002FA01F1E2
S315000068A041EAC061052207200BF09DF8002076BD65
S315000068B010E0000038B504461046032818BF042827
S315000068C00D4601D0022032BD00F0B4FC2946204618
S315000068D0BDE83840FF2200BF2DE9FC418046DFF8C5
S315000068E0BC030D4601780129164644D0DFF8A803FB
S315000068F00778022F09D0032F3DD15FEA080004D1A3
S31500006900DFF8140501788A0735D4332000F0C3FE7A
S3150000691006F02EFE15F0784F12BF0522DFF8540957
S315000069200278294605200BF05EF80446A8B9DFF880
S31500006930C8743873012008F0F9FB09F033FF78803A
S315000069405FEA080014BF022001203870381D00F0ED
S31500006950D3FD00207873BE7302E0384600F09BFE3C
S315000069605FEA08003146284602D00BF095FE03E0A8
S315000069700BF091FE00E070240194009543462C2212
S3150000698003A1032009F091FF2046BDE8F68100002F
S31500006990424244420000000038B5044605F096FB2A
S315000069A0054620460BF09FFE2C1820460BF096FF5E
S315000069B04FF6FF5101402046BDE834400BF095BF2D
S315000069C0FEB5054609F0E8FE06462878DFF86018A9
S315000069D0DFF83844087001F084FC6889002100F073
S315000069E09BFD00F0F2FE58B1300003D04FF6F8716F
S315000069F08E4205DB09F090FF218888420646F9D0D1
S31500006A00304609F0CCFE2889A44D09F0CEFE0620BA
S31500006A108DF8080002232878DFF8B4180A5C8DF890
S31500006A20092000200190009002AA208801210CF084
S31500006A30A7F8FF28064604D11820FFF71FFD1820E7
S31500006A40FEBD2188DFF8B0430BF084FE20780228D3
S31500006A501CBF3046FFF7A0FF00F05AF80746304645
S31500006A6005F0A9FB87B19420E0732978042905D1A4
S31500006A70FFF76BFE032020740020FEBD4FF4167155
S31500006A80FFF764FE0020F6E79420FFF7F7FC0120ED
S31500006A90FEBD78B587B00C4616461D4630B9204671
S31500006AA00CF038FA03A90AF07AFF03A8019007232D
S31500006AB00C998DF8096001208DF808308DF80B10BF
S31500006AC00090360A8DF80A60042302AA01212046A6
S31500006AD00CF056F8FF28064618D021460BF03AFE71
S31500006AE015B93046FFF758FF0D9808B930460DE046
S31500006AF020460AF056FF18B130460CF039FA01E08C
S31500006B0000F006F8304605F056FBFF2008B070BDD1
S31500006B100022002130460CF0C1BC2DE9F34F83B0B2
S31500006B20824614461D4600274FF6FF7954B120468B
S31500006B300CF061F8667876084FF0010B804606F097
S31500006B40010605E008460BF06EFEBB4600268046B1
S31500006B5000F0CDFA18BF042800F09B806D1C9DF84C
S31500006B601000E9B205F0C8FC0546400800F0010037
S31500006B708DF809008DF808A028064748017858BF07
S31500006B8045F08005022904D19B4A107D50EA0A018E
S31500006B9001D1022729E0404609F0AEFDADF800001C
S31500006BA003219DF810000BF098FD814608B94FF0BF
S31500006BB0010930000CBF4FF0050A4FF0010ABBF186
S31500006BC0000F03D0201D0BF089FE01E0BDF8000088
S31500006BD00146CDF8009053462A4640460AF0D8FEB4
S31500006BE000F0B5FC814608BF0127DCB19DF808001E
S31500006BF018B9484600F0ABFC02D1201D0BF06EFE22
S31500006C00012101910097014633464A464046FFF767
S31500006C1040FF9DF8090050B94FF6FF7140460CF051
S31500006C2003FF04E03A46494640460BF019FC87BB91
S31500006C309DF8090028B1414648460CF015FF0CF0B6
S31500006C4060FF30001EBF48464FF6FF7188420BD0EA
S31500006C500CF060F9DFF874190A6832F810304BF658
S31500006C60FF710B4022F810309CB109F095FD0EB172
S31500006C70002405E09DF80810002914BF0324012410
S31500006C80014643464A46204605B0BDE8F04F0DF0A2
S31500006C90BFB805B0BDE8F08F707E00206F7E002083
S31500006CA02DE9FC470C46814601A900200860904664
S31500006CB020460BF022FD5FEA09010646DFF810596F
S31500006CC007D00BF098FF824630460BF089FF074647
S31500006CD004E020460BF0A7FD82462F4600200090D8
S31500006CE004234246214601A805F004FB0DF10500E8
S31500006CF00BF0F4FD80469DF807405FEA090006D0D8
S31500006D00082229463846FEF70FFE002870D1DFF824
S31500006D10C478DFF8C458387810B17078810713D575
S31500006D205FEA090010D02878022808BF002C0BD192
S31500006D30404609F034FD09F0ABF8992300F0A1FBB9
S31500006D40992003F015F953E000F03FFD002818BF25
S31500006D50002C03D09420FFF791FB49E000F035FDAD
S31500006D60002845D050460CF0F0FCFF2818BF5FEA1B
S31500006D700901264C03D1208851460CF075FE0CF013
S31500006D80C0FE21885246404600F0A4FA1C481A4C20
S31500006D9090F90210090261852878012816BF31286A
S31500006DA0112043202870DFF834080168FFF7CEFC75
S31500006DB00BF030FC00212174387820B904F118005A
S31500006DC003F0A4FA12E0B9F1000F05D0707881073C
S31500006DD002D5FFF7D9FA09E0DFF80408017804299B
S31500006DE004D10521FFF7B2FC09202074AD21E1731F
S31500006DF001F077FABDE8F3875C7700202C76000077
S31500006E00947700206E79002020780020985B00207F
S31500006E10C85B0020E05B0020287800202DE9F04FB9
S31500006E208DB005460BF069FC82460BF0A7FC00907E
S31500006E3028460BF0F8FC814602AB052205A9284638
S31500006E400DF008FB0228804620D028460BF04BFCAC
S31500006E5000999DF80820DFF8807708188618F1B2A7
S31500006E60284605F049FBF41C01284FF6FF7B0ED09F
S31500006E70022813D0042800F0BD8006281BD007285E
S31500006E8071D0082827D07C2800F08480D2E0F3B2A5
S31500006E90002229460020FFF740FECBE03878012883
S31500006EA002BFDFF840170878002803D1F2B229465E
S31500006EB0FFF7F6FEBEE048460AF06CFD014658456F
S31500006EC01CBF48460BF098FA3878022802D148468B
S31500006ED00BF0D2FBAEE0711CC9B2284605F0C0FB30
S31500006EE08246E1B2284605F0BBFB0446B61DF1B268
S31500006EF0284605F0B5FB58450646EBD00BF08AFB55
S31500006F003878132808D100F06AFA28460BF08BFC73
S31500006F10014620460CF0A8FD3878022818BF132831
S31500006F201BD1304609F03BFC504609F03EFC0021DF
S31500006F30002000F0EDF94946204600F0EDFADFF8B2
S31500006F40A806DFF8A816C0780F28B4BF401C0F208B
S31500006F50087000F0AFF8387813286BD12321397008
S31500006F600AF0F0FD66E000980121504405F0A6F90C
S31500006F70044600230022214601200BF088FB00284E
S31500006F80204655D005F017F905AA4146284608F0CF
S31500006F90E3F84FE0284605F099F8F6B280194178F3
S31500006FA0652904BF80786D2844D1DFF844160A6845
S31500006FB0515DE0B288423DD20822494603A8FEF759
S31500006FC065FC6B460022E1B228460BF0B7FC88BB95
S31500006FD09DF80000FF282DD0DFF818469DF8001018
S31500006FE00120207003A80BF03DFB002020709DF8C7
S31500006FF000001DE028460BF035FC04460FF23C600D
S315000070000088ADF80A0000210191009102230DF1DC
S315000070100A02012120460BF0B3FDFF28054609D0E0
S3150000702021460BF097FB0021284605F07FFD2846F8
S3150000703005F0C1F80DB0BDE8F08F0000DD5B002063
S3150000704038B5DFF8A0450020207606F037FC38B1C9
S31500007050DFF88015087818B9BDE83140FFF794B914
S3150000706006F02CFC10B900F0B0FB50B1207C40B10A
S31500007070FFF76BFB207C411E2174BDE8314005F013
S3150000708001BEDFF854552878132808D000F09DFB80
S3150000709028B9287811281CBF4328412804D1E07B51
S315000070A0BDE83240FFF7EAB931BDDFF838150020F8
S315000070B008747047DFF8200510B50178DFF824451D
S315000070C0022908D100F013F818BF042803D0207D48
S315000070D010B1012000E000200BF07CF90020608058
S315000070E00822201DBDE810400021FEF716BCDFF87F
S315000070F0F00400780328704700F8FF072DE9F843ED
S315000071008946DFF8E044DFF8E08401210546617333
S3150000711084B01746404607F0ECFF03F099FF0028BD
S3150000712078D1012D01D0280017D100974B46262291
S315000071308FA1032009F0B9FBDFF8BC0404683CB159
S31500007140012D08BF0AF088FE39464846A04761E08F
S315000071503946484603F01FF85CE0DFF87C64307877
S3150000716023280DD100F08FFA044600F08FFA21464D
S3150000717002F034FB022000F08EFA06F049FA49E0EC
S31500007180002F47D121281CBF0428532802D104F020
S3150000719027FA3FE000F019FBF0B107F0C3FF28B96A
S315000071A0207B00280CBFAB20942028E00DF041FE88
S315000071B0404607F09EFF28B140F2AC610FF26C40EA
S315000071C003F092FA20780028404602D1FFF79AFA97
S315000071D020E0FFF7F5FB1DE03078132815D100F00D
S315000071E0DFF8BDF8000009F0E0FA00F0F8F8FFF764
S315000071F07EFF18BF042805D1332030709620FFF794
S315000072003DF907E0FFF718F904E0042D04BF4846EE
S315000072100EF008FC4FF400600AF0B5FB10B90CF054
S315000072209BF908B105F0B6FC05B0BDE8F083000097
S315000072309A5B002038B5DFF8A85304462878A042A8
S3150000724018BF2C7003F00CFE40B11CB9002003F0EF
S3150000725003FE09E0012003F0FFFD00E014B12878E9
S31500007260042801D1012000E00020BDE8324005F0ED
S31500007270F7BE0000DE5B002038B50D460446E87A0E
S315000072800DF05FFBFF2801D18A2032BD95F90A0077
S3150000729000F0A6FA08B18B2032BDE87ADFF85C135D
S315000072A00870AA7ADFF858030270204609F077FAC8
S315000072B04FF6FE718C420CBF4FF6FF70288909F01D
S315000072C074FA2889DFF81C134880002032BD0000BC
S315000072D02C57030038B50C46154609F060FA09F03C
S315000072E0EBFA2946204600F017F907F01BFF30B1EC
S315000072F0BD48C0780F28ACBF0F20401C05E0B84839
S31500007300017801290CBF00200120B849087031BD61
S3150000731038B584B004460D4600F042F89CB1154AD3
S315000073200021284608F0D2FFB6480178AC488DF80F
S315000073300410082201788DF8051002A82146FEF7F0
S31500007340A5FA0EF0E4FCAD48AD4A01788DF80310BD
S3150000735011788DF8021009F025FAADF8000009F051
S315000073601BFAADF8060000F01DF805B030BD0000B0
S315000073704242420000F8FF071FB5044600F010F82D
S315000073801CB100208DF8050007E009F005FAADF8FC
S31500007390060009F007FAADF8000000F003F81FBD7B
S315000073A0684646E0102307226946002008F0D4BE4E
S315000073B080B58AB0FFF7F4FFBDF80000ADF81800FD
S315000073C004A99DF803008DF81B009DF802008DF8B6
S315000073D01A00BDF80600FFF74FFF0BB000BD70B5F1
S315000073E086B0012000F0B7F80FF254210400D1E96D
S315000073F00023CDE900234FF6FF752E4606D07148CF
S315000074008149068808226846FEF740FA0EF089FC94
S3150000741002A800F00EF8002C0EBF00226A46354680
S31500007420BDF80E002946FFF755FF0EF028FF06B0FF
S3150000743070BD014610230722012008F08DBE80B5DD
S3150000744072486E4A0178117000F024FF0021002076
S31500007450FFF75EFFFFF74BFE18BF042802D10EF0C0
S3150000746020FF01E00AF0A6FA9B2300F00AF89B2011
S3150000747002F07EFD6649674B00200880188001BD3A
S31500007480E37B132250A1032009F00FBA10B504467E
S315000074900DF057FAFF2801D18A2010BD4E4800781A
S315000074A0022818BF032801D0702010BD57485A493A
S315000074B004700A780B2A01D03D2010BD574805F00C
S315000074C0F3FA08B9A12010BD002010BD1FB504466F
S315000074D06846FFF7AEFF9DF8050038B1042805DCC5
S315000074E048490A789DF804108A4201D0932001E0A9
S315000074F02070002004B010BD1FB504466846FFF793
S3150000750098FF082202A92046FEF7C0F91FBD34499C
S3150000751043480A78805C704738B52A4C3A4D20803B
S3150000752029B92846BDE838400822FEF7F6B90822F0
S315000075302846FEF7ABF9208800F009F804D0294662
S31500007540BDE834400BF0ABB831BDBDF808004FF6CE
S31500007550FF71884270471FB50446224890F82810EC
S31500007560C80707D500F016F8FFF7EFFF02D000F0C6
S315000075700CF808B1002006E024B1BDF80800694601
S31500007580FFF7CAFF012004B010BD0822FF2168469C
S3150000759000F009B90A230A226946012008F0DCBD79
S315000075A0204A107000281EBF1F490988002905D0EF
S315000075B04FF47A704143101D02F0B2BE704719486D
S315000075C000787047985B002042420000B8580020BF
S315000075D03C7800201F780020707E00204C59002047
S315000075E06F7E00205C77002094770020837E002049
S315000075F0A4580020C8770020007800209A5B00205D
S31500007600A05B0020D15B0020207800206D7E00204A
S315000076108C7D00208E7D0020E05B00203F74000002
S315000076202C57030088770020925B00206173736FEC
S3150000763063696174696F6E2E630000000460000068
S31500007640FFFFFFFFFFFFFFFF20B500217BA2CBB2AC
S31500007650D35C834205D0491CCDB2082DF7D3002058
S3150000766020BD012020BD000020B5002175A2CBB2AF
S31500007670D35C834205D0491CCDB2082DF7D3002038
S3150000768020BD012020BD63480088704762487047CE
S3150000769062480078704738B56149624C0870022824
S315000076A06149624D13D12878042809D0084602F0B2
S315000076B02DFE287803281EBF0428204602F026FE49
S315000076C05B480168CA0054BF9024BC240FE0002028
S315000076D0087020700EF0FAFD2878032818BF0428D9
S315000076E002D10EF0DEFD01E00AF064F99124204695
S315000076F003F0DEF950B92346132245A1032009F011
S31500007700D4F82046BDE8324002F032BC31BD4448D0
S31500007710007800F00F0070474148017801F00F0132
S31500007720022901D1012070470020704710B5044698
S315000077303B48007800F00F01022918BF032801D04A
S31500007740932010BD09F02EF820813A4A3A48017874
S31500007750A1721078E0722046FFF7CEFE002020735B
S3150000776004F1140104F1100008F088FDE081002006
S3150000777010BD38B52A4800780C4600F00F010229E2
S3150000778018BF032801D0932032BD2B48294D01781C
S31500007790217028780CF02FFF6070287800F01F0009
S315000077A0A070002032BD10B5002300E05B1CDCB2E7
S315000077B08C4205D210F8014B9442F7D0002010BD40
S315000077C0012010BD08210EF083BD15480078012860
S315000077D01CBF3128332801D1012070470020704793
S315000077E010B504460DF06DF8010004BF12490C7087
S315000077F010BD114890F9000070470E480078704798
S31500007800012070470B480178480918BF01207047CE
S3150000781042420000985B0020207800201F7800205C
S31500007820707E0020387A0020407A00206F7E00208B
S31500007830287800209A5B0020A05B0020000102034C
S3150000784004051D200203040508090A0B01207047E0
S3150000785001207047012070477047B5207047704778
S3150000786070470020704700207047002070470020B6
S3150000787070470020704700207047002070470020A6
S3150000788070470120704701207047B52070470020DF
S3150000789070470020704700207047002070477047EF
S315000078A000207047704700207047704700207047DF
S315000078B084207047704700207047704770477047B4
S315000078C000207047704700207047012070477047BE
S315000078D070477047012070470020704700207047AE
S315000078E0034801680878012808BF02207047000095
S315000078F0F4600020704770477047002070470020F2
S315000079007047002070470020704700207047002015
S31500007910704700207047002070470020704770476E
S31500007920B520704700207047002070470020704740
S31500007930704770477047B52070477047704770476B
S3150000794000207047704770474FF6FF72904201461D
S3150000795008D0000A01D0002070473A48027811EAA0
S31500007960020000D001207047020A07D1354A137879
S31500007970002914BF184323EA00001070704710B5A1
S31500007980830800EB5374C108E4080122A0EBC4008D
S3150000799002FA00F000EB012080B210BDF8B50446F3
S315000079A00D4616461F46FFF7CFFF58B13A463146F9
S315000079B020200EF0EBFD1DB11FA120200EF0DEFDF4
S315000079C021480480F1BD0CB480B50A4602AB012102
S315000079D004E00CB480B50A4602AB0021FFF7DEFFD7
S315000079E001BC5DF80CFB2DE9FC410024174DDFF8C6
S315000079F0608012A712A6A0B2FFF7C1FFFFF7A4FF8F
S31500007A00002814BF304638460090224658F82430E5
S31500007A10294620200EF09FFD20200EF002FE641C59
S31500007A20042CE8DBBDE8F3810122FF2101E00122FD
S31500007A3000210448FDF771BF0D0A00006E6F0000BB
S31500007A4059455300B85B00207A7D0020CC0803001E
S31500007A501056002080B5FFF792FFBDE804400121D3
S31500007A6082E780B5FFF78BFFBDE8044000217BE786
S31500007A70F0B50A463F4C3F49B0FBF4F401FB140055
S31500007A804FF46165B0FBF5F515714FF46161157939
S31500007A904D43411B3C26B1FBF6F656713C21577906
S31500007AA011FB0755401B907101234FF4FA601080BB
S31500007AB09370D37000262E4D03E0002300E00123CF
S31500007AC0761CA64235D29078190003D0022808BF4A
S31500007AD01D2102D0291811F8011CD778B94203BF1D
S31500007AE0401C907001277F1C9078D7700D28E7D135
S31500007AF013885B1C1380012090709BB25F0803EB18
S31500007B0097708008B3EB8001D7D1642093FBF0F027
S31500007B10642101FB10300028D1D14FF4C87093FBCB
S31500007B20F0F04FF4C87101FB10335B1E9B41DB0F75
S31500007B30C6E7F0BD18B587B0044605A9FFF798FF5C
S31500007B409DF81A009DF819109DF817309DF816201B
S31500007B500390029104949DF81800BDF8141001904A
S31500007B600091054805490088FFF72DFF08B010BDB4
S31500007B70D40B0300805101007A7D0020B00B030076
S31500007B80FFF7D8BEFFF783BE2DE9F04104460D4648
S31500007B9016469846FFF7D8FE50B1002705E02A5C46
S31500007BA041462046FFF715FF7F1CB8B2B042F6D318
S31500007BB0BDE8F081002B14BF3BA33CA3E4E738B536
S31500007BC004460D462846FDF767F90246691CFFE79D
S31500007BD0204601B0BDE8304035A3D5E718B587B0DB
S31500007BE001783A4C06914278059281780491C278E0
S31500007BF0039201790291427901923E2281790091A4
S31500007C00C37920883049FFF7E4FE08B010BD01466D
S31500007C1000220220FFE72DE9F84F8846924600260B
S31500007C2025A726A40FF28C09284D8DF800009DF893
S31500007C3000B05E4515DA28880123082208EBC60144
S31500007C40FFF7B8FF5FEA0A0004D1701C584518BF59
S31500007C504A4600D1224628883946FFF7BAFE761CE6
S31500007C60E5E7BDE8F18F2DE9F041184D0446288877
S31500007C70FFF76AFEB0B10120002611A70FF24408F3
S31500007C80E1070AD518B928884146FFF7A2FE2888D9
S31500007C90F2B23946FFF79DFE0020761C6408F1B269
S31500007CA01B29EDDBBDE8F081257820002578000052
S31500007CB02563000000000000202570000D0A00006A
S31500007CC0256400002C2000007C0803007A7D00203B
S31500007CD01CB5044621684879FCF7BAFB88B92068C8
S31500007CE0418803290DD0E27C0192009143790A4A2A
S31500007CF00A490120FFF767FE01212046FCF7F9FE3D
S31500007D0007E020460EF0B0FC01001CBF2046FCF741
S31500007D10F0FE012016BD00BF08090300DC080300C1
S31500007D200098002100E0491CCAB28242FBD370478A
S31500007D302DE9F04F044687B02168E07CB1F8029047
S31500007D400490607DD4F80880A689277D002807BFA7
S31500007D5040228DF80C2080238DF80C304879FCF7F2
S31500007D6077FBC8B90498002818BF022814D0032846
S31500007D701CBF0528B9F1030F0ED0DFF8441401200B
S31500007D80FFF721FE049BDFF83C24DFF83C140220B9
S31500007D90FFF719FE0121EFE1E07B18B1218A0029E6
S31500007DA000F03681DFF8243400221A80617D002934
S31500007DB00CBF0821002108B141F004010846FDF777
S31500007DC010F8E07B10B1208AFDF71AF8A07CDFF8E6
S31500007DD000B4FDF706F8049AF51B791C162A88B23A
S31500007DE008EB070A00F21081DFE812F017001A010B
S31500007DF0830034004C01830009015101140156012E
S31500007E005B016001D10077010E010E010E018801B0
S31500007E10B1018801BB01D10077010120FCF7E1FF28
S31500007E209DF80CA0DFF8A453B8B2801C8642C0F2BD
S31500007E30AB803246B9B24046FDF70EF8834600F0F5
S31500007E40E9F900F045FB18B900F0E4F90EF04DFF32
S31500007E50BF1CE9E70420FCF7C4FF0025ADF80E902F
S31500007E602BE00598CDF808B001904A46218A9DF886
S31500007E700C3000912068BDF80E1040790EF04DFED2
S31500007E80010017D010E058460FF058F882465846C1
S31500007E90FDF777F800285FFA8AFAE2D0F01BA0EB2C
S31500007EA00A00C01EDDD58020FCF79BFF4846FCF784
S31500007EB0A7FF6D1C5744FF1CBFB2F81C8642C0F2D8
S31500007EC0648100F0A2F9814608F1020008F103017D
S31500007ED010F807B0394405915846FDF752F80028C6
S31500007EE0D1D00598FCF7D8FF00F1010ACFE7B749D2
S31500007EF008800420FCF775FF0025ADF80E90CDF83C
S31500007F001480AA46069620E0FCF76BFF4046FCF775
S31500007F1077FF6D1C15E030460FF010F8814602968B
S31500007F20CDF804B04246208A9DF80C30BDF80E10FC
S31500007F300090206840790EF09FFD0100E4D10AF11F
S31500007F40010A57FA89F7FF1CBFB20699F81C884246
S31500007F5080F227818AB205983946FCF77DFF804674
S31500007F600598811CCE5DC11C01EB070B3046FDF761
S31500007F7008F80028CFD05846FCF78EFF00F101091B
S31500007F80CDE70020FCF72DFFFCF76FFDF7E00C2A8C
S31500007F900CBF0D201620FCF724FF00F036F905462D
S31500007FA008F10200049910F807800C2905D1B8F1F0
S31500007FB01A0F09DB4FF0190806E0152904D1B8F1AC
S31500007FC0140FA8BF4FF01308804801880BEB010778
S31500007FD00020FCF706FF04989DF80C30CDF80480CD
S31500007FE015280CBF0120002002902A46208A009006
S31500007FF04946246860790EF0ABFD3870C4E7204628
S31500008000FFF731FC0028C1D1E07B002800F0BB80DF
S315000080108421B1E02046FFF77EFC0028B6D1F3E7C5
S31500008020B9F10A0F29D1DFF8ACB19BF8000020B3F3
S31500008030E07B002804BFF01B08281ED100F0E5F8FD
S31500008040002802BF08F10201C85D002804BF9AF8A3
S315000080500300E22811D13F1D3246B9B24046FCF773
S31500008060F9FEFFF78DFDFFF78DFD02465A49022006
S31500008070FFF7A9FC00208BF8000000F0B6F800F02E
S3150000808034FA77E000F0B1F8FFF75AFC72E000F03E
S31500008090ACF8FFF7EAFB6DE000F0A7F8FFF73DFC50
S315000080A068E000F0A2F800F022FA63E089B29AF8DC
S315000080B0007018F80150208A9DF80C10019000916C
S315000080C02B46246860793A464946FCF776FF2A46ED
S315000080D039464846FFF7CBFB51E09AF8001001B14C
S315000080E00121162A0CBF012200220092361A08EB43
S315000080F00002B3B24846FFF7BCFB3BE09AF80080AB
S315000081009AF80170112A04D11220FCF76AFE0020A9
S3150000811003E01420FCF765FE01202C4D2988039707
S315000081200E46CDF80880C1F15101019589B2009142
S315000081304A460BEB06014B1C2146FDF72AFB00B114
S3150000814001200BF806002888401C28801CE700F058
S3150000815050F80020FFF7E4FD00F040F8FFF78DFB34
S3150000816008E000F046F80120FFF7DAFD00F036F8E7
S31500008170FFF781FB18B900212046FCF7BAFC012065
S3150000818007B0BDE8F08F8221F6E7EDB2BDF80E909C
S31500008190002DDBD1E07B277D002814BF04200220C0
S315000081A0A5E6049905292046E9D0EDB2002DCDD1EA
S315000081B05FFA8AF100297FF4E4AE8021DDE7000052
S315000081C010090300380903001C090300767D00200E
S315000081D0A06000202A7E002040090300B6B2009667
S315000081E04346218A3A4648467047AAB2514648460F
S315000081F070479AF8007007B101278044361AB0B26A
S31500008200009043463A46494670473246394640460C
S31500008210FCF722BE2888C0F1520080B20190534676
S31500008220218A00915A46D4F800C09CF805004946B8
S31500008230704730B4002513E050F8042BD30744BF31
S31500008240A9F101039A18091F042942F8045BFAD21E
S3150000825013468C0744BF15809B1CC90748BF1D7079
S3150000826050F8041B0029E7D130BC704710B5364CD6
S3150000827008220021201DFDF750FB0EF087FE20701E
S315000082800EF084FE60700EF081FEA0702F4801781B
S31500008290E17010BD10B50CF001FB2D4C2178884221
S315000082A003D008460CF004FA48B90CF0FBFA94F92E
S315000082B00610884205D008460CF003FB08B10120E1
S315000082C010BD60880CF02FFFA0880CF04AFF2148F3
S315000082D0017801290CBF012000200CF011FF0020BD
S315000082E010BD10B51C4C0020207004F0D2FE20B941
S315000082F02046BDE8104002F009B8BDE81040C9E7C5
S3150000830080B5002000F014F828B1002000F005F830
S3150000831008B1002002BDFF2002BD104800780228E7
S315000083201CBF1128432801D1012070470020704747
S315000083300848007801281CBF0228032801D1012023
S3150000834070470020704700001C780020D25B002098
S315000083509A5B00206F7E002014780020707E00203B
S31500008360002070470020704782B08DF80010DDE9CC
S31500008370002311461A4602B0FDF75DBF33B585B03E
S3150000838005468DF80420FFF75FF904462846FFF7F7
S315000083906BF97CB10028BDF818000FD1FFF732FA4F
S315000083A08DF80000FF2804BF00218DF80010CDF8DD
S315000083B008D016E0A8B106A8029012E0FFF722FA4C
S315000083C08DF80000FF2804BF00218DF800109DF8ED
S315000083D00000BDF818108DF80C0003AAADF80E10B9
S315000083E00292DDE901010A4601462846FDF723FF10
S315000083F007B030BD62B38B0708D0521E11F8013B9F
S3150000840000F8013B00F024808B07F6D1830740F08B
S31500008410208000BF103A07D330B4B1E83810103AC4
S31500008420A0E83810F9D230BC530724BFB1E80810D1
S31500008430A0E8081044BF51F8043B40F8043BD207BB
S3150000844024BF31F8022B20F8022B44BF0B780370AF
S315000084507047121F17D35B0009D151F8043B20F86F
S31500008460023B1B0C121F20F8023BF6D20BE051F820
S31500008470043B00F8013B1B0A20F8023B1B0C121FB1
S3150000848000F8013BF3D238BF121D521E24BF11F86B
S31500008490013B00F8013BF8D8704780B5FFF702FAB8
S315000084A0FCF714F8BDE801400EF082BD80B5FFF779
S315000084B0FCF9FCF735F80EF067FE0EF0B3FEBDE8EA
S315000084C00140FDF78FBE7047FFF71BBAFFF71FBAD3
S315000084D00020704738B504460D46FFF733FA2946A3
S315000084E02046BDE834400EF0C4BEFFF712BAFFF7CF
S315000084F01DBAF0B40246106895681318506803EB6D
S315000085005004C0071DD54D441BE013F8017B05F848
S31500008510017B491EF9D1A0B1B60813F8011B06F07C
S315000085200306032E08BF13F8016B01EB062149422F
S31500008530801C294405D011F8016B05F8016B401E1B
S31500008540F9D1A3420ED013F8016B16F0030104BF54
S3150000855013F8011BC91C30090F28DAD113F8010BD7
S315000085600F30D6E7F0BC02F10C007047DFF8FC14C0
S31500008570012008707047DFF8F4140A7882421CBFA5
S315000085800870FDF712BE70470170090A4170801C21
S31500008590704710B504460822FDF778F904F1080083
S315000085A010BD2DE9FF4104460F46207D0A9E810736
S315000085B020781D464CBF4CF601484CF601080028B1
S315000085C033880CBF1E21202103EB010C624508DA1B
S315000085D0009204200A46DFF89814FFF7FAF974208F
S315000085E045E008B948F0200801A801F06FFD4146B2
S315000085F03846FFF7C9FFA189401CFFF7C5FF217D5B
S315000086008A0703D5611CFFF7C4FF02E06189FFF703
S31500008610BBFF804601F09EFB01464046FFF7B4FFD4
S3150000862001A9FFF7B6FF0B21FFF7AEFF217841F056
S31500008630030100F8011B22780C2A04BF618AFFF7A8
S31500008640A3FF218AFFF7A0FFE189FFF79DFF32888C
S3150000865080462946FDF71AF9207DC10748BFB72095
S3150000866005D431880B984144CF1B0780002004B005
S31500008670BDE8F081F8B504460E46154616220021DF
S315000086802846FDF74AF96178227802EB01214FF678
S31500008690DF7001404CF6014399421AD104F10D00F6
S315000086A0871C41780278A88A02EB012240F002007A
S315000086B0AA81A88208223946681CFDF7E7F807F167
S315000086C008003278011BC9B2511ACAB2072A06DA63
S315000086D046E04CF60100814242D1E01DE0E74278D7
S315000086E0037803EB02230B2B3AD18378DFF884233C
S315000086F08E1EC11C23F02C000328F6B218BFDFF82B
S3150000870078132AD113F00C0018BF0828287002D05D
S315000087100C2803D01FE0052E08DA21E0072E1FDB08
S31500008720487811F8026B06EB00266E8248780E78C0
S3150000873006EB0026881C2E824178067806EB012679
S315000087409906EE810ED5A88ADFF8301340F00100B5
S31500008750A882B52301E00346C9490420FFF733F98F
S315000087600020F2BD801C041BE0B2F2BD71B50E46BE
S315000087708BB0C4490220FFF726F902AA0BA930469E
S31500008780FFF778FF040029D002A800F0D9F89DF879
S315000087902C502D1B34442246E9B202A8FFF79CF860
S315000087A0A0B92246E9B202A803F090FA70B9BDF862
S315000087B016004CF25E01884204BFBDF81800B0F501
S315000087C0805F05D1B0490220FFF7FDF8012051E096
S315000087D02246E9B202A800F05BF8002856D09DF8C0
S315000087E01C0081070DD54FF6FF70ADF81200082268
S315000087F0A6490DF10900FDF797F8411E8941C90FF9
S3150000880007E001F0A5FABDF8121088420CBF01215D
S315000088100021BDF81600BDF81820ADF82000ADF80F
S31500008820222001239A4802789DF81C008DF8252005
S315000088308DF82430C2074CBF20200020ADF826005A
S315000088400023BDF81A209DF80800ADF828208DF801
S315000088502A3020B108280FD00C2812D016E00021AB
S31500008860BDF81220009202A80190EBB2224608A899
S31500008870FBF7A5FF0CB070BD00290CBF0421052134
S31500008880EEE700290CBF02210321E9E70020F1E70A
S31500008890FEB50025144602290346764A07DC032363
S315000088A0009304200B467B49FFF78DF846E0187DC0
S315000088B0C60743D42678B00703D5774900F091F868
S315000088C03CE016F0040018BF0825F70758BF45F02E
S315000088D0040536074CBF02260126354338B1042964
S315000088E003DC6E4900F07DF828E0217900E0A178EC
S315000088F0D889002401E0641CE4B20627684E17FB01
S3150000890004F73E444FF6FF7C378867450ED0874212
S3150000891002BF7788B3F810C0674504BF37798F4226
S31500008920E9D176792E42E6D00120FEBD0191198A61
S31500008930009103465B490420FFF745F80020FEBD81
S3150000894038B5044658490420FFF743F8207808B99B
S3150000895044A106E0082808BF544902D00C2803D1D8
S3150000896053490420FFF735F8524900F037F8A28939
S31500008970514900F036F8207D81073BA509D54F49BE
S315000089800420FFF726F8601CFFF728F900F025F809
S3150000899003E062894A4900F024F8E289494900F077
S315000089A020F8228A48490420FFF713F80420FEF72E
S315000089B0CBFF28B1FBF7FBFD0146208AFBF7DCFD68
S315000089C000F00BF820780C2806D1628A3F49BDE8F2
S315000089D038400420FEF7F7BF31BD29460420FEF7D4
S315000089E0F2BF0420FEF7EFBF33B5A3B001781F4BEB
S315000089F01446002919780CBF1E22202209B97020BE
S31500008A002CE0BDF8901089187E2929DA24AB009352
S31500008A1002AD019523467D2203A9FFF7C2FD0100A1
S31500008A2005D1BDF8080003A9C0B2FDF7A5FB0100FA
S31500008A3014D1FFF7A7F8BDF8903025490246042067
S31500008A40FEF7C7FFBDF89020012321460420FFF75B
S31500008A50B1F800221F49FFF7C4FF002025B030BD42
S31500008A607420FBE7756E690000000000457E00205B
S31500008A70481B0300981B0300781B0300C41B03005C
S31500008A80A81B0300E41B0300081C03003C7800201D
S31500008A908C5F0020301C0300501C0300701C030078
S31500008AA0941D0300881C0300C41C0300DC1C030087
S31500008AB0E41C0300EC1C0300F41C0300081D030067
S31500008AC0181D0300301D0300441D03005C1D030038
S31500008AD0701D03008C1D030001E0000000BF002193
S31500008AE00170704710B50020DFF8B418FF2200248B
S31500008AF041F8304001EBC003401C0A281A71F7DB2D
S31500008B0010BD2DE9FC4F82468FB0FF27BDF840000F
S31500008B108DF8117002288B4605DD1A9E31784B07B9
S31500008B2007D5042803DC012011B0BDE8F08F3079A9
S31500008B3000E0B078DFF868888DF80800002108F1B9
S31500008B400403C8B213F83040FF2C00F0B280491C71
S31500008B50C8B20A28F5DBDDF878905FEA090003D091
S31500008B60FF2F08BFB420DFD000208DF81200144676
S31500008B700AAA20790DF11201FEF78FFE58B1BDF851
S31500008B80340020809DF81200FCF7E5FE00288DF8E1
S31500008B9010003DD113E02079FCF7F9FC0546FF2DC6
S31500008BA008BFA320C0D02079FCF7DAFE8DF81000AC
S31500008BB070BBDFF8F01701EB051042882280BAF18E
S31500008BC0000F0CBF58464FF6FF70019000216088D9
S31500008BD01B9D00902A4623889DF80800FBF78BFF13
S31500008BE018B1E08840F02000E080CDF8149006949B
S31500008BF00796ADF820B08DF824A08DF8255004A96D
S31500008C00BDF84000ADF8220005A8FEF77EFE10B1C3
S31500008C109DF8100088E73046FBF7ABFEA01DFBF77A
S31500008C2095FE224659465046FBF78AFFBDF840108E
S31500008C30884224D31D981C99BDF8403003900291B8
S31500008C400DF1110001900096DBB2224659465046BE
S31500008C5001F0F6F98DF810005FEA090013D09DF8CF
S31500008C60100080B99DF81100FF281CD00A2F1ADACF
S31500008C7008F1040101F8370048F8379013E0742032
S31500008C808DF8100012E09DF81000BA2808D1A079DE
S31500008C90C1060BD500208DF81000012001F04DFC17
S31500008CA09DF8100010B911200EF097F9FCF761FE3F
S31500008CB0AEE707464FE75CB585B001260A9C0881FA
S31500008CC000F054F80146039402940196032049E00B
S31500008CD01CB500240094FFF7EEFF16BDF8B504009E
S31500008CE084B00E46154603D0300018BF002D01D1C2
S31500008CF002202AE000276946F8B200F000FE0100D3
S31500008D0023D19DF80010032902BF9DF80110227996
S31500008D10914202BFBDF802106288914211D19DF8BE
S31500008D2005009DF8061000EB012020812B469DF8DA
S31500008D30041061713246214680B2FFF7C9FF010077
S31500008D4003D17F1CF9B20A29D5DB05B0F0BD5CB5AD
S31500008D5085B00A9C00F00AF80126014603940294A5
S31500008D6001960620FFF7CDFE07B050BD0093049490
S31500008D7013460A46002470471CB500240094FFF7EA
S31500008D80E6FF16BDF0B5022885B004460D46164628
S31500008D901F460BD16946E8B200F0B1FD010013D1C0
S31500008DA09DF8010030719DF8040070713B460B99E7
S31500008DB00A98049100900021039102910191324694
S31500008DC029462046FFF79DFE05B0F0BD3EB5069C40
S31500008DD0009400250195FFF7D5FF3EBD2DE9F8412A
S31500008DE089B00446884616461F46002505A9E8B2FE
S31500008DF000F085FD010022D19DF81410012902BF63
S31500008E009DF815102279914202BFBDF816106288AE
S31500008E10914210D19DF818006071002103910291D2
S31500008E2001910497009643462246E9B20220FFF7D5
S31500008E3068FE010003D16D1CE9B20A29D6DB0AB02F
S31500008E40BDE8F081F8B586B005460C4616461F46C5
S31500008E50162200216846FCF760FDADF80C50ADF80F
S31500008E600A606CB1082221460DF10100FCF70EFDE7
S31500008E70BDF8141041F00201ADF81410002104E011
S31500008E80380005D0ADF812700C218DF8001007E0FF
S31500008E904FF6FC708642B4BF002008208DF8000013
S31500008EA00D980C9B0F9A0E99ADF80E00ADF8103088
S31500008EB06846FFF799FD07B0F0BD0420FEF783BDB5
S31500008EC080B50346DFF8E00400880A0007D1BDE854
S31500008ED00050DFF8D824DFF8D814FEF77ABD0091E9
S31500008EE0DFF8D024DFF8D014FEF773FD01BD10B50E
S31500008EF0FF280C4605D1DFF8C4140420FEF763FDF5
S31500008F00FE202146BDE810407CB504460D46FDF71F
S31500008F10FBFA064633462246DFF8A4140420FEF781
S31500008F2052FD300011D185B1DFF898140A6801A806
S31500008F3001AB0260032000908DF805400022362127
S31500008F404FF6FC700EF003FB0646304676BDF8B5CC
S31500008F500D460446288817461E4608B10020F2BD75
S31500008F606A88DFF86414B2F5004FACBF7B78002343
S31500008F700820FEF728FD6888DFF8501413381ED045
S31500008F8047F6EE72801A21D0401E29D0801E06D0E8
S31500008F90401E21D0401E05D01A380CD02EE0DFF836
S31500008FA0302428E0DFF82C240820FEF712FD3A7959
S31500008FB0DFF824141FE07A78DFF820141BE07878B5
S31500008FC0B97800EB0122DFF8181414E0DFF8141466
S31500008FD00820FEF7F8FC11E03A79DFF80C140AE0F5
S31500008FE0DFF808240820FEF7F4FC7878B97800EB5F
S31500008FF00122DFF8FC130820FEF7E5FC33463A466B
S3150000900029462046FFF762FA002802BF688848F220
S315000090102101884203D179782046FEF74BFC688807
S31500009020B0F5004FC4BF08200DF0F2FF0120F2BDDD
S315000090302DE9F04788B0109C119D81460E46924658
S3150000904098460EF028FB07467088DFF8A8130090B4
S31500009050224633880220FEF7B6FC8DF80890039668
S315000090600495ADF81440ADF816708DF818A08DF87B
S31500009070198000F073FE8DF81A0000F071FE8DF86D
S315000090801B00FFF76DF98DF81C0002A8FEF73BFCEC
S31500009090A8B923462A46314638460EF08EFC70B9EA
S315000090A023462A4631463846FFF751FF38B9019024
S315000090B0009723462A4649463046FBF780FB08B010
S315000090C0BDE8F0872DE9FF471F000C9D0D9C8046EB
S315000090D0894616462ED0DFF82023DFF82013042019
S315000090E0FEF777FC33880BB984A20AE040F2091038
S315000090F0834208BF82A204D0B3F5827F0CBF81A24F
S3150000910081A201957088BE4900900420FEF761FC9B
S31500009110308858B1022D09DD2078A378C1074CBFED
S31500009120B84AB94AB9490420FEF753FC77A104208E
S31500009130FEF749FC9A490E98002201F1040CD3B2BD
S315000091401CF833E0864521D0521CD3B20A2BF6DB3D
S315000091504FF0000A00220B1D13F832C0844518D0C8
S31500009160521C0A2AF8DB1AE00020029000F033F8BD
S31500009170FBF73AFFBAF1000F02D000F02CF8D04707
S3150000918000F029F8FEF792FBBDE8FF8751F833A0FF
S31500009190E0E7FF2003F83200002041F83200002FFC
S315000091A004BF3088002806D17088B0F5004FBCBFD8
S315000091B008200DF012FF01200DF02AFF002CD9D057
S315000091C02078C107D6D54007CED52A4601212046AC
S315000091D0FBF742FEC9E7019700942B463246494603
S315000091E0404670477CB504469038894D894E0CD070
S315000091F0401E23D0C01E21D0801E1FD0801E1DD031
S31500009200133804281AD9113827D100F0A1FD00908F
S3150000921033462A4680490420FEF7D5FBBC2C08D1EC
S315000092207E490420FEF7CFFBFEF779FBFEF778FBBD
S3150000923001E006F0F2FFFEF773FB13E0912C03D179
S3150000924033462A46764902E0764B77492A46042079
S31500009250FEF7B9FBFBF765F904E0224673490220E5
S31500009260FEF7B1FB20460EF041FD2046FCF7FBFE63
S3150000927020460EF0F0FD204601F0AFFB18B1BDE828
S315000092807C406B4919E673BD1CB50020FCF763FBF7
S31500009290684C206868B1684600F026FF48B9206827
S315000092A09DF800100078814203D0012808BF0229EA
S315000092B006D161490888ADF800006846FDF76EFAE8
S315000092C0FCF757FB13BD38B55A49096804467020A8
S315000092D089B10D7820890090012D08BF0225E37A17
S315000092E0564A57490120FEF76EFB21462846BDE83F
S315000092F03440FDF72DB932BD000000005A444F003E
S3150000930053450000484100003F3F000000000000B8
S3150000931010B5044600F015FD00200022215CFF294F
S3150000932008BF2254401C1028F8DB227410BD1FB55C
S31500009330CDE9010100220024424B0AE013F8320075
S315000093409DF80A10884204BF181D50F83240521C7E
S31500009350D2B2191D51F832000028EFD19DF808004D
S315000093609DF807309DF80620374900900420FEF747
S3150000937030FB9DF809201AB107A10420FEF729FB4E
S3150000938004B906A4BDF80430224604B0BDE8104076
S315000093902E490420FEF717BB2E2564003F3F3F00F1
S315000093A03C5F00208C5F00207A7D002044F902009B
S315000093B03CF902005CF902004CF9020068F902006F
S315000093C0A4F9020064F90200BCF90200E4F9020003
S315000093D0F8F9020000FA020008FA020018FA020080
S315000093E040FA020058FA020074FA020098FA0200E3
S315000093F0A0FA0200B4FA020048FB02003CFB02009D
S31500009400E8FA02002CFB020034FB020018FB020003
S3150000941060FB020068FB020050FB020074FB0200C6
S3150000942094FB0200ACFB0200A0FB0200B4FB0200AE
S31500009430CCFB0200F46000206256030018FC020018
S31500009440FCFB020048FC020020FC020038FC020083
S3150000945001F0D1BADFF8E0020378DFF8E002006835
S315000094600C2213FB02F292B2FF21FCF756BA70B53A
S31500009470B14C2578A8420B460BD2B04E35680C2469
S3150000948060432C18A11CBDE8704008221846FCF762
S31500009490FDB9BDE87040082200211846FCF73DBA28
S315000094A010B5A54A1378984205D2A44C22680C211F
S315000094B04843105A10BD4FF6FF7010BDF8B506466A
S315000094C00F469D4C9D4D00E00C36217828680C22F5
S315000094D05143421896420DD230884FF6FF73984298
S315000094E0F2D008223946B01CFCF71EFA0028EBD150
S315000094F03046F2BD0020F2BD38B5044600F04BF907
S3150000950000F06BF8002107E00288A24204BF4FF684
S31500009510FD7505800C30491C874B1D78CAB2AA42DE
S31500009520F2D331BD70B505460E463046FFF7E4FF6F
S315000095303146284600F052F900F04FF8294605E07A
S3150000954026800EF044FF294604F10C00FFF7B6FF13
S315000095500400F5D170BD7FB5064608227849FCF7B0
