S01200006E63702D756172742D68772E733337AC
S3150000000000E5002015BF0200356A000019BB02009A
S31500000010A70A0A010001000004180FAC20667E0042
S3150000002000000000000000000000000000000000CA
S3150000003000000000A8C4020000000000000000004C
S315000000400000000000000000FFFFFFFFFFFFFFFFB2
S31500000050FFFFFFFF00700700000000000000000027
S31500000060FFFFFFFFFFFFFFFF010000000000000091
S31500000070000000000000000000000000000000007A
S3150000008000000000000000005CFF00205CFF002074
S3150000009000E500203FE802002EBF0200A0DB0020A2
S311000000A0D812002000000800000000003C
S3150000010000E5002015BF0200356A000019BB020099
S3150000011021BB02001DBB020025BB0200000000003F
S315000001200000000000000000000000007306000050
S3150000013029BB02008B0500004F1A00009F1D00001E
S3150000014085AD00003B630200452E000031BB020076
S31500000150395E0200816302004163020043630200CC
S315000001603D630200D3FD0000410001006F7B0000EB
S31500000170A93F000031BB020031BB0200F3BC020004
S31500000180432C000031BB02004F00010031BB0200CE
S3150000019031BB020031BB020031BB020031BB0200A1
S315000001A031BB020031BB020031BB020031BB020091
S315000001B0836302003F63020075BE02001B780000E5
S315000001C0B563020031BB020065BE020031BB02000E
S315000001D031BB020031BB020031BB020031BB020061
S315000001E031BB02009F4400008774000031BB02004F
S315000001F031BB020031BB020000000000104210B506
S315000002008949894A01E021B1491E1369DC07FAD4FC
S3150000021011B96FF0020010BD506001201060116925
S31500000220480702D54FF0FF3010BD002010BD2DE964
S31500000230F041044610460B460022002B41D06FF0D9
S315000002400105301024087749784FA8B994469C4593
S3150000025037D254F8040BF8600CF1010C0820386012
S31500000260084601E080B3401E3E69F65E102458B38E
S3150000027038698007EBD523E0EFF3108072B6944619
S315000002800FE03E6906F01906102E08BF3E603E6973
S315000002903607F6D542336BFE42400A10263E609C76
S315000002A045F3D318B962B6A610013869C3481009D8
S315000002B001B942463869810700D52A8E106BBDE820
S315000002C0F0814246FAE72DE9F84F574CA56BADB2DF
S315000002D005B1012541F67136A6634FEA9208534EE1
S315000002E037683668266846F0010626604FF0000932
S315000002F006468A469B46002013E0C7F30A07C7F561
S315000003000067BF08A8EB0900B84238BF07465A463F
S3150000031039465046FFF788FF010010D1B9440AEB71
S31500000320870AC1450BD206EB8907381812641810E4
S315000003302EE2D0216849084900216003E022685274
S315000003400852002260EDB20DB10021A163BDE8F2B2
S315000003508F70B5344B32490246986B80B200B101BA
S31500000360208E3008349C63304C256824681E8A240D
S31500000370101E609A6001225A605C69620704D5000B
S31500000380F021F868100170BD021424185A69D407C8
S3150000039010D5002918BF491EF8D10BE000291968AD
S315000003A004D100F010F89E100D70BD00F00BF8009F
S315000003B02070BD5A699407F03C12031812011832D6
S315000003C019941016196008B100209863704700232D
S315000003D074E71248816B89B201B1012184102D3274
S315000003E0826346F21A32036843F001030360C26473
S315000003F04FF4807343604269D307FCD40022C26481
S31500000400C9B203685B085B00036001B182636413D1
S315000004104700011007809698000C000E4008040063
S315000004200204300E400000002DE9F84F8046DFF848
S315000004307C902122FF21484600F08FF8DFF870B04B
S315000004404FF49272FF21584600F087F819481A4F68
S315000004501A4C00904FF0210A0026A25D1849BD5D96
S31500000460885D521C02EBD272521000B11932154847
S3150000047030F816100098D21C6A4300F08AF8012D55
S315000004801CBF2BF816A0AA44761C212EE5DB2123DF
S315000004904FF4805240F27A510B4800F07AF8494600
S315000004A04046BDE8F44F00F0D4BB00BF9CED0020F1
S315000004B078EE002030BF0200B8C1020094C10200ED
S315000004C070C102002CC102004CBF020070B581420F
S315000004D024D210441144401E491E10E011F801397F
S315000004E000F80139121F11F8014900F8014911F805
S315000004F0015900F8015911F8016900F8016993B230
S31500000500042BEBDA93B2002B1EBF11F8013900F869
S315000005100139521EF6D170BD00F00DF893B2042BCE
S31500000520FADA93B2002B1EBF11F8013B00F8013B2B
S31500000530521EF6D170BD11F8013B00F8013B121FA7
S3150000054011F8014B00F8014B11F8015B00F8015B53
S3150000055011F8016B00F8016B7047130003D00A46CF
S31500000560194601F041BA704710B5034600E0521E25
S3150000057090B218B100F003F8F9D0001B10BD13F8C3
S31500000580010B11F8014BA042704770472F490870C4
S3150000059070470EB430B52D490446087820B301F0F3
S315000005A0AFFA08B301F0FAFB012001F004FCFF28C2
S315000005B0054619D001F0F4FB022101F0A7FA014625
S315000005C0284601F0F3FB03AB22462946204801F0FA
S315000005D0DEFF30B1284601F00DFB10B1042000F01B
S315000005E00BF8284601F051FC30BC5DF810FB0C22DC
S315000005F000211848FFF7B1BF164931F81020521CE8
S3150000060021F8102070470CB480B502AA02F01CF93C
S3150000061001BC5DF80CFB0D4A1178A1B9010018BFA9
S31500000620012810D0042818BF05280CD0312818BF7F
S31500000630332808D037281EBF3B284FF6FF71884263
S3150000064001D0012070470020704700002CFF0020D9
S31500000650A920000000F60020302818BF322806D056
S3150000066034281CBF3628382801D0002070470120C6
S315000006707047FEE730B5DFF8485ADFF8484A2B885E
S315000006802468C01A04EB4004002004E034F810305B
S3150000069021F81030401C9042F8DB002030BDDFF816
S315000006A0203ADFF8201A1A880968801A01EB4001FF
S315000006B0022002F0EBB9F8B504460F461646DFF8FD
S315000006C0045AF0B208B34FF6FF70ADF800000020F0
S315000006D017F8011BC3B2401C0DF80310761EC1B2F9
S315000006E0022902DAF1B20029F2D1DFF8D4E928684A
S315000006F0BEF800301FFA84FCACEB030300F01CFFCD
S31500000700641C0100DDD000F0EBBB0120F2BDF8B5A2
S3150000071004460D461646F0B288B1012200F010F8E4
S31500000720641C0020C2B2401C1DF80230761EC7B2FF
S31500000730022F05F8013BEEDAF1B20029F2D1F1BD44
S315000007406946A0B296E70146DFF87C09DFF87C2906
S31500000750405C525CDFF8C03B595C09B102F5997206
S3150000076040EAC21080B2704710B5DFF85C39DFF896
S31500000770AC2B1C5C012C1CBF32F81000081802EBD5
S31500000780400010BD70B590B005460C464FF6FF769A
S3150000079004E0A8B2FFF783FF203D2035A9B28C42C2
S315000007A00DD3202201F00AF8002082B23DF8123063
S315000007B0B342EED1401C81B22029F6DBEDE710B042
S315000007C070BD10B5044661882088FFF7DBFF012164
S315000007D0DFF84C2BDFF84C3BA171208811784118CB
S315000007E0188801EB4001891DA18010BD10B5DFF806
S315000007F0384B00F087F800F040F900F03BF9DFF8DD
S31500000800840C04F10801446004F110028160C260A6
S3150000081010BD2DE9F0430446DFF8040B0778B9460E
S31500000820B9F1060F85B003DD4FF4377100F010FB08
S315000008300021A1717A1C208892B201A9FFF71AFF44
S31500000840BDF804104FF6FF76B14218BF002910D04C
S315000008500DF10408711A38F81900884209D10125EA
S315000008604D454BDA38F8150040B1BDF80410884202
S3150000087014D000F047F805B0BDE8F083DFF8081C97
S315000008800A88208812FB052141186A43711810183E
S3150000089089B280B2FFF776FF0221A1716D1CDFE7F6
S315000008A02088381800F08EFFBDF80200000B48457E
S315000008B0DFD120883818401D00F085FFBDF80210F2
S315000008C0BDF80200711A000A01F0FF018842D0D17A
S315000008D00320A071012220883F187F1C6946B8B208
S315000008E0FFF7C8FEBDF80000FF2802D10421A17160
S315000008F0C1E7B042BFD00028BBD1BCE7A07902282F
S31500000900CED1B8E720465CE7F8B5DFF81C4ADFF839
S31500000910745B002004F1080104F11002A071A073B9
S31500000920A075A960EA606C602046FFF772FF04F1CB
S315000009300800FFF76EFF04F11000FFF76AFFA179C8
S31500000940A07BDFF88067042908D100220428ADF8CF
S31500000950002046D1FFF74AFF0120F2BDA17D042801
S315000009602BD100200429ADF80000F3D0FFF7CAFF11
S3150000097000F080F83068DFF8A869238900F080F875
S31500000980060040D10320A073A07903284AD1A07B9A
S31500000990032802D1A07D012863D0A07901284AD17D
S315000009A0A07B032854D1A07D012818BF0328D1D1EC
S315000009B004F1080004F1100157E004292BD10020AE
S315000009C0ADF80000FFF79EFF00F057F83068DFF83B
S315000009D05069238A00F054F8060014D10320A0754C
S315000009E019E0A07D0428B5D000F047F800F042F8E1
S315000009F03068DFF82C69238800F042F8060002D13F
S31500000A000320A0710AE0304602F0C2F81EB14FF48E
S31500000A10747100F01DFAA0790328B5D1A07B0128D6
S31500000A20B5D1B7E70228B8D1A07B032804BFA07DC3
S31500000A3001288FD1BCE7032804BFA07B012889D1F8
S31500000A40A07D03280BD104F11000214608340CE0E8
S31500000A50022812BF0128A07D0328F0D1F3E702285F
S31500000A60EDD1204604F1080110346860EC60A960FD
S31500000A700020F2BD04F11000A3E604F10800A0E690
S31500000A803778DFF83C66FF1833887F1CFF1A01228F
S31500000A90694600EB470002F024B82DE9FE4F0646F2
S31500000AA0DFF87C08DFF8888ADFF8889A0F46017835
S31500000AB0ADF80810012234880C19641DFFF740FEBA
S31500000AC0DFF86018BDF80000B1F800A0641C000A49
S31500000AD0ADF8000050451CBF0121397000251AE011
S31500000AE0401CC1B2514514D25FFA80FB39F81B1085
S31500000AF0BDF806209142F3D1C0B2FFF724FEBDF83F
S31500000B0004304FF6807210401340984208BF08F830
S31500000B100B506D1CADB2BDF80000854206DA02220C
S31500000B2001A9FFF70EFEA41C0020DAE70020D1463B
S31500000B3001E0401C80B2484517DA18F800108142DF
S31500000B40F7D00120387010E021F815A00DE001283B
S31500000B50DFF8C817F8D0BBF17F0F31F8150008BFD2
S31500000B604FF0000B584421F810A0A1B27088C01EA7
S31500000B7088424FF6FF7A28DB00F066F8BDF80200DF
S31500000B80FF25504521D0601C00F0D4FDBDF80200C1
S31500000B90BDF80610AAEB0002914213D104F1030A34
S31500000BA0040A00F07F0BBDF8000084420ADA002038
S31500000BB000E0401C484518DA18F80010A142F8D1A8
S31500000BC0C5B212E0012038700DE0B4807088A1B281
S31500000BD0884208D300F038F8BDF80200641C50457E
S31500000BE0F4D001213970BDE8F78F3088BDF80830A0
S31500000BF0181800EB4400801D012201A980B2FFF7FE
S31500000C0039FDBDF80400C0F3C710401C00EBD070DE
S31500000C100AEB60047088A1B28842D3D3FF2DA4D01A
S31500000C20DFF8A404405DBBF17F0F14BF59460021D5
S31500000C30814286DABDF80210DFF8DC26535D09062C
S31500000C40C90F994283D07CE701220DF10201A0B2BF
S31500000C5010E5F8B58DF80000DFF8AC1BDFF860048E
S31500000C60DFF8C0460288DFF8C00602800B884380A2
S31500000C70DFF8AC361D782188DFF8903BDFF8904B23
S31500000C80AA1802EB4102921D8280002282711A8804
S31500000C900281AA1802EB41022388DFF8784B4381D0
S31500000CA0921D828100228273DFF86C3B1A880282D1
S31500000CB0AA1802EB4101891D2388DFF8C847818203
S31500000CC043820021817501F0B7FF002853D12070BF
S31500000CD0FFF71AFE9DF80010084318BF01208DF893
S31500000CE000000122606800882818801CA11C80B2C0
S31500000CF0FFF7C0FC9DF8000000283FD16068DFF8D0
S31500000D001C766946FFF7C9FEDFF8880B0688A068DF
S31500000D108179032924D16946FFF7BFFE6168DFF8B0
S31500000D20A823002012E0DFF8FC351B88984202DA7F
S31500000D30135C012B09D137F81030B1F800C06345B8
S31500000D4024BFB1F802E09E450AD2401CB042EADB5D
S31500000D5002208871A1686068E2686160A260E06054
S31500000D6000204FF6FF7200E0401CB04206DA37F86A
S31500000D7010109142F8D101208DF80000607828B15A
S31500000D80012100208DF80010607018E09DF8000029
S31500000D9090B960680388ED18ED1C01220DF102017F
S31500000DA0A8B2FFF767FCBDF80200C0F303100128E4
S31500000DB008BF8DF8000002D09DF80000B8B14D20A4
S31500000DC001F0E6FE6088401C6080E068FFF7F9FCF1
S31500000DD09DF8000000F051F838B100F085F820B118
S31500000DE09DF8000000F0A2FA08B90120F2BD00202B
S31500000DF0F2BDF8B50D46DFF82C1517467F2F0A8889
S31500000E0008BF00271E4695423EBFAF4B595D8F4235
S31500000E10044604D2AD4A535D9E4200D11CB940F24D
S31500000E20646100F015F839462846FFF79DFCDFF8A7
S31500000E30641B0388485D28B11946284600F0C9FCA2
S31500000E402060F1BD324621461846BDE8F8405EE412
S31500000E500FF67C3001F0F8BE38B504460846114658
S31500000E60FFF782FC964D0388DFF82C1B28880A685A
S31500000E701B1A02EB4302226031BDF8B5DFF80416F7
S31500000E80904CDFF8B056002814BFC8688868DFF8B1
S31500000E90901400880A788618B61DB6B2002701E0BD
S31500000EA0B61C7F1CDFF87C0401888F4216DAF8B284
S31500000EB0FFF749FCADF80000B3B235F81700DFF8CC
S31500000EC0DCCABCF800E0ADF80200A3EB0E03206814
S31500000ED0022200F032FB0100E2D001E00120F2BD67
S31500000EE001F056FE0020F2BD2DE9F84FDFF834047C
S31500000EF0DFF890250188D068DFF82424714C137838
S31500000F0084B00025ADF808100188BDF80800CE1899
S31500000F1006EB4006B61DB6B200E06D1CBDF8080033
S31500000F20854280F2C2804FF0000A78E0BDF80210D8
S31500000F305FFA8AF00143ADF802104FF6FF72BDF872
S31500000F4002005F490F88BDF80010121AADF80420A0
S31500000F504FF6FF732068F21B761C994200EB4200A5
S31500000F60B6B21DD100F0BBF801002BD12068F71BEB
S31500000F70012201A900EB470001F0B3FD010021D1D8
S31500000F80B61CB6B25148DFF8181AA8F80060425DE0
S31500000F9051F825103046FFF78EFB002838D18DE03A
S31500000FA04A49495D491C01EBD1714FEAC15900F02C
S31500000FB096F8010006D12068F31B012201A900F072
S31500000FC0BDFA010077D1B61CB6B2D349A8F80060C5
S31500000FD0485D002843D0DFF8AC2410780021039147
S31500000FE028B103AA6946A8B201F02AFE05E0BDF8B9
S31500000FF00010E8B200F0EDFB0390F71B20684FEA03
S31500001000196203A900EB470001F06BFD010052D104
S31500001010DFF89009415D7618B6B20AF1010A2A484E
S31500001020475D5FFA8AF1B942BFF477AFE8B2FFF7DE
S315000010309BFB8046B849B8F80000ADF80000485D53
S31500001040C00140EA0520012FADF802007FF46EAF23
S31500001050BDF8020040F07F00ADF802006DE74FF0EA
S3150000106000085FFA88FBBBEB196FD1DADFF81414BE
S3150000107008780028BDF8000004D100F029F8FFF731
S31500001080F9FA03E000F024F801F0D8FD2068B34433
S31500001090ABEB070301220DF1060100F04FFA010048
S315000010A008BF08F10108DCD005E0DFF8D803C16805
S315000010B08E80012002E001F06BFD00202FE300008E
S315000010C06EC7020038E70020B8C1020094C10200D2
S315000010D0411CADF8001001220DF1060170470122F6
S315000010E00DF1020101F0FDBC2DE9F34F85B00021A1
S315000010F08DF803104FF00C09DFF8AC58BDF8181046
S31500001100DFF8A868DFF89C385B5C298835684C08EE
S3150000111091FBF9F9A1444D45039302D3DB180393E0
S3150000112009E0182691FBF6F1641AA54203D303EBF6
S31500001130530189B203910025D24CADF806008DF813
S31500001140042000E06D1C774801888D4280F2CF8034
S31500001150002687E0012202A91FFA88F0FFF78AFA23
S31500001160A3680498DFF834E8B3F804C0BEF800308A
S315000011700068DC44ACEB0303012202A900F0DEF9AF
S31500001180010008F1010858D10AF1010A5FFA8AFB49
S31500001190BBEB176FDEDB38E01A468DF80220BDF890
S315000011A006309A18ADF8062001235B4A8DF8033005
S315000011B0505DC30143EA0523BAF1010FADF80030D3
S315000011C040F08B80BDF8002042F07F02ADF8002091
S315000011D08A88D21C8A800028DFF8BC17049100F0A8
S315000011E083804146E8B200F0F4FAA368DFF8ACE782
S315000011F002903A0E04989F88BEF800300068FB1AE9
S3150000120002A900F09BF9010017D1BDF80000A36800
S31500001210DFF884774FF6FF71091AADF8081001223E
S31500001220DFF878179B88B1F8008038689B1EA3EB1F
S31500001230080302A900F082F9010066D1A3689B8821
S315000012403868DB1EA3EB080300F076F901005CD1D9
S31500001250A0688188A9F8001082889DF802105118AC
S315000012608180761CF1B2DFF8480710F805A05145D9
S31500001270BFF468AFE8B2FFF777FA8146DFF83407C4
S31500001280475DBDF81800B9F800807F1C07EBD777DB
S31500001290FF05854202BF9DF80410F0B28842E0D0F7
S315000012A060680188884524BF40884045D9D3BDF889
S315000012B006100398814226DADFF8E826A168535D16
S315000012C0B1F804C048889C440CF103029042BFF672
S315000012D063AF01206070452017E0BDF80030F2B220
S315000012E01343ADF8003073E74FF0000A4EE79DF860
S315000012F0030040B96068022181716068A168E268F4
S315000013006160A260E060012002E001F041FC002083
S3150000131007B0BDE8F08F000070C1020078EE002033
S3150000132089E602005CE6020070EA00202DE9FE4F25
S315000013305FEA0009534DDFF8607614BFE868A868D5
S3150000134001220188DFF8700600880291C0F1FF01D2
S3150000135001F0FF0141EA0021ADF80210DFF85C065A
S31500001360029990F800A0DFF834060688386801EB89
S315000013700A04631D9B1B0DF1020100F0DFF801005A
S3150000138059D140F6227040EA0A30ADF80200E31C5B
S3150000139038689B1B01220DF1020100F0CFF8010015
S315000013A049D13868A31C9B1B0122A91C00EB4300F2
S315000013B001F097FB01003ED1601CA0EB06085FEA36
S315000013C009004FF6FE7B07D0FF21ADF8021000F0B2
S315000013D05DF801002FD109E068680088012269469E
S315000013E0FFF748F9BDF80000012802D1ADF800B0BA
S315000013F002E0411EADF800104FF6FF72BDF8000086
S31500001400121AADF80420A41B3868012201A900EBCA
S31500001410440001F066FB01000DD1029C5046A0F18C
S31500001420010A80B288B1386814FA8AF39B1B00F06F
S3150000143083F80100F2D001F0ABFB0020BDE8FE8F7F
S31500001440A968032088710120F8E7B9F1000FF7D0E9
S31500001450E968032088716868FFF7B3F9A868FFF7A1
S31500001460B0F9EA686868A968AA60A8606960E86077
S315000014706A600020ADF80200E96000F007F801009C
S31500001480D9D1E0E70CF600206AC7020001223868CD
S315000014900DF1020100EB480001F023BBFEB5044646
S315000014A0DFF80005455CA088134662882E18F61CF6
S315000014B0B24205DADFF8082501215170452033E0F4
S315000014C0C01CDFF8F024A08080B2525C1946FFF7FA
S315000014D0F2F860B3DFF8C404DFF8BC740688A388AA
S315000014E03868DB1E9B1B012202A900F027F80100C9
S315000014F01AD1BDF808004FF6FF71091AADF80010B1
S315000015000122A38838689B1E9E1B694600EB460095
S3150000151001F0E7FA010007D10898A1880180A088A8
S315000015204019A0800120FEBD01F032FB0020FEBD67
S315000015309CED00202CC102000122694600EB43000D
S3150000154001F0CFBA2DE9F84F84B00546894690469A
S315000015501C4601F0A9FCDFF8602413888DF80450BE
S315000015600127ADF80830B8F17F0F9DF80410BDF8DB
S315000015700800039508BF4FF000088DF8054081422A
S315000015803FBFDFF82C14039A8B5C984507D2DFF82F
S3150000159024148B5C9C4202D1B9F1000F03D140F6B2
S315000015A0D901FFF755FC9DF804004146FFF7DCF82A
S315000015B001250646DFF80C048179B6F800A0022959
S315000015C01FBF817B0229807D022802D1432001F0C2
S315000015D0DFFA039ADFF8BC13885C002833D09DF845
S315000015E00400514600F0F5F8D9F80010814257D0B2
S315000015F0AAF1030000F09EF8DFF8C453DDF80CC032
S315000016006C68DFF8A033628813F80C10A088D21E2D
S31500001610521A824207DB30B1A86801888A45A4BF06
S315000016204088504572DBE8688179AC68022938D178
S31500001630442001F0ADFAE8688179012931D04520CE
S3150000164001F0A6FA53E09DF805404FF0000B21E0AB
S315000016500BEBDB700AEB600000F05DF909EB0B00A9
S3150000166019F80B10407801EB0020611E8B4507D15D
S31500001670BDF8001001F0FF0100F0FF00ADF800100A
S3150000168080B2BDF8001088420BF1020018BF002599
S315000016905FFA80FBA345DBDB002D8DF80540A7D064
S315000016A03DE0A8688179012915D10020FFF7E5FB07
S315000016B0002834D00020FFF739FE00282FD0BF487D
S315000016C0BDF8085003789DF8041003EB4500C01DD3
S315000016D0424680B205E003290FD19DF80410424628
S315000016E00020FFF701FD10B100F01CF8B8B938462C
S315000016F0471EC0B2002810D111E002290CBF40F6E7
S31500001700C81140F6CA11FFF7A3FB08E000F00AF87B
S3150000171028B93846471EC0B200287FF444AF05B04A
S31500001720BDE8F08F0096BDF806309DF804104A46D5
S315000017302046B3E601220DF1060180B2FEF79ABFFC
S31500001740F8B505469E489D4F43681C883B78E018CF
S3150000175000F038F8BDF802000026C0F30310012897
S3150000176011D1192400F029F8BDF800006D1C30B124
S315000017704FF47F41401A17D0FF3813D016E0B61C3D
S31500001780641EEFD10EE0192400F017F8BDF8000032
S315000017906D1C20B14FF6FF71884203D00BE0761C1A
S315000017A0641EF1D170B2F2BD761CFBE7BDF80000F5
S315000017B0C0B200B9761CF643F4E701226946A8B226
S315000017C0FEF758BFC01C01220DF1020180B2FEF7E0
S315000017D051BF38B50C460021764B009169461D5C19
S315000017E02A4620466D1CFEF792FF05EBD57504EBE5
S315000017F06504A0B2FFF7A4FF0028009948BFC043C4
S3150000180041FA80F032BD000072C7020054E60200C1
S3150000181056E602005AE6020058E60200F8B5664AA5
S31500001820138804466848254630F815609C4202D263
S315000018305849485D18B940F68321FFF709FB5D4911
S315000018404D5D681C00EBD07006EB6007B8B2FFF781
S3150000185077FF0346192B0FD20020DFF840C1DFF8CF
S3150000186038E1ADF8000013FA87F7BCF80030DEF86F
S315000018700000FFF70BF960B131462046FFF7A9FFDC
S3150000188000902B46401C00907F2269462046FFF7B9
S3150000189059FEF1BD5EE602007CB50546474806786E
S315000018A0344621464C1EC9B22888022925DB50FA47
S315000018B084F000F030F8BDF800000028F1D043486D
S315000018C029880288E6B27243521890B2FEF7E7FE04
S315000018D00020ADF8000001222D882F4800687519F8
S315000018E02E4E3388ED1A694600EB450001F0F9F8F3
S315000018F001000ED001F04CF90BE0FEF7D0FE0120FE
S31500001900A8712D4A29881088891901EB4001891D83
S31500001910A980E0B276BD0122694680B2FEF7AABE72
S3150000192028488179022908D0817B022908BF08301E
S3150000193003D0817D022901D11030ADE70020704728
S315000019407CB504461D48067800250CE0208850FA30
S3150000195086F0FFF7E0FFBDF8000000281EBF4FF637
S31500001960FF7188426D1C3046461EC0B20028EDD17C
S31500001970E8B276BD13488179022908D0817B022915
S3150000198008BF083003D0817D022901D11030D7E786
S315000019900020704770C1020038E700206EC70200C1
S315000019A01CC4020080BF020066C702007CBF0200A2
S315000019B0B8C1020094C102005CE6020089E602009A
S315000019C00CF6002070EA002078EE00206AC70200BC
S315000019D073696D2D656570726F6D322D696E7465F4
S315000019E0726E616C2E63000062F30F2262F31F4277
S315000019F0401810F0030308D0C91A1FD3DB0748BFED
S31500001A0000F8012D28BF20F8022D130030B414462B
S31500001A101546103928BF20E93C00FAD8490728BFE7
S31500001A2020E90C0048BF40F8042D890028BF20F8A3
S31500001A30022D48BF00F8012D30BC7047C91818BFE9
S31500001A4000F8012DCB0728BF00F8012D7047FEE7EF
S31500001A5080B50121794801F00FFB79480121016029
S31500001A60002001F0CCFE012304220221052001F012
S31500001A700AFF0120FEF78AFD00F00EF8FEF7B7FD1B
S31500001A8001F0F9FF012340226E496F4801F0BEFFC5
S31500001A906E490860C00F02BD70B501220121042005
S31500001AA001F04AFD6A486B4C01686B4D6B4E41F084
S31500001AB0010101600021C26842F08072C260022208
S31500001AC06748206029603160664867490A6001F00E
S31500001AD003FB6649664A674B0818B0FBF2F0401EE6
S31500001AE01860002129644FF48072634863492065B9
S31500001AF03160634802602B6843F480732B6070BDCD
S31500001B005348006800B10120C0B27047D12202706C
S31500001B104170090A81705B490A78C2700420521C20
S31500001B200A7070472DE9F14F5749DFF860A10A683E
S31500001B30DFF82481464E82B0002500904FF6FF79EB
S31500001B40145C01F0A3FF641DE4B201901FE0A91E1E
S31500001B509DF80800C9B200F039FB0746494601F076
S31500001B60EFFF81465D463D480168CA070FD5F0681C
S31500001B7040F08070F060D8F8001041F48071C8F829
S31500001B800010DAF800000028F1D08AF800703168F9
S31500001B90EFB249B3A74227DA01F078FF0199401A5C
S31500001BA080B240F2F51290421EDAE8B210B95B2715
S31500001BB00125D8E7012805D13348009A01688F5CD2
S31500001BC00225D0E7E01E874205F1010B08BF4F460C
S31500001BD0C8D0A11E8F4208BF4FEA1927C2D0601E87
S31500001BE08742B4D15D27BDE7A7420CBF0020012084
S31500001BF0BDE8FE8F10B524490A68145C042C01DA8E
S31500001C00012010BDBDE810408CE710B50F4B1868D9
S31500001C1090B04022694601F0E2FE58B1C1B2684672
S31500001C2000F0B6F904462146122000F0B5FE204623
S31500001C3000F02BF910B010BD0000000000350A00BE
S31500001C401088144284F40020CCC50200E0E800208D
S31500001C50F0ED00E0B00F00E0000E00E0800E00E0C6
S31500001C6055CEACC506000E00F00004E0FCAC060044
S31500001C70F8590D00100004E0FF0300400D000100BC
S31500001C80040304E027FF002040E80020200000E0D5
S31500001C902DE9F04104469046012522008AB00F4600
S31500001CA01E4606D0012C1DD0102C02D0202C19D097
S31500001CB01EE0002102F0F6F90546012C18BF202C83
S31500001CC008D0022C18BF212C04D0032C1CBF222CB8
S31500001CD0232C1AD1012E0197ADF80C800AD14FF4AE
S31500001CE080500BE068462A49282202F0E9FBE4E727
S31500001CF001200BE0022E03D14FF44050ADF80A004C
S31500001D006946204602F0CEF90546E8B20AB0BDE8BB
S31500001D10F08180B502F088FAC0B202BD80B502F04B
S31500001D20E7FAC0B202BD2DE9F84380460F461446D5
S31500001D301D46184E02E03068C75D203CE0B2202800
S31500001D40F9DAE8B2B0B1C4F120005FFA85F9C0B2A1
S31500001D50814588BF8146384600F022F8E4B2011971
S31500001D604A464046FFF7DAFF3068C75DA5EB09052E
S31500001D700024E6E7BDE8F2830CB480B50A460146C6
S31500001D8002AB054800F003FC02BC00205DF80CFB2A
S31500001D90A4BF020048E80020BB4300007047FEE7EE
S31500001DA0DFF840170A6802EB40107047DFF8382763
S31500001DB01368195470472DE9F0415FEA000831D0E5
S31500001DC002F0C1FBDFF82427DFF824171678DFF8C6
S31500001DD02457FF23FE2E19D10027DFF81C67DFF8F2
S31500001DE01CC7177034782C7007E07C1C0EF807406F
S31500001DF0DCF800E00EF80730E7B23478D1F800E0FE
S31500001E00A742F2DB0EEB040606F8013C2E784645A7
S31500001E100AD202F09EFB0520FEF7EEFB00211B20F6
S31500001E2002F0B7FCFF2020E0A6EB08062E7015781E
S31500001E30DFF8CC661778D6F800E001240EF80740E4
S31500001E40A8F10108D1F800C01CF8074014705FFA29
S31500001E5088F4002CEED1DFF890260CF8073000212C
S31500001E601368595502F075FB2846BDE8F08110B598
S31500001E70044602F068FBDFF8881609680A5D521C02
S31500001E800A55BDE8104002F064BBF8B5044600F000
S31500001E9031F8054602F057FBDFF85036DFF8547686
S31500001EA0DFF84CC6DFF858E601E02C46FF25FF2C8C
S31500001EB01CD022460FE0DCF80010895C0026A654F0
S31500001EC03C78641C3C70FF29DCF800601C78B45434
S31500001ED01A70EAD00A46DEF800108C5C661E8E5434
S31500001EE0DEF80040A15C11F07F0FE4D0BDE8F240BF
S31500001EF002F02FBB10B5DFF808160A68145C21063D
S31500001F0005D5DFF8E02513684001185C10BDFF20F9
S31500001F1010BDB0B504460D46FFF7ECFFFF2818BF0D
S31500001F20FFF7B3FF2846FF28DFF8D47504D13868D9
S31500001F30015D01F07F0105E0FFF799FF3868015D5B
S31500001F4041F0800101556401DFF8980501680D55DF
S31500001F50B0BD0EB430B504460120FFF72CFFDFF804
S31500001F6084150A68FF2802EB40110ED0DFF87825A9
S31500001F7013681C5403AA002304E052F8045B01F81A
S31500001F80015B5B1CDDB2A542F7D330BC5DF810FBEC
S31500001F907CB504460D4605F11F000004400DC0B295
S31500001FA0FFF709FFFF2806460DD0DFF83C0501685C
S31500001FB08D553CB1012000902B460022314620462B
S31500001FC000F002F8304676BDF3B5054681B0DFF87D
S31500001FD01805016817469DF808201E468B5CF41903
S31500001FE0A34203DA4FF4B77100F0E0F830000CD0EA
S31500001FF0089C394602A800F0DDF802469DF8081054
S3150000200000943346284600F001F8F7BD2DE9F04765
S31500002010089DDFF8DC64DFF8CCA4804689461446C8
S315000020201F460DE02900224612BF414601464046A2
S31500002030FEF74CFA30683F1BA04410F809900024C4
S31500002040F8B270B1DAF80000214600EB49135818CF
S3150000205051FA87F12029B2BFFCB2C4F12004E4B2E0
S31500002060E0E7BDE8F0872DE9FC410746DFF8780494
S3150000207088460168CC5D15461E462919CBB2A34297
S3150000208006DB28000DD0C9B2384600F05BF808B16F
S31500002090182007E000962B46224639464046FFF7B1
S315000020A093FF0020BDE8F6810123DCE70A4600E045
S315000020B0521C1378002BFBD1521A0123D2B2D2E75D
S315000020C02DE9F041804601F11F0402F11F00E404EE
S315000020D0C004240E000E04B9012400B90120844274
S315000020E02AD0DFF80C5419DA001BC0B2FFF763FEE2
S315000020F00746FF2808BF00201FD0641E00F01FF807
S315000021002E68305CFF2804D000F019F8305CFFF729
S31500002110BCFE00F014F829680F540DE08A420BD279
S31500002120411EC9B200F00CF804462868005DFFF7AE
S31500002130ACFE2968FF2008550120BDE8F081E1B218
S31500002140404610E070B5DFF8A063336805460C46DC
S31500002150595D2246FFF7B4FF18B130684455002098
S3150000216070BD182070BD04E0DFF884231368185C86
S31500002170491ECAB2002AF7D1704731B50C46DFF8BE
S3150000218068130A68155CAC4203D340F2052100F0DF
S315000021900DF82146684600F00DF8DFF848139DF863
S315000021A000300A6802EB4311084432BD0FF2543086
S315000021B000F04ABD38B504460D46C9042078090E1C
S315000021C0FFF7D1FF207005F01F0032BD80B5FFF785
S315000021D0D4FF007802BD10B51446FFF7CEFF047099
S315000021E010BDF8B5DFF8005304462868065DFF2CDD
S315000021F003D140F22521FFF7D9FF06F11F01C904DB
S31500002200080EFFF7D8FDFF28074609D02868C655EF
S315000022100096002322460021384600F0C2F83846D0
S31500002220F2BDF8B505460E4617460120FFF7C3FD79
S31500002230FF28044610D0DFF8AC023246066806EBEB
S3150000224044163B462021701900F01FF82D18DFF8C0
S31500002250980201680D552046F2BD1CB504AC0094E9
S3150000226000F001F816BD10B514461A46029B20442C
S31500002270091BBDE81040C9B207E00CB480B502AA3C
S31500002280FFF7CFFF02BC5DF80CFB2DE9F047814656
S315000022904F460024884615469A460CE0F6B2341995
S315000022A0444542DA32463846FEF710F9BF19641E35
S315000022B0641C6D1CE4B2444537DA2878A8B331288B
S315000022C018BF32280ED15AF8041B07F8011B322812
S315000022D0EED1641CE4B2A045A4BF091207F8011BA5
S315000022E0E6DA22E034280ED1211D5AF8040B88457F
S315000022F01BDB3870020A010C000E7A70B970F87098
S315000023003F1DE41CD4E7A0F133035AF8041B072B46
S3150000231038BFA0F13006C1D3A0F14103072B34BF6B
S31500002320A0F137065AF8046BB8E7A7EB0901C8B263
S31500002330BDE8F0876D49FE200870704770B500F063
S315000023402BF800F003F8301880B270BD060229465B
S3150000235020463BE7E0B58DF804200123120A8DF8EC
S31500002360052000930A460146022301A8FFF72CFE2A
S3150000237007BDF8B500F010F8FFF7E8FF8619E91C6D
S31500002380C9B2FFF7E5FF0702AD1CE9B2FFF7E0FFB0
S31500002390C01906EB0040F2BD0D46691C0446C9B2E1
S315000023A014E7FDB5089C20000D461E461BD1F7BD5F
S315000023B04C4B9DF804001B6803EB4010C2F1200251
S315000023C0D2B2BA42B8BF174681199DF8000003EB96
S315000023D040133A465819FEF779F8E41B7D19BE19E1
S315000023E0A0B200B9F7BDA9B26846FFF7E3FE0546FD
S315000023F0B1B201A8FFF7DEFE0646B542A7B2B4BFEA
S3150000240032462A46D4E770B504460D4602F09BF8DC
S315000024103A4A23781268FF2B08BF555503D0134458
S315000024201E7856551D702570BDE8704002F091B8B3
S3150000243038B5044602F087F82178FF22FF2908BF45
S31500002440FF2507D02D4B1B685D5C8D420EBF2270A9
S315000024505A5D5A5402F07DF8284632BDF8B5044656
S315000024600D4602F070F821780026FF2913D0234B81
S315000024701B680A46012603E08F420CD03A46761CBA
S315000024809F5CAF42F8D1DF5D9F54A94203D18A42D7
S3150000249008BFFF22227002F05CF8F0B2F2BD0078AD
S315000024A0FF2801D1012070470020704710B504466F
S315000024B002E0FFF7EAFC2046FFF7BAFFFF28F8D153
S315000024C010BD30B50D4B00781C68255C954203D0D5
S315000024D02846255C9542FBD121541868425430BDEC
S315000024E0000000003CE8002040E80020C1EB00208E
S315000024F048E80020A3EB0020A2EB00204CE80020D7
S3150000250044E800207061636B65742D6275666665CC
S31500002510722E630070B513461044DCB264B101F04C
S315000025200F060909451E0A2EACBF37243024A4190C
S3150000253028462C705B1EF0E7104470BDF0B50023F2
S3150000254041B1002806D52D2313700123B0F1004FA9
S3150000255018BF4042002100248A4D002601E0C01B1E
S31500002560761C55F82470B842F9D2F7B20FB90F00AD
S3150000257004D0D9B2303656545B1C0121641C092C98
S31500002580EBDBD9B2303050545B1CD8B2F0BD2DE92C
S31500002590F84F824696B04FF0000914A888461746B1
S315000025A01D4604ACCB46019012E04FF0010B0746E6
S315000025B000E004460198844209D39DF80020A41A3D
S315000025C000F0D4F8002851D159FA84F904AC7F1CE4
S315000025D004A88DF800009DF800003978201A00291B
S315000025E00FD0252905D05FEA0B0208BF04F8011BAE
S315000025F0E0D05FEA0B0114BF4FF0000B7F1C397867
S315000026000A0000F0A680B1F1250216D00B3A092A7D
S3150000261040F28080283A75D00A3A12D0521E3CD039
S31500002620521E57D0083A55D0121F39D0D21E37D075
S31500002630921E4FD0D21E65D0BCE7252004F8010BB0
S31500002640B8E729686A680391204608350292002493
S31500002650029A9442ADD20399095D0222FFF75AFF0E
S315000026600199884206D300F085F800287AD159FAF4
S3150000267086F904A80299491E8C423CBF202200F824
S31500002680012B0199884206D300F074F8002869D11D
S3150000269059FA86F904A8641CDAE755F8040BCDE765
S315000026A055F8046B044600F061F800285AD159FA2F
S315000026B084F9314604AC064600E0761CF0B2085CAC
S315000026C00028FAD1F2B24046D04700284AD159FA3A
S315000026D086F96FE76C290AD17A7855F8040B752AC2
S315000026E00EBF00210121642A07D17F1C05E0752950
S315000026F055F8040B0CBF002101212246FFF71EFFEF
S31500002700241857E755F8041B0222C9B22046FFF7E2
S3150000271001FF4EE77878782818BF58284FF0010B4C
S31500002720EFD17F1C781E32294FF0000B04D155F8EB
S31500002730040B81B20422E9E734297FF436AF55F859
S31500002740046B0422310C2046FFF7E4FE0422B1B2EA
S31500002750DDE70546EAB200F00AF818B9A9445FFABF
S3150000276089F000E0002017B0BDE8F08FE2B204A9BE
S31500002770404650479DF80020861AF2B204A940460A
S3150000278050470000A8C5020070B5FFF73EFAAB4CF3
S315000027902046FFF784FED8B92046FFF749FEFF28FA
S315000027A0044615D0A6480168085D851EE9B2204694
S315000027B0FFF7C4FD0646E9B22046FFF7C3FC2146F3
S315000027C0304600F0E9F82046BDE87040FFF75DBBF3
S315000027D070BD03460A4697A10420FFE70CB480B5F6
S315000027E002AA00F031F801BC5DF80CFB0A000346B2
S315000027F002D091A11120F1E77047000080B586B0A4
S3150000280002F04CFA2022049200218E4A009266239E
S315000028100591039302910191024600238DA10120A7
S31500002820FFF7DCFF88488179028843790391029299
S3150000283001930179C37882780091422088A1FFF73D
S31500002840CDFF07B000BD00002DE9F04F85B005466D
S315000028500F469046FDF7DFFE0024F0B9FFF750F96A
S31500002860D8B10120FFF7A7FAFF28824615D000212C
S31500002870FFF79CFA294601A8FFF748F9054687BBEA
S3150000288000F083F830B95046FFF7B4F910B10420D0
S31500002890FDF7B2FE5046FFF7F8FA05B0BDE8F08F37
S315000028A08DF8041001251BE0654858F8046B006894
S315000028B010F80A90F2B2FF2A12D0F1B210F801B065
S315000028C00BEB0901C9B25046FFF73CFC0028E1D1E9
S315000028D0CDF800B00023F2B249465046FFF761FD3D
S315000028E07F1C38780028CBD0A0F130010A2904D209
S315000028F00A2101FB0404303CF2E700F046F8002808
S31500002900C8D139780025422901A80ED044291AD009
S31500002910462925D057290DD06229C5D066292AD047
S315000029206C2925D0702926D0BAE758F8040B8DF803
S315000029300400B7E758F8041B8DF8041002250904B3
S31500002940090E4170CCE758F8041B8DF804100B0AE9
S315000029500A0C090E437082708DF807100425BFE734
S3150000296058F8041B5046FFF7A1FB0028B8D091E7A2
S3150000297058F8044BB4E758F8041BE2B25046FFF788
S3150000298093FB002808BF0024F0E72A4601A9504619
S31500002990FFF78ABB000000002DE9F043122885B03E
S315000029A080460D4609D03A281ED04FF6FE71884261
S315000029B004BF284600F0E3F834E02148234F0168BD
S315000029C04E5D2846FF282DD0212EB4BF3446202444
S315000029D0FFF7E6F901462246002001F025FB38689C
S315000029E0455D203EF6B2ECE702F006FA814603F0BA
S315000029F024F9064602F0A9FC074602F0A2FC0446AA
S31500002A0003F017F912490B6817A1CDF8109002468A
S31500002A100C480390588802900196009723463B2065
S31500002A20FFF7DCFE2946404605B0BDE8F043FDF75A
S31500002A3013BE0000574600006C700000C2EB002079
S31500002A4040E80020E0FA002098C7020048E800208D
S31500002A50D8FA00204242387042424242574242006F
S31500002A60424242425742000057424257573870424C
S31500002A7000000000DFF800F0E5E60020DFF800F0D7
S31500002A805BE60020DFF800F0E1E6002038B50446FA
S31500002A900D4603F067FC012C02D1FFF7EBFF02E0C5
S31500002AA02846FFF7EBFF18B103F068FC012032BDA2
S31500002AB003F064FC002032BD80B58308800705D58D
S31500002AC04FF6FF7242EA0142009204E041F07F4174
S31500002AD041F47F010091042269469800FFF7D2FF76
S31500002AE002BDF8B506460D4605F0010106F00100E7
S31500002AF00143144601D00120F2BD9CB132462B465B
S31500002B00611C4FF6FF7C01E0921C9B1C491E0BD0FA
S31500002B10178867451CBF18880028F5D04B20F2BDE2
S31500002B2003F02CFC0020F2BD03F01CFC012C01D0AC
S31500002B30B00707D535F8021B3046FFF7BDFFC0B911
S31500002B40B61C641E022C0CD367087F007A00294647
S31500002B503046FFF797FF60B906EB470605EB4705DA
S31500002B60E41B002CDCD029883046FFF7A5FF00289F
S31500002B70D6D003F003FCD1E77047002070477047BA
S31500002B8001987047704770477047702003F01EBC6D
S31500002B9070B5044643381F4D08D0401E012809D998
S31500002BA0801E01280ED9C01F32D02AE0BDE8704031
S31500002BB0FEF7B6BEFEF7DEFE20B1FEF7B1FE002838
S31500002BC0FBD170BD144E307810BB01213170FDF77A
S31500002BD02BFC442C12D00CD3462C05D00ED3472CFC
S31500002BE007D140F6010001E040F6020003F0EEFED8
S31500002BF004E04FF48771284600F026F80020307074
S31500002C0070BD2846BDE870404FF4907100F01CB8C6
S31500002C1070BD000054C602002BFF00207047002044
S31500002C207047002070470120704701207047002040
S31500002C307047704702F034BA002070470120704791
S31500002C407047FEE742DE704738B504460D4602F08F
S31500002C506FFD00F029F903F0E9FE29462046FFF74B
S31500002C60B8FD2B4622466D490120FFF785F8294617
S31500002C702046BDE83440E5E769482DE9F843694E4A
S31500002C800168B1654FF42068026A6749F2650B680E
S31500002C90336649687166426AB266816AF166C26ADB
S31500002CA03267016B7167806B96F83810B06748071A
S31500002CB04CBF346CF46B03F0A5FE002232658442EF
S31500002CC0DFF868E1014624BFAEF12007A742A1461E
S31500002CD0716506F19002564BDFF858C118D3A0690A
S31500002CE07064E469B464B56DC5F30805062D13D1A7
S31500002CF0604511D398420FD200884DF64264A04237
S31500002D000AD17068B4685060946040F2017803E0BC
S31500002D1000247464B46481464748814238BF014642
S31500002D20084670456AD20C68B4F1CD3F08BF091D4C
S31500002D30F6D063E0062C09D1C4B2002C0CBF0520E6
S31500002D40401E06F17C04C5B244F82510F14520D298
S31500002D505EF8041D6145F9D39942F7D2CC07F5D543
S31500002D60002406F17C0555F824708F42E2D0641CDD
S31500002D70062CF8D3DEE7F16F002306F17C0506EB9F
S31500002D808304D4F8804045F823405B1C042BF6D915
S31500002D9011600146481EC9B20029ECD1B06DC0F3DE
S31500002DA00800032810D0042811D0052812D00628C0
S31500002DB013D00C2817D0122818D120480268910782
S31500002DC019D540F2025816E040F6012813E040F605
S31500002DD0022810E040F603280DE0B8F5206F0AD16E
S31500002DE040F6042807E040F6052804E018B13F281D
S31500002DF038BF40F607284046BDE8F2831049081A56
S31500002E00F0640021002006F17C04C5B2401CC7B264
S31500002E1044F82510062FF8D3002097E730C00200AB
S31500002E2004ED00E00000002000E300E000E50020E3
S31500002E302EBF0200280400009C0000201C20054034
S31500002E4000E5002003F0F6BD7FB50121204800F023
S31500002E5013F901220121012000F06EFB0421072055
S31500002E6003F0EAFD1B4A92E838006946032281E82E
S31500002E7038000D218DF8081001268DF809208DF8EF
S31500002E8000608DF807606946134C204603F042FE49
S31500002E901249042008600222114962620860A26A8F
S31500002EA042F00202A2627FBD0B4803F027BEA528AE
S31500002EB003D10021084803F008BE704706480068A1
S31500002EC000F001007047074908680028FCD17047E8
S31500002ED000250A00C4C002000020054080E200E090
S31500002EE000E100E008200540890001EB401101F1F6
S31500002EF084410A607047890001EB401101F1844169
S31500002F000868704780B51221DFF88C05FFF7F3FFDC
S31500002F100028F8D101BD80B5FFF7F4FFDFF878058A
S31500002F200068000C00F0030002BD0122DFF84C151A
S31500002F3010B5884232BF0022DFF84415884201D21C
S31500002F40144600E002241021DFF83805FFF7CCFF15
S31500002F50DFF84805016821F0807141EA04610160EB
S31500002F6010BDF0B5DFF82025DFF8344513680023DF
S31500002F7004EBC305CFB22E79BE4203D154F83350C9
S31500002F80854202D25B1C052BF2D3052B0EBF032014
S31500002F9004EBC3004079116821F0407141EA0061F9
S31500002FA01160F0BD38B500F013F841F671302860B5
S31500002FB003F003FE002105E038B500F009F841F6FC
S31500002FC071322A60FFF7CDFF0CB10020286031BDB9
S31500002FD0DFF8D4542C6804B101247047C01C0F28B4
S31500002FE001D2000770474FF07040704738B504466D
S31500002FF0002500F017F9DFF89424DFF894149442C2
S3150000300008D0DFF8A024944206D0DFF88824944242
S3150000301004D006E0086802E0486800E0886800F02E
S315000030200700401E03281BD8DFE800F002050C0845
S3150000303003F0F8FD04E003F0FBFD01E003F0F5FD0D
S3150000304005460DE003F0ACFDDFF850140968090EE3
S3150000305001F001010122491C02FA01F1B0FBF1F570
S31500003060284632BDDFF8C4144A68D30702D40A687A
S315000030700242FCD17047000070B50C460246110AA8
S3150000308001F00F010020491E0929DFF8B45513D8B5
S31500003090DFE801F005131212071518121B1FDFF8DF
S315000030A0E453C2F3043608B1FFF7DCFF224631468B
S315000030B02846BDE8704017E770BD1035F1E730359A
S315000030C00120EEE738351020EBE740354FF480302D
S315000030D0E7E7DFF8A056E4E770B50346DFF85004EB
S315000030E0DFF8A8130668DFF8BC03DFF8A823DFF8CB
S315000030F0AC53012413F4781377D0B3F5003F2ED0E8
S31500003100B3F5802F27D0B3F5202F6ED0B3F5402F1F
S315000031102BD0B3F5602F60D0B3F5801F2DD0B3F55B
S31500003120A01F2DD0B3F5B01F32D0B3F5D01F3FD0BE
S31500003130B3F5F01F22D0B3F5001F4BD0B3F5101F27
S3150000314047D0B3F5381F2AD0B3F5401F36D0B3F5B4
S31500003150481F4DD063E003F032FDE96802E003F05A
S315000031602EFDA968C1F3082104E003F028FD696972
S31500003170C1F30421491CB0FBF1F651E0084629E0F1
S315000031801046FFF733FF0646286B00F003000DE0FC
S315000031900846FFF72BFF296A01F00F0115E00846E4
S315000031A0FFF724FF0646286AC0F30110C64037E041
S315000031B0FFF71CFFA96AC1F3011106E0FFF716FF2E
S315000031C0A96A090A01F00301091D8C40B0FBF4F657
S315000031D026E01046FFF70AFF1FE0DFF89C0500F027
S315000031E021F807281CD0092819D103F0E8FC14E0BF
S315000031F0DFF8880500F016F804280CD007280FD051
S3150000320008280CD103F0DBFC06462868C0F304202E
S31500003210401C464304E003F0EEFC064600E00026B0
S31500003220304670BD014601F00F010120491E0729F5
S31500003230DFF850254FD8DFE801F00415194E263483
S315000032404E3C506A00F00700801E052808D8DFE8CB
S3150000325000F03E240B0307050B2070470C20704737
S315000032600520704711690FE002207047516901F08F
S315000032700701491E03292FD8DFE801F00F020311C9
S31500003280F2E706207047916901F00701012904D091
S315000032900229E9D0042902D07047032070470A208A
S315000032A07047116811F001010FD0012914D10920CE
S315000032B07047DFF8D4140A6802F03002102A04D0EE
S315000032C0202A04D0302A04D07047072070470420F3
S315000032D07047082070470020704700002DE9F8432A
S315000032E0074600240326112F0D46B04612D1042DA1
S315000032F002D103F080FC08E0052D0BD1DFF88C0429
S31500003300DFF88C140068884204D304001CBF002137
S3150000331003F0BBFD07F00F077F1E072FDFF864944D
S3150000332014D8DFE807F004444A9447769482022DC5
S3150000333052480CD0032D2CD0042D2DD0052D30D085
S315000033400A2D03D00B2D2ED00C2D2ED07FE0042677
S315000033504FF0000801220121404600F0EDF8FFF78A
S3150000336021FE0CB1FFF7CEFDC9F8046000F082F82B
S31500003370FFF7DBFD03F014FC0546FFF7CCFD00F07C
S3150000338075F8002C63D1BDE8F4430121002003F059
S315000033907CBD4FF00108DDE70226B046FFF7C5FD0C
S315000033A0D8E70126FAE70526D4E70726D7E709F185
S315000033B0100404E009F1180401E009F11404012DD8
S315000033C008D0022D09D0032D0ED0062D13D00A2DBC
S315000033D01DD03CE00020206039E0012201210020C0
S315000033E000F0AAF80220F6E701220121012000F0F0
S315000033F0A3F80120EFE703F0D3FBFFF796FD0122C8
S315000034000221DFF83C02FFF76FFD0320E3E704200B
S31500003410E1E7072D05D0092D04BF0121C9F80010E9
S3150000342015E00020C9F8000011E0012D06D0042D9A
S3150000343016D0072D0DD0082D16D008E00020DFF895
S3150000344048130A6822F0300242EA00120A60BDE818
S31500003450F18301220121042000F06EF80120EEE73D
S3150000346000F024F80220EAE70320E8E701462846B0
S31500003470FFF7A2BDDFF808032EE600000148E801C9
S315000034800190D00300400E4004000E4002001E00D2
S3150000349080400E400500240004300E4000410E40DE
S315000034A0E8C402000300200040000E400122012172
S315000034B0022041E070B5044600F03CF801220021EC
S315000034C0022000F039F8217CDFF8D05200200229D2
S315000034D0296808BF0120490840EA41002860082100
S315000034E022782846FFF700FDA088617A41EAC021CC
S315000034F0A960EE68207AFFF771FDE288A17A06F0EE
S315000035007F6646EAC226227A0E4346EAC21606437A
S31500003510EE60A17B607B227B090141EA0031E07B02
S31500003520014341EA0241296170BD000040410E405D
S31500003530B8E80020112075E62DE9F84F04288346E7
S3150000354092466CD8DFE800F04E493F03440001275D
S315000035500220012500260029DFF8B0818F4C60D0BB
S31500003560BBF1020F02BF2068C0F3011000284FF024
S3150000357000090CD18A4801682268D0074FF001097A
S3150000358005D5216821F0300141F010012160E76383
S31500003590314600F058F80028FAD0BAF1000F3ED0B4
S315000035A000F050F80028FBD0BBF1020F37D1B9F17B
S315000035B0000F34D02068C1071BD50122202102202C
S315000035C000F0C7F819E00427082003250226C2E701
S315000035D01027202005250426BDE740278020072543
S315000035E00626B8E74FF480774FF4007009250826C1
S315000035F0B1E70021022000F08BF8022000F026F847
S315000036000646012200210220FFF796FF31460220DE
S3150000361000F036F8E76300F015F80028FBD0BDE8A7
S31500003620F18FE063D8F80000F040C107FAD4BAF190
S31500003630000FF4D0D8F80000E840C107FAD4EEE74E
S31500003640B0400E4029464046FFF755BC401E0328B1
S31500003650504912D8DFE800F0020C06080869C0F3EA
S3150000366008007047086800E0886800F07F0070472F
S315000036704C480068C0F30A007047002070470000FD
S31500003680F8B5401E0D46032805F07F06414C424F13
S315000036903BD8DFE800F00228101CC5F308051A2104
S315000036A03846FFF728FC0028F9D12069400A45EA88
S315000036B040252561F1BD18213846FFF71CFC00287E
S315000036C0F9D12068C00946EAC0162660F1BD192165
S315000036D03846FFF710FC0028F9D1A068C00946EA71
S315000036E0C016A660F1BD09480168626922F0300281
S315000036F042F010026261C5F3C310FFF76FFC226A45
S3150000370029490A40154305432562F1BD90400E4004
S31500003710224A1068C0F30110002818BF002911D0F2
S31500003720202902D030290DD00FE04FF40000D16ED1
S3150000373001408142FBD1400209D5D06F800A00F0DA
S31500003740010070474FF44000F1E71848EFE7012009
S31500003750704702280BD1080004D015484FF4806347
S3150000376043640160002A1CBF0220FFF7D1BF01207D
S315000037707047000050410E4006000E00B8003200AF
S3150000378000250A0070400E405C410E40C8E800204B
S31500003790012D310110400E4040410E4024400E40A4
S315000037A03C300E409C400E4000F8FF0FFF33E13FD7
S315000037B064400E40890001EB401101F184410A602A
S315000037C0704700F1806300F1C060196002607047C5
S315000037D010B500F00DF804F1806404E010B500F0B7
S315000037E007F804F1C064012303FA01F1216010BD5A
S315000037F03022404B5043184400F10C0470473E49B8
S315000038000A68920840EA8200086070472DE9F04194
S3150000381001F00305164603240F21082E98460CD204
S31500003820B70000FA07F2B9403448FFF7CAFF05FAB5
S3150000383007F204FA07F132480DE0A6F108029700F4
S3150000384000FA07F2B9402F48FFF7BBFF05FA07F267
S3150000385004FA07F12C482D4FFFF7B3FF079C069D8E
S315000038602B4842463146FFF7A5FF2A4631463846E1
S31500003870FFF7A0FF224631460120B0403861BDE87F
S31500003880F041244896E7F8B50546174638000E4637
S315000038901C4607D0002C284602D0FFF79FFF01E008
S315000038A0FFF796FF2A4630201249424388180F2216
S315000038B0082E05D2B300416800F015F8416006E015
S315000038C0A6F108039B00816800F00DF881604FB9EE
S315000038D0002C3146284602D0BDE8F4407EE7BDE81C
S315000038E0F44075E7F1BD9A4021EA020207FA03F1B6
S315000038F01143704700A0004044A4004000A40040CB
S3150000390008A4004004A400400CA4004014A40040F5
S3150000391010A4004028A4004010B5DFF85C41DFF891
S315000039205C11E1610320206160611022DFF8500123
S31500003930A06122620021A162E16220660022DFF816
S315000039404401626210216066A1662267E2662EA1CA
S315000039506267E31D0868DFF8301118600722204609
S3150000396000F0AEFD2023A37110BD2DE9F843DFF86A
S315000039700851044628788846914608B9FFF7CCFFD7
S3150000398018204443281900F1600600243769F568B9
S31500003990BD4212D2B4687068E41B4C4588BF4C46E1
S315000039A0C1192246404600F07BFDB168E7198F42F7
S315000039B0A044A9EB040908BF0027ED1B4D4588BFAD
S315000039C04D463DB17068C1192A46404600F068FD73
S315000039D02C19EF1904B137612046BDE8F283F8B51A
S315000039E004460D46164600F0AEFD07463246294609
S315000039F02046FFF7BAFFFFE70446384600F0A9FD68
S31500003A002046F2BD00000000525454002DE9F84350
S31500003A1000F02AF808B9FFF77FFF00F094FD7269FD
S31500003A2001460027182306F1640C03FB07FE5CF829
S31500003A300E0010B17F1C9742F7DB97420BDA7B43EF
S31500003A40F018002204664566C0F868800267C26600
S31500003A50C0F8749001E04FF0FF37FFE7084600F02A
S31500003A6078FD3846BDE8F283034E044630780D46AD
S31500003A709046994670474FE700EC0020C4F40020BA
S31500003A80DCC50200D4F40020E8C5020080B500F0D1
S31500003A900AF880B202BD80B500F005F8FA21B0FB45
S31500003AA0F1F080B202BD80B503F08EFEBDE80440A1
S31500003AB003F0A1BE80B503F0D8FF12480021416093
S31500003AC0001D03F0EDFC20B15FF04C0118A0FFF7DC
S31500003AD0BBF8002002BD0B490120087070477CB579
S31500003AE004460025226802B910E000F002F8012021
S31500003AF010E0044E044B357000210091706803F00D
S31500003B004DBD00001CF60020D73A000004F06CF80A
S31500003B10002076BD04F018F9307828B9706821467F
S31500003B2003F001FE852501E025603570284676BD47
S31500003B3073797374656D2D74696D65722E630000FB
S31500003B400A0A42EA01225040C0F30311484080EAC3
S31500003B50003041010206C9B2D20E41EA02214840B4
S31500003B6080B27047010008D4012200F01F01DFF87F
S31500003B7070378A40400943F82020704701000CD472
S31500003B80012200F01F01DFF85C378A40400943F844
S31500003B902020BFF34F8FBFF36F8F7047010008D40B
S31500003BA0012200F01F01DFF840378A40400943F840
S31500003BB02020704710B5DFF8344730B1012807D010
S31500003BC0102802D0202803D004E00020204410BD95
S31500003BD01C20FBE74FF4BD71DFF82408FFF734F82B
S31500003BE0204610BD426893884089411A8B4201DA0B
S31500003BF001207047002070477FB50128044604D98C
S31500003C00B0F1100101D010393BD1012818BF20288E
S31500003C1032D1FFF7CFFF054600F095FC0646A869AE
S31500003C2001AB6A4602A905F038F900992A89286885
S31500003C3089B200F027F8304600F08BFCA86905F041
S31500003C40A7F9012818D12A68298990882A8A091A89
S31500003C50914211DBA86990F83110022903D105F0D1
S31500003C601AF9022804DAA86990F83110012903D15B
S31500003C70A869002105F062F9200014BF102CFDF799
S31500003C80C4FF7FBD70B504460E46154600F05BFCCA
S31500003C90E288B2420CD221888B1A991991FBF5FC65
S31500003CA005FB1C152580A388F3189A1AA280E680C6
S31500003CB000F0DBBBF8B5012818BF20280C461546D6
S31500003CC016D1FFF777FF0646307B10B101217173DD
S31500003CD0F1BD707B18B13046BDE8F240C0E00FF28E
S31500003CE0E91700F006F818B100F003F80028FBD138
S31500003CF0F1BDB0693B462A46214605F027BA70B5A4
S31500003D0005460E46FFF756FF012D18BF202D044627
S31500003D1040D1A069016890F83200E8B904228A64AB
S31500003D2000F071F9A0690068C16C002E07D041F05F
S31500003D300401C1640C20FFF715FF052106E021F000
S31500003D400401C1640C20FFF719FF0021A069006877
S31500003D50BDE8704005F080BA0420486300F053F9CE
S31500003D60A0690068816B002E07D041F004018163D1
S31500003D700C20FFF7F7FE052106E021F00401816320
S31500003D800C20FFF7FBFE0021A0690068BDE870402B
S31500003D9005F0EBBA70BDF8B50446DFF86806814257
S31500003DA01D463BD00026F2B21C20DFF840154243E8
S31500003DB08F18BB69A3422DD13A893868A9B2FFF79B
S31500003DC061FF38680021C180204605F064F80228AA
S31500003DD020DC798AFA8951433A68908889B288B199
S31500003DE01388B7F80EC052888C446245B8BF994212
S31500003DF00CDB1046834205D2FA898A189042A8BF86
S31500003E00994203DB384600F00AF8DDE70121204637
S31500003E1005F094F8761CF0B20228C4DBF1BD70B54B
S31500003E200446DFF8E435E089668A25680246704371
S31500003E302E18A06906F1080105F044F9A06905F0FD
S31500003E402AF8012803DDA069002105F077F8608AC9
S31500003E50A18A401C90FBF1F201FB1200608270BD4A
S31500003E60FEB50446207B68BB60680FF25D0641889C
S31500003E70084400F10807A0696B4601AA02A905F0EB
S31500003E802DF861688A880098019D121A551B4A8888
S31500003E90088890420ED26189A0698A1A334639464B
S31500003EA005F054F970B96268618950886D1A451930
S31500003EB002F10807A0693346EAB2394605F046F929
S31500003EC000B96073F7BD00002DE9F041054698463C
S31500003ED00027F9B21C22DFF8140451434418A369E1
S31500003EE0AB4216D160688188414534BF8688464614
S31500003EF000F029FB61684A8812FA86F1628900F0AF
S31500003F004EF86268518061688A88961B8E8000F040
S31500003F1020FB7F1CF8B20228DBDBBDE8F08110B580
S31500003F201129044609D1A069002105F014F80021E1
S31500003F3021732046BDE8104092E7132906D1A069F7
S31500003F40012105F008F80120207310BD206800F15A
S31500003F500802008811542068018800F01EF80180CC
S31500003F608188491C8180A06905F012F821682289A0
S31500003F708988511A89B220B9E2898A42A8BF0121EB
S31500003F8005DA012808D1208A814205DB0021A069D3
S31500003F90BDE8104004F0D2BF10BD2289491C91FB38
S31500003FA0F2F302FB1311704710B52020FFF702FE53
S31500003FB00446DFF85804A16991F83120012A09D195
S31500003FC001690A060AD505F0BDF901462046BDE895
S31500003FD01040A4E7C16C21F00401C16410BD10B506
S31500003FE0DFF8284428B92046BDE81040002105F036
S31500003FF033B900F008F80C20FFF7B4FDE06C40F090
S315000040000400E06410BD0C20C8E580B530B9BDE8F9
S3150000401004400521DFF8F40305F01EB9FFF7F3FFAE
S31500004020BDE802400C20A9E5F8B50C461546FFF799
S31500004030C1FD0646306881883289E8B2121A91427B
S3150000404001DB0120F2BD00270EE000F07CFA3168AA
S3150000405014F8012B01F1080309885A547F1C3168B2
S315000040600A88338900F031F9AF42EED30020F2BD61
S3150000407010B5012818BF202807D1FFF79BFD04467D
S31500004080A06904F0E0FE800401D4002010BD616840
S3150000409088880028F9D1A06904F01CFF401E8041E1
S315000040A0C00F10BDF8B5012804460D4603D91038D7
S315000040B001D0103852D1204600F0DEF910B9204662
S315000040C000F085F82046FFF775FD06462046FFF707
S315000040D071FD21000FD0012C03D0102C0BD0202C09
S315000040E03CD1DFF82C13DFF82C23016080234260DB
S315000040F00381438109E0DFF82023DFF82013026003
S3150000410041604023802103814181200018BF102C8B
S3150000411003D1BDE8F140FDF79BBC012C18BF202C54
S3150000412053D1012C16BF202CDFF8F4020020012CFD
S3150000413018BF202CB06111D1DFF8E812DFF8E802D1
S31500004140E961A861A98CF181EB8C33828B4207D29D
S315000041501C21304605F064F90220F2BD0120F2BDB3
S31500004160B26992F8310001280CD0308990FBF1F742
S3150000417001FB1700002802BF93FBF1F001FB103191
S315000041800029E5D12946104604F0BEFCF0B9B06915
S31500004190017F007E01230222FFF775FB287C0128A0
S315000041A008D101212046FFF7AAFDB069002104F0DD
S315000041B0C5FE0AE0002070823189F08991FBF0F09B
S315000041C0B08200F056F900F054F90020F2BD58B55F
S315000041D00128044603D9103801D0103813D12046DF
S315000041E000F04AF9F0B9204600F020F92046FFF722
S315000041F0E1FC012C18BF202C06460FD1B06904F053
S3150000420054FD10B152BD012052BDB06990F8311075
S31500004210012903D100212046FFF771FD1C213046FC
S3150000422005F0FEF8002052BDF8B5054601280F46F8
S315000042302E4603D9103801D010380BD12846FFF787
S31500004240B9FC04462846FFF7D7FC2168888818B9C8
S315000042502620F2BD0120F2BD00F075F90546206862
S3150000426041880844027A3A7020684188FFF795FE33
S31500004270418081884A1E012E18BF202E828004D1DB
S31500004280A06990F83110012919D1284600F061F98A
S315000042900020F2BD2268E089618A53881288414372
S315000042A089B240188342B8BF9142EEDB9A4203D2EC
S315000042B08342A8BF9142E8DB2046FFF7B0FDA06924
S315000042C004F0E9FD0228E5DBDFE7521C92FBF3FC74
S315000042D003FB1C220A808A88521C8A8000F039B9A6
S315000042E000E100E080E100E080E200E07CF10020F7
S315000042F02DE9F84F0128804604D9B0F1100301D00A
S31500004300103B10D1002818BF1028894692460CD0C1
S31500004310FFF750FC0646002470680188084400F147
S31500004320080B00253BE001200EE051464846FEF70B
S315000043305DFA08E0544506DAAAEB040082B2594653
S315000043404046FFF7B7FC0020BDE8F28F00F0FBF80F
S3150000435071680B8819F8012B19440A7271680A886A
S315000043607389521C92FBF3FC03FB1C220A808A8889
S31500004370521C8A8009884F1EBF4100F0EAF8FF0FE1
S3150000438067B1EFB27F1C3F1BFAB259464046FFF7B2
S3150000439091FC70683C19E4B200F1080B6D1CE8B2A0
S315000043A05045C7D200213046FFF71CFC0028CDD16E
S315000043B0307B0028F6D02220C6E7F8B50124012874
S315000043C007460E46154603D9103801D0103815D1C8
S315000043D0380018BF102F04D129463046FEF706FADA
S315000043E000243846FFF7E6FB012F18BF202F05D122
S315000043F080692A46314604F0CDFD04462046F2BDCA
S31500004400CCBF0200097000F0973D0000000001409B
S315000044106CF00020F4F000209CEF0020E4EF002078
S31500004420B4F10020BCE700203CE7002070B505464B
S31500004430FFF7C0FB0646012D346818BF202D0DD1AD
S31500004440B06990F83110012908D0022104F06FFC00
S315000044500020708200F00DF800F00BF800F073F801
S315000044600021A18021806180E180BDE8704000F0DC
S3150000447070B83046FFF7D3BC80B5012804D9B0F137
S31500004480100101D0103906D1FFF794FB00281CBF9C
S315000044900068002801D1012002BD002002BDFEE710
S315000044A062B38B0708D0521E11F8013B00F8013B9E
S315000044B000F024808B07F6D1830740F0208000BFF0
S315000044C0103A07D330B4B1E83810103AA0E83810E3
S315000044D0F9D230BC530724BFB1E80810A0E8081091
S315000044E044BF51F8043B40F8043BD20724BF31F8DF
S315000044F0022B20F8022B44BF0B7803707047121F63
S3150000450017D35B0009D151F8043B20F8023B1B0C82
S31500004510121F20F8023BF6D20BE051F8043B00F8DC
S31500004520013B1B0A20F8023B1B0C121F00F8013B43
S31500004530F3D238BF121D521E24BF11F8013B00F8FA
S31500004540013BF8D87047EFF31180602181F31188A1
S31500004550704780F31188704738B57C487C4C0068FA
S315000045602060606048220021FBF7F7FF794A216846
S31500004570107808704FF6FF712068002241800273A0
S3150000458023685A730B222068827314232268D3731C
S315000045904FF6FE7320680382418204F097FF21687C
S315000045A0087604F093FF2168487604F08FFF2168AF
S315000045B0694B8876694821680278CA766849206816
S315000045C00A6840F8282F1D78057166482268016838
S315000045D0116331BD10B500F0B4FE5D4C6168897B96
S315000045E0884203D0084600F0B3FD50B900F0ADFE96
S315000045F0616891F90F10884205D0084600F0B4FEB4
S3150000460008B1012010BD6068008A01F0FCFA6068FC
S31500004610408A01F016FB6068017B01290CBF01206E
S31500004620002001F0DDFA002010BD10B54E4C002030
S31500004630207005F000FC20B92046BDE8104005F0CA
S3150000464051BC6AE080B5002000F015F828B10020C2
S3150000465000F005F808B1002002BDFF2002BD3C486D
S315000046600168487B02281CBF1128432801D101207C
S3150000467070470020704736480168087B01281CBF38
S315000046800228032801D1012070470020704700202E
S315000046907047702070470020704734490870704793
S315000046A07047002070470120704770470020704710
S315000046B000207047704770470020704780B5002083
S315000046C0FFF7CDFF20B10020FFF7D5FF00B1012095
S315000046D002BD80B50020FFF7C2FF30B11C4801685B
S315000046E00A7B032A01DA002002BDFF2002BD00007A
S315000046F010B5040000F005804FF4BA7148A0FEF72B
S31500004700A3FA1A49087808B9702010BD0F49104B52
S315000047100A684820444310195860BDE8104059E71C
S315000047200B484168088A704709484168488A7047BB
S31500004730074909684A690260C97E017170470449E0
S31500004740096802684A610079C876704778E80020EF
S31500004750D8FA002017FF0020ABEB0020B6EB0020B4
S315000047607CE8002080E80020C8FA0020E4EB002066
S315000047707047002070470020704705F02CB970473D
S31500004780002818BF05F0D0BC704705F058BF06F0EA
S315000047907EB882B08DF80010DDE9002311461A4676
S315000047A002B006F0D7B833B585B005468DF80420BB
S315000047B000F0B4FA0446284600F0C0FA7CB100289E
S315000047C0BDF818000FD100F098FB8DF80000FF2807
S315000047D004BF00218DF80010CDF808D016E0A8B16E
S315000047E006A8029012E000F088FB8DF80000FF2872
S315000047F004BF00218DF800109DF80000BDF81810C8
S315000048008DF80C0003AAADF80E100292DDE9010145
S315000048100A460146284606F09DF807B030BD00005E
S31500004820656D6265722D6D756C74692D6E65747734
S315000048306F726B2D737475622E630000490102005E
S3150000484003D4DFF89C0481547047DFF8983402F0F3
S315000048500F021A4402F8041C704700F0070010B556
S31500004860C0F10703042B28BF0323C41C072C34BF45
S315000048700020001F012404FA03F35B1E1940814047
S3150000488004FA00F0401E1040084310BD0020704797
S315000048900020704770471CB572B602F0C7F8DFF803
S315000048A04804DFF848444169216000F0DCF901461C
S315000048B06FF00B00FFF7C2FF00F0D5F901466FF06D
S315000048C00A00FFF7BBFF00F0CEF901466FF00900C2
S315000048D0FFF7B4FF00F0BFF901466FF00800FFF7DD
S315000048E0ADFF00F0B8F901466FF00700FFF7A6FF2D
S315000048F000F0B1F901466FF00600FFF79FFF00F0E8
S31500004900AAF901466FF00500FFF798FF0022022181
S3150000491000F0A3F901466FF00400FFF78FFF00F0E7
S31500004920A6F901466FF00300FFF788FF00F093F940
S3150000493001466FF00200FFF781FF0022072100F019
S315000049408CF901466FF00100FFF778FF00F08FF950
S3150000495001464FF0FF30FFF771FF00F088F901467E
S315000049600020FFF76BFF0022032100F076F90146D5
S315000049700120FFF763FF00F072F901460220FFF7FE
S315000049805DFF00F06CF901460320FFF757FF00F0CA
S315000049906EF901460420FFF751FF00F068F9014661
S315000049A00520FFF74BFF00F062F901460620FFF7EE
S315000049B045FF00F05CF901460720FFF73FFF00F0D6
S315000049C056F901460820FFF739FF00F050F9014675
S315000049D00920FFF733FF00F04AF901460A20FFF7E6
S315000049E02DFF00F044F901460B20FFF727FF00F0EA
S315000049F03EF901460C20FFF721FF00F038F9014689
S31500004A000D20FFF71BFF00F032F901460E20FFF7DD
S31500004A1015FF00F02CF901460F20FFF70FFF00F0FD
S31500004A2026F901461020FFF709FF00F020F901469C
S31500004A301120FFF703FF00F01AF901461220FFF7D5
S31500004A40FDFE00F014F901461320FFF7F7FE00F013
S31500004A500EF901461420FFF7F1FE00F008F90146B1
S31500004A601520FFF7EBFE00F002F901461620FFF7CE
S31500004A70E5FE00F0FCF801461720FFF7DFFE00F028
S31500004A80F6F801461820FFF7D9FE00F0F0F80146C7
S31500004A901920FFF7D3FE00F0EAF801461A20FFF7C7
S31500004AA0CDFE00F0E4F801461B20FFF7C7FE00F03C
S31500004AB0DEF801461C20FFF7C1FE00F0D8F80146DB
S31500004AC01D20FFF7BBFE00F0D2F801461E20FFF7BF
S31500004AD0B5FE00F0CCF801461F20FFF7AFFE00F050
S31500004AE0C6F801462020FFF7A9FE00F0C0F80146EF
S31500004AF02120FFF7A3FE00F0BAF801462220FFF7B7
S31500004B009DFE00F0ACF801462320FFF797FE00F06B
S31500004B10AEF801462420FFF791FE00F0A8F8014602
S31500004B202520FFF78BFE00F0A2F801462620FFF7AE
S31500004B3085FE00F09CF801462720FFF77FFE00F077
S31500004B4096F801462820FFF779FE00F090F8014616
S31500004B502920FFF773FE00F08AF801462A20FFF7A6
S31500004B606DFE00F084F801462B20FFF767FE00F08B
S31500004B707EF801462C20FFF761FE00F078F801462A
S31500004B802D20FFF75BFE00F066F801462E20FFF7AA
S31500004B9055FE61684FF6FF00014041F0BF6141F4E8
S31500004BA0013161604FF4E021E06840F40070E0609C
S31500004BB0E06840F01000E060E16105F0C4FF05F038
S31500004BC0F5FFEFF30880001F49494FF0CD3201E0B1
S31500004BD040F804298842FBD2464A474892B200214F
S31500004BE0FBF7BBFC62B6454801214164026842F40A
S31500004BF080720260684606F02BF89DF801000128D5
S31500004C0003DC9DF80000032809DB3D483D4A3E4B86
S31500004C104FF418710160426043663C49C166012049
S31500004C203B49086006F02EF802F066FC06F022F911
S31500004C3038490124D1E90023CDE900238DF803404A
S31500004C40684602F062F902F0D3FFFEF733FF3248FE
S31500004C5006F07EF913BDFF22FF210420FDE50022A8
S31500004C6001210420F9E5002200210420F5E50022B7
S31500004C7004210420F1E540F2016001F0A7BE06F030
S31500004C8089B980B500210B2006F07CF9BDE801400A
S31500004C9006F081B9032006F0E5B9000010B505F06D
S31500004CA0C5FF044605F0C6FFC0B208B9012C07D1FE
S31500004CB0072C11D8DFE804F004100608080A0C0EC9
S31500004CC0002010BD092010BD022010BD032010BD1C
S31500004CD00B2010BD062010BD44F0800010BD000062
S31500004CE000E400E018ED00E00000000008ED00E040
S31500004CF0A0DB002038120000A000002000000E40BB
S31500004D008C420E409A6F0500180100040084320898
S31500004D1010300E40D0C0020044C7020020B500216A
S31500004D207DA2CBB2D35C834205D0491CCDB2082DFF
S31500004D30F7D3002020BD012020BD000020B50021B2
S31500004D4077A2CBB2D35C834205D0491CCDB2082DE5
S31500004D50F7D3002020BD012020BD6C48016848889B
S31500004D6070476A480168081D704768480168C87E30
S31500004D70704766490A68D076704738B5634C644D0B
S31500004D80216848730228634915D12068027B042AEA
S31500004D901CBF084605F0A6F82068007B03281EBF46
S31500004DA00428284605F09EF820684169C80054BFCB
S31500004DB09024BC2410E000200870287006F0A8F9A2
S31500004DC02068007B032818BF042802D106F0B1F939
S31500004DD001E006F004FD9124204606F057FD50B987
S31500004DE02346132248A10320FBF70DFC2046BDE80D
S31500004DF03240FFF7CCBC31BD44480168487B00F027
S31500004E000F007047414801684A7B02F00F02022AF0
S31500004E1001D1012070470020704738B50446FFF7DE
S31500004E20F1FF3A4D28B92868417B032901D0932028
S31500004E3032BD07F012FC20812868C17BA172286868
S31500004E40817BE172204608F068FE0020207304F1A1
S31500004E50140104F1100008F013FFE081002032BDB8
S31500004E6070B52A4D2E680C46FFF7CCFF20B9707B33
S31500004E70032801D0932070BDF07B20702968887BC1
S31500004E8000F009F960702868817B01F01F01A170AC
S31500004E90002070BD10B5002300E05B1CDCB28C4224
S31500004EA005D210F8014B9442F7D0002010BD012026
S31500004EB010BD082109F058B814480168487B01283C
S31500004EC01CBF3128332801D10120704700207047CC
S31500004ED010B5044600F048FA010002D10B490A68F1
S31500004EE0D47310BD0948016891F90F00704707484F
S31500004EF00168887B704701207047044801688A7BF7
S31500004F00500918BF0120704742420000D8FA00201D
S31500004F101CFC00200CF800200001020304051D20E3
S31500004F200203040508090A0B38B5044606F02AF8F8
S31500004F300546DFF8640A83780178994211D000F0BB
S31500004F404AF8641E07D0641E08D0A41E06D0A41E0C
S31500004F50032C03D905E00022194600E0002209F0DF
S31500004F6023F8284632BD10B5DFF8703A4C000146EA
S31500004F70986A224609F021F8A04201D0002010BD0F
S31500004F80012010BD80B500F026F809F0D1F800B177
S31500004F900120C0B202BDDFF8442A0146107B00287A
S31500004FA000D1704780B5906A09F0F1F828B1BDE8E4
S31500004FB0044040F29B1100F0B2BB01BD80B500F089
S31500004FC00AF808F0F3FF00F00300032801D10120DE
S31500004FD002BD002002BDDFF8040A806A704780B572
S31500004FE0B0F5004F08D14FF6FF70DFF8F4190988C5
S31500004FF000F0B2FEBDF80000DFF89C1948830020DF
S3150000500002BD2DE9F04F4FEA501C0C4600F01F0080
S315000050100026DFF8008A2FE00EF1010EEF7E5FFA20
S315000050208EF0B84226D2E8695FFA8EF9142717FB8C
S3150000503009F94844077A07F007076745ECD1477A2C
S31500005040B942E9DB90F801B090F8009007EB0B0A43
S31500005050AAEB090A8A45DFDB14B1C91B4944217052
S315000050600AB1017A117003B11860284600E00020E9
S31500005070BDE8F08F0846761C98F80650F1B2A942B2
S31500005080F5D2D8F808105FFA86FE51F82E504FF088
S31500005090000E0146C2E7400918BF40F018007047ED
S315000050A038B5DFF83849A06A09F042F80546E8073E
S315000050B044BFA06A09F041F8E8031ED5E16ADFF8AB
S315000050C0B05A086A18B940F2662100F020FDE06A7D
S315000050D0016A486818B94FF41A7100F018FDE26ABF
S315000050E0136AA06A5A680021904730B12846BDE885
S315000050F0344040F26921FDF7A7BD31BD3EB5684693
S3150000510000210022002380E80E00DFF88C48A07AF8
S3150000511025788DF80050002818BF022810D1DFF836
S31500005120BC5800F00EF858B1A86A0122002108F018
S315000051303FFF00F006F818B140F29E2100F028FC6F
S3150000514037BD2179A86A6A4608F095BF00000000BD
S315000051502DE9F043FF2889B006460AD1DFF8B408E6
S3150000516081680A68D069467A017A06F01F0646EA1F
S315000051704116F5B205F01F001B2847D20021019108
S3150000518001AB6A46F0B2FFF73CFF5FEA00081CBFBE
S31500005190019800283AD0DFF80048DFF840782179F6
S315000051A0F0B2884231D00B3D102D39BFDFF8000A2E
S315000051B00568DFF8001A0D68002D1CBF2878032843
S315000051C024D0786C854214D002A829460622FFF71F
S315000051D067F9B86A7D6402A909F038F8B0B9B86A07
S315000051E004A909F043F8B4F91810B86A08F0FAFFF0
S315000051F060B9386B0199C7F82C80884208D19DF8B0
S31500005200000078732671FFF779FF7FE08A2085E03A
S31500005210A57ADFF85C9900F08BFA386B38B1B86A7A
S3150000522009F069F818B140F2D32100F087F8019827
S3150000523001993863C868786318B94FF4367100F07D
S315000052407DF8D8F82000B96C814219D018B940F21F
S31500005250DF2100F073F8D8F82010086818B940F27A
S31500005260E12100F06BF8D8F82010B86A0A68904778
S3150000527018B140F2E22100F061F8D8F82000B864D5
S315000052800DF1080026A11C22FFF71AF9786B418A56
S315000052900901ADF80E10417C09011439ADF816105C
S315000052A002A9407C0001ADF81A00E079401E804159
S315000052B0C00F8DF82100787C8DF82200B86A08F0BE
S315000052C0E7FF18B14FF4427100F038F8B86A0122CE
S315000052D0012109F09BF818B140F22D3100F02EF8AB
S315000052E000F06AFCA08B00F08EFCE08B00F0A9FCBD
S315000052F0207A00F03FFC9DF800007873267100F0DC
S3150000530032FD00F0F9FC284600F07CFA97F90E1001
S31500005310B86AC905091409F079FA002000F085BEBB
S31500005320000000000100000001010101640000000E
S3150000533064000000000000000B0000004846FDF776
S3150000534083BCDFF8D00700797047DFF8C807B0F9EB
S315000053501800002854BF05216FF0040108180A211F
S3150000536090FBF1F040B270470A2110FB01F0FFE715
S31500005370F8B500F5D77140F27722914201D38B2020
S31500005380F2BDDFF85856DFF88C472A6B0A26002A4A
S315000053901EBFA17E01F0C001802911D0E97B79B939
S315000053A092F902100F4617FB06F7B842A1BF92F911
S315000053B003100A4612FB06F28242B8BF11FB06F042
S315000053C0297B61B10146A86A08F00CFF18B140F2CA
S315000053D0833100F0DDFAA86A08F01EFF01E010FB39
S315000053E006F020830020F2BD38B504460B3810289D
S315000053F039BFDFF8BC070068DFF8B817086888B15E
S315000054000023002200212046FFF7FBFD50B104F0E7
S315000054101F051B2D06D22046FFF73DFE10B9284674
S315000054200B2800DAFF2032BDDFF8BC194008085C03
S3150000543070477047C0B2704711F1630F01DA002060
S31500005440704711F1240F01DBFF2070476431090218
S31500005450481101EB90618904080E704770B5DFF8BA
S315000054607C45DFF8F8590020E064687830B109F02F
S31500005470D5F90246012A18BF032A01D1002070BDC2
S31500005480606BDFF83039DFF8106500281FBF216B2D
S3150000549009690029022A17D1E364706900F5FA70D8
S315000054A07061607D18B100200021642203E0E87875
S315000054B029794FF4A0722070A28061708021A878AB
S315000054C0A070E180002031E0DFF820597269A9421E
S315000054D014D1DFF8AC19E16402F57A727261617D6C
S315000054E091B90179217001258278037990F9031029
S315000054F09540EB18CB185B1E63700DE0E36402F574
S31500005500FA727261617D19B100222280642105E080
S31500005510417821708278627001780901A180417911
S31500005520A17002891201E280C0880001A06000F02B
S315000055301AFCE070A07841B2002948BF4042C0B2D0
S3150000554070BD70B50446DFF89464257896F91600A8
S3150000555008B18C2070BD3065FFF780FF3076690199
