:10000000000800201FA40200D3F80000EB03010049
:100010004B1001002B1A0100334D010000000000BD
:10002000000000000000000000000000A7590100CF
:10003000CB600100CBF600008F630100FB6501007F
:100040009F6D010083520200036F01002F810100A8
:100050007D4D0200C9520200895202008B520200FB
:100060008552020013800000C1830000B7860100A2
:10007000B19300004D9400009B8A01009B8E01000B
:10008000C7A00100C3A10100DD830000C3A20100DD
:100090008FB3010033B6010057B60100BBC60100A3
:1000A000DBC6010003C801003BCB01005BCB0100B4
:1000B000CB52020087520200959D02001BCC01002A
:1000C000FD5202004FD10100659802008BE601004D
:1000D000A7290200333F0200436502004B6502007E
:1000E000B36B020063700200A3890200738B0200ED
:1000F000638D02007B9D02000000000013B779FAB7
:10010000C925DDB7ADF3CFE0F1B614B801010000A9
:1001100000000000000000002000000001000000BE
:1001200000000000000000000000000000000000CF
:10013000000000000000000000000000002801286E
:1001400003280018002A012A0118052A2A2B292B26
:10015000022900000A030A00D4AC00200A020100B0
:10016000E9F2002002011000CCBD002020000400B4
:10017000DCBD002000000108FFFF00001AA40200FF
:1001800002000108FFFF000012A40200070000089F
:10019000FFFF00016C0100000A000708FFFF0003D9
:1001A0000200000002000108FFFF00000AA4020094
:1001B00008000108FFFF00016401000002000108BF
:1001C000FFFF000002A4020009000308FFFF000176
:1001D0005C01000000000108FFFF0000FEA3020018
:1001E00002000108FFFF0000F6A30200040003085C
:1001F000FFFF00015401000002000108FFFF0000A2
:10020000EEA3020005000108FFFF0000EAA30200C0
:100210000300060008000B00740100000D00000040
:100220000B0000003C0100000000000048A5020097
:10023000040000001002000049A5020000000000B8
:100240004AA5020000000000FFFFFFFF40787D018B
:1002500000000000005A620200010000C0CF6A00E6
:1002600002000000809FD50002010000002D310136
:100270000202000001000000000000000400000075
:100280000100000008000000010000001000000054
:100290000100000000010000010000000008000053
:1002A0001D000000000200001D000000000400000E
:1002B0001D000000000001001D00000005000000FE
:1002C0000000000000C20100000500000010000056
:1002D00000000000000000000000103000000000DE
:1002E00000000000000000000000100300000000FB
:1002F00000000000000000000700000300010807E4
:100300000F000A00C8002000A0000100010000004A
:1003100005000000000000000002070000000000CF
:10032000A00068010A200706020A04070000000076
:10033000000000000000000008020000E0BD0020F6
:100340009821640000000000000000001802000076
:10035000000000000000000001010000000000009B
:10036000000000000000000000000000000000008D
:10037000010100004FBF00000000000055BF000059
:10038000000100005DBF0000000200007BBF000014
:1003900000030000000000000000000017D0000073
:1003A0000D01000039D000000D02000067D00000F0
:1003B0000D030000CBD000000D0400000000000081
:1003C00000000000E5C900000900000003CA0000A9
:1003D000090100001BCA0000090200005BCA0000FE
:1003E0000903000077CA000009040000A9CB00003F
:1003F00009050000CFCB000009060000A3CA0000D9
:1004000009070000E5CA0000090800002DCB000024
:100410000909000043CB0000090A000077CB000067
:10042000090B000091CB0000090C000093CD0000E7
:10043000090D0000E5CB0000090E0000FBCB000019
:10044000090F00003FCA00000910000013CB000094
:1004500009110000C5CA000009120000C3CD000048
:100460000913000000000000000000001FCC000085
:100470000A0000004FCC00000A01000001CD00007E
:100480000A0200001DCD00000A03000043CD000059
:100490000A0400005BCD00000A0500009FCC0000AC
:1004A0000A060000A9CD00000A080000CBCC00001D
:1004B0000A090000F7CD00000A0A00000000000051
:1004C0000000000095CF00000C000000D5CF000018
:1004D0000C0B0000ADCF00000C0C00000000000071
:1004E0000000000083C800000800000009C90000E7
:1004F000080100001BC900000802000041C90000FB
:100500000803000083C9000008040000B1C800000F
:100510000805000095C90000080700000000000061
:1005200000000000F7C300000300000057C20000F5
:100530000301000075C40000030200008DC4000028
:1005400003030000A1C40000030400001FC5000055
:1005500003050000F9C4000003060000F9C2000012
:1005600003070000CBC300000308000073C50000B0
:100570000309000085C20000030A0000D7C4000080
:10058000030B000025C30000030C000085C500001C
:10059000030D000097C50000030E0000C9C5000050
:1005A000030F0000DBC5000003100000F5C50000CC
:1005B0000311000009C600000312000049C6000034
:1005C00003130000A5C6000003140000C1C600000C
:1005D00003150000D3C6000003160000F3C6000098
:1005E0000317000005C700000318000017C700002C
:1005F000031900001FC40000031A000075C60000A4
:10060000031B00002BC70000031C000079C700007B
:10061000031D0000A5C70000031F000041C3000028
:1006200003200000D7C700000321000045C50000DB
:1006300003220000000000000000000007D70000B7
:100640000F0000006BD700000F0100001DD8000054
:100650000F020000F5D600000F04000029D70000AB
:100660000F06000039D700000F07000085D70000F3
:100670000F080000ADD700000F090000BFD7000031
:100680000F0A0000E1D600000F0B000041D8000067
:100690000F0E000053D800000F0F00009BD7000082
:1006A0000F100000E7D700000F110000D3D70000A3
:1006B0000F12000067D800000F13000049D7000098
:1006C0000F140000000000000000000053C10000F3
:1006D000010000005BC10000010100001FC000001C
:1006E000010300008BC00000010400003FC10000B6
:1006F000010A0000E5C00000010B000029C1000054
:10070000010C0000BFC00000010D000091C10000FD
:10071000010E0000B7C10000010F0000B38E010000
:10072000011200009DC0000001130000F98E0100BD
:1007300001140000000000000000000051D2000081
:100740000E0000008BD300000E010000E9D3000072
:100750000E0200006DD400000E07000075D50000E9
:100760000E0C00000000000000000000000000006F
:100770000100020015005400A9005301A7024F0513
:100780009F0A0000000109000001100000000000A5
:1007900000000000F4010000FA00000096000000D4
:1007A000640000004B000000320000001E0000004A
:1007B00014000000000000003C0094003C00960083
:1007C000000000000000050003000200010000001E
:1007D00000000000002800000000000002000000EF
:1007E00000000000002800000000000010000000D1
:1007F0000DEC00005DEC000069EC0000010203005C
:100800000001010201020203000102040F0E0C08A4
:100810000C080D1810000000131510801A801280AB
:100820008000000000000000000000000028000020
:1008300000000000000000005000400008005000D0
:10084000240004009001500240009001AE0110000D
:100850006C888391AAF5A53860370BDB5A6083BE9C
:100860003F49F6D4A3C55F3874C9B3E3D2103F50F3
:100870004AFF607BEB40B7995899B8A6CD3C1ABDAA
:10088000E69D350E480103CCDBFDF4AC1191F4EF8D
:10089000B9A5F9E9A7832C5E2CBE97F2D203B0204C
:1008A0008BD28915D08E1C742430ED8FC2456376AF
:1008B0005C15525ABF9A32636DEB2A65499C80DC05
:1008C000BF01FB9D4EF3BC36D874F5394138684CF6
:1008D000000001000100000100010202030002000B
:1008E0000000000002020100020000000000010000
:1008F00001000501000502020300020000000000E3
:1009000002050100050000000000010202000000D5
:100910000000000006060102031201000B07011689
:100920000C00000108080000050108FFFF02FFFF9E
:100930000808020204FF0100C800FCFEFC00D80AFF
:10094000066CFBFF8800370518E2FEFF5300040326
:10095000F5E3FFFF3200B9019D4300002900570174
:10096000F85700001600D100585700000E007C0018
:10097000D049000008004B00283900008C00FCFE24
:10098000FFFF000000000000FC00D2104C06FAFF40
:1009900075009B05F132FFFF3E0062020B3500003F
:1009A00025004B01885F00001700E0005E5D00003D
:1009B0000E008C006A4F000009005100F73C000057
:1009C00083FFBFFFE2FFF1FFF9FFFEFF0000000021
:1009D000C800FCFEF800C50A571EFBFF7B0095040B
:1009E0007C02FFFF4A00B60246DFFFFF2D00AD018B
:1009F000412F00001C000701854700001200A700DE
:100A0000974600000B0067001A3C000007004300F7
:100A1000EC3000009600FCFEF8006D23441FEEFF52
:100A2000C700F20E8E37FAFF5C00A40324A7FFFF75
:100A30003200D601AD3400001F003001004D00002F
:100A40001200C000CA4A00000B006E00F73C000014
:100A5000060038008A2B0000000800FC380900005E
:100A600001000107C0090000000800F8D0090000DB
:100A70002B274A50E40C0000000800FC7C09000011
:100A800001000107C0090000000800F8140A000076
:100A90003AA8A07208070000409C0000401F000018
:100AA00017110000C05D0000AC0D0000B80B000085
:100AB000FBD90200401F0000E7180000EBBE000059
:100AC000401F0000E718000000000F400000000079
:100AD00000040F40010000004145532D3132382DF4
:100AE000454342004145532D3139322D45434200A3
:100AF0004145532D3235362D454342004145532D56
:100B00003132382D435452004145532D3139322D65
:100B1000435452004145532D3235362D4354520033
:100B20004145532D3132382D43434D004145532D1E
:100B30003139322D43434D004145532D3235362D49
:100B400043434D0002000000C7A40200CBA40200F2
:100B5000E5A40200E1A40200E9A4020003A502004A
:100B60000201000080000000D80A00000000000020
:100B70000000000010000000440B00000301000012
:100B8000C0000000E40A00000000000000000000B7
:100B900010000000440B00000401000000010000F0
:100BA000F00A00000000000000000000100000003B
:100BB000440B00000B05000080000000FC0A000050
:100BC000100000000000000010000000440B0000B6
:100BD0000C050000C0000000080B00001000000021
:100BE0000000000010000000440B00000D05000094
:100BF00000010000140B00001000000000000000C5
:100C000010000000440B0000020000000000000083
:100C10000000000015A5020015A50200A7A402000F
:100C2000BDA402002B08000080000000200B000083
:100C30000C0000000100000010000000080C000083
:100C40002C080000C00000002C0B00000C0000006D
:100C50000100000010000000080C00002D0800003A
:100C600000010000380B00000C0000000100000033
:100C700010000000080C000002000000600B0000E3
:100C8000030000007C0B000004000000980B000033
:100C90000B000000B40B00000C000000D00B0000A3
:100CA0000D000000EC0B00002B000000240C0000E5
:100CB0002C000000400C00002D0000005C0C000027
:100CC0000000000000000000FFFFFFFFFFFFFFFF2C
:100CD000FFFFFFFF00000000000000000000000018
:100CE00001000000FFFFFFFF4B60D2273E3CCE3BE0
:100CF000F6B053CCB0061D65BC86987655BDEBB3F7
:100D0000E7933AAAD835C65A96C298D84539A1F47D
:100D1000A033EB2D817D0377F240A463E5E6BCF8B8
:100D200047422CE1F2D1176BF551BF376840B6CB83
:100D3000CE5E316B5733CE2B169E0F7C4AEBE78E7F
:100D40009B7F1AFEE242E34F512563FCC2CAB9F30E
:100D5000849E17A7ADFAE6BCFFFFFFFFFFFFFFFF72
:100D600000000000FFFFFFFF193F01060410010013
:100D70000001010600102700000C00000000000028
:100D800000000000040000001CC77100000000000B
:100D9000680D0000980A00000000000018CC6600F2
:100DA00080DE800240420F0001010000E3380002B3
:100DB00004000000388EE30000000000680D000011
:100DC000A40A000000000000E070720080DE8002D3
:100DD00080841E000101000011490002040000008F
:100DE0000000800000000000680D0000BC0A000048
:100DF00000000000201089000048E80140420F0078
:100E000001020000F93D0002040000000000800023
:100E100000000000680D0000B00A000000000000A3
:100E2000201089000048E80140420F00010800003E
:100E3000F93D0002F01F04013F00370008000000E8
:100E4000840D000000000000040002000181010088
:100E50000001000018000200000000000100000076
:100E60002800070000000000000000000000000053
:100E7000000000000000000000000000A0070000CB
:100E800048000100000000005400020000000000C3
:100E900000000000A0000400FF4C0000FF4C000018
:100EA000FF4D0000FF4D000000200100080700007A
:100EB00010200100AAAAAA00182001000060DA0090
:100EC0000830010013AC000130300200E33810009C
:100ED000010000004030010000000000A0400100BF
:100EE0007A27000FB840010000C08300F4400100E1
:100EF000201000003441020080080000E687000056
:100F0000404102006D008800C0E6524D604104007F
:100F100000000000000000000600000006000000C5
:100F20001460080010000000000000C61FC001008F
:100F300000500000008000000000000300000000DE
:100F4000000000005060060018000500410C000081
:100F500008000000910004002941767100000000A3
:100F600078600C008C000C000000000014001A00D7
:100F7000000000000000000001040B192C404C5937
:100F8000605B534736251B114AF338966745231299
:100F900011090000E46007008F0846CB0000000044
:100FA0001E086404D007CB4891200600F9541C00A9
:100FB0008294EA870461030051551100BC1B0000B4
:100FC00089BB000020610100FFDF000030610800E4
:100FD000E853FA00000000000000000000000000DC
:100FE0000000000000000000000000000100000000
:100FF0001470011000F8070014700130F8000000B0
:1010000018700600000300006000A58300000000C7
:101010008200000000008001D5000000487002003E
:101020003C3D0000BC190000707003000541000049
:101030000F9C030006E04900FFFFFFFFF01F0401C3
:101040003F00370008000000B00D00000000000065
:1010500004000200018101000001000018000200EC
:101060000000000001000000280007000000000050
:101070000000000000000000000000000000000070
:1010800000000000A0070000480001000000000070
:10109000540002000000000000000000A000040056
:1010A000FF4C0000FF4C0000FF4D0000FF4D000012
:1010B000002001000807000010200100AAAAAA00D1
:1010C000182001000060DA000830010013AC0001B4
:1010D00030300200114910000100000040300100D2
:1010E00000000000A04001007A27000FB840010076
:1010F00000C0E300F4400100201000003441020071
:1011000080080000E687000040410200EA008800F5
:10111000C0E6524D604104000000000000000000E5
:101120000600000006000000146008001000000027
:10113000000000C61FC000000050000000D03200B8
:1011400000000003000000000000000050600600E6
:10115000FC006900410C00000000000011000800C4
:10116000294176710000000078600C00080400003E
:1011700000000000BE031A00000000000000000094
:1011800001040C1A2F465361686258493520140730
:10119000C491A0635644332322529224E460070092
:1011A0008108A1CB00000000198407059411CB48E9
:1011B00099200600016120008294EA8704610300FF
:1011C00065B611001E37000089BB000020610100D8
:1011D000FFDF000030610800E853FA000000000063
:1011E00000000000000000000000000000000000FF
:1011F00000000000010000001470011000F807005A
:1012000014700130F802000018700600000300009E
:1012100060002784000000008200000000008001C0
:10122000D5000000487002003C3D0000BC190000E1
:1012300070700300C30000000F9C030006E049002B
:10124000FFFFFFFFF01F04013F0037000000000018
:10125000DC0D00000000000004000200018101001C
:101260000001000018000200000000000100000062
:10127000280007000000000000000000000000003F
:1012800010000000000000009CF00020201700006B
:101290004800010001040000540002000D0F00008E
:1012A00001010000A000040003C00100FF4C000089
:1012B000FF4D0000FF4D0000002001000807000066
:1012C00010200100AAAAAA00182001000060DA007C
:1012D0000830010013AC000130300200F93D10006D
:1012E000010000004030010000000000A0400100AB
:1012F0007A27000FB840010000C08300F4400100CD
:10130000201000003441020080080000E687000041
:1013100040410200E9008800C0E6524D60410400EF
:1013200000000000000000000600000006000000B1
:101330001460080010000000300000461F08040080
:101340000020001000500A00000000030000000010
:10135000000000005060060018000500000A0000B0
:101360000A00800011000A00294176710000000087
:1013700078600C000F040000000000001400120050
:101380005B948C1B0000000001040B192C404C598D
:10139000605B534736251B114AF338966745231285
:1013A00011090000E46007008208BA8C0000000008
:1013B00064048207AC0DCB0C90200600F9541C008D
:1013C00082940AC704610300C7EF1100A01B00004C
:1013D0000A88000020610100FFDF00003061080082
:1013E0004CD4E83B04196F00080E141A20262C3246
:1013F000383E10325476980A1D5F0000010000004C
:101400001470011000F8070014700130F80000009B
:1014100018700600000300006000A58300000000B3
:101420008200000000008001D5000000487002002A
:101430003C3D0000BC190000707003000601020072
:101440000F9C030006E04900FFFFFFFFF01F0401AF
:101450003F00370000000000080E00000000000000
:1014600004000200018101000001000018000200D8
:10147000000000000100000028000700000000003C
:10148000000000000000000010000000000000004C
:101490009CF000202007000048000100000400002C
:1014A000540002000D0F000001010000A000040024
:1014B00003C00100FF4C0000FF4D0000FF4D000085
:1014C000002001000807000010200100AAAAAA00BD
:1014D000182001000060DA000830010013AC0001A0
:1014E00030300200F93D10000100000040300100E2
:1014F00000000000A04001007A27000FB840010062
:1015000000C08300F44001002010000034410200BC
:1015100080080000E687000040410200E9008800E2
:10152000C0E6524D604104000000000000000000D1
:101530000600000006000000146008001000000013
:10154000300000461F0804000020001000500A0070
:1015500000000003000000000000000050600600D2
:1015600018000500000A00000A00800011000A00AF
:10157000294176710000000078600C000F04000023
:1015800000000000140012005B948C1B000000009F
:1015900001040B192C404C59605B534736251B1135
:1015A0004AF338966745231211090000E4600700EA
:1015B0008208BA8C0000000064048207AC0DCB0CDA
:1015C00090200600F9541C0082940AC704610300AD
:1015D000C7EF1100A01B00000A8800002061010075
:1015E000FFDF0000306108004CD4E83B04196F00B5
:1015F000080E141A20262C32383E10325476980ADF
:101600001D5F0000010000001470011000F80700C9
:1016100014700130F800000018700600000300008C
:101620006000A5830000000082000000000080012F
:10163000D5000000487002003C3D0000BC190000CD
:1016400070700300060102000F9C030006E04900D1
:10165000FFFFFFFF00000000809C2B8F80841E0096
:10166000000000002700C800FCB5002000000000BA
:10167000809C2B8F80841E00000000002700C80083
:10168000FCB5002000000000809C2B8F80841E0091
:10169000000000002700C800FCB50020000000008A
:1016A000809C2B8F80841E000000000027008C008F
:1016B000FCB50020340E00000000000054160000AD
:1016C00001000000ABED9BDB3C10000000000000BF
:1016D0006C16000001000000F0F187DF44120000EA
:1016E000000000008416000001000000DC367D844C
:1016F0004C140000000000009C16000001000000D7
:10170000490F1A7F62707A0C5E701E0C4A700811C5
:101710002C7086165270640C4E707C0C4A70540DFE
:101720004670540D42704E0F3E70760F3A70720C38
:1017300036704A103270BE102E706A0C641000B8F9
:10174000011A00C0F41F0021041008D80671029885
:10175000B61402980A15B110076001D80A7108B8CA
:101760007F78100C7E78641000C6B01F00218CB802
:10177000707801B007680F305CB30F330111C048B7
:1017800006983202111007680168214807600410AA
:101790000112FF3221500760514807600088069807
:1017A000D01100C4481F002103DD167214BA00C016
:1017B000F8600840041001D8047110BA281400A081
:1017C00000BA03DF227100DF06722814311953B00A
:1017D00080BB006B30380A7109DD067102987A040B
:1017E0008CB8507800A0441328144115811007606C
:1017F00002D81471108806985C1A00C00C7008405A
:1018000006989C1B0091069848020060B83020D8CA
:10181000067190BC637C00C4E0100840441207626B
:10182000013221400824287CF8255412F03240DE91
:101830000472404804DB08720DDD0C72044BEF307B
:10184000144806980806811140D91E72B112303230
:10185000CF4A013AB1DA127208D8067104D80A7177
:101860009C24D424237C307098244412FF32872295
:10187000047580B8D82481D8227140D90472237CA1
:10188000084B0698080604BA06B904A901D83072B4
:1018900064242824307C02981A0208D80C7107BAF4
:1018A00024D8047106BA187004D80C7101BA40D853
:1018B0000E7102BA0A7005BA20D8047203BAE02485
:1018C0004411402418140761181491113831114241
:1018D000A11104610831114200C1006008401411D7
:1018E000103101691142281408140698821B18143B
:1018F00000C10060084014110769FF31181400C1CD
:1019000014000840141118140761008800C02060FA
:1019100008400410FF3004711049009018143088FA
:1019200002480698C204009308DB047101F800A085
:101930005CB00F3000A01088B111076980D90A711E
:1019400000C1800008400811009100A000C40001FF
:101950000840441000A000C020300E4004110410C4
:101960001050F47200A001F8541000DC1271011440
:101970000698B60518B8707800B8417800F806984F
:10198000220300C218500840241200C1581F002131
:1019900028110698661A2088008800C54C1F00216F
:1019A00054155112FF350762FF3206985202015951
:1019B000512904751159009021292075069830038A
:1019C0000698D2030698DC02009203D80C728111AB
:1019D000076102D90472FF0FBA7018B8727800F864
:1019E00004D842710088308800C0FC1F0021041018
:1019F00000C1581F00211412012A215A00C3185097
:101A000008403413312A1A7500C0006008400410E1
:101A10000730FE200C76381108B87F78100C7E78DD
:101A20000093009000A000C0F41F0021041000BB30
:101A30001DB400A001D8047200A0008800C004708A
:101A4000084004108020FF3006720298CE0300DFA9
:101A50000672011316703111016B1159112B0163BC
:101A600000C1FF070000113B012B00C088010000EE
:101A700001583128087605B86EBD2870E820087630
:101A800005B8C8BD1E70DCBDDC20067606B8147033
:101A9000F020067607B80C70E820067608B80470C7
:101AA00009B800C10060084014122C210732FE2240
:101AB00016760768036800C2FF0FFFFF1414213C6D
:101AC0000144481150BD4C2114122155FF3551528B
:101AD0002811009000A002D8047200A00088069887
:101AE000B6051DB426B90269112C408800C00060FB
:101AF000084004100730FD20687500C208700840D7
:101B000024100760FF3080DC58710698B60B01592D
:101B10000C22241007600260FF300698B60B0158B3
:101B2000B220012900C3EC1F002134155045327149
:101B3000541331100698B60B11280A750425541554
:101B40005045EE727FB9066100C01C6008400698DF
:101B5000D61104155153113B315558100698D01128
:101B60000094009000A0EBBA00C0481F00210411AF
:101B7000113A10D9067118B97479281000A009BA61
:101B80000698480200C46400084091152138267167
:101B900088BB0435127208D804716C7B04D80471B8
:101BA0006A7B2F7C107008D804716F7B04D8047195
:101BB0006D7B217C04DA0A7206983E0A04BAC27070
:101BC00006983C0600B8B111076940D90672029820
:101BD0009C0500BC08D94071202400C16060084009
:101BE000111200DC0C71A022241210DA10710C709A
:101BF000BC222412076204DA04710421141200C109
:101C0000800008407C0D2811076228110762281106
:101C100007622811600E00C1401F0021141200BD90
:101C200000DC3E7120D8067101B80C70F0DA0C723D
:101C30000CDB087102B80698AA054824A1150765AF
:101C40000135047110BD00C33061084034130763CF
:101C500080DB0E7102B9911308DB047203B90670C0
:101C60000421141100C380000840FFB80120514135
:101C70000871014118130824014200C1383008409E
:101C80001411014100C000600840041010300168C8
:101C900001419110203001680141181328134813A5
:101CA0008CB8507800B800C1401F0021141203689E
:101CB0002150F0300152281100A00824036400C014
:101CC000FFFF0100013C1DB010200158402806759F
:101CD0001EAC01EC00A000C21850084024111DB435
:101CE000111324113051F871036C082404100158A9
:101CF000112800C3801F002134110698940B00B8EE
:101D0000F020013A0362215A412A00A000C20001DA
:101D10000840317A00A0308880B9076900C300000C
:101D2000F8FF3110312800BC002D0C7511541EAC89
:101D300001EC312DF470036C512C4115009300A07F
:101D400000C028400E400413315107610C3107696F
:101D50001153381000A00698420700C0F41F00215C
:101D6000041106983C06217A237A00C30000100073
:101D700006987C0600C0601F00211DB1181000A04D
:101D80000698120600C0A81F00210410012C0A7535
:101D900000B826A80698B60500C05C1F00211DB13A
:101DA000181028B010B9115911380EB9114028A8CF
:101DB00080B800C144300840081100C1F01F002164
:101DC0001410303B06710760076000C408300840FB
:101DD00044111150FF30015118146FB8076826A83C
:101DE000217A260C21102020267800C063EF000005
:101DF000314026A8260C20EC247A20EC217A1848C1
:101E000026A828B00AB901510F31115028A8260C74
:101E1000207A20EC720C98B84678417806985202E5
:101E200000C24C1F002124100151FF311150081233
:101E300000A00698420700B826A800C0641F002131
:101E40001DB1181000A030B840780DB101D9FC7256
:101E5000427800C074300E4004114CBA407A181019
:101E6000EC2004115C7A1810A4BB707B4E7B4F7B76
:101E700000C20430084000A006984207217A227A66
:101E800000C0701F00211DB1181000BB06987C0611
:101E9000A4BB00C040300E40041103310149287238
:101EA000B112076207623020041121510F311872FC
:101EB0006E7B6F7BF02004114CBA7C7A18101420D2
:101EC0000411607A1810B11002D81071707B30B80C
:101ED000627860780DB001D8FC7100C0F8600840ED
:101EE000041101D90C7100C01800084002B9181083
:101EF00008B86E780EB84EB110D90C723EA8980C86
:101F00000FB83EA8107044A8980C01B800C1AC30BE
:101F10000E40081100C077801F003DB201423DAA6B
:101F200000C0FFFFFFFC013A3DAA980C00C077E01B
:101F30001F0001423DAA51B801687D7808B87E783B
:101F400000C124600840141107610631087100B90E
:101F50000698E00E0698D6110698880A0698D011C1
:101F600051140698B605F4B845784C0C00C06C1FA7
:101F700000211DB118100298B80E51B801685D78A3
:101F800003B8076044A83EA800C1AC300E40081159
:101F900010B807683DB101393DA908B86F7800A0B5
:101FA00046A800C0FFFF0000013B076356AB94BA90
:101FB000437A01D91471013C47B300C0FE20FFFFF2
:101FC000013B314447AC637A48B80168407802D994
:101FD0000471607800A000C4F8020000036C415C4A
:101FE000512C0698B6050698900CB110076824D8B5
:101FF000387102BA07620698AC118CBC7F7C08B8B5
:102000006578911004D8187188B86E78577800C038
:102010006400084021780698080F01400872427C4D
:102020000698E21102982C0A08B86C7820B8597802
:102030005B7800C0F44008407878797800C1D81FF8
:102040000021141040A808211413042140881414FE
:10205000042114118112076A006A01DA187188B824
:10206000577800C0DC1F002104100161076307637B
:102070000764076406989C0800944EB010D842721A
:102080004DB161B80158113840B102D90A726048A7
:1020900004BB41540870204802BB02BC4DA8F8B8EC
:1020A0007078BE0C3EB141413EA9F4B973797378A2
:1020B000717800C4F840084000C200410840227016
:1020C00000C20000010044AA0A0D00C200000B007B
:1020D00044AA00C41041084000C21841084004BB93
:1020E000587C260C597C0C24720C2FAB260CB1109A
:1020F00008D81471647A657A1CB879787B7820B82E
:1021000079787B78607CF424411306980806511492
:102110000698B605727B53B80168260C687840ECC7
:1021200000C0681F00211DB11810911004D8127151
:1021300000C0CC1E0021041080D806711CB8737832
:1021400000F8015053A800C0B860084004110761AE
:10215000076180D9047240EC00C4F84008404EB0DA
:1021600010D80471182441130C23527C407B115168
:102170002FA9260C797C4C0C00C000000102081429
:10218000787C260C507C08B86D7800A0B11001D87E
:10219000047200A000C0287008400411108800C11B
:1021A000001800401810442004111088A8200411C1
:1021B00010884CBA757A18103DB11088F4B842787E
:1021C00044207278D8207378E82073784FB200C426
:1021D000FFFF8080413A4FAA01BC016441130763AD
:1021E00000C06C70084003B918100110011001B94B
:1021F000181001100110011001109820041107613E
:1022000001B80160003A0471044904D904724152D2
:102210000760003A0471084908D904723152046019
:10222000003B0E7200630064314241424FAAB2701B
:102230004FAA44B801685378F8B8537840205278D0
:1022400000913DA9009100C0147008401810009141
:10225000582018100091BC20181000A0115910D956
:1022600006710760076008D90471076004D904711A
:10227000036002D90471016001D90471006000A0FB
:1022800010880411023006710761076100C0FFFF6A
:1022900000001138009100A000C2FFFF00002138AB
:1022A000213900BA01D806710148112A006900607D
:1022B00001D8F6720138F67200A08020FF30FF4886
:1022C000812000A000BA0698EC0B7F202520041185
:1022D00004BA1152FF322151181000A000C0F41F9F
:1022E0000021041008D8087101BA0698EC0B00A070
:1022F00000C0040008400411115207322151181087
:1023000000A000C21850084024121159212912734C
:1023100000210E7100C230500840241201212129F1
:1023200000A088B8577800C58C1F00215088FC2574
:1023300088BC00C0D81E0021811101D91E71407CCB
:1023400000950115042550880425FFBB076B315B00
:1023500004110698FE0B3129F8750698EC1A5415ED
:1023600006987407009500F8069876080E7006988F
:102370003E0A069876080698221006982E0700F85E
:1023800010B902BA0698A2110698B80E00C58C1FA3
:10239000002100F89111203102690698E00E911198
:1023A00004D90C7200C1541F00210698DA0E0332C2
:1023B00088B900C3CC1E0021341300C4A810084003
:1023C00003DE50727179A11020D80A710698740743
:1023D0000298600D80DB2E7102D82A7205B807635F
:1023E000076302DB087118B80814A0B80763076315
:1023F0000814A11010300248081400B808149110F5
:10240000076008148CB86278A11040D80671517921
:1024100000BA00C01800084030880533054B1A7216
:10242000082403DE06718024F024441400C3FF1F37
:102430000000413BFF233810076A7F2009200698DF
:10244000480D0093076301330E7104200878097862
:1024500004112141181000A000BD06982C0210B9EB
:1024600003DC047100B902BA0698A21104D90671FE
:1024700000406E7201B107690F31811008D81471E4
:1024800006DD0A7106982C0203DC08720698E21138
:1024900026700698080FFFD8127206DD227188B8E0
:1024A0004778457800B844787270911010D8087158
:1024B00000BB0698BE1120B802A806DD227206985D
:1024C000760806982E0788B8767800C0186008400D
:1024D00035787F206120007801F840B802A800F824
:1024E00000C0CC1E00210413076301DB2E71911084
:1024F0008CB910D81A710768056801D8107207687E
:102500000168FFD80A7244790298600D527902DBA3
:10251000F872A11328DBF27203BD0698AC0E069880
:10252000760800C5901F002106982C0200BA03DC33
:102530007072042500C00C5108400698D20500C0F6
:102540001400084004100268042334111128A11457
:1025500007640134207100C13301000000C0441F32
:1025600000210410033001DC047100690369115972
:10257000112A2E7000C4F8600840441101D9167168
:1025800038244411076180D91871911108D9067156
:10259000FC23E0252114F82334110698940B412ADA
:1025A0005415212D0698D80B069852060298D20889
:1025B0009110015503355150011900A000C1501F61
:1025C0000021141101D94471111001480760FE2047
:1025D0001475811020D80E7100C1541F00211411F0
:1025E00001D9287100C024600840041221510761FC
:1025F0000F3107691152281000C000600840041113
:102600009112215120311152211900A0811380DB38
:10261000067201B800A000C30C5008403410063008
:10262000307264233412EC233410076007604030AA
:102630002072811080D8DC713410014A0762036077
:10264000803021508C480A717F235523341001308B
:1026500000A00698760800BD0698AC0E88B84778AA
:10266000457800B844780698D80B00C5981F00211B
:102670005415069852060298D20800C4AC1F0021D7
:1026800044141DB3315B302C20750698B60500C08C
:10269000600008400410016801D80E7100C0640099
:1026A0000840237808B865780698080FFFD80672A6
:1026B00008B8607800C2000002020698AC1100C59C
:1026C000C41E0021541301DB067202982010042559
:1026D000541200B8F020013A03621DB400C000009B
:1026E000FFFF4128002A0A75012A00BC1EAC01EC3C
:1026F000212C1EAC4DB804DB04719AB8EC255411A2
:1027000010880425541200C5FCA0004001F80421E3
:1027100010520672009110881413036B3A15012CA5
:102720001EACEC7000F800B900C29C1008401812F2
:102730001C220AB9181288BA911104310472487A1D
:10274000507A517A577A8CB942795F7900A006980D
:102750002C0207DC1072911000200A7506982210D6
:102760000298880C06982E0701B9911004D80471BC
:1027700000B900C2000002000698A21100402071BA
:1027800000C0CC1E00210411076101D9127104D9C7
:10279000E0728110076001D8D8728CB8647806980E
:1027A000221000C59C1F0021541500C01C51084078
:1027B0000698D205212D0698740700C5A01F002198
:1027C00000F8811108D90C710698E21120B802A80E
:1027D00000F80698221000BD0698AC0E88B847781D
:1027E000457800B8447800C5A41F0021541502980C
:1027F000D20804110121147188BA737A04200412DA
:102800002811042004110121F47200A00698080682
:1028100000C0F41F0021041008D816710698C00BE0
:102820008C2030782B78282000C10C400400181030
:1028300001F8911010D836710698220306983003DB
:102840000698D20300C51C51084054110698FE0B8F
:1028500000C5E81E002154155129E27518B8767894
:102860008CB84478527801B802A800F8B110076813
:1028700010D8307100C04810084000C30000084064
:1028800031146024282444113411076101D9FA71EC
:1028900044122810076228100762281007622810C7
:1028A000E870029862020698480211380472076ABA
:1028B00000BB00C1EC1E0021141120390672417BBF
:1028C00000A00698D61100C2CC1E0021241220DAE6
:1028D0000472617B88BA527A00A088BA727A811237
:1028E00004DAFC7200A088B86B78577800C06400E6
:1028F00008402F7800A00763076390B9637900B997
:1029000002DB227100C2AC0008400E7A02EC00C962
:1029100009B801D9467208D9427110D904722E7AC9
:10292000E031076102EC00CD114502EC00CC01DB87
:1029300006710298901703B841110731FA211C76ED
:102940000621911210DA087102DD10721E7020B893
:102950000698580B3038147208B80698A20500C0C3
:10296000240008402978207800F8046020D80671F7
:102970000298941302EC00CA05B823DA187104DB3C
:10298000DA7120DAD67110DAD27290B8617800B8B4
:1029900001DA067202EC00C8911110D9227100C14F
:1029A000DC1E002114111150FF300C720661A110C1
:1029B000115002300A7180DB06720AB89E700768F7
:1029C0009111173111402111C0311140011990B8F6
:1029D000411120D904726578A11002D80672C0DABC
:1029E000207190B8273123DD0A726078411108D92F
:1029F0000E7225DD0A7121DD087208DB0471627830
:102A000003B8411107310872A1152035B07102DDFC
:102A10002E72A11120D9A67102D92472CCDA9E722D
:102A2000411140D9987206B802DB0C71026D511148
:102A3000FFD98A720765054D84720298901721119B
:102A40004049C0D94E71A031411540350165514111
:102A50000361076308DA1E7204DA38721049A1159F
:102A60000235067110DB0E7201340A7108DB247125
:102A700090B86778CC3211101A300ADC0872CCDEBC
:102A80000471FD3100C00D0F0C0D06985A0B01D8D2
:102A9000607207B80298561200BA411108D90C7139
:102AA00002EC00CA05B830DAEC720734F03102618A
:102AB00001DA0471014900C0F300A3E306985A0B40
:102AC00001D8D07100C09814406806985A0B403065
:102AD000014440DA0471204C04320162204A111092
:102AE00006300068014218310269114202987412DE
:102AF000204A00C00517085006985A0B11300142B1
:102B000020880DDA527100C1DE1B250180BC04DA79
:102B1000107208DA0A7200C120841000E024A02498
:102B2000FFBB07634143016401DA06711E49024B92
:102B300000C0341F002107633810BC2002DA127174
:102B400000B9FF21A11380DB087100C100FCFF0167
:102B5000181002981C1790BC437C00C4CC1E0021A6
:102B6000441380DB5271EFBA06986404009203624A
:102B7000DDDA8E72A11105D93E7100C2381008400D
:102B800024120C2428140763076310DB267201D972
:102B9000227102EC00C804D9167104BA1830087109
:102BA0000060FD20012A02EC00C8FF22FA7604DC56
:102BB000067218B873780298901700C06000084039
:102BC00006B907610412113A1052FA722C2004124D
:102BD0000762FF3200C1E41E0021141111521C20B3
:102BE000041101222113FD220C7690BA687A311269
:102BF00002230470FFBA1152FF32215118108120B4
:102C0000EF2038100C20237822780298620000C050
:102C1000C41E0021041002D806720298620000C689
:102C2000B01F002100C1A800084014121115812511
:102C3000EF25076020D80A7204D8367202985E1613
:102C400007BC481502EC00C820D8F27102EC00C89D
:102C500002202150FF30015228112110FF301FBAED
:102C600002EC00CC4113213C012C481501203870A6
:102C700002EC00C8F920C67202EC00C80120215005
:102C8000FF30015228112110FF3002EC00CC02EC81
:102C900000CA04DAA8711FBA02EC00CC4113213C2F
:102CA000012C4815FF2000C1C01E0021141201DABA
:102CB0005A72014A28110268FC2000C16602000015
:102CC0000698940B00B8F020013A03621DB400C0CE
:102CD0000000FFFF4128002A0A75012A00BC1EAC33
:102CE00001EC212C1EAC408800C0240008400111DA
:102CF000602108BA01EC2C782811C0DB0E7200C1EB
:102D0000C41E0021141101D90672029862001088B5
:102D100000C2020200000698AC1104D9067101B984
:102D200002A900914DB804D904719AB800C23301C8
:102D300000000094212C1EAC00C2B41E00212411FE
:102D400010880422241200C5FCA000400421105267
:102D50000672009110881413036B3A15012C1EACF7
:102D6000EC7000C504000840207D02EC00CB00C2DE
:102D7000180008400123381200C2A800084024119E
:102D8000FFB8014118120298620091101730011922
:102D900000C2020200000698AC1104D9067101B805
:102DA00002A800C0CC1E0021041380DB067102982B
:102DB000F21140DB06710298761801DB5E7100C2E9
:102DC000381F002124111114FF3402EC00C8FF2425
:102DD000FA7607610698680B036111380F300361BA
:102DE0001114011141100698680B01D8087203B83C
:102DF00002985612042202DB1671241011281128A1
:102E000006987C0B00C218000840FF2008124110F1
:102E100007600698680B01D87C7120BC10DB7671C6
:102E200000BB00C1341F00211415C021112C511208
:102E3000076A0F320E71408851140698EC1741430F
:102E4000009451120765036A0F320E71411151143B
:102E50000698EC17036C41430765513B00C1F01E17
:102E600000211411111231100F30127100BA0461D7
:102E700001D80471114200600FD8F4723110026061
:102E80001E30047201B8003A087204B80298561253
:102E90000298521400C1306108401411076180D9B2
:102EA0001C7102EC1DB002EC1DB10158112800C1CB
:102EB00040FBFFFF112806758CBA637A00C0401FE3
:102EC000002104110F3103DD1A7200C000600840B8
:102ED000041007D80E7200C01040084004B9181042
:102EE00000F80698F40E0698620400B8477800F8D7
:102EF00030885088FF34087102ECFF24F87002EC2F
:102F000000CD141001BB5150FFD80471314407604B
:102F1000006B10DBF2710421FF22E4720F4C00956C
:102F2000009300A000C1DC1E002114100113FF3328
:102F30000760FF3002EC00CA30520A71FFDE0671F2
:102F40000CB83470042110880698821B076911425E
:102F50000091281155DC1A7102EC00CA005212715E
:102F60000ADE0E714ADE0A7155DE06713052D272E7
:102F700018B873780BB8029856120763076302EC0F
:102F800000CA02DB0A7155DE9C7154DE987101DBC8
:102F9000267102EC00CA02EC00CA02EC00CA02EC84
:102FA00000CA02EC00CA02EC00CA02EC00CA02EC41
:102FB00000CA0298901702EC00C8076A014202ECAE
:102FC00000C8076A014202EC00C8076A014204B85F
:102FD00000C1D81E0021141440529C7204DBC2713F
:102FE00090B8637804211410FFBC013C07600760AF
:102FF00002EC00CA02EC00C902EC00CB076A3142C5
:10300000076A21410F3302EC00CD02EC00CA01D85F
:103010000872211302EC00CA07621142911110D903
:10302000267121110F3103DD1A7200C1E41E002147
:103030001411FF31076A0023207111531C710AB863
:103040006E708CB9727921110F31076A02DD6471DB
:1030500001DD067103DD4A7200880AB90698EE198F
:1030600000902111FF32FFDE387120544072FC25A0
:10307000187202EC00CA01DE107202EC00CA18DEFF
:10308000087288B877781A70066101D804720061F6
:1030900080D90E714CBA477A0698041A90B84378D2
:1030A000076B9111114331190298901704B80298D7
:1030B0005612FF32FF24F6750BB90698EE1921104F
:1030C000E03001584128E675F83002601F32215A7D
:1030D0000125212DD875012AD47602EC00CAFF20E3
:1030E000FA764111073101B80698580B003ABE71C3
:1030F000B07001D808710698321A0470022106B81F
:103100001159112DAA7500A011140CB901D80A711A
:1031100000640AB90698321A03BD514400C5A810CC
:103120000840481507644815181501D80472381569
:103130000764481500A00088408800C0E41E0021F4
:1031400004100760FF3000C4383008404414412C9C
:10315000047201244050047201210094009000A0E8
:1031600000C1D01E0021141100A0308806985A1BFF
:103170008111076102D906720298E81A076188BBBB
:10318000557B20D9527206985C1A08211415F02537
:10319000541300DF5871211120880698FE0B00920D
:1031A000042554155129467500C1006008401411CA
:1031B00002DB0C710731315B312932760C7004DF90
:1031C0000872006180D9267206985C1A00C00870E7
:1031D000084006989C1B06985C1A1411FFD90672C9
:1031E00018B9757988B9747908B96779009300A01E
:1031F0008110A0D8087188B949796270076002D837
:103200005C7106985C1A1110008808208112076210
:10321000076210DA0A710415F82588BA547A042076
:103220000698EE1000911088082114100698EE10F0
:103230000094441111120761FF31FF320122105234
:1032400010720769181404244413042438140E70EF
:1032500007692141181414200824081400A088B913
:1032600000C3CC1E00213413076308DB18718113DF
:10327000A0DB067149790E706979076302DB06727B
:1032800008B9677900A08111076102D9107188B966
:10329000757906985C1A1411FF3100A0FFB900A0DF
:1032A000041008211411FC21081100A0EA060000F6
:1032B0008B0013EB401313F184431A607047020034
:1032C000880010EB421010F18440006870472028FD
:1032D00001D2012100E00021C9B2012111FA00F060
:1032E000704780B51221DFF8B404FFF7E8FF00282B
:1032F000F8D101BD80B5FFF7F4FFDFF8A004006846
:10330000000C10F0030002BD70B504000125DFF8C9
:103310008004844203D200200500002606E0DFF886
:103320007404844201D2012600E002262A00102102
:10333000DFF86404FFF7BCFFDFF86404016831F0D4
:10334000807151EA0661016070BDDFF858040068C1
:10335000704780B500F0D5FEDFF844140968C1F36A
:103360000421491C484302BD10B5DFF83C0400F0BD
:1033700021FA04002000C0B2072804D0092805D192
:1033800000F0BFFE03E0FFF7E0FF00E0002010BD0B
:1033900038B50400002C0FD1DFF8100400F00AFA51
:1033A00005002800C0B2012808D004280BD0072847
:1033B00006D008280AD00CE000200BE0002009E02D
:1033C000FFF7C3FF06E000F0BAFE03E0FFF7C1FF1E
:1033D00000E0002032BDF0B4DFF8D4532A6812F0C8
:1033E00040720024052C0ED2DFF8F43403EBC4063F
:1033F00036790F00FFB2BE4203D153F83430834216
:1034000001D2641CEEE7052C01D1032304E0DFF8B0
:10341000D03403EBC4035B791B062A6832F0407298
:103420001A432A60F0BC704738B5DFF8B8542868F2
:10343000002801D0012400E0002441F6713028600A
:1034400000F05DFE0021FFF7C6FF2000C0B200289B
:1034500001D00020286031BDF8B504000D00DFF870
:1034600084743868002801D0012600E0002641F667
:103470007130386029002000FFF7ADFF3000C0B286
:10348000002801D000203860F1BD01000F22C81CC7
:10349000904201D2C81C00E0100000077047DFF81E
:1034A00048040068C0F301107047DFF83C140A6854
:1034B00032F0300252EA00120A607047F8B5040098
:1034C00000252000DFF82414884207D0DFF82014FC
:1034D000884203D0DFF81C14884200D1FFE72000A7
:1034E00000F068F906002000DFF80014884208D0D8
:1034F000DFF8FC1388420BD0DFF8F81388420ED0B7
:1035000014E0DFF8F403006810F0070006000DE097
:10351000DFF8E803006810F00700060006E0DFF8B7
:10352000E003006810F007000600FFE7002E1DD042
:10353000022E07D003D3042E07D009D318E000F0E1
:1035400017FE16E000F01AFE13E000F014FE10E083
:1035500000F0C8FD0700DFF848020068C0F3006013
:10356000401CFFF7B4FEB7FBF0F002E0002000E0E3
:103570000020F2BDDFF88C130968C90704D4DFF816
:10358000881309680142FAD17047704770472DE9E6
:10359000F04105000E0000242800000A10F00F0082
:1035A00001280CD002280FD005280AD006280ED0FA
:1035B000072811D0092814D00A2818D01AE0764F0D
:1035C00019E0DFF8AC7516E0DFF8A87513E0DFF856
:1035D000A875012004000EE0DFF8A075102004009B
:1035E00009E0DFF89C755FF48030040003E0DFF849
:1035F000947500E00CE0C5F30438002C02D02000E4
:10360000FFF7B8FF3200D2B241463800FFF750FE54
:10361000BDE8F08138B5040014F47810002831D0EA
:10362000B0F5003F3FD0B0F5802F2ED0B0F5202F61
:1036300036D0B0F5402F41D0B0F5602F00F09C801F
:10364000B0F5801F00F09B80B0F5A01F46D0B0F50C
:10365000B01F4ED0B0F5D01F6AD0B0F5F01F38D0F3
:10366000B0F5001F5FD0B0F5101F00F08080B0F5FE
:10367000381F4DD0B0F5401F69D0B0F5481F00F09D
:10368000818083E000F03DFD81E000F03AFDDFF84D
:10369000F8140968C1F30821491CB0FBF1F076E089
:1036A00000F02FFD73E000F02CFDDFF8E014096856
:1036B000C1F30821491CB0FBF1F068E000F021FDE6
:1036C000DFF8CC140968C1F30421491CB0FBF1F008
:1036D0005DE0DFF81802FFF7F1FE58E0DFF81402B2
:1036E000FFF7ECFEDFF8AC14096811F00301C840E5
:1036F0004DE0DFF8F801FFF7E1FE0500DFF8980480
:10370000006810F00F00FFF7E2FDB5FBF0F03EE0BF
:10371000DFF8D801FFF7D2FEDFF87C140968C1F3A7
:103720000111C84033E0DFF8C801FFF7C7FE2EE003
:10373000DFF8BC01FFF7C2FE0500DFF86004006897
:10374000C0F30110FFF7C3FDB5FBF0F01FE0DFF899
:10375000A001FFF7B3FE0500DFF840040068C0F3E6
:103760000120001DFFF7B3FDB5FBF0F00FE0DFF81F
:103770008401FFF7A3FE0AE0FFF7F6FD07E0FFF77D
:10378000E4FD04E00020FFF703FE00E0002032BD6E
:103790000148E8010190D00300400E4004300E4083
:1037A00000410E40C0AC002006000E00B800320000
:1037B00004000E400100012311F00F021000012847
:1037C0000AD0022824D0032835D005284AD006285C
:1037D0005BD0082868D07FE0DFF88C05006810F027
:1037E000070002280CD0032808D0042804D005289C
:1037F00008D0072808D009E0022008E0032006E0EE
:10380000042004E00B2002E00C2000E0052064E02E
:103810003948006810F00700012804D0022804D0BD
:10382000042804D005E0032004E0022002E00A207E
:1038300000E0012051E03148006810F00700012845
:1038400006D00DD3032809D004D3042804D007E000
:10385000032006E0022004E00A2002E0062000E047
:1038600001203AE02648006810F00700012804D043
:10387000022804D0042804D005E0032004E002203C
:1038800002E00A2000E0012027E0DFF820060068BF
:1038900010F00100002803D0012803D1092002E024
:1038A000072000E0012018E0DFF82407006810F08E
:1038B0003000002806D0102806D0202806D0302856
:1038C00006D007E0012006E0072004E0042002E023
:1038D000082000E0012000E00020C0B27047000096
:1038E0004C02000040000E4024400E4002001E002A
:1038F000030020000500240080400E4084400E405C
:1039000088400E4044410E4040410E402DE9F84FA2
:10391000070088465FF003095FF0030A00250024D2
:10392000112F1AD14046C0B2042803D100F007FC81
:1039300004000CE04046C0B2052808D100F030F980
:10394000DFF8B015884202D300F02AF90400002CF9
:1039500003D00021200000F0BBFD17F00F0B5846EC
:1039600001280DD0022873D0032800F08980052893
:1039700079D0062800F0BB80082800F0CB80F4E066
:103980004046C0B202280CD003280FD0042812D021
:10399000052819D00A282AD00B281ED00C2821D09F
:1039A00026E0042081460020824622E00320814652
:1039B000012082461DE00220814602208246DFF877
:1039C000EC01FFF7A1FC14E00120814603208246B0
:1039D000DFF8D801FFF798FC0BE0052081460320B3
:1039E000824606E0072081460620824601E0BCE0D0
:1039F000BBE05046C0B2062805D001220121504646
:103A0000C0B200F0B3F9FFF70FFDFFF7BEFD002CC9
:103A100001D0FFF766FCDFF82406C0F80090DFF85D
:103A20009001FFF7F7FDFFF76FFC00F05BFB0090E4
:103A3000FFF760FCC0B201000098FFF70DFD002CFD
:103A400003D10121002000F043FDFFF79FFD8CE032
:103A5000DFF8EC0505004046C0B2062801D0012081
:103A600000E00020C0B2002D02D1DFF81C56FFE7B5
:103A70004046C0B2062801D0012000E00020C0B2BC
:103A8000002D02D1DFF80456FFE74046C0B20128FE
:103A900008D0022809D003280FD0062815D00A28FC
:103AA0001FD021E0002006001FE00122012100209C
:103AB00000F05CF90220060017E00122012101203C
:103AC00000F054F9012006000FE000F00BFBFFF7B7
:103AD0001BFC012202212648FFF7EAFB0320060017
:103AE00003E00420060000E03FE02E603DE0404699
:103AF000C0B2072802D0092805D009E00020DFF86D
:103B0000AC13086005E00120DFF8A013086000E0B6
:103B10002BE02AE04046C0B2012806D004280FD08E
:103B2000072805D0082813D015E00020060013E070
:103B300001220121042000F019F9012006000BE008
:103B400001220121022000F011F90220060003E009
:103B50000320060000E008E0DFF87404016831F09B
:103B6000300151EA06110160FFE7BDE8F18F000066
:103B7000B0400E40C0400E40E0400E40E8400E40D5
:103B8000F0400E4050410E400C410E4008410E40A6
:103B900014410E4030410E4020410E4028410E405D
:103BA000DFF8EC0400687047000000000148E801FD
:103BB00000250A002DE9F8430D0016003100C9B2B6
:103BC000002909D0DFF8E414096811F4407F01D11D
:103BD000012100E00021C9B20024DFF8D474396863
:103BE00054F0405831EA08082900C9B2002902D02F
:103BF0005FF0805100E000213000C0B2002802D008
:103C00005FF0005000E000202143014351EA080822
:103C100000F095FA81460121484600F059FC002C3D
:103C200003D13000C0B2002809D0FFF763FBC0B257
:103C300001004846FFF710FC4846FFF765FB2800E7
:103C4000C0B2002803D13000C0B2002804D0012245
:103C50000121022000F08AF8C7F80080BDE8F18356
:103C6000F8B504001120FFF7A5FD042801D00120BC
:103C700000E00020C0B201220021022000F076F80E
:103C80006078002807D1A078002804D1E0780028C7
:103C900001D1012000E00020C0B20025207C0128D5
:103CA00001D0012000E00020C0B2207C022801D118
:103CB00001200500DFF8F80301684908490029439D
:103CC000016022780821FFF7F3FAA088617A51EAAF
:103CD000C021DFF8E0030160DFF8DC633768207A99
:103CE000FFF7D3FB17F07F67E18857EAC127A17A76
:103CF0000F43217A57EAC11707433760607BA17BE6
:103D0000090151EA0031E07B0143207B51EA004187
:103D1000DFF8A8030160F1BD70B504001120FFF7C2
:103D200049FD022801D0012000E00020C0B2DFF8E8
:103D300090532E68DFF88C030640207806436078A5
:103D400056EAC026A07856EA0066E07856EA0026D1
:103D50002868864205D001220021002000F006F8E4
:103D60002E6070BD0000000094400E402DE9F74F1A
:103D700004002000C0B200281DD0022809D014D3AE
:103D800004280CD01ED201275FF00208012500266E
:103D900019E004275FF008080325022613E0102726
:103DA0005FF02008052504260DE040275FF080081D
:103DB0000725062607E04FF480774FF400780925A1
:103DC000082600E070E09DF8040000285CD05FF059
:103DD000000B2000C0B2022813D1FFF760FB0028BF
:103DE0000FD1DFF8E4020068800A10F00100012022
:103DF0008346DFF8BC020068C00702D50120FFF748
:103E000054FBDFF89092C9F80070DFF88CA2310003
:103E10005046FFF754FA0028F7D09DF80800002814
:103E200042D029005046FFF74AFA0028F9D0200076
:103E3000C0B2022838D15846C0B2002834D0DFF8CA
:103E400070020068C00705D501222021022000F081
:103E5000F9F803E00021022000F0BCF8022000F095
:103E600027F80090012200210220FFF77FFF009930
:103E7000022000F041F8C9F8007029005046FFF711
:103E80001EFA002810D1F8E78248C0F80080824965
:103E90000868F040C007FAD49DF80800002803D055
:103EA0000868E840C007FBD4BDE8F78F70400E40BB
:103EB00001000800C0B2012806D019D3032808D099
:103EC00011D304280AD013E080480068C005C00D53
:103ED0000FE07348006810F07F000AE07C4800683B
:103EE00010F07F0005E07B4800684005400D00E0D1
:103EF00000207047012D310170B504000E00200034
:103F0000C0B2012806D061D3032819D042D30428B7
:103F10002BD05BE0B6F5007F01D2012000E000204D
:103F2000C0B2F605F60D1A215F48FFF7C8F9002860
:103F3000F9D166480168490A49023143016045E008
:103F4000802E01D2012000E00020C0B216F07F06D2
:103F500018215548FFF7B3F90028F9D150480168F6
:103F6000C909C9013143016030E0802E01D201202E
:103F700000E00020C0B216F07F0619214A48FFF782
:103F80009EF90028F9D152480168C909C901314395
:103F900001601BE040480068800810F0010090F0CC
:103FA0000100C0B24248016831F0300151F0100107
:103FB0000160C6F3C310FFF768FA05003E490A68BE
:103FC0004548024032432A430A60FFE770BD0000C3
:103FD0005C410E4038B504000D002000C0B202283C
:103FE00001D1012000E00020C0B2FFF758FA0028FC
:103FF00002D15FF4400112E02800C0B2002807D0CF
:10400000202802D0302806D008E05FF4000106E046
:104010005FF4400103E05FF4400100E02F491E48D7
:10402000006808408842FAD1480205D51D4800685A
:10403000800A10F0010000E0012032BD74400E4003
:1040400080400E4070B504000E0015002000C0B284
:10405000022817D13000C0B2002807D04FF480608A
:104060000E4908603000C0B21D4908602800C0B287
:10407000002806D03100C9B22000C0B2FFF7AAFF65
:1040800001E0FFE7012070BD88400E4084400E40F3
:10409000D0AC002060400E4090400E40A8400E4042
:1040A00010400E40A0400E4040410E4000300E40F7
:1040B00024400E402C400E4030400E4034400E4014
:1040C00038400E4080E4FFF83C300E4020400E4067
:1040D00018400E409C400E4000F8FF0FFF33E13FB8
:1040E00064400E4080B500F00CF82C490968C1F31B
:1040F00008214A1CB0FBF2F0294A106002BD294891
:1041000070472948006810F0070002280AD00CD335
:10411000042801D003D308E02448006807E04FF4E6
:10412000004004E02248006801E02248006822497B
:104130000968C1F30421491CB0FBF1F070471C4829
:104140000068704710B504001948046016480068FC
:1041500010F00700022801D1FFF7C4FF10BD174877
:10416000174908601748016851F4700101607047F1
:104170004FF4004070474FF47A7070470B48006866
:10418000704710B50400094804600748006810F043
:104190000700042801D1FFF7A5FF10BD08410E401C
:1041A000CCAC002000F0490294400E40C8AC002086
:1041B000C4AC0020D0AC002000410E400000000044
:1041C00008ED00E088ED00E080B5FFF78BFF01BD52
:1041D0008B0013EB401313F184431A607047020005
:1041E000880010EB421010F184400068704780B5E1
:1041F0001221DFF89808FFF7F2FF0028F8D101BD7F
:1042000080B5FFF7F4FFDFF884080068000C10F0B9
:10421000030002BDDFF8781808607047DFF8740803
:10422000006870474AF6E850DFF86C18086070477D
:104230000020DFF86818086070474AF6E850DFF899
:104240005C18086070470020DFF854180860704759
:1042500045F60E00DFF84818086070471021D0F1CD
:10426000020011FA00F070472DE9F0410500280026
:10427000C0B200281DD1DFF82C080068DFF828182C
:1042800008601120FFF796FADFF820180870FFF792
:10429000AEFFDFF8F8070068000C10F00300DFF84D
:1042A00010180870DFF80C080068DFF80C180860B8
:1042B0006BE0DFF8FC070078FFF7D0FFDFF8FC17B2
:1042C0000860DFF8DC07006810F001000400FFF769
:1042D000BFFF0020DFF8D067317811F001010843FB
:1042E0003178C90601D5102100E0002107000F43F5
:1042F0003078400601D5402000E0002007433078A8
:10430000400701D5042000E0002007433068C005C5
:1043100002D54FF4807000E000200743DFF8A0874B
:10432000C8F80070FFF763FFDFF898070068C00661
:1043300018D5DFF894070068C001FAD4DFF87807D1
:104340000068DFF870170860DFF86007007805285C
:1043500008D1FFF755FF0100C9B2DFF87007006808
:10436000FFF77AF8DFF844070178052903D00178D0
:104370001120FFF7CBFA3078C00702D40220C8F82A
:104380000000002C01D0FFF75EFFBDE8F08180B592
:10439000FFF72DFFDFF82C070168C1F30121DFF8DB
:1043A000EC261268C2F301428A4204D2036853F039
:1043B0001003036003E0036833F01003036001BDE2
:1043C000DFF800070068C0060BD5DFF8E8060068D4
:1043D000C0F30440082804D1DFF84819DFF8EC26C0
:1043E0001160704710B504002000C0B2002802D050
:1043F0000020FFF739FFFFF7CAFFDFF8C4090168A3
:1044000051F00401016000F03FFD30BF00F03DFDC0
:104410002000C0B2002803D00120FFF725FF03E0F1
:10442000FFF7CEFFFFF7D0FE10BD38B5050028001E
:10443000C0B2002802D00020FFF716FFFFF7A7FF49
:10444000DFF85C06046814F00104FFF701FF4FF485
:104450002070DFF86C160860002C01D0FFF7F3FE27
:10446000DFF85C09016851F00401016000F00CFD07
:1044700030BF00F00AFD2800C0B2002803D00120A0
:10448000FFF7F2FE03E0FFF79BFFFFF79DFE31BD54
:1044900080B50020FFF7E8FE01BD80B50120FFF7E1
:1044A000E3FE01BD70B5DFF864592C6834F4403484
:1044B00054F400342E6856F44036FFF7B3FE002063
:1044C000042803DA2C602E60401CF9E72C6070BDD4
:1044D000F8B504000D00DFF838090068C0F30427C0
:1044E0007F1C002C04D1FFF70CFE06007E4300E089
:1044F0002600DFF820090078002809D0DFF8180925
:10450000864205D22900C9B2022000F007F804E073
:104510002900C9B2002000F001F8F1BD2DE9F843EF
:1045200004000D00DFF8E8080068C0F30426761CDC
:10453000FFF7E7FD0700FFF763FE804640462100D6
:10454000C0B2C9B2884226D006FB07F92000C0B22B
:1045500002280BD1DFF8C408814501D2012000E018
:104560000020C0B202213800FEF776FF2000C0B262
:10457000FFF774FEDFF8441508602800C0B2002879
:1045800001D0FFF734FE2000C0B2002803D1002183
:104590003800FEF761FFBDE8F18310B50400207814
:1045A000DFF87018087001210020FFF791FF10BD9F
:1045B000DFF810150A6832F44072437852EA032299
:1045C0000A604178022908D1DFF854180968490FB8
:1045D00011F0010191F00101C9B27047012070474B
:1045E00010B5DFF84008016851F0807101600021CA
:1045F000DFF83C08FFF7F3FD0400002C03D0042093
:1046000000F0E0FB02E0002000F0DCFB10BDF0B4A5
:1046100001231C05DFF818783868C0F30325DFF89C
:104620000808068800882830400810FA86F62836E0
:1046300015F1010C052000FB0CFCB6FBFCF6761E08
:10464000072E00D30726360636F0E060002801D199
:10465000012000E00020C0B234F4E000002801D1C5
:10466000012000E00020C0B2386830F0EE60304336
:1046700020433860DFF8B407B0F90070002F26D46B
:1046800000880200100080B22830400810FA82F042
:1046900028306F1C15F1010C5FEA5C0C1CEB470C19
:1046A000B0FBFCF0072801D2010000E0072109015E
:1046B00031F07000002801D1012000E00020C0B2DC
:1046C000DFF87007076837F070070F430760F0BC2A
:1046D0007047DFF854271080DFF8502711807047AB
:1046E0000100C9B2002902D0012906D00BE0DFF891
:1046F0004817DFF84827116005E0DFF84417DFF8B6
:104700003C271160FFE7704730B40300DFF834073F
:1047100004680800C0B2002805D0022809D005D3DB
:10472000032809D00AE004F0FF0409E0C4F30724D9
:1047300006E0C4F3074403E0240E01E0002024E077
:104740001000C0B200280DD1240334F470400028BA
:1047500001D0002019E0DFF8CC06056835F470457B
:10476000254305601000C0B201280DD1240334F4A4
:104770007040002801D0002007E0DFF8CC06056873
:1047800035F4704525430560012030BC7047F0B416
:10479000002500261400E4B2002C01D0012400E022
:1047A00000241F00FFB254EA07242700002F38D04E
:1047B0007F1E0CD0FF3F3ED07F1E12D0FF3F45D062
:1047C0007F1E19D0FF3F4BD07F1E1FD053E0DFF874
:1047D0007C763F68C7F3072C664607F0FF073D006D
:1047E00049E0DFF868763F68BC465FEA1C6C6646C5
:1047F000C7F307473D003EE0DFF854763F68C7F354
:10480000072C664607F0FF073D0034E0DFF84076EE
:104810003F68BC465FEA1C6C6646C7F307473D002D
:1048200029E0DFF830763F68C7F3072C664607F0CB
:10483000FF073D001FE0DFF81C763F68BC465FEADB
:104840001C6C6646C7F307473D0014E0DFF80876A6
:104850003F68C7F3072C664607F0FF073D000AE0F4
:10486000DFF8F4753F68BC465FEA1C6C6646C7F328
:1048700007473D00FFE705600E60F0BC70472DE97B
:10488000F041050085480068012801D1012600E0BB
:104890000026FFF7D2FCDFF8C4753868C007FAD4E9
:1048A000DFF8BC85D8F8004014F00304002C05D0D4
:1048B00001220D21DFF8AC05FFF78AFC200029005A
:1048C000C0B2C9B288420AD12800C0B2002805D1BE
:1048D00000220D21DFF88C05FFF77AFC3FE0032C66
:1048E00001D0002C1AD12800C0B2022803D0280021
:1048F000C0B2012812D15FF40020FFF78BFC3868AA
:10490000C007FCD4D8F800008008800050F00100F7
:10491000C8F80000FFF782FC0003FBD53868C00729
:10492000FCD4D8F80010890889002800C0B20143DF
:10493000C8F800103868C007FCD42800C0B20028AE
:1049400001D1002200E001220D21DFF81805FFF758
:104950003FFC3000C0B2002801D0FFF769FCBDE881
:10496000F08170B50400FFF739FE2089C92801D213
:10497000012000E00020C0B22089A188884201D334
:10498000012000E00020C0B2B4F90C00C92801DA0F
:10499000012000E00020C0B26078012807D1A08883
:1049A000C92801D2012000E00020C0B209E06078EF
:1049B000022806D1A0880B2801D2012000E00020A7
:1049C000C0B2E08842F21171884201D2012000E0B9
:1049D0000020C0B2E0884B2801D2002510E0E0881A
:1049E000B0F5FA7F02D25FF0805509E0E08840F62A
:1049F000C411884202D25FF0005501E05FF04055DB
:104A0000DFF82C140A68B4F90C00002801D4012343
:104A100000E00023DFF8580402402A431A430A60EA
:104A2000DFF82404016851F440710160FFF7D8FDFC
:104A3000B4F90C102089FFF74CFEA088DFF82C1485
:104A40000880A08800F070F9A07BFFF749FE0122E2
:104A50000121608800F03CF8002801D1002013E01B
:104A6000DFF81064306850F4806030606078FFF7E1
:104A700006FFA07A202801D1012200E000220521B2
:104A80003000FFF7A5FB012070BD000004300E4090
:104A90002C300E4024300E4008300E4034300E4092
:104AA00080410E4090400E40FCBA0020E5F200200C
:104AB000E6F2002010400E40E8BB002010300E400F
:104AC00060400E4000300E4040410E40D0AC00200F
:104AD0002DE9F74F8AB004000021002201A800232D
:104AE0000025002680E8680007A80023002500268E
:104AF00080E8680004A800230025002680E86800FC
:104B0000684600230360B4F5E16F05D340F6B93081
:104B1000844201D2012500E000252800C0B200280F
:104B200001D10020FAE040F20970844201D301264D
:104B300000E000263000C0B2002806D04FF4E16744
:104B400040F6B838B8EB070905E04FF496674FF424
:104B5000E168B8EB07093000C0B200280CD007A804
:104B6000DFF81413096881608168090E0691816875
:104B7000C1F3074181600CE007A8DFF8FC12096867
:104B800081608168C1F307210691017A01F0FF017C
:104B90008160DFF89C020068000F10F003008DF8C0
:104BA00000009DF800303200D2B204A907A8FFF738
:104BB000EEFDEA46DFF890020068000A10F00300FC
:104BC0008AF801009AF801303200D2B205A908A88B
:104BD000FFF7DDFD04A907AA0DF1040BE31BD1F8D3
:104BE00008C09068BCEB000C0CFB03F3B3FBF9F0BE
:104BF000CBF80800DBF808309068C318CBF8083011
:104C0000E31BDDF810C00798BCEB000C0CFB03F3B2
:104C1000B3FBF9F00190019B0798C3180193E31BC4
:104C2000D1F804C05068BCEB000C0CFB03F3B3FBE1
:104C3000F9F0CBF80400DBF804305068C318CBF867
:104C400004308868DBF80830984216D3DBF8080097
:104C50009368984211D34868DBF8041088420CD35B
:104C6000DBF804005168884207D304980199884210
:104C700003D301980799884201D200204EE09DF8A5
:104C80003000002812D0DFF8F4110A683000C0B2FA
:104C9000002801D0022300E00023DFF8E4010240F5
:104CA000DBF8080052EA00221A430A609DF82C0043
:104CB000002832D000229DF800103000C0B2FFF76B
:104CC00023FD002801D1002028E001229AF80110DC
:104CD0003000C0B2FFF718FD002801D100201DE010
:104CE000DBF804000199884201D2019801E0DBF869
:104CF000040001900198E72801D2019800E0E72024
:104D00000190DFF880010168490A49023200D2B2FD
:104D1000019B52EA43021143016001200DB0BDE83E
:104D2000F08F0000C0EA210170B504000020DFF818
:104D300038110D6815F00705DFF8F4100A68D2077E
:104D400010D5022D0ED3142C02D2042210002AE01A
:104D5000142C04D3282C02D20822100023E01022A5
:104D6000100020E00A68D20710D4022D0ED20A2CBF
:104D700002D20422100016E00A2C04D3142C02D212
:104D8000082210000FE0102210000CE00A68D20781
:104D900009D5022D07D2282C02D20822100002E0E9
:104DA00010221000FFE7401E060356EA002608689E
:104DB00030F47F4030430860FFF729FC70BD0000ED
:104DC00010ED00E038B505000021DFF86400FFF7C2
:104DD00006FA0400002C03D12800C0B2022801DB2F
:104DE000002C01D0012000E00020C0B2DFF87810D4
:104DF0000A68D208D2002800C0B202430A60DFF875
:104E00006C000088FFF790FF31BD000018300E40A5
:104E100000410E40E4F20020002D3101012D31014E
:104E200024400E406C300E40D0F20020D4F200201E
:104E30004C300E4050300E407740205758300E40D6
:104E4000372110B73083E00FE0300E402483E00FAD
:104E50002883E00F1C83E00F2083E00F78300E40A2
:104E600040300E4054300E4070300E40D2F20020E0
:104E7000FEFFFFCF3C300E401883E00F5C300E4049
:104E8000FD80FFFF64300E4070477047010049B25B
:104E9000002904D4454940B2085C400907E0444970
:104EA00040B210F00F00084410F8040C400970479D
:104EB0000100080040B2002805D4080040B22F28A5
:104EC00001DA012000E00020C0B23A480A0052B2E4
:104ED000520950F8220011F01F01C84010F00100E3
:104EE00090F00100C0B27047020052B212F1100FF0
:104EF00005DB020052B22F2A01DA012200E0002273
:104F0000D2B22D4A126803005BB202EB8302116435
:104F10007047F0B40400049E059DB2F1005F04D315
:104F20002648824201D2012000E00020C0B212F0E7
:104F30007F00002801D1012000E00020C0B2012044
:104F40009F007F1EB7FA87F7D7F12007B840401EB1
:104F5000024201D1012000E00020C0B200279F42A0
:104F600020D22800C0B2002809D08F4204D254F8C1
:104F7000270042F8270013E042F8276010E08F4234
:104F800008D252F8270000280AD154F8270042F826
:104F9000270005E052F82700002801D142F82760D9
:104FA0007F1CDCE704480260F0BC704700E400E0CE
:104FB00018ED00E000E100E008ED00E00000012055
:104FC00072B67047F8B50600300040B210F10C0F11
:104FD00005DB300040B22F2801DA012000E000207C
:104FE000C0B2EFF31080C00701D5012025E03000EA
:104FF00040B2FFF75DFF002801D001201DE0300026
:1050000040B2FFF743FF0700EFF31184002C04D0F8
:10501000B7EB541F01D301200FE008480568ED05E8
:10502000ED0D002D08D02800103840B2FFF72EFFFC
:10503000874201D3012000E00020F2BD04ED00E032
:1050400030B402680368046805680A604B608C60CD
:10505000CD6030BC704710B44268520952010B0059
:10506000DBB2002B042B09D95B1F022B0BD9DB1EF3
:10507000032B03D91B1F022B05D90BE00B00DBB25E
:105080001343436006E00B00DBB2134353F01003FD
:105090004360FFE710BC704770B505000C001600B8
:1050A000002C01D0012000E00020C0B2210015F149
:1050B0002000FFF7C5FF3000C0B2102805D114F161
:1050C000100115F12000FFF7BBFF70BD8B0013EB43
:1050D000401313F184431A60704710F1C0621160ED
:1050E000704710F180621160704770B504000D00C8
:1050F000160029002000FFF7F4FF31002000FFF721
:10510000ECFF70BDDFF834140860704738B5050057
:105110000C002800C0B2002801D13F203FE0280049
:10512000C0B2012802D14FF4784038E02800C0B264
:10513000022802D14FF47C6031E02800C0B203287D
:1051400002D14FF47E402AE02800C0B2042801D1E9
:10515000002024E02800C0B2052801D1FF201EE075
:105160002800C0B2062801D1002018E02800C0B2F3
:10517000072801D1002012E02800C0B2082801D180
:1051800000200CE02800C0B2092801D1002006E070
:105190002800C0B20A2801D1002000E000202041F0
:1051A00010F001000121A140DFF894232B00DBB2B5
:1051B0003020434302EB03000C30FFF792FF31BD78
:1051C00038B505000C002800C0B2002801D13F20EE
:1051D0003FE02800C0B2012802D14FF4784038E007
:1051E0002800C0B2022802D14FF47C6031E02800D0
:1051F000C0B2032802D14FF47E402AE02800C0B29A
:10520000042801D1002024E02800C0B2052801D1E3
:10521000FF201EE02800C0B2062801D1002018E0BF
:105220002800C0B2072801D1002012E02800C0B237
:10523000082801D100200CE02800C0B2092801D1C3
:10524000002006E02800C0B20A2801D1002000E0BA
:105250000020204110F001000121A140DFF8E022F0
:105260002B00DBB23020434302EB03000C30FFF78E
:1052700034FF31BD2DE9F04706000F0090469946F6
:10528000089C099D5FF0000A3000C0B2002801D1DF
:105290003F203FE03000C0B2012802D14FF47840F7
:1052A00038E03000C0B2022802D14FF47C6031E017
:1052B0003000C0B2032802D14FF47E402AE0300013
:1052C000C0B2042801D1002024E03000C0B205287B
:1052D00001D1FF201EE03000C0B2062801D100201D
:1052E00018E03000C0B2072801D1002012E03000E1
:1052F000C0B2082801D100200CE03000C0B209285B
:1053000001D1002006E03000C0B20A2801D10020FF
:1053100000E00020384110F001005FEA98008000B2
:10532000B9088900884201D1012000E00020C0B204
:10533000B8F1080F0ED23200D2B24046C0B280009F
:1053400082400F214046C0B2800081407D48FFF777
:10535000CCFE10E0B8F1080082463200D2B25046CE
:10536000C0B2800082400F215046C0B28000814010
:105370007548FFF7BAFEB8F1080F0ED217F0030216
:105380004046C0B28000824003214046C0B2800047
:1053900081406E48FFF7A9FE0DE017F0030250466A
:1053A000C0B28000824003215046C0B280008140DC
:1053B0006748FFF79AFE4A46D2B241466548FFF772
:1053C00085FE2200D2B241466348FFF77FFE0120EE
:1053D00010FA08F0FFF796FE2A00D2B241465F4865
:1053E000FFF774FEBDE8F087F8B505000E00170062
:1053F0001C002800C0B2002801D13F203FE0280057
:10540000C0B2012802D14FF4784038E02800C0B281
:10541000022802D14FF47C6031E02800C0B203289A
:1054200002D14FF47E402AE02800C0B2042801D106
:10543000002024E02800C0B2052801D1FF201EE092
:105440002800C0B2062801D1002018E02800C0B210
:10545000072801D1002012E02800C0B2082801D19D
:1054600000200CE02800C0B2092801D1002006E08D
:105470002800C0B20A2801D1002000E000203041FD
:1054800010F001003800C0B200280CD0002C05D06C
:1054900031002800C0B2FFF793FE04E0310028007D
:1054A000C0B2FFF733FE082E1AD23020244A29005A
:1054B000C9B2414311442B00DBB200FB03F010449E
:1054C00042680F233000C0B2800083409A433B0003
:1054D000DBB23000C0B2800083401A434A601BE058
:1054E0003020174A2900C9B2414311442B00DBB2D6
:1054F00000FB03F0104482680F2330000838C0B26C
:10550000800083409A433B00DBB230000838C0B2D1
:10551000800083401A438A603800C0B200280CD152
:10552000002C05D031002800C0B2FFF749FE04E08E
:1055300031002800C0B2FFF7E9FDF1BD24A400400E
:1055400000A0004000A4004004A4004008A40040C3
:105550000CA4004010A4004014A4004028A4004063
:10556000010049B200290AD4012210F01F018A402B
:10557000DFF8E81203005BB25B0941F823207047B3
:10558000010049B200290AD4012210F01F018A400B
:10559000DFF8CC1203005BB25B0941F823207047AF
:1055A00010B4020052B2002A05D44A01AD4B0400E7
:1055B00064B21A5508E04A01AB4B040064B214F01F
:1055C0000F04234403F8042C10BC70478B0013EB2A
:1055D000401313F184431A60704710F18062116028
:1055E000704738B504000D00082C01DA012000E0F6
:1055F0000020C0B22800C0B2002801D1012200E082
:105600000022D2B221009C48FFF7E0FF31BD38B53F
:105610000400002C01D0012000E00020C0B220785E
:105620007FF0E06111EA006F01D1012000E000206D
:10563000C0B201200120E078082801DA012000E052
:105640000020C0B201218B48FDF7A1FF25782D066F
:105650006078A17851EA00210D4388480560002058
:10566000834908600020864908600020824908605C
:105670005FF000407D4908605FF0FF3081490860BD
:105680000920FFF77DFFE1780920FFF789FF092056
:10569000FFF766FF31BD2DE9F84305000C00160049
:1056A0000127AF40082D01DA012000E00020C0B240
:1056B000002C01D0012000E00020C0B22068724917
:1056C000084201D1012000E00020C0B201200120E9
:1056D00001200120A07A7FF4403111EA004F01D16E
:1056E000012000E00020C0B2E07A7FF4801111EACE
:1056F000005F01D1012000E00020C0B2207B7FF4D8
:10570000001111EA405F01D1012000E00020C0B289
:10571000012030205D49226800FB05F3CA50627BFE
:1057200000FB05F30B449A60A27AE37A1B0553EA67
:105730000243227B53EA425300FB05F20A445360C2
:10574000B208920000FB05F0084482614D480760F2
:1057500000F0A4F880464548016839430160207A8A
:10576000002803D04448016839430160607A00286A
:1057700003D043480168394301604049D1F80090A3
:105780002079002806D02079C043000270F47F40C1
:1057900010EA09096079002802D0607959EA0029E5
:1057A000A079002802D0A07939EA0009E079002820
:1057B00002D0E07950EA0909C1F800903900344874
:1057C000FFF70BFF33480760404600F06BF8BDE879
:1057D000F18370B504000125A540082C01DA0120F1
:1057E00000E00020C0B200F059F806001F48016830
:1057F000A943016029001E48FFF7EFFE300000F0CA
:1058000051F870BD2DE9F84306000127B740082E76
:1058100001DA012000E00020C0B200F03FF880462D
:105820001D4804681A4805681848302101FB06F134
:105830000844D0F80C90404600F034F83C403D401D
:10584000C9F30A11002D03D1002903D1002C01D086
:10585000002001E0491C0800BDE8F28300E100E0FF
:1058600080E200E000E400E018ED00E06C200E4073
:1058700020200E4000550A0034200E4000200E402B
:105880002C200E4068200E40F0FFC0FF80200E400C
:1058900028200E403C200E4060200E40EFF3108088
:1058A00072B67047002800D162B67047026CD2070A
:1058B00002D4426C0A42FCD1704738B504000D0096
:1058C000A068C006FCD540212000FFF7EFFF2800AC
:1058D000C0B2A06231BD000011480168890C11F00E
:1058E000010191F00101C9B2006810F4403F01D1FB
:1058F000012000E00020C0B241F671300949086083
:105900000948016849084900016070470648016874
:105910004908490001600020024908607047000002
:1059200004300E4040000E4008000E40012018498F
:105930000860704730B41748026800200024092C22
:1059400024D2154901EBC4056D682B00134D2D6859
:105950006D0710D451F83450B5F5007F08D0B5F577
:10596000806F05D0B5F5006F02D0B5F5803F02D14C
:1059700053F48073FFE751F834502A4204D01A429E
:1059800002D151F834100843641CD8E730BC70478A
:1059900008500E4004500E4074020000E841E00F31
:1059A00070B40178002901D0012200E00022417882
:1059B000002901D0012300E000238178002901D0D3
:1059C000012400E00024C178002901D0012500E075
:1059D00000258179002901D0012600E00026017A06
:1059E000002901D0012100E0002152EA830252EA9D
:1059F000041252EA4512037952EA0322437952EA29
:105A0000033252EAC632C37952EA034252EA4142B1
:105A100001490A6070BC7047002004400C490968C5
:105A20008A0012F03C020B4B1968C1F381110A4342
:105A30008270196811F03F01417007490B6813F03B
:105A4000F00306490968C1F303110B430370704763
:105A5000E4FF0FE0E0FF0FE0E8FF0FE0ECFF0FE0F6
:105A60000A00D2B252F0800282657047F8B5050094
:105A70000C0016001F00002C04D1DFF8EC01FDF72C
:105A8000C9FD04003800C0B2002806D020280ED07E
:105A9000402816D060281FD028E020000009B0421E
:105AA00001D3012000E00020C0B210211FE020003F
:105AB000C008B04201D3012000E00020C0B208219C
:105AC00015E00620B4FBF0F0B04201D3012000E065
:105AD0000020C0B206210AE020008008B04201D3B5
