:1040000000080020A7C702003B1B0100032C010091
:10401000072E01001B39010033470100000000009A
:10402000000000000000000000000000EF48010058
:1040300057550100D318010057880100CB940100A7
:10404000E79B0100639E0100CFA0010073A801005F
:10405000CFA90100EFBB010077C101004FC50100EE
:104060004FC9010003CA01007BDB010059B3000006
:10407000F5B300000BF301000BF40100BF030200D5
:10408000E30302003F1402005F14020087150200E0
:10409000BB180200DF9D0000DB1802009B19020024
:1040A00053340200A9A100008DA100000B620200A0
:1040B000C76E020047950200939B0200AB8002008E
:1040C0006380020061800200C17B0200A9800200BF
:1040D0006580020069800200678002005DBC02000A
:1040E000DB8002001F9F0200BFB70200C7BA0200B8
:1040F00037BC02009FC6020017C702003BC7020080
:10410000BFC70200C1C70200C3C70200C5C7020083
:10411000C7C70200C9C70200CBC70200CDC7020053
:10412000CFC70200D1C70200D3C70200D5C7020023
:10413000D7C7020013B779FAC925DDB7ADF3CFE0D1
:10414000F1B614B8010100000000000000000000FA
:10415000200000000100000000000000000000003E
:10416000000000000000000000000000000000004F
:10417000000000000028012803280018002A012A56
:104180000118052A2A2B292B022900000A030A00FC
:10419000B42A01200A0201007872012002011000F5
:1041A000283E012020000400383E012000000108C4
:1041B000FFFF0000A2C7020002000108FFFF00008D
:1041C0009AC7020007000008FFFF0001A441000099
:1041D0000A000708FFFF00030200000002000108B8
:1041E000FFFF000092C7020008000108FFFF000166
:1041F0009C41000002000108FFFF00008AC7020086
:1042000009000308FFFF00019441000000000108BD
:10421000FFFF000086C7020002000108FFFF000048
:104220007EC7020004000308FFFF00018C4100006C
:1042300002000108FFFF000076C702000500010828
:10424000FFFF000072C702000300060008000B0019
:10425000AC4100000D0000000B00000074410000A4
:10426000000000002CC902000400000048420000C9
:104270002DC90200000000002EC90200000000004D
:10428000FFFFFFFF050000000000000000C201006A
:104290000005000000100000000000000000000009
:1042A00037A5000045A500004DA5000077A500003A
:1042B000DBA5000079A5000097A500002C000000F8
:1042C00000001030000000000000000000000000AE
:1042D00000001003000000000000000000000000CB
:1042E0001E0000030100000005000000012604007C
:1042F00000010000000000000B0B02000020200065
:10430000038C8C3C00000000000000000000000056
:1043100000000000080200003C3E012098216400DB
:1043200000000000000000005042000000000000FB
:10433000000000000100000000000000000000007C
:10434000000000000000000000000000010000006C
:1043500002000000006A18000002040000000002D1
:10436000050000004BF100000000000051F10000CA
:10437000000100005BF10000000200007FF100007E
:104380000003000000000000000000009701010091
:104390000D010000B70101000D020000E501010060
:1043A0000D030000490201000D04000000000000A0
:1043B000000000009DFB000009000000BBFB0000A6
:1043C00009010000D1FB0000090200000DFC000003
:1043D0000903000027FC00000904000029FD00007B
:1043E000090500005DFD00000906000053FC000007
:1043F000090700008DFC000009080000CFFC000048
:1044000009090000E3FC0000090A0000F9FC0000B3
:10441000090B000013FD0000090C0000FBFE00006A
:10442000090D000071FD0000090E000085FD00006F
:10443000090F0000F3FB000009100000B7FC0000AA
:104440000911000071FC00000912000027FF0000A4
:1044500009130000000000000000000099FD0000AA
:104460000A000000C7FD00000A01000075FE000000
:104470000A0200008FFE00000A030000B3FE0000E5
:104480000A040000C9FE00000A0500001DFE00002D
:104490000A0600000FFF00000A0800003FFE0000AF
:1044A0000A09000075FF00000A0A00000000000071
:1044B00000000000150101000C0000005301010084
:1044C0000C0B00002B0101000C0C00000000000090
:1044D000000000004BFA000008000000CBFA0000CA
:1044E00008010000DBFA00000802000001FB0000E8
:1044F000080300003DFB00000804000079FA0000FA
:10450000080500004DFB0000080700000000000047
:1045100000000000E9F500000300000057F400006F
:104520000301000065F60000030200007BF60000B6
:10453000030300008DF600000304000005F70000EF
:1045400003050000DFF6000003060000F3F400009E
:1045500003070000BDF500000308000063F700003A
:104560000309000083F40000030A0000C1F6000004
:10457000030B00001FF50000030C000073F70000A0
:10458000030D000083F70000030E0000AFF70000EA
:10459000030F0000BFF7000003100000D9F7000070
:1045A00003110000E9F70000031200002BF80000DF
:1045B0000313000087F80000031400009DF80000BA
:1045C00003150000ADF8000003160000CBF8000052
:1045D00003170000DBF8000003180000EBF80000F0
:1045E000031900000BF60000031A000057F8000042
:1045F000031B0000FDF80000031C000047F9000049
:10460000031D000067F90000031F000035F50000DE
:1046100003200000A1F900000321000029F7000099
:104620000322000000000000000000008F080100CD
:104630000F000000FD0801000F010000A3090100A8
:104640000F0200007F0801000F040000AF08010006
:104650000F060000C90801000F070000150901003E
:104660000F080000390901000F0900004909010085
:104670000F0A0000690801000F0B0000C5090100C6
:104680000F0E0000D50901000F0F000029090100DD
:104690000F1000006D0901000F1100005B090100FF
:1046A0000F120000E70901000F130000DB080100F2
:1046B0000F14000000000000000000004FF3000095
:1046C0000100000059F300000101000023F2000086
:1046D000010300008FF20000010400003DF3000020
:1046E000010A0000E5F20000010B000029F30000C0
:1046F000010C0000C1F20000010D00008FF300006A
:10470000010E0000BBF30000010F000067C90100AB
:10471000011200009FF2000001130000A7C9010070
:10472000011400000000000000000000D10301009F
:104730000E000000110501000E0100006F050100D0
:104740000E020000F50501000E070000FD06010045
:104750000E0C00000000000000000000010003003B
:1047600006000D00110014001B0022002900370074
:1047700045008A00CF0059016E02000000000000D1
:10478000000000000001090000011000000000000E
:1047900000000000F4010000FA0000009600000094
:1047A000640000004B000000320000001E0000000A
:1047B00014000000000000003C0094003C00960043
:1047C00000000000000005000300020001000000DE
:1047D00000000000002800000000000002000000AF
:1047E0000000000000280000000000001000000091
:1047F0003521010085210100912101000102030002
:104800000001010201020203000102040F0E0C0864
:104810000C080D1810000000131510801A8012806B
:1048200080000000000000000000000000280000E0
:104830000000000000000000000000000100000077
:104840000000000000000000010000001000002037
:10485000000000000100000010000020030300041D
:104860000000000000000000000000000000000048
:104870000000000000000000000000000000000038
:104880000100000000000000000000000100000026
:1048900010000020000000000100000010000020B7
:1048A0000000000001000000000000000000000007
:1048B000010000000000000050004000080050000F
:1048C000240004009001500240009001AE0110004D
:1048D00050C300001C250000C409000050C30000A4
:1048E00076160000C4090000F5DA02007017000017
:1048F000B80B0000E5BF000070170000B80B000007
:10490000000004040000000000000000000000009F
:104910000000000000000000000000000000000097
:104920000000000001000000000000000000000086
:104930000100000000000000000000000100000075
:10494000100000206C888391AAF5A53860370BDB36
:104950005A6083BE3F49F6D4A3C55F3874C9B3E338
:10496000D2103F504AFF607BEB40B7995899B8A6E8
:10497000CD3C1ABDE69D350E480103CCDBFDF4AC01
:104980001191F4EFB9A5F9E9A7832C5E2CBE97F23B
:10499000D203B0208BD28915D08E1C742430ED8FB9
:1049A000C24563765C15525ABF9A32636DEB2A6535
:1049B000499C80DCBF01FB9D4EF3BC36D874F539B1
:1049C0004138684C000001000100000100010202B2
:1049D00003000200000000000202010002000000CB
:1049E00000000100010005010005020203000200B1
:1049F00000000000020501000500000000000102A7
:104A0000020000000000000006060102031201007F
:104A10000B0701160C00000108080000050108FF43
:104A2000FF02FFFF0808020204FF0100000000006F
:104A30000100000010000000210000000000000044
:104A40000100000010000000210000000000000034
:104A50000000000004000000110000000000000041
:104A6000000000000000000011080000000000002D
:104A70000000000001000000100000002100000004
:104A80000000000000000000100000000100000015
:104A900000000000010000001000000021000000E4
:104AA0006C4A0000000000001000001011280000F7
:104AB00000000000000000001000000011280000AD
:104AC00000000000000000000400000011000000D1
:104AD00000000000000000000000000011080000BD
:104AE000002000000120000000000000E84A000053
:104AF000010000000C000010210C0000000000006C
:104B0000010000000F000040000000000000000055
:104B1000EC4A00000400000001000000E84A000028
:104B20000000000000000000000000000000000085
:104B30000000000020000000410000000000000014
:104B4000000000001000000011080000000000003C
:104B50000000000004000000110000000000000040
:104B6000FC4A0000010000000000000000000000FE
:104B7000010000000C0000400000000000000000E8
:104B80000000000004000000000000000000000021
:104B9000000000002000004000000000C800FCFEF3
:104BA000B4008B087BC0FBFF4D00E402E756FFFF1B
:104BB0002C00A20183EBFFFF1A000301B31A0000CF
:104BC0001100A300552900000A005E005A280000C9
:104BD00006003A0021220000040028007A1C000090
:104BE0006400FCFEFFFF000000000000FFFF00006B
:104BF000000000005A00F306A554FEFF2100A301A7
:104C0000A1FEFFFF1100A600832700000A0061003B
:104C1000DC26000006003B00F82000000300F1FF46
:104C2000DB0500000000FCFEFFFF000000000000AC
:104C3000FFFF000000000000FFFF00000000000078
:104C4000FFFF00000000000040001806F4D2000042
:104C50002C00B0023DBE00001700F2000C7C0000EA
:104C60000E006A00B3540000000801B49C4B000021
:104C70000008015AE04B000000080140244C0000ED
:104C80003E3A46C5E40C000048709E0C4470220C6D
:104C900030703C1002987E133870880C3470A00C71
:104CA00030705C0D2C705C0D2870E80E24700C0FB9
:104CB0002070960C1C70780F1870F20F14708E0C08
:104CC000B110086001D80A7104B87F78020C7E78B0
:104CD000641000C69C1F00A01DB8707803B0186057
:104CE0000F3027B30F330111C04806983602111058
:104CF0001660A048086004100112FF3221500860BD
:104D0000D048086000880698D61000C4301F00A064
:104D100000BA03DF227100DF06722814311929B0AE
:104D200080BB1F6330380A7109DD06710298B20238
:104D30001DB8507800A04413281441158110086054
:104D400002D8147110880698F01400C014C000A88E
:104D500006982E16009106984C020160B83020D8B3
:104D600006711EBC637C00C4E0400044441208622B
:104D700001322140087CF8255412F03240DE0472E2
:104D8000404804DB08720DDD0C72044BEF30144810
:104D90000698F403811140D91C72B1123032CF4A07
:104DA000013AB1DA107208D8067104D8087180246B
:104DB000237C3070A8244412FF328722047580B807
:104DC000D82481D8227140D90472237C084B0698DC
:104DD000F40304BA06B906A901D8307264241C246D
:104DE000307C02981E0208D80C7107BA24D80471CE
:104DF00006BA187004D80C7101BA40D80E7102BA04
:104E00000A7005BA20D8047203BA08D8427100C1EA
:104E1000544000A8141110D936710A0CF8A8D824EF
:104E2000441080B9A069FF2108244410FC201138E7
:104E30000814102400C00CC101A804100814086054
:104E400008140860081408600814F8B01024E0245E
:104E5000441140241814086118149111383111427A
:104E600000C1084001A8141110311E61114228141C
:104E7000081406981416181400C1084001A814114B
:104E80001861FF31181400C11C4000A81411181437
:104E90000861008800C0284001A80410FF30047198
:104EA000104900901814308802480698F6020093C2
:104EB00008DB047101F800A027B00F3000A01088B3
:104EC000B111186180D90A7100C1884000A8081189
:104ED000009100A000C4704000A8441000A000C0D1
:104EE0008840004004118261041082601050F0720A
:104EF00000A001F8541000DC127101140698A203FE
:104F000007B8707802B8417800F800C220C001A844
:104F100024120698FA148111086102D90472FF0F55
:104F2000F270EBBA00C0301F00A00411113A10D982
:104F3000067107B97479281000A009BA06984C02C6
:104F400000C4684000A89115213826711CBB0435A7
:104F5000127208D804716C7B04D804716A7B2F7CB0
:104F6000107008D804716F7B04D804716D7B217CAC
:104F700004DA0A720698BC0904BAC27000B8B1110A
:104F8000186140D906720298880300BC08D90471E0
:104F9000202400C1281F00A0141200DC347120D886
:104FA000067101B80C70F0DA0C720CDB087102B8F3
:104FB00006989603482400C3384101A834130863B7
:104FC00080DB0E7102B9911308DB047203B906701D
:104FD0000421141100C3884000A8FFB8012011412A
:104FE0000871014118130824014200C1408001A842
:104FF0001411014100C0084001A8041010301E60C7
:105000000141911020301E600141181328134813EC
:105010001DB8507800B800C1281F00A014121C60F1
:105020002150F0300152281100A04024076400C034
:10503000FFFF0100013C17B002200158402806750F
:1050400018AC01EC00A000C220C001A8241117B4C4
:10505000111324113051F8711964402404100158BF
:10506000112800C36C1F00A034110698E00B00B893
:105070008020013A0762215A412A00A000C27040F4
:1050800000A8317A00A0308880B9186100C3000000
:10509000C0FF3110312800BC002D0C75115418AC24
:1050A00001EC312DF4701964512C4115009300A0CE
:1050B0000698F80500C0DC1F00A000C1548001A8BC
:1050C00004100811217A237A21B8747809B819607C
:1050D0004CA800C0296E06004FA824B86E78FFB017
:1050E00004D808714CB802986404ACB823A8069898
:1050F000740400C0D33F000050A800A00698FE032F
:1051000000C0441F00A017B1181000C0D83F000015
:1051100050A849BC49B105DD0871627C607C1E0C59
:1051200021B952B86179677864786B786278617C6C
:1051300000C22C8001A865786378010C6878020CA5
:1051400069786C786078020C277A287A267A6A78EF
:10515000050C41790A0C28222B7A327AB822247A5B
:1051600000C400011100402200C010840000081299
:10517000508800C584100100FBAD10BD01BB8A6BD7
:1051800021B9FAA93C221812217A227A00C0241FE0
:1051900000A00410FCA88264411030300129F9A954
:1051A000F8ADFBB08260FBA80330A065211004209D
:1051B00020EC237A0410037A08222411BC2201581F
:1051C0000029241004753150F8B1115081632A71FF
:1051D000514031400812FCB18461FCA90F310E71BD
:1051E00017B0112817B111591028FA763C22F9B1DD
:1051F0001812217A227AA07000950812C022207A13
:105200007C2200B80812020CA422087A020C21B8F1
:10521000417828220B7A127A00C2CC1F00A0FFB07E
:1052200008D804720822241000DC0A7140A8042265
:10523000241041A80698560200C2341F00A0241072
:105240000151FF311150081200A00698CA0549AC5F
:1052500000A00698F80500BC217A52B84978020CE3
:105260004878020C49B8417852AC21AC2022087A27
:10527000067A077A00C04C1F00A017B1181000A0D2
:1052800059B84078427857B84078427800C20C80CC
:1052900001A800A000C20C8001A8217A227A21B8BE
:1052A000547807B815604CA852B8617800C02940FE
:1052B00006004FA84822C8B8081224B84E784CB847
:1052C00023A80698740400C0C43F000050A800C082
:1052D0008009004040A809B8FFB108D9047103B89B
:1052E00053A8B11004D80C7156BB607B57BA627AD0
:1052F000607A02D80C7156BB607B59BA627A607AC8
:1053000004B86E783DB8607800C05638000000C11F
:1053100024C000A814119F79047208484CA82EB824
:10532000FFB108D906714AA804704BA80FB834A879
:1053300000C00C5E000046B2014246AA00C12C40EB
:1053400001A8141108610631087100B906987A0E97
:105350000698DC100698880A0698D61000C0581FD8
:1053600000A017B1181051140698A20300C0541FD2
:1053700000A017B118100298520E00B84CA84AA805
:105380004BA800C00CDE000000C1182102A80811C3
:1053900004B86F7800A000C0481F00A017B1181013
:1053A0007DBC1964415C512C00C05C1F00A004103E
:1053B000012C06750698A2030698B40CB11018606B
:1053C00024D8367101BA07620698B2101DBC7F7CE2
:1053D00004B86578911004D816711CB86E7800C0B6
:1053E000684000A821780698A20E01400872427C0D
:1053F0000698E810029866091DB8717804B86C78B0
:1054000041B8427863784478FFB104D906720298B3
:10541000200800C0C43F000050A800C31C1F00A00B
:1054200000C274C000A82414481300BC481204230E
:10543000F4222414481300BC48124ABA447A427A2F
:105440004BBA447A427A617A4CBA647A657A3DBA48
:10545000607A4DB942B83FBB5B7966796179020CDD
:105460006479050C63796079050C627965795A79FC
:1054700000C2340102A8241305B819603140081293
:1054800042B86A78020C4A78020C40BCFFB208DAD3
:1054900006714ABA06704BBA627A657A677A667A9A
:1054A0006A79667B0298F00800C31C1F00A000C246
:1054B00074C000A8241448130423F42224144813AD
:1054C0003FBC48120C2200BC48124ABA647A627A85
:1054D0004BBA647A627A617A4CBA647A657A3DBA78
:1054E000607A00C3C41F00A0341301D94E716478E0
:1054F00000C1708001A800C0800008000811069853
:10550000780942B861784DB97F797E796A78687890
:105510006278020C7B790F0C7A79140C74794178DB
:1055200060787579050CFFB208DA06714AB8047024
:105530004BB8657801BC1664407002D93C7106987E
:10554000780942B84DB96878407841787F797E799A
:105550007B790F0C7A79140CFFB208DA0871717933
:105560004ABA067070794BBA7279657A6A78020C19
:105570004A78050C01BC1664020C417940790C0C88
:1055800000C04C0102A848100698F403511400C052
:105590005C1F00A00410012C17B00111876801588E
:1055A00041280E7605218769415C412D112D067039
:1055B0000698A20300C0581F00A017B11810069843
:1055C000AC0951140698A203020C42B84478FFB10A
:1055D00001D90C7100C1548001A8CBB8081100C0DA
:1055E000501F00A017B11810911004D8127100C0FC
:1055F000A81E00A0041080D8067107B8537800F8E0
:10560000B11094782E7106985602E4B911591128F8
:10561000067600B80C70A0B9115901290475A0B81C
:105620008260012B341000C1080102A8141221402D
:10563000081100A042B84DBB7C7B6478020C29B8ED
:10564000687800A01DB09178EA7142B86478020CC5
:1056500000BA29AA00C4548001A842B84DB900C3B9
:10566000C04001A83413977B047240EC020C4478CC
:105670005C7953AA0A0C281442B84DB9FFB301DB78
:1056800026711C2400C3FF0FFF01381454794078A1
:1056900041785579020C5B795A79140C5F795E79FF
:1056A0004A784278347002DB14715279517950791A
:1056B000020C5B795A795F795E791E7004DB1A718E
:1056C00000C4FF07000000C3342102A848133FBBF9
:1056D000467B020C5B795A793DBB407B4CBB447BDB
:1056E000457B00C3201F00A03414403C167100C04D
:1056F00068C000A848102813FC230C20341448105C
:1057000028134AAA4BAA04B86D781DB8517800A096
:10571000B11001D8047200A000C074C000A8041128
:10572000108800B91810A8200411108801B90B6165
:105730001810142004111088008800C1231C0000D8
:1057400018104AB864784BB86478260C28B000C1A9
:10575000FFFF0FF0113871B90B61114028A828B96B
:105760007379747900C21010303045AA54790E0C48
:1057700000C0E84001A8041100C23030101045AA52
:105780000E0C0410008810880698540B00910090AD
:1057900020888F618F600698540B0090886A2140A2
:1057A0000112906A035800C13F3F0000113800C445
:1057B0000101000041281138014245AA28B9537956
:1057C0004AB844784BB84478009000911810009182
:1057D000EC20181000915820181000A09168436028
:1057E00091694361115B012B112841603128315BC4
:1057F00000BA302806763128204A416330280676E0
:105800003128104A4163302806763128084A41631E
:10581000302806763128044A41633028067631283C
:10582000024A416330280476014A00A0115910D978
:1058300006710860086008D90471086004D9047111
:10584000046002D90471026001D90471016000A0F2
:1058500010880411023006710861086100C0FFFF62
:1058600000001138009100A000C2FFFF00002138A5
:10587000213900BA01D806710148112A1F6101605F
:1058800001D8F6720138F67200A000C220C001A84B
:10589000241211592129127300210E7100C238C03F
:1058A00001A824120121212900A002B020D81471DE
:1058B00000C0B01E00A0041002B94579069834104B
:1058C000EA7003B09F78087200B806A800F800C517
:1058D000781F00A05088FC251CBC00C0B41E00A08E
:1058E000811101D91E71407C009501150425508855
:1058F0000425FFBB1863315B04110698020C3129A3
:10590000F87506988015541506980C06009500F851
:105910000698F2060E700698BC090698F2060698DC
:10592000520F0698C20500F810B902BA0698A810DE
:105930000698520E00C5781F00A000F89111203182
:105940001D6106987A0E911104D90C7200C13C1F9A
:1059500000A00698740E03321CB900C3A81E00A054
:10596000341300C4B040004403DE3E727179A110CC
:1059700020D80A7106980C060298680D80DB1C710D
:1059800002D8187205B80814A11010300248081483
:1059900000B808149110086008141DB86278A110AE
:1059A00040D80671517900BA00C0204000A80533E4
:1059B000054B1A72082403DE06718024F024441477
:1059C00000C3FF1F0000413BFF23381018627F20F7
:1059D00015200698500D04200878097804112141FB
:1059E000181000A000BD0698300210B903DC047145
:1059F00000B902BA0698A81004D9067100406E7268
:105A000003B118610F31811008D8147106DD0A71D5
:105A10000698300203DC08720698E8102670069893
:105A2000A20EFFD8127206DD22711CB847784578A5
:105A300002B844786670911010D8087102BB0698BD
:105A4000C41020B804A806DD22720698F206069853
:105A5000C2051CB8767800C0204001A835787F20A8
:105A60006120007801F840B804A800F800C0A81E22
:105A700000A00413086301DB227191101DB910D836
:105A80000E710860FFD8087244790298680D02DB35
:105A9000FA72A11328DBF47203BD0698460E06982D
:105AA000F20600C57C1F00A00698300200BA03DC95
:105AB0000E72042500C00CC101A80698BE0354153F
:105AC000212D0698CA050698280402980E07911001
:105AD000015503355150011900A000C1381F00A025
:105AE000141101D94471111001480860FE20147589
:105AF000811020D80E7100C13C1F00A0141101D9E3
:105B0000287100C02C4001A80412215108610F31F6
:105B100018611152281000C0084001A80411911208
:105B2000215120311152211900A0811380DB06720E
:105B300001B800A000C314C001A8341006303072B0
:105B400064233412EC233410186002302272811066
:105B500080D8DE713410014A086204608030215020
:105B60008C480C7100C330C101A83410013000A072
:105B70000698F20600BD0698460E1CB84778457890
:105B800002B8447800C5841F00A054150698280464
:105B900002980E0700C4981F00A0441417B3315B8D
:105BA000302C20750698A20300C0684000A804109D
:105BB0001E6001D80E7100C0684000A8237804B8A8
:105BC00065780698A20EFFD8067204B8607800C205
:105BD000000002020698B21000F800B900C2A4400A
:105BE000004418121C220AB918121CBA911104316F
:105BF0000472487A507A517A1DB942795F7900A0CF
:105C00000698300207DC1072911000200A75069881
:105C1000520F0298AC0C0698C20501B9911004D835
:105C2000047100B901BA0F620698A81000402071F3
:105C300000C0A81E00A00411086101D9127104D986
:105C4000E2728110086001D8DA721DB86478069893
:105C5000520F00C5881F00A0541500C01CC101A828
:105C60000698BE0380B81860002A0475212D069896
:105C70000C0600C58C1F00A000F8811108D90C711A
:105C80000698E81020B804A800F80698520F00BD46
:105C90000698460E1CB84778457802B8447800C587
:105CA000901F00A0541502980E07041101211471D1
:105CB0001CBA737A04200412281104200411012153
:105CC000F47200A00698F40301F8911010D828711E
:105CD00000C51CC101A854110698020C00C5C41EC1
:105CE00000A054155129EA7507B876781DB8447894
:105CF00001B804A800F8B110186010D8307100C0C5
:105D00005040004400C3084000A8311460242824F7
:105D100044113411086101D9FA7144122810086243
:105D200028100862281008622810E87002986A0299
:105D300006984C0211380472186202BB00C1C81EDA
:105D400000A0141120390672417B00A00698DC10D7
:105D500000C2A81E00A0241220DA0472617B1CBAC3
:105D6000527A00A01CBA727A811204DAFC7200A086
:105D70001CB86B7800C0684000A82F7800A01063A2
:105D80001EB9637900B902EC00CD114502EC00CCDC
:105D900001DB067102989C1403B841110731FA2106
:105DA0001C760621911210DA087102DD10721E7045
:105DB00020B80698A40B3038147208B806988E03E1
:105DC00000C02C4000A82978207800F8056020D871
:105DD00006710298621202EC00CA05B823DA187143
:105DE00004DBDA7120DAD67110DAD2721EB861786B
:105DF00000B801DA067202EC00C8911110D92271C4
:105E000000C1B81E00A014111150FF300C720761C0
:105E1000A110115002300A7180DB06720AB89E7020
:105E200018609111173111402111C0311140011931
:105E30001EB8411120D904726578A11002D80672EB
:105E4000C0DA20711EB8273123DD0A726078411153
:105E500008D90E7225DD0A7121DD087208DB047194
:105E6000627803B8411107310872A1152035B0716D
:105E700002DD2072A11120D9A67102D91672CCDAE6
:105E80009E72411140D9987206B8054D92720298DF
:105E90009C1421114049C0D94C71A03141154035A5
:105EA000026551410461086308DA1E7204DA367231
:105EB0001049A1150235067110DB0E7201340A710A
:105EC00008DB22711EB86778CC3211101A300ADC58
:105ED0000872CCDE0471FD3100C00D0F0C0D216085
:105EE00001D85C7207B80298341100BA411108D980
:105EF0000C7102EC00CA05B830DAEC720734F031EC
:105F0000036101DA0471014900C0F300A3E32160D9
:105F100001D8D27100C0981440682160403001441B
:105F200040DA0471204C04320262204A111006301B
:105F30001F60014218311D61114202985211204A1E
:105F400000C0051708500698A60B113001422088A2
:105F50000DDA527100C1DE1B250180BC04DA10721B
:105F600008DA0A7200C120841000E024A024FFBBDC
:105F700008634143026401DA06711E49024B00C006
:105F8000101F00A008633810BC2002DA127100B99B
:105F9000FF21A11380DB087100C100FCFF01181074
:105FA000029828141EBC437C00C4A81E00A0441301
:105FB00080DB5071EFBA06989C0200920462DDDA31
:105FC0008E72A11105D93C7100C2404000442412D8
:105FD0000C242814106310DB267201D9227102EC04
:105FE00000C804D9167104BA183008710160FD2088
:105FF000012A02EC00C8FF22FA7604DC067207B818
:10600000737802989C14641000C69C1F00A0C3B84B
:106010000698360200C4301F00A014BA281400B835
:10602000011A91101730011900C2020200000698EF
:10603000B21004D9067101B804A800C0A81E00A0BF
:10604000041380DB06710298F61001DB5E7100C25A
:10605000141F00A024111114FF3402EC00C8FF2407
:10606000FA7608610698B40B046111380F300461A8
:106070001114011141100698B40B01D8087203B82D
:1060800002983411042202DB167124101128112801
:106090000698C80B00C2204000A8FF20081241103B
:1060A00008600698B40B01D87C7120BC10DB7671B7
:1060B00000BB00C1101F00A01415C021112C5112EB
:1060C00018620F320E71408851140698BC14414377
:1060D0000094511208651C620F320E714111511467
:1060E0000698BC141C6441430865513B00C1CC1E9A
:1060F00000A01411111231100F30127100BA056195
:1061000001D80471114201600FD8F472311003609C
:106110001E30047201B8003A087204B802983411B3
:1061200002981C1300C0204201A80411086130D954
:1061300006721DBA637A06988E0E06989A0202B805
:10614000477800F830885088FF34087102ECFF244B
:10615000F87002EC00CD141001BB5150FFD804714F
:10616000314408601F6310DBF2710421FF22E472E6
:106170000F4C0095009300A000C1AC1E00A01411AC
:1061800000A030880698EC158111086102D90672CA
:1061900002987C1508611CBB557B20D95272069869
:1061A000F01408211415F025541300DF5871211143
:1061B00020880698020C0092042554155129467532
:1061C00000C1084001A8141102DB0C710731315BDA
:1061D000312932760C7004DF0872016180D9267291
:1061E0000698F01400C010C000A806982E16069855
:1061F000F0141411FFD9067207B975791CB97479B6
:1062000004B96779009300A08110A0D808711CB967
:1062100049796070086002D85A710698F01411101C
:10622000008808208112106210DA0A710415F8251E
:106230001CBA547A04200698221000911088082174
:106240001410069822100094441111120861FF31B5
:10625000FF320122105210721861181404244413E2
:10626000042438140E7018612141181414200824D5
:10627000081400A01CB900C3A81E00A034130863B2
:1062800008DB18718113A0DB067149790E706979FA
:10629000086302DB067204B9677900A08111086106
:1062A00002D910711CB975790698F0141411FF31D8
:1062B00000A0FFB900A0041008211411FC2108114E
:1062C00000A000008F050000193F01060410010026
:1062D0000001010600102700000C00000000000073
:1062E000000000000400000000004000000000006A
:1062F000C8620000D048000000000000082F86009F
:106300000048E80140420F0001010000114950021D
:10631000040000000000800000000000C8620000CF
:10632000DC48000000000000004786000048E8014B
:1063300080841E0001010000114950020400000089
:106340000000800000000000C8620000F448000067
:1063500000000000802596000048E80140420F0040
:1063600001020000114950020400000000008000FA
:1063700000000000C8620000E848000000000000C3
:10638000802596000048E80140420F000108000007
:10639000114950020C40020001810100004100003F
:1063A0001840010000000000204002000000000032
:1063B0000100000030400300000000000000000069
:1063C00000000000A840010007000000C0400100DC
:1063D000FF4D000008C00100000000001CC00110BB
:1063E00000F807001CC00130F502080020C00500BD
:1063F00000130000EC80B3034375A8020000000006
:106400002E02000050C001008741300C58C002002D
:1064100054060708D1B6020064C00800043000002A
:1064200040201006C8F248181FE8F600BD4B721550
:1064300011A3180510325476980A000088C0010094
:106440000000000008000101080700001800010119
:10645000AAAAAA00200001010060DA001C40010184
:1064600010000000304003010000000300000000A5
:106470000000000068400201294176710000000020
:10648000E040020133000000000000000C41010167
:10649000B8551200244101010000000054410501DB
:1064A00001000000000000000000000000000000EB
:1064B000000000003842020100000000000000005F
:1064C00044420101000000001080010103000000AF
:1064D000388002011149100001000000888001018C
:1064E000000000009C800101EB400200B08002012E
:1064F000000300023700000188000202000C0004C3
:106500004C0000009400010200040000D0000202D0
:106510000E00000090029608E40001023D094204CA
:10652000F4000102000000001801010260005102A5
:10653000FFFFFFFFFC1F0103E46200003C4004007A
:10654000000000000000000000000000A0070000A4
:1065500050400100000000005C400200000000000C
:1065600000000000B440030001480000FF4C0000A0
:106570000149000054C001000E2D09E6204004012D
:10658000000000861FC001000060000000800000C5
:1065900058400401180005008008000009000000B0
:1065A0009100040080400C018C000C0000000000F1
:1065B0001200220000000000000000000002050E92
:1065C0001C2F4353626968615543320416E4B8C610
:1065D0008A674533224A9204EC40070190382CAC7C
:1065E000000000005A10080AD007CA4A511048009B
:1065F000F9541E804737414A1041020130194A05BB
:1066000089BB400028410101FFFF00003041090122
:10661000F15004430C010000E853FA0000000800A8
:1066200010161C22282E343A404621436587A90BB8
:106630000000C0B4684103015A10080AD0074104A1
:10664000C1030000304202018993A30F5EC25D0EB8
:10665000A080020170780300D0000000A880011122
:10666000F0010000A88001310542CB01AC8001118E
:10667000F0010000AC800131053EFD00FFFFFFFF8F
:10668000FC1F0103106300003C40040000000000F8
:106690000000000000000000A007000050400100C2
:1066A000000000005C40020000000000000000004C
:1066B000B440030001480000FF4C00000149000005
:1066C00054C001000A2D09E6204004010000000624
:1066D0001FC000000060000000D0320058400401DC
:1066E0006402FF00800800000100000011000800A3
:1066F00080400C010804000000000000D9032200C3
:1067000000000000000000000102071121374B5A71
:1067100067696254402915050000802043443333E3
:106720002392A424EC40070190382CAC0000000018
:10673000640483078813C83A9D200A000161208001
:106740004737414A104102012A144A0289BBC00A54
:1067500028410101FFFF0000304109016406660C79
:106760000C010000E853FA000000080012181E2473
:106770002A30363C424821436587A90B0000E0C41B
:10678000684103016404830788138200C108000084
:106790003042020145966B105C22670EA080020118
:1067A00070780300D5C00000A8800111F00100003E
:1067B000A88001310542CB01AC800111F00100003D
:1067C000AC80013105228D00FFFFFFFFFC1F01039C
:1067D0003C6300003C40040010000000000000008A
:1067E00000000000201700005040010001040000DC
:1067F0005C4002000D0F000001010000B4400300E6
:1068000003C00100FF4C0000FF4D000054C0010018
:106810000E2D09E620400401300000441FC801008D
:1068200000200010008000005840040118000500FE
:10683000400800000900000091000A0080400C019F
:106840008C002C02000000001B0012005B808C1BDF
:1068500000000000040A142232414A4F00000000E8
:106860000000000000000000000000000000000028
:10687000EC40070180B0B18C000000006404830785
:106880008813C83A9C200A0001612080B75635124F
:1068900010410201A01B0429088840002841010181
:1068A00000000000304109016406660C0C01000084
:1068B0004CD4E83B04196F300A10161C22282E34E1
:1068C0003A4010325476980A1D5F80A46841030153
:1068D0006404830788138200000000003042020134
:1068E000000000000008000EA080020170380300C4
:1068F000D0000000A8800111F0010000A880013143
:10690000055AFD01AC800111F0010000AC8001319D
:10691000053EFD00FFFFFFFFFC1F01036863000051
:106920003C400400100000000000000000000000D7
:106930002007000050400100000400005C400200FD
:106940000D0F000001010000B440030003C001006E
:10695000FF4C0000FF4D000054C001000E2D09E661
:1069600020400401300000441FC801000020001036
:106970000080000058400401180005004008000095
:106980000900000091000A0080400C018C002C02DC
:10699000000000001B0012005B808C1B0000000048
:1069A000040A142232414A4F000000000000000097
:1069B000000000000000000000000000EC400701A3
:1069C00080B0B18C00000000640483078813C83ACB
:1069D0009C200A0001612080B75635121041020147
:1069E000A01B042908884000284101010000000084
:1069F000304109016406660C0C0100004CD4E83BF0
:106A000004196F30080E141A20262C32383E10322A
:106A10005476980A1D5F00006841030164048307EF
:106A200088138200000000003042020100000000D4
:106A30000008000EA080020170380300D0000000A2
:106A4000A8800111F0010000A8800131055AFD0164
:106A5000AC800111F0010000AC800131053EFD0069
:106A6000FFFFFFFF34650000809C2B8F80841E0099
:106A70000000000027006400F83301208066000059
:106A8000809C2B8F80841E00000000002700640083
:106A9000F8330120CC670000809C2B8F80841E007F
:106AA0000000000027006400F8330120186900008E
:106AB000809C2B8F80841E00000000002700640053
:106AC000F83301209463000000000000646A0000B5
:106AD000010000002F158371946300000000000086
:106AE0007C6A000001000000802032F49463000002
:106AF00000000000946A000001000000EBE40DD3E8
:106B00009463000000000000AC6A00000100000077
:106B100078146DB94145532D3132382D454342002B
:106B20004145532D3139322D454342004145532DC6
:106B30003235362D454342004145532D3132382DF3
:106B4000435452004145532D3139322D43545200A4
:106B50004145532D3235362D435452004145532D76
:106B60003132382D43434D004145532D3139322DBB
:106B700043434D004145532D3235362D43434D009F
:106B800002000000F9C70200FDC7020017C802009A
:106B900013C802001BC8020035C802000201000031
:106BA00080000000146B00000000000000000000E6
:106BB00010000000806B000003010000C000000016
:106BC000206B00000000000000000000100000002A
:106BD000806B000004010000000100002C6B00002D
:106BE000000000000000000010000000806B0000AA
:106BF0000B05000080000000386B00001000000052
:106C00000000000010000000806B00000C05000078
:106C1000C0000000446B00001000000000000000F5
:106C200010000000806B00000D0500000001000056
:106C3000506B000010000000000000001000000079
:106C4000806B000002000000000000000000000057
:106C500047C8020047C80200D9C70200EFC70200B8
:106C60002B080000800000005C6B00000C0000009E
:106C70000100000010000000446C00002C0800001F
:106C8000C0000000686B00000C0000000100000064
:106C900010000000446C00002D08000000010000FE
:106CA000746B00000C0000000100000010000000E8
:106CB000446C0000020000009C6B00000300000018
:106CC000B86B000004000000D46B00000B00000053
:106CD000F06B00000C0000000C6C00000D000000C8
:106CE000286C00002B000000606C00002C000000ED
:106CF0007C6C00002D000000986C0000000000007B
:106D00000000000000000002000000000000000081
:106D10000000000000000000000000000000000073
:106D20000000000000000000010000000000002042
:106D30000000000001000000000000000000000052
:106D400001000000000000000000000E0000000034
:106D50000000000000000000000000000000000033
:106D60000000000000000000000000000100000022
:106D70000000000000000000010000000000000012
:106D8000000000000100000000000000FFFFFFFF06
:106D9000FFFFFFFFFFFFFFFF0000000000000000FB
:106DA0000000000001000000FFFFFFFF4B60D22742
:106DB0003E3CCE3BF6B053CCB0061D65BC86987603
:106DC00055BDEBB3E7933AAAD835C65A96C298D8C0
:106DD0004539A1F4A033EB2D817D0377F240A46304
:106DE000E5E6BCF847422CE1F2D1176BF551BF370D
:106DF0006840B6CBCE5E316B5733CE2B169E0F7CE0
:106E00004AEBE78E9B7F1AFEE242E34F512563FC7B
:106E1000C2CAB9F3849E17A7ADFAE6BCFFFFFFFF15
:106E2000FFFFFFFF00000000FFFFFFFF80B500F045
:106E300090FE02BD38B50400002000902000C0B2D2
:106E4000002844D0012846D0022848D0032850D03A
:106E5000042858D0052861D0062864D0072867D0B8
:106E600008286AD009286DD00A2870D00B2873D062
:106E70000C2876D00D2879D00E282CD00F2857D08A
:106E800012285AD0132826D0142832D015283AD0E8
:106E900016282ED0172841D018281CD0192847D0E2
:106EA0001A2826D01B2861D01C283CD01D283AD097
:106EB0001E2838D01F2836D020281AD0212818D0D4
:106EC000222816D023283DD0242840D053E000F0BB
:106ED0002AFE00904FE000F03CFE00904BE000F0F6
:106EE00022FE0500022000F0A4F8B5FBF0F00090AF
:106EF00041E000F02EFE0500032000F09AF8B5FBFB
:106F0000F0F0009037E000F024FE0500032000F0D0
:106F100090F8B5FBF0F0400800902CE000216846A6
:106F200000F026FD27E00021684600F073FC22E017
:106F30000021684600F09CFC1DE00021684600F03E
:106F4000BDFC18E00021684600F083FD13E000213D
:106F5000684600F03FF80EE00021684600F030FC83
:106F600009E00021684600F008F804E000216846C6
:106F700000F03CFDFFE7009832BDF8B505000C00BD
:106F80000026DFF89005006810F00300012804D007
:106F900018D3032811D00BD314E000F0DAFD07005A
:106FA000032000F046F8B7FBF0F006000A200AE0E4
:106FB00000F0CFFD06000B2005E000F0F0FD06001C
:106FC000052000E00020002D00D02E60002C00D015
:106FD0002070F1BD70B505000C000026DFF8380503
:106FE000006810F00700012806D01AD303280DD03E
:106FF00007D304280FD014E000F011FE060008208B
:1070000010E000F012FE060007200BE000F00AFE80
:107010000600092006E000F09CFD800A06000C2016
:1070200000E00020002D00D02E60002C00D0207049
:1070300070BD010000200A00D2B2012A05D0022A48
:107040000BD0032A10D00E2A15D1DFF86027126862
:10705000C2F30132100002280DE0DFF88C2612681E
:10706000C2F30462100006E0DFF840271268C2F3A2
:1070700080221000FFE7401C704738B505000C0067
:107080002800C0B2012805D0022822D0032832D01F
:107090000E2842D1012C03D0022C01D0042C01D1A6
:1070A000012000E00020C0B200F0CCFC00F089FC20
:1070B000DFF8F806016831F44051621E51EA0231EE
:1070C0000160FFF7B3FE002100F072FB00F07FFCCF
:1070D00023E0002C03D0212C01D2012000E000206D
:1070E000C0B2DFF80406016831F0F851621E51EABF
:1070F0000261016011E0012C01D0022C01D10120BC
:1071000000E00020C0B2DFF8A406016831F480611D
:10711000621E51EA82210160FFE731BD1CB5040007
:1071200000208DF800002000C0B2002828D00528DB
:1071300048D006284BD007284ED0082851D009281F
:1071400054D00A2857D00B285AD00C285DD00D28CF
:1071500060D00F2840D0122843D0172832D01928E9
:107160003AD01B2856D01C2831D01D282FD01E28DD
:107170002DD01F282BD0232838D024283BD04EE0F8
:10718000DFF82806006810F00700012812D015D398
:10719000032807D002D3042808D00FE004208DF87C
:1071A00000000EE003208DF800000AE006208DF8B4
:1071B000000006E002208DF8000002E000208DF8BB
:1071C00000002CE06946002000F0D2FB27E0694671
:1071D000002000F01FFB22E06946002000F048FB81
:1071E0001DE06946002000F069FB18E069460020B8
:1071F00000F02FFC13E069460020FFF7EBFE0EE0E5
:107200006946002000F0DCFA09E069460020FFF73B
:10721000B4FE04E06946002000F0E8FBFFE79DF8BB
:10722000000016BDF8B504000D0000260027200060
:10723000C0B2002836D0052876D0062800F08D8010
:10724000072800F0A980082800F0BF80092800F076
:10725000D5800A2800F0F1800B2800F00D810C2861
:1072600000F029810D2800F03A810F2800F0948069
:10727000122800F0AA80172856D0192800F08C8018
:107280001B2800F02C811C2867D01D2865D01E28E3
:1072900063D01F2861D0232800F0B080242800F09C
:1072A000CC8035E12800C0B202281AD0032807D0CC
:1072B000042802D0062811D016E00220060013E0B0
:1072C00003200600DFF89406006810F00200400872
:1072D00007000120DFF88816086005E0042006009A
:1072E00002E001200600FFE700F0ACFB00F069FBC4
:1072F000DFF8B8040168C908C90031430160FFF72D
:1073000095FD002100F054FA00F061FB3800C0B296
:10731000002808D12800C0B2032804D10120DFF8DA
:1073200044160860FFE7F3E02800C0B2022809D045
:10733000052804D00D2808D10120060005E0022010
:10734000060002E003200600FFE7DFF81C060168E4
:107350008908890031430160DAE02800C0B20228C0
:107360000FD011D3042803D005D3052806D00BE095
:107370000120060008E00220060005E003200600C8
:1073800002E004200600FFE7DFF8AC060168C90848
:10739000C90031430160BBE02800C0B2072806D015
:1073A0000BD3092806D008D20120060005E00220F0
:1073B000060002E003200600FFE7DFF88006016810
:1073C0008908890031430160A2E02800C0B2072883
:1073D00006D00BD3092806D008D20120060005E00C
:1073E0000220060002E003200600FFE7DFF8500657
:1073F0000168890889003143016089E02800C0B232
:10740000072809D0082804D0092808D00C2809D05A
:107410000BE00120060008E00220060005E0032042
:10742000060002E004200600FFE7DFF840050168DF
:10743000C908C900314301606AE02800C0B20728CA
:1074400009D0082804D0092808D00C2809D00BE05E
:107450000120060008E00220060005E003200600E7
:1074600002E004200600FFE7DFF8AC000168C9086D
:10747000C900314301604BE02800C0B201280FD0A1
:10748000032804D0062808D0072803D00BE00120E9
:10749000060008E00220060005E00320060002E0E6
:1074A00000200600FFE7DFF8080601688908890068
:1074B000314301602CE02800C0B2052804D00B281D
:1074C00005D10220060002E003200600FFE7DFF8F6
:1074D00044000168890889003143016018E02800F0
:1074E000C0B2072806D00BD3092806D008D2012045
:1074F000060005E00220060002E003200600FFE788
:10750000DFF8B00501688908890031430160FFE7B1
:10751000F1BD00008080004008820040F8B5040002
:107520002078102801D2012000E00020C0B260784D
:10753000102801D2012000E00020C0B2A07810285D
:1075400001D2012000E00020C0B2E078102801D272
:10755000012000E00020C0B22079102801D20120D3
:1075600000E00020C0B26079402801D2012000E094
:107570000020C0B2A079402801D2012000E0002004
:10758000C0B2E079042801D2012000E00020C0B29E
:10759000207A042801D2012000E00020C0B2607BE4
:1075A000022801D2012000E00020C0B20020FFF735
:1075B000B5FD032800F09780DFF8FC1445F60E00B7
:1075C0000860DFF89C3302201860DFF89823012060
:1075D0001060DFF8E8542868C003FAD4DFF8E064EC
:1075E000207867783F0557EA0067E07857EA004758
:1075F000207957EA0037607957EA8017A079074366
:107600003760E079277A3F0657EA8067607A57EA61
:107610000047A07A57EA0027E07A0743DFF8A4047E
:107620000760DFF8A474D7F800C0607B002801D1A0
:10763000002000E008203CF00D0C50EA0C0C207BF0
:107640005CEA800C607B50EA0C0CC7F800C0607BE1
:10765000002831D1DFF80403076837F0330794F8C6
:107660000EC057EA4C1794F80FC057EA0C1757F0A2
:1076700001070760DFF854042F6807408742F9D1FB
:107680000220186028684000FCD4306830F4700094
:10769000A37850EA035030605FF00040DFF83034E8
:1076A0001860207C002801D102201060607C002836
:1076B00013D10120106010E0DFF8A022136833F02E
:1076C0003303A07B53EA4013E07B53EA0013207C92
:1076D00053EA4003607C03431360A07C002802D07F
:1076E000DFF8F0030860F1BD9080004010B48178AD
:1076F000082901D2012100E00021C9B2C178042982
:1077000001D2012100E00021C9B20178042901D28F
:10771000012100E00021C9B24178802901D2012174
:1077200000E00021C9B24178502901D34F2200E086
:107730004278DFF8A4334FF4D15119600221DFF809
:107740009C4321600121DFF898432160DFF8941306
:107750000968C903FAD401781400E4B254EA012498
:10776000DFF884130C608178C478240154EA012482
:10777000017954EA410441790C43DFF870130C603D
:107780008179C479240154EA4114017A54EA41040C
:10779000417A0C43DFF858130C60817A002902D03B
:1077A0007FF4D151196010BC704700007080004018
:1077B00038B504000D002900200000F0A5F831BD07
:1077C00070B505000C000026DFF8E402006810F038
:1077D0000300002814D0022808D002D303280AD0BE
:1077E00010E000F0C5F9060003200CE000F01DFADF
:1077F0000600072007E000F0CEF90600062002E0B0
:10780000012000E00020002D00D02E60002C00D0D0
:10781000207070BD70B505000C000026DFF818025E
:10782000006810F00700012806D019D303280DD0F6
:1078300007D304280FD013E000F0AAF906000420B3
:107840000FE000F095F9060003200AE000F0A7F928
:107850000600052005E000F0A0F90600022000E087
:107860000020002D00D02E60002C00D0207070BDB4
:1078700070B505000C0000267048006810F0030089
:10788000012804D012D303280BD005D30EE000F05A
:10789000C6F9060008200AE000F0C7F90600072034
:1078A00005E000F0BFF90600092000E00020002DEF
:1078B00000D02E60002C00D0207070BD70B5050087
:1078C0000C0000265E48006810F00300012804D078
:1078D00012D303280BD005D30EE000F0A0F9060068
:1078E00008200AE000F0A1F90600072005E000F0FA
:1078F00099F90600092000E00020002D00D02E603C
:10790000002C00D0207070BDF0B4DFF8E8211468BE
:1079100014F48034240CDFF8E05141F671322A600F
:10792000DFF8D8311A6832F44012754EB04201D3F4
:1079300052F480121A60734E336833F00203724FB0
:10794000B84201D353F0020333602200D2B2002ABE
:1079500001D000222A60F0BC7047000028C000401F
:1079600028D0004028E00040808100400082004094
:1079700038B504000D00002000906448006810F045
:107980000300012804D013D303280CD006D30FE042
:1079900000216846FFF73EFF0D200AE000F0FFF8E7
:1079A0000090052005E000F0F8F80090022000E0CB
:1079B0000020002C01D000992160002D00D02870FB
:1079C00031BD80B502210320FFF757FB01BD10B583
:1079D00002240120FFF72EFA4B49884201D20120F0
:1079E000040021000320FFF748FB10BD70B505001F
:1079F0000C0000262F48006810F00300012804D076
:107A000012D303280BD005D30EE000F008F90600CE
:107A100008200AE000F009F90600072005E000F060
:107A200001F90600092000E00020002D00D02E60A2
:107A3000002C00D0207070BD2081004040810040AB
:107A40006081004080B500F091F80021FFF75CFFF5
:107A500001BD70B505000C0000262D48006810F02F
:107A60000700012806D01AD303280DD007D3042815
:107A70000FD014E000F0D3F80600082010E000F06A
:107A8000D4F8060007200BE000F0CCF8060009202F
:107A900006E000F05EF8800A06000C2000E00020FE
:107AA000002D00D02E60002C00D0207070BD000092
:107AB000008100404082004080C0004058C000402B
:107AC00010C0004018C0004020C00040030001402A
:107AD00018D00040F1A7FFFF24000240041002402C
:107AE000042002401000024014000240080002403E
:107AF000040002401C0003403C0003400800034017
:107B0000C117530218C2074081F0FA028081004079
:107B1000008200404848494908604948016851F4DA
:107B200070010160704710B500244648006810F0ED
:107B30000700012809D00AD3032803D007D200F098
:107B400027F805E04048006802E0404800E0FEE712
:107B500010BD80B5FFF7E7FF3A490968C1F301316D
:107B60004A1CB0FBF2F03A4A106002BD3948704737
:107B700035480068704710B5040033480460314848
:107B8000006810F00700032801D1FFF7E2FF10BDE5
:107B9000314800687047002070472C48704700202B
:107BA0002E490A68120C12F01F02002A0CD0062A75
:107BB00022D0072A23D0082A24D00A2A25D00B2A2B
:107BC00026D00C2A27D029E0096811F0407100293D
:107BD00006D0B1F1807F06D0B1F1007F06D008E079
:107BE0001F49080007E01F49080004E01E4908007B
:107BF00001E00021080011E01C4908000EE01C49CA
:107C000008000BE01B49080008E01B49080005E0DC
:107C10001A49080002E01A490800FFE770474FF4CC
:107C2000004070474FF47A707047164800687047FC
:107C300014490860704700000040000008ED00E0B3
:107C400088ED00E070800040A42A0120002D310161
:107C5000B02A012000B4C404AC2A01200840014A23
:107C600000093D0080841E0040420F00405DC600B8
:107C70000024F400C0EA210180BA8C010048E80128
:107C8000005A6202A82A0120010049B2002904D446
:107C9000454940B2085C000907E0444940B210F091
:107CA0000F00084410F8040C000970470100080098
:107CB00040B2002805D4080040B23D2801DA012076
:107CC00000E00020C0B23A480A0052B2520950F80F
:107CD000220011F01F01C84010F0010090F00100D7
:107CE000C0B27047020052B212F1100F05DB020061
:107CF00052B23D2A01DA012200E00022D2B22D4A1E
:107D0000126803005BB202EB830211647047F0B4A7
:107D10000400049E059DB2F1005F04D32648824210
:107D200001D2012000E00020C0B212F07F00002844
:107D300001D1012000E00020C0B201209F007F1E81
:107D4000B7FA87F7D7F12007B840401E024201D1A9
:107D5000012000E00020C0B200279F4220D228006E
:107D6000C0B2002809D08F4204D254F8270042F84C
:107D7000270013E042F8276010E08F4208D252F843
:107D8000270000280AD154F8270042F8270005E010
:107D900052F82700002801D142F827607F1CDCE759
:107DA00004480260F0BC704700E400E018ED00E019
:107DB00000E100E008ED00E00080012072B67047AD
:107DC000F8B50600300040B210F10C0F05DB3000B2
:107DD00040B23D2801DA012000E00020C0B2EFF3FC
:107DE0001080C00701D5012025E0300040B2FFF728
:107DF0005DFF002801D001201DE0300040B2FFF7F8
:107E000043FF0700EFF31184002C04D0B7EB141FDD
:107E100001D301200FE008480568ED05ED0D002DA8
:107E200008D02800103840B2FFF72EFF874201D358
:107E3000012000E00020F2BD04ED00E080B5FFF776
:107E400088FE01BD4AF6E8502F4908607047704728
:107E500010B504002000C0B2002802D00020FFF7B7
:107E6000F6FF2A48016851F00401016000F052F861
:107E700030BF00F050F82000C0B2002803D001202D
:107E8000FFF7E5FF01E0FFF7D9FF10BD10B50400D3
:107E90002000C0B2002802D00020FFF7D8FF1B4806
:107EA000016851F00401016000F034F830BF00F0C7
:107EB00032F82000C0B2002803D00120FFF7C7FF2E
:107EC00001E0FFF7BBFF10BD80B50020FFF7BFFF4B
:107ED00001BD80B50120FFF7BAFF01BD70B50C4DA3
:107EE0002C68A408A40054F002042E6856F003067F
:107EF000FFF7A8FF0020042803DA2C602E60401C46
:107F0000F9E72C6070BD00006040004010ED00E01B
:107F10006C4000407047704710B4002A02D010F542
:107F2000805301E010F5005301248C401C6010BC0C
:107F3000704710F580521160704710F500521160C3
:107F4000704770B504000D00160029002000FFF7EF
:107F5000F4FF31002000FFF7ECFF70BDDFF8CC1319
:107F60000860704730B40200D2B2002A01D17F22EB
:107F70003CE00200D2B2012A01D1032236E0020025
:107F8000D2B2022A01D13F2230E00200D2B2032A4B
:107F900001D11F222AE00200D2B2042A01D100221C
:107FA00024E00200D2B2052A01D100221EE0020024
:107FB000D2B2062A01D1002218E00200D2B2072A6A
:107FC00001D1002212E00200D2B2082A01D100221F
:107FD0000CE00200D2B2092A01D1002206E0020020
:107FE000D2B20A2A01D1002200E00022CA4012F0D7
:107FF000010201238B40DFF838430500EDB2302247
:10800000554304EB0502136130BC704730B40200E5
:10801000D2B2002A01D17F223CE00200D2B2012A72
:1080200001D1032236E00200D2B2022A01D13F225E
:1080300030E00200D2B2032A01D11F222AE002005E
:10804000D2B2042A01D1002224E00200D2B2052AD1
:1080500001D100221EE00200D2B2062A01D1002284
:1080600018E00200D2B2072A01D1002212E0020079
:10807000D2B2082A01D100220CE00200D2B2092AB1
:1080800001D1002206E00200D2B20A2A01D1002268
:1080900000E00022CA4012F0010201238B40DFF809
:1080A00094420500EDB23022554304EB0502136102
:1080B00030BC70472DE9F84306000F009046994602
:1080C000089C099D3000C0B2002801D17F203CE00F
:1080D0003000C0B2012801D1032036E03000C0B228
:1080E000022801D13F2030E03000C0B2032801D186
:1080F0001F202AE03000C0B2042801D1002024E073
:108100003000C0B2052801D100201EE03000C0B20E
:10811000062801D1002018E03000C0B2072801D1A4
:10812000002012E03000C0B2082801D100200CE08D
:108130003000C0B2092801D1002006E03000C0B2F2
:108140000A2801D1002000E00020F84010F00100D2
:108150005FEA98008000B9088900884201D10120B7
:1081600000E00020C0B2B8F1080F0DD23200D2B248
:108170004046C0B28000824003214046C0B2800029
:1081800081406D48FFF7DDFEB8F1080F0DD217F002
:1081900003024046C0B28000824003214046C0B284
:1081A000800081406548FFF7CCFE4A46D2B2414686
:1081B0006348FFF7B1FE2200D2B241466148FFF7A3
:1081C000ABFE012010FA08F0FFF7C8FE2A00D2B279
:1081D00041465D48FFF7A0FEBDE8F183F8B5050014
:1081E0000E0017001C002800C0B2002801D17F201B
:1081F0003CE02800C0B2012801D1032036E028006D
:10820000C0B2022801D13F2030E02800C0B20328CC
:1082100001D11F202AE02800C0B2042801D100208B
:1082200024E02800C0B2052801D100201EE028006B
:10823000C0B2062801D1002018E02800C0B20728EB
:1082400001D1002012E02800C0B2082801D100208E
:108250000CE02800C0B2092801D1002006E0280067
:10826000C0B20A2801D1002000E00020F04010F048
:1082700001003800C0B200280CD0002C05D031001D
:108280002800C0B2FFF7C2FE04E031002800C0B2EF
:10829000FFF768FE082E1AD230202C4A2900C9B2F6
:1082A000414311442B00DBB200FB03F01044426851
:1082B0000F233000C0B2800083409A433B00DBB202
:1082C0003000C0B2800083401A434A601BE0302077
:1082D0001E4A2900C9B2414311442B00DBB200FB06
:1082E00003F01044C2680F2330000838C0B2800089
:1082F00083409A433B00DBB230000838C0B28000B4
:1083000083401A43CA603800C0B200280CD1002C48
:1083100005D031002800C0B2FFF778FE04E031003C
:108320002800C0B2FFF71EFEF1BD000020E40340AC
:1083300000E0034000D0034000C4034008C40340F1
:1083400010C4034014C4034024C4034000C00340CD
:10835000010049B200290AD4012210F01F018A400D
:10836000DFF8C81203005BB25B0941F823207047B5
:10837000010049B2002909D4012210F01F018A40EE
:10838000AB4903005BB25B0941F82320704710B48E
:10839000020052B2002A05D40A01A64B040064B2BE
:1083A0001A5508E00A01A44B040064B214F00F044B
:1083B000234403F8042C10BC704710B4002A02D0E8
:1083C00010F5805301E010F5005301248C401C602F
:1083D00010BC704710F500521160704738B50400AA
:1083E0000D00082C01DA012000E00020C0B22800B6
:1083F000C0B2002801D1012200E00022D2B2210047
:108400009148FFF7DAFF31BD38B50400002C01D0E8
:10841000012000E00020C0B220787FF0F85111EA7E
:10842000006F01D1012000E00020C0B20120012036
:10843000E078102801DA012000E00020C0B201201D
:108440008049086025782D06804805606078A1780D
:1084500051EA00417E480160FF2079490860002010
:108460007C4908600020784908605FF0004073494B
:1084700008605FF0FF30784908601520FFF778FF4B
:10848000E1781520FFF783FF1520FFF761FF31BD6D
:108490002DE9F04105000C0016000127AF40082D22
:1084A00001DA012000E00020C0B2002C01D0012040
:1084B00000E00020C0B220686849084201D10120D4
:1084C00000E00020C0B20120012001200120A07A9C
:1084D0007FF4403111EA004F01D1012000E000207B
:1084E000C0B2E07A7FF4801111EA005F01D101206F
:1084F00000E00020C0B2207B7FF4001111EA405F51
:1085000001D1012000E00020C0B2012020685449C0
:1085100041F8250030205349627B00FB05F30B44F2
:108520009A60A27AE37A1B0553EA0243227B53EA5C
:10853000425300FB05F20A445360B208920000FB6C
:1085400005F0084482614448076000F097F88046CF
:108550003A48016839430160207A002803D03A483C
:10856000016839430160607A002803D03948016806
:10857000394301602079A17951EA00413A4801600C
:108580006079E17951EA00413848016039003848A2
:10859000FFF720FF37480760404600F073F8BDE85A
:1085A000F08170B504000125A540082C01DA0120F6
:1085B00000E00020C0B200F061F806001F4801682A
:1085C000A94301601E480560300000F05BF870BDF3
:1085D0002DE9F84306000127B740082E01DA0120F3
:1085E00000E00020C0B200F049F88046224804684C
:1085F0001F4805681B48302101FB06F10844D0F8EC
:108600000C90404600F03EF83C403D40C9F30A1152
:10861000002D03D1002903D1002C01D0002001E05E
:10862000491C0800BDE8F2830000000000E100E002
:1086300080E200E000E400E018ED00E054000440B7
:1086400028000440040004404000044008000440A6
:10865000180004403800044050200440F0FFC0FFE0
:108660000040044058000440182004401810044002
:10867000340004404800044050000440EFF31080F0
:1086800072B67047002800D162B6704741F671306B
:10869000074908600120074908607047044841F60F
:1086A000713101600121034A1160002101607047AE
:1086B0003C0003400C2003405FF400300349086095
:1086C0007047034800687047000000007050004089
:1086D000944000401E480068002803D01D480068F0
:1086E0000028F7D1704710B5040019480068002829
:1086F00001D0FFF7EFFF01201949086060780028DA
:1087000001D0012100E00021A078002801D0012241
:1087100000E00022E078002801D0012000E00020E5
:1087200051EA420151EA8001207951EA0011607951
:1087300051EAC0010B480160012008490860207817
:10874000002801D0012000E002200349086010BD8C
:1087500004000048280000480C00004804100048AD
:1087600004200048080000484268002A01D1416006
:1087700006E042685368012B01D05268FAE7516065
:1087800070478268002A01D1816006E082685368E0
:10879000012B01D05268FAE751607047C269042A80
:1087A00007D3C269042A01D2012200E00022D2B21A
:1087B00006E0C26900EB8202D160C269521CC2614C
:1087C0007047C169052907D3C169052901D2012173
:1087D00000E00021C9B21CE0DFF838100968C902C6
:1087E000FAD5C169091D8900DFF82C2011605FF0FE
:1087F000984102680A6042680A6082680A60002242
:10880000C3699A4205D200EB8203DB680B60521CFD
:10881000F6E770474000004C5000004C06490968DC
:108820000A00920912F03F02827011F03F0242707A
:108830000A00120B0270704714C00740DFF8E822EC
:10884000904205D10A00D2B2DFF8E0321A6012E09D
:10885000DFF8DC22904205D10A00D2B2DFF8D43230
:108860001A6008E0DFF8D022904204D10A00D2B2A8
:10887000DFF8C8321A60C26D52F08002C2657047DC
:10888000F8B505000C0016001F00002C03D10320D2
:10889000FEF7D0FA04003800C0B2002806D0202825
:1088A0000ED0402816D060281FD028E020000009F4
:1088B000B04201D3012000E00020C0B210211FE02F
:1088C0002000C008B04201D3012000E00020C0B267
:1088D000082115E00620B4FBF0F0B04201D30120DE
:1088E00000E00020C0B206210AE020008008B0426B
:1088F00001D3012000E00020C0B2042100E01FE00D
:1089000006FB01F0400810EB441006FB01F2B0FB3F
:10891000F2F02038C200DFF82802824201D20120A2
:1089200000E00020C0B2DFF81C020240A86830F06E
:108930006000A860AB683800C0B20343AB60EA6176
:10894000F1BD10B4DFF8E021904207D0DFF8E0215C
:10895000904203D0DFF8E021904201D1012200E0F3
:108960000022D2B2012241F20403C2500A00D2B264
:10897000D24312F00502530043610B00DBB24361A6
:108980000B00DBB2002B03D1012342F2040403519C
:1089900010BC704770B504000D00DFF88C61B44264
:1089A00007D0DFF88C01844203D0DFF88C018442C9
:1089B00001D1012000E00020C0B2200000F072F8D8
:1089C000012041F204016050A87C002803D0A06877
:1089D00050F08040A060E87C002803D0297D200072
:1089E000FFF72CFF697BB5F910000143B5F90E00C4
:1089F0000143E1602B7BAA6869682000FFF740FF14
:108A0000687D002803D0A06850F48030A060A87D65
:108A1000000710F0E040E97D090511F4E00108438A
:108A2000A065287E022802D0287E032814D1B442F3
:108A300001D100200BE03E48844201D1012006E034
:108A40003D48844201D1022001E05FF0FF30022165
:108A50003D4A4001115013E0B44201D100200BE027
:108A60003348844201D1012006E03348844201D1D9
:108A7000022001E05FF0FF300221344A4001115032
:108A8000287E012802D0287E032804D1042041F248
:108A90005C01605003E0042042F25C0160502878E1
:108AA000606170BD2049884205D0214A904202D0C1
:108AB000214A904201D1012200E00022D2B20122DB
:108AC00041F20403C25040F6AA6242610022826071
:108AD0000022C26541F20502C2600022026100224A
:108AE000C2610022C2641A4A42F24803C250002204
:108AF0008265884205D00E4A904202D00E4A9042CA
:108B000001D100220265884205D00949884202D07D
:108B10000949884201D100214165012142F2040244
:108B200081507047000000000080054084810340B0
:108B300000C005409481034000000640A48103402A
:108B4000F9FF7F00F8FF7F00ACD50340ACE50340A0
:108B5000FFFF010082695206FCD50A00D2B2C2634F
:108B60007047010142F24802815070470068C840D6
:108B700010F00100704738B505000C002800C0B2A5
:108B8000002801D17F203CE02800C0B2012801D19B
:108B9000032036E02800C0B2022801D13F2030E097
:108BA0002800C0B2032801D11F202AE02800C0B24B
:108BB000042801D1002024E02800C0B2052801D1FA
:108BC00000201EE02800C0B2062801D1002018E0D5
:108BD0002800C0B2072801D1002012E02800C0B24E
:108BE000082801D100200CE02800C0B2092801D1DA
:108BF000002006E02800C0B20A2801D1002000E0D1
:108C00000020E04010F001002100DFF8C42A2B0012
:108C1000DBB23020434302EB03001430FFF7A6FF22
:108C200032BD30B40200D2B2002A01D17F223CE032
:108C30000200D2B2012A01D1032236E00200D2B2F0
:108C4000022A01D13F2230E00200D2B2032A01D130
:108C50001F222AE00200D2B2042A01D1002224E01D
:108C60000200D2B2052A01D100221EE00200D2B2D7
:108C7000062A01D1002218E00200D2B2072A01D14F
:108C8000002212E00200D2B2082A01D100220CE038
:108C90000200D2B2092A01D1002206E00200D2B2BB
:108CA0000A2A01D1002200E00022CA4012F001028B
:108CB00001238B40DFF88C4B0500EDB23022554389
:108CC00004EB0502136130BC704730B40200D2B22D
:108CD000002A01D17F223CE00200D2B2012A01D158
:108CE000032236E00200D2B2022A01D13F2230E054
:108CF0000200D2B2032A01D11F222AE00200D2B21E
:108D0000042A01D1002224E00200D2B2052A01D1B6
:108D100000221EE00200D2B2062A01D1002218E091
:108D20000200D2B2072A01D1002212E00200D2B220
:108D3000082A01D100220CE00200D2B2092A01D196
:108D4000002206E00200D2B20A2A01D1002200E08D
:108D50000022CA4012F0010201238B40DFF85C4B75
:108D60000500EDB23022554304EB0502136130BC1F
:108D700070472DE9FC4105000E0017009846089C3D
:108D80002000C0B201904046C0B200903B00DBB270
:108D9000320031002800C0B2FFF78CF9BDE8F38142
:108DA000704701000022042A0CD2DFF8140B50F89F
:108DB000223093F821308B4202D150F8220002E099
:108DC000521CF0E70020704710B5040094F8310001
:108DD000022806D194F82110607FFFF7CCFEC0B2C4
:108DE00000E0002010BD7CB506003000C0B2FFF7E7
:108DF000D8FF0400002C2DD094F83100022829D18E
:108E00002000FFF7E1FF2076607E022822D194F84F
:108E10002E0000281ED100208DF800006946A068B1
:108E200000F098FF0500207E002803D094F82F0062
:108E3000002806D0002084F82F00A06800F04DFF25
:108E400008E0002D06D19DF80000002802D0A0689F
:108E500000F024FF73BD1CB5040094F83100022813
:108E600020D1607E002805D194F82210A07FFFF762
:108E7000D8FE3BE0607E012805D194F82210A07F47
:108E8000FFF723FF32E0207E002805D194F822105E
:108E9000A07FFFF7C6FE29E094F82210A07FFFF71D
:108EA00014FF23E094F8310001281FD1207E002810
:108EB0000ED111208DF80000200000F04CFD0122A1
:108EC0006946200000F0FEFC200000F09FFD0DE050
:108ED00013208DF80000200000F03DFD01226946BE
:108EE000200000F0EFFC200000F090FD002016BDF7
:108EF0002DE9F84F04000D001600FFF7BFFB070037
:108F0000A088E188884207D3002030603800FFF74E
:108F1000B9FBDFF8F00A26E020885FF01408A946C4
:108F20005FF0140A80B20AFB00F0204410F1080B35
:108F300042464946584601F07FF820880AFB00FA6D
:108F400004EB0A00083030602088401CE18890FB68
:108F5000F1F201FB12002080A088401CA0803800A4
:108F6000FFF790FB0020BDE8F28F70B504000D0004
:108F7000FFF784FB0600A088002807D100202860A6
:108F80003000FFF77FFBDFF8800A15E061881420CE
:108F9000414304EB0100083028606088401CE188F0
:108FA00090FBF1F201FB12006080A088401EA080BF
:108FB0003000FFF767FB002070BD70B504000D00A6
:108FC000FFF75CFB0600A088002807D1002028607E
:108FD0003000FFF757FBDFF8300A0AE06188142001
:108FE000414304EB0100083028603000FFF74AFBE2
:108FF000002070BD042102685161016889698907F8
:10900000FBD51021DFF8442A03795B01D15070476A
:109010001021DFF83C2A03795B01D1500821026856
:109020005161704701210268516101688969C9076E
:10903000FBD50421DFF8142A03795B01D150704776
:109040000421DFF80C2A03795B01D1500221026868
:1090500051617047F0B585B004000D000026012075
:1090600084F82C0094F83200002813D1206810F105
:10907000240704940FF271000390002002906868A6
:109080000190012000903B002A686169E06800F0CF
:10909000DDFD02E0002084F82C0005B0F0BDF0B545
:1090A00085B004000D000026012084F82D0094F8FE
:1090B0003200002813D1206810F13C0704940FF20D
:1090C0003510039000200290686801900120009004
:1090D0002B683A002169A06800F090FD02E00020B2
:1090E00084F82D0005B0F0BD2DE9F84304000D0013
:1090F000160037006946786AFFF75FFF8046DFF8A1
:109100000809804501D1012072E00098002801D0B3
:10911000012000E00020C0B297F83200002811D1F1
:109120003868806C80050DD5DFF8A40900990861C6
:109130000020009988604FF40070396842F24802BC
:1091400088501BE097F83200002811D13868806CF5
:10915000C0050DD5DFF8800900990861002000994D
:1091600088604FF48070396842F24802885005E008
:10917000002000990861002000998860FFF77EFABE
:1091800081460098C06800280ED000984368009877
:1091900080681B1A00980268009801693800DDF8A1
:1091A00000C0DCF80CC0E0476946786AFFF7DDFED6
:1091B000786A8088002808D06946786AFFF7FDFE43
:1091C00000993800FFF746FF0EE00120387638009E
:1091D000FFF741FE002087F82C0097F831000328A4
:1091E00002D03800FFF72CFF4846FFF74BFA01206A
:1091F000BDE8F2832DE9F84304000D0016003700A6
:109200006946B86AFFF7D9FE8046DFF8C80880458E
:1092100001D1012036E00098002801D0012000E0B3
:109220000020C0B2002000990861002000998860E9
:10923000FFF724FA81460098C06800280AD00098F9
:1092400043680098026800213800DDF800C0DCF8AF
:109250000CC0E0476946B86AFFF787FEB86A8088A5
:10926000002808D06946B86AFFF7A7FE00993800C1
:10927000FFF715FF02E0002087F82D004846FFF7B2
:1092800001FA0120BDE8F2830300002B02D1DFF8D0
:109290004C080BE0002905D0002A03D040F601005D
:1092A000824202D3DFF8380800E000207047020055
:1092B000087AD076887AD077487A1077C87A82F898
:1092C0002000487D5077887D82F82100C87D907706
:1092D000087E82F822000020704738B504000D0097
:1092E0002800C0B200283BD001230422E17FE07EA9
:1092F000FEF774FF0123022294F82010207FFEF76E
:109300006DFF94F83100022817D10023012294F850
:109310002110607FFEF762FF0023042294F82210E0
:10932000A07FFEF75BFF012000900123012294F84B
:109330002110607FFFF71DFD4DE094F831000328F8
:1093400049D10023012294F82110607FFEF746FFE7
:109350000023042294F82210A07FFEF73FFF3AE09A
:1093600000230022E17FE07EFEF738FF0023002289
:1093700094F82010207FFEF731FF94F83100022886
:1093800017D10023002294F82110607FFEF726FFFA
:109390000023002294F82210A07FFEF71FFF002078
:1093A00000900123012294F82110607FFFF7E1FC77
:1093B00011E094F8310003280DD10023002294F825
:1093C0002110607FFEF70AFF0023002294F822108C
:1093D000A07FFEF703FF002032BD10B40100DFF8CC
:1093E0000427107800280CD100200300042B06D29B
:1093F0000020DFF8CC4444F823005B1CF6E7012092
:10940000107000220024042C10D2DFF8B43453F87A
:109410002400002803D053F82400884204D143F8E4
:1094200024100120020001E0641CECE71000C0B22F
:10943000002802D1DFF8A40600E0002010BC70472D
:1094400010B441620023446A23800023446A63808D
:109450000023446AA380002380F82C30826200231A
:10946000846A23800023846A63800023846AA38043
:10947000002380F82D30002380F82F3010BC704777
:1094800010B50400DFF8601694F8210000F04BFEE0
:1094900000F03BFE0020A0760020207602206076BF
:1094A0002000FFF7D8FC10BD10B5040000F078FBD9
:1094B000002114F1080000F041FB002802D0DFF881
:1094C0002C060AE0002114F10C0000F037FB002804
:1094D00002D0DFF8180600E0002010BD2DE9F841A9
:1094E00087B004000D006846DFF804161C2200F067
:1094F000B3FD002C02D1DFF8E405E6E0002D02D137
:10950000DFF8DC05E1E034275FF000082600424682
:109510003900300000F056FE2000FFF75EFF060025
:10952000002E01D03000D0E0287D84F8310028687A
:109530002060002084F83200287B20712868DFF842
:10954000B415884209D1202084F82300DFF8A8054B
:1095500020615FF48020606120E02868DFF89C15BE
:10956000884209D1212084F82300DFF89405206186
:109570005FF4A020606111E02868DFF88815884258
:1095800009D1222084F82300DFF87C0520615FF4F4
:10959000C020606102E0DFF8480596E02A6AE969C8
:1095A0002000FFF74DFF68680290E889ADF81000D1
:1095B000288AADF80E00A87C8DF80C00E87C8DF8A8
:1095C000120005208DF80D0001211420FFF7E8FBA3
:1095D000012194F82300FFF7E3FB00208DF8000041
:1095E00069462868FFF7D6F9DFF8200514212A7BA1
:1095F00052018150297B490101442A7AAB7A52EA0F
:1096000003428A61297B49010844697AEA7A51EA6E
:109610000241016129002000FFF749FE8046002831
:1096200001D0404651E001212000FFF756FE07001F
:10963000002801D0380048E0FFF720F88046287D58
:1096400003281BD1DFF8040402212A7B5201815038
:1096500004212A6841F25C03D150297B490101446D
:10966000EA7D2B7E52EA0342CA60297B4901084405
:10967000697DAA7D51EA0241816005E0287D0228CA
:1096800002D12000FFF7FCFE5FF0FF312868FFF7F2
:1096900069FA287D032804D105212868FFF751F9CC
:1096A00003E004212868FFF74CF94FF44060296873
:1096B00048612000FFF7F8FE06004046FEF7E2FF93
:1096C000002E01D0300000E0002008B0BDE8F0819D
:1096D00000C00340FEB504000D00002C02D1DFF8ED
:1096E000FC03AEE0FEF7CAFF06002800C0B2012866
:1096F00009D1A06A8088002805D13000FEF7C2FF9A
:10970000DFF80C049DE02800C0B2022809D1606A8D
:109710008088002805D13000FEF7B4FFDFF8F003A1
:109720008FE02800C0B203280DD1A06A80880028ED
:1097300009D1606A8088002805D13000FEF7A2FFB9
:10974000DFF8CC037DE02800C0B2012803D0280058
:10975000C0B2032833D1A06800F0DEFA002084F8FC
:109760002D00A06A8088002824D06946A06AFFF7EF
:1097700024FC009810F10801A06800F013FBDFF84A
:10978000947300980761A06A8088002812D0694607
:10979000A06AFFF7EAFB0098C0680028F3D00098A1
:1097A0008368002239002000DDF800C0DCF80CC01E
:1097B000E047E8E7200000F047F88004FAD52800E9
:1097C000C0B2022803D02800C0B2032835D1E06817
:1097D00000F0A2FA002084F82C00606A808800283B
:1097E00024D001A9606AFFF7E8FB019810F1080195
:1097F000E06800F0D7FADFF81C7301980761606A2F
:109800008088002812D001A9606AFFF7AEFB01989A
:10981000C0680028F3D00198836800223900200036
:10982000DDF804C0DCF80CC0E047E8E794F831004C
:10983000032802D02000FFF703FC3000FEF722FFD0
:109840000020FEBD00E0034001000022086880699E
:1098500070472DE9FC4105000E00170098460020D6
:109860000090002400200190686A8088002808D0B9
:109870006946686AFFF7A1FB040001A9E86800F0E7
:1098800091FA009800280DD0002C0BD10098416867
:109890000198091A39600198C8F80000009800681A
:1098A000306006E00020C8F800000020386000208A
:1098B00030602800FFF7C8FFBDE8F68100D0034004
:1098C000803801202DE9F84306000F0090464246FB
:1098D00039003000FFF7D8FC0500002D01D028002A
:1098E00037E01520FEF76CFA8146B06A80880028C0
:1098F0000AD096F82E00002806D14846C0B20028AB
:10990000F3D000F06CFAF0E73068846914F00204D8
:10991000002C02D13000FFF76DFB012086F83000EB
:1099200096F8320000280ED14046B0F10108002818
:1099300005D039783068FFF70DF97F1CF4E73068FF
:1099400080698006FBD5002C02D13000FFF760FB58
:109950000020BDE8F28310B50400002C01D15F485F
:1099600011E094F82E00002807D12000FFF72CFA10
:10997000002802D1A06800F091F994F82E00401C54
:1099800084F82E00002010BD2DE9F84386B00600B3
:109990000F0090469946424639003000FFF774FCAC
:1099A0000400002C01D0200027E00197CDF80880AA
:1099B000CDF80C80CDF81090584805906A4601A962
:1099C000706AFFF795FA0500002D01D0280014E019
:1099D00096F82C0000280FD13000FFF723FB0099E8
:1099E0003000FFF737FB96F83100032804D0002041
:1099F00030763000FFF72FFA002007B0BDE8F08383
:109A0000000000000A7000F00B7000F010B50400B8
:109A1000002C01D1314817E094F82E00002812D014
:109A200094F82E00012807D12000FFF7CDF9002877
:109A300002D1A06800F051F994F82E00401E84F87D
:109A40002E00002000E0344810BD0000ACD50340DB
:109A5000ACE503402DE9F84386B006000F009046C0
:109A60009946424639003000FFF70EFC0400002CF6
:109A700001D0200028E00197CDF80880CDF80C80B7
:109A8000CDF81090254805906A4601A9B06AFFF705
:109A90002FFA0500002D01D0280015E096F82D00C2
:109AA000002810D1FEF7EAFD0400B06A8088002883
:109AB00006D000993000FFF7F2FA012086F8300056
:109AC0002000FEF7DFFD002007B0BDE8F0830000B6
:109AD0000D7000F00B7000F00C7000F0027000F0E0
