:10400000000800208BC602001F1A0100E72A0100E9
:10401000EB2C0100FF3701001746010000000000F3
:10402000000000000000000000000000D347010075
:104030003B540100B71701003B870100AF9301001B
:10404000CB9A0100479D0100B39F010057A70100D3
:10405000B3A80100D3BA01005BC0010033C4010062
:1040600033C80100E7C801005FDA01003DB200007B
:10407000D9B20000EFF10100EFF20100A30202004B
:10408000C702020023130200431302006B14020054
:104090009F170200EF9C0000BF1702007F1802006C
:1040A00037330200B9A000009DA00000EF600200BD
:1040B000AB6D02002B940200779A02008F7F020002
:1040C000477F0200457F0200A57A02008D7F020033
:1040D000497F02004D7F02004B7F020041BB02007E
:1040E000BF7F0200039E0200A3B60200ABB902002C
:1040F0001BBB020083C50200FBC502001FC60200F5
:10410000A3C60200A5C60200A7C60200A9C60200F7
:10411000ABC60200ADC60200AFC60200B1C60200C7
:10412000B3C60200B5C60200B7C60200B9C6020097
:10413000BBC6020013B779FAC925DDB7ADF3CFE0EE
:10414000F1B614B8010100000000000000000000FA
:10415000200000000100000000000000000000003E
:10416000000000000000000000000000000000004F
:10417000000000000028012803280018002A012A56
:104180000118052A2A2B292B022900000A030A00FC
:10419000B42A01200A0201007872012002011000F5
:1041A000283E012020000400383E012000000108C4
:1041B000FFFF000086C6020002000108FFFF0000AA
:1041C0007EC6020007000008FFFF0001A4410000B6
:1041D0000A000708FFFF00030200000002000108B8
:1041E000FFFF000076C6020008000108FFFF000183
:1041F0009C41000002000108FFFF00006EC60200A3
:1042000009000308FFFF00019441000000000108BD
:10421000FFFF00006AC6020002000108FFFF000065
:1042200062C6020004000308FFFF00018C41000089
:1042300002000108FFFF00005AC602000500010845
:10424000FFFF000056C602000300060008000B0036
:10425000AC4100000D0000000B00000074410000A4
:104260000000000010C802000400000048420000E6
:1042700011C802000000000012C802000000000087
:10428000FFFFFFFF050000000000000000C201006A
:104290000005000000100000000000000000000009
:1042A00047A4000055A400005DA4000087A40000FE
:1042B000EBA4000089A40000A7A400002C000000CB
:1042C00000001030000000000000000000000000AE
:1042D00000001003000000000000000000000000CB
:1042E0001E00000301000000050000000B0B02008F
:1042F00000202000038C8C3C000000000000000027
:104300000000000000000000080200003C3E012008
:1043100098216400000000000000000050420000EE
:10432000000000000000000001000000000000008C
:10433000000000000000000000000000000000007D
:104340000101000002000000006A180000020400E1
:1043500000000002050000002FF000000000000037
:1043600035F00000000100003FF0000000020000F6
:1043700063F00000000300000000000000000000E7
:104380007B0001000D0100009B0001000D020000F8
:10439000C90001000D0300002D0101000D04000003
:1043A000000000000000000081FA00000900000089
:1043B0009FFA000009010000B5FA000009020000A0
:1043C000F1FA0000090300000BFB000009040000E3
:1043D0000DFC00000905000041FC0000090600007A
:1043E00037FB00000907000071FB0000090800000E
:1043F000B3FB000009090000C7FB0000090A000028
:10440000DDFB0000090B0000F7FB0000090C0000B9
:10441000DFFD0000090D000055FC0000090E000042
:1044200069FC0000090F0000D7FA00000910000025
:104430009BFB00000911000055FB00000912000061
:104440000BFE000009130000000000000000000047
:104450007DFC00000A000000ABFC00000A01000027
:1044600059FD00000A02000073FD00000A0300006D
:1044700097FD00000A040000ADFD00000A050000E1
:1044800001FD00000A060000F3FD00000A0800001C
:1044900023FD00000A09000059FE00000A0A00007E
:1044A0000000000000000000F9FF00000C00000008
:1044B000370001000C0B00000F0001000C0C000085
:1044C00000000000000000002FF9000008000000BC
:1044D000AFF9000008010000BFF900000802000069
:1044E000E5F900000803000021FA000008040000BC
:1044F0005DF900000805000031FA0000080700001F
:104500000000000000000000CDF4000003000000E7
:104510003BF300000301000049F500000302000026
:104520005FF500000303000071F5000003040000C4
:10453000E9F5000003050000C3F5000003060000D4
:10454000D7F3000003070000A1F4000003080000F7
:1045500047F600000309000067F30000030A0000AB
:10456000A5F50000030B000003F40000030C00009D
:1045700057F60000030D000067F60000030E000070
:1045800093F60000030F0000A3F6000003100000E4
:10459000BDF6000003110000CDF60000031200007C
:1045A0000FF70000031300006BF700000314000076
:1045B00081F700000315000091F7000003160000CA
:1045C000AFF7000003170000BFF70000031800005A
:1045D000CFF7000003190000EFF40000031A0000F9
:1045E0003BF70000031B0000E1F70000031C000084
:1045F0002BF80000031D00004BF80000031F000013
:1046000019F400000320000085F8000003210000D9
:104610000DF6000003220000000000000000000072
:10462000730701000F000000E10701000F01000007
:10463000870801000F020000630701000F0400005B
:10464000930701000F060000AD0701000F070000EF
:10465000F90701000F0800001D0801000F09000004
:104660002D0801000F0A00004D0701000F0B00008C
:10467000A90801000F0E0000B90801000F0F00008B
:104680000D0801000F100000510801000F1100007B
:104690003F0801000F120000CB0801000F130000BB
:1046A000BF0701000F140000000000000000000020
:1046B00033F20000010000003DF2000001010000A3
:1046C00007F100000103000073F100000104000085
:1046D00021F20000010A0000C9F10000010B0000F6
:1046E0000DF20000010C0000A5F10000010D00001A
:1046F00073F20000010E00009FF20000010F0000A5
:104700004BC801000112000083F1000001130000FA
:104710008BC8010001140000000000000000000030
:10472000B50201000E000000F50301000E010000BB
:10473000530401000E020000D90401000E0700001E
:10474000E10501000E0C0000000000000000000068
:104750000100030006000D00110014001B002200E0
:104760002900370045008A00CF0059016E02000081
:10477000000000000000000000010900000110001E
:104780000000000000000000F4010000FA0000003A
:1047900096000000640000004B00000032000000A2
:1047A0001E00000014000000000000003C00940007
:1047B0003C0096000000000000000500030002001D
:1047C00001000000000000000028000000000000C0
:1047D00002000000000000000028000000000000AF
:1047E000100000001920010069200100752001005F
:1047F00001020300000101020102020300010204A0
:104800000F0E0C080C080D18100000001315108076
:104810001A801280800000000000000000000000EC
:104820000028000000000000000000000000000060
:104830000100000000000000000000000100000076
:104840001000002000000000010000001000002007
:10485000030300040000000000000000000000004E
:104860000000000000000000000000000000000048
:104870000000000001000000000000000000000037
:1048800001000000100000200000000001000000F6
:1048900010000020000000000100000000000000E7
:1048A0000000000001000000000000005000400077
:1048B00008005000240004009001500240009001C4
:1048C000AE01100050C300001C250000C409000008
:1048D00050C3000076160000C4090000F5DA02009B
:1048E00070170000B80B0000E5BF00007017000053
:1048F000B80B0000000004040000000000000000ED
:1049000000000000000000000000000000000000A7
:104910000000000000000000010000000000000096
:104920000000000001000000000000000000000086
:1049300001000000100000206C888391AAF5A538C2
:1049400060370BDB5A6083BE3F49F6D4A3C55F389E
:1049500074C9B3E3D2103F504AFF607BEB40B79974
:104960005899B8A6CD3C1ABDE69D350E480103CC3A
:10497000DBFDF4AC1191F4EFB9A5F9E9A7832C5E46
:104980002CBE97F2D203B0208BD28915D08E1C7426
:104990002430ED8FC24563765C15525ABF9A32635C
:1049A0006DEB2A65499C80DCBF01FB9D4EF3BC3654
:1049B000D874F5394138684C00000100010000014D
:1049C00000010202030002000000000002020100D8
:1049D00002000000000001000100050100050202C4
:1049E00003000200000000000205010005000000B5
:1049F00000000102020000000000000006060102A3
:104A0000031201000B0701160C000001080800004A
:104A1000050108FFFF02FFFF0808020204FF010072
:104A20000000000001000000100000002100000054
:104A30000000000001000000100000002100000044
:104A40000000000000000000040000001100000051
:104A5000000000000000000000000000110800003D
:104A60000000000000000000010000001000000035
:104A70002100000000000000000000001000000005
:104A80000100000000000000010000001000000014
:104A900021000000604A000000000000100000102B
:104AA00011280000000000000000000010000000BD
:104AB00011280000000000000000000004000000B9
:104AC00011000000000000000000000000000000D5
:104AD000110800000020000001200000000000007C
:104AE000DC4A0000010000000C000010210C000056
:104AF00000000000010000000F0000400000000066
:104B000000000000E04A0000040000000100000076
:104B1000DC4A00000000000000000000000000006F
:104B20000000000000000000200000004100000024
:104B3000000000000000000010000000110800004C
:104B40000000000000000000040000001100000050
:104B500000000000F04A000001000000000000001A
:104B600000000000010000000C00004000000000F8
:104B70000000000000000000040000000000000031
:104B800000000000000000002000004000000000C5
:104B9000C800FCFEB4008B087BC0FBFF4D00E402A4
:104BA000E756FFFF2C00A20183EBFFFF1A00030171
:104BB000B31A00001100A300552900000A005E008E
:104BC0005A28000006003A002122000004002800B4
:104BD0007A1C00006400FCFEFFFF000000000000E3
:104BE000FFFF0000000000005A00F306A554FEFF7E
:104BF0002100A301A1FEFFFF1100A60083270000F2
:104C00000A006100DC26000006003B00F8200000DE
:104C10000300F1FFDB0500000000FCFEFFFF0000C9
:104C200000000000FFFF000000000000FFFF000088
:104C300000000000FFFF0000000000004000180618
:104C4000F4D200002C00B0023DBE00001700F200BC
:104C50000C7C00000E006A00B3540000000801B490
:104C6000904B00000008015AD44B0000000801409E
:104C7000184C000054BA5592E40C000048709E0C89
:104C80004470220C30703C1002987E133870880CEF
:104C90003470A00C30705C0D2C705C0D2870E80E28
:104CA00024700C0F2070960C1C70780F1870F20F87
:104CB00014708E0CB110086001D80A7104B87F78A6
:104CC000020C7E78641000C69C1F00A01DB870788E
:104CD00003B018600F3027B30F330111C048069896
:104CE000360211101660A048086004100112FF324D
:104CF00021500860D048086000880698D61000C48B
:104D0000301F00A000BA03DF227100DF06722814F2
:104D1000311929B080BB1F6330380A7109DD067173
:104D20000298B2021DB8507800A04413281441150F
:104D30008110086002D8147110880698F01400C021
:104D400014C000A806982E16009106984C02016027
:104D5000B83020D806711EBC637C00C4E04000441B
:104D60004412086201322140087CF8255412F032C6
:104D700040DE0472404804DB08720DDD0C72044B07
:104D8000EF3014480698F403811140D91C72B11217
:104D90003032CF4A013AB1DA107208D8067104D81D
:104DA00008718024237C3070A8244412FF328722AB
:104DB000047580B8D82481D8227140D90472237C2C
:104DC000084B0698F40304BA06B906A901D8307254
:104DD00064241C24307C02981E0208D80C7107BA87
:104DE00024D8047106BA187004D80C7101BA40D8DE
:104DF0000E7102BA0A7005BA20D8047203BA08D834
:104E0000427100C1544000A8141110D936710A0C27
:104E1000F8A8D824441080B9A069FF2108244410C0
:104E2000FC2011380814102400C00CC101A8041083
:104E30000814086008140860081408600814F8B022
:104E40001024E0244411402418140861181491110E
:104E50003831114200C1084001A8141110311E61FF
:104E600011422814081406981416181400C108409A
:104E700001A814111861FF31181400C11C4000A8CA
:104E8000141118140861008800C0284001A80410FB
:104E9000FF300471104900901814308802480698B9
:104EA000F602009308DB047101F800A027B00F3070
:104EB00000A01088B111186180D90A7100C1884022
:104EC00000A80811009100A000C4704000A8441080
:104ED00000A000C08840004004118261041082607C
:104EE0001050F07200A001F8541000DC127101148F
:104EF0000698A20307B8707802B8417800F800C29B
:104F000020C001A824120698FA148111086102D960
:104F10000472FF0FF270EBBA00C0301F00A0041142
:104F2000113A10D9067107B97479281000A009BA8E
:104F300006984C0200C4684000A8911521382671DB
:104F40001CBB0435127208D804716C7B04D8047140
:104F50006A7B2F7C107008D804716F7B04D80471B1
:104F60006D7B217C04DA0A720698BC0904BAC2700F
:104F700000B8B111186140D906720298880300BCCC
:104F800008D90471202400C1281F00A0141200DCDD
:104F9000347120D8067101B80C70F0DA0C720CDB99
:104FA000087102B806989603482400C3384101A846
:104FB0003413086380DB0E7102B9911308DB0472AD
:104FC00003B906700421141100C3884000A8FFB87B
:104FD000012011410871014118130824014200C148
:104FE000408001A81411014100C0084001A804102C
:104FF00010301E600141911020301E6001411813D5
:10500000281348131DB8507800B800C1281F00A00D
:1050100014121C602150F0300152281100A04024CD
:10502000076400C0FFFF0100013C17B002200158D7
:105030004028067518AC01EC00A000C220C001A8F1
:10504000241117B4111324113051F871196440243C
:1050500004100158112800C36C1F00A034110698D9
:10506000E00B00B88020013A0762215A412A00A0D3
:1050700000C2704000A8317A00A0308880B9186161
:1050800000C30000C0FF3110312800BC002D0C759A
:10509000115418AC01EC312DF4701964512C4115E8
:1050A000009300A00698F80500C0DC1F00A000C116
:1050B000548001A804100811217A237A21B8747849
:1050C00009B819604CA800C0296E06004FA824B882
:1050D0006E78FFB004D808714CB802986404ACB87C
:1050E00023A80698740400C0D33F000050A800A075
:1050F0000698FE0300C0441F00A017B1181000C09E
:10510000D83F000050A849BC49B105DD0871627C58
:10511000607C1E0C21B952B86179677864786B782D
:105120006278617C00C22C8001A865786378010CEC
:105130006878020C69786C786078020C277A287A93
:10514000267A6A78050C41790A0C28222B7A327A61
:10515000B822247A00C400011100402200C010844B
:1051600000000812508800C584100100FBAD10BD7E
:1051700001BB8A6B21B9FAA93C221812217A227A42
:1051800000C0241F00A00410FCA88264411030302D
:105190000129F9A9F8ADFBB08260FBA80330A06536
:1051A0002110042020EC237A0410037A0822241111
:1051B000BC2201580029241004753150F8B1115057
:1051C00081632A71514031400812FCB18461FCA90D
:1051D0000F310E7117B0112817B111591028FA7636
:1051E0003C22F9B11812217A227AA0700095081297
:1051F000C022207A7C2200B80812020CA422087A6D
:10520000020C21B8417828220B7A127A00C2CC1FF6
:1052100000A0FFB008D804720822241000DC0A7134
:1052200040A80422241041A80698560200C2341F48
:1052300000A024100151FF311150081200A006985F
:10524000CA0549AC00A00698F80500BC217A52B8FE
:105250004978020C4878020C49B8417852AC21AC2C
:105260002022087A067A077A00C04C1F00A017B1E6
:10527000181000A059B84078427857B84078427862
:1052800000C20C8001A800A000C20C8001A8217AF5
:10529000227A21B8547807B815604CA852B86178C2
:1052A00000C0294006004FA84822C8B8081224B8F8
:1052B0004E784CB823A80698740400C0C43F000080
:1052C00050A800C08009004040A809B8FFB108D923
:1052D000047103B853A8B11004D80C7156BB607B9D
:1052E00057BA627A607A02D80C7156BB607B59BAA1
:1052F000627A607A04B86E783DB8607800C056383B
:10530000000000C124C000A814119F79047208484D
:105310004CA82EB8FFB108D906714AA804704BA852
:105320000FB834A800C00C5E000046B2014246AA85
:1053300000C12C4001A8141108610631087100B9A0
:1053400006987A0E0698DC100698880A0698D610F9
:1053500000C0581F00A017B1181051140698A203DE
:1053600000C0541F00A017B118100298520E00B8C8
:105370004CA84AA84BA800C00CDE000000C11821B0
:1053800002A8081104B86F7800A000C0481F00A050
:1053900017B118107DBC1964415C512C00C05C1F12
:1053A00000A00410012C06750698A2030698B40C00
:1053B000B110186024D8367101BA07620698B2108D
:1053C0001DBC7F7C04B86578911004D816711CB898
:1053D0006E7800C0684000A821780698A20E0140AF
:1053E0000872427C0698E810029866091DB8717828
:1053F00004B86C7841B8427863784478FFB104D936
:1054000006720298200800C0C43F000050A800C3E4
:105410001C1F00A000C274C000A82414481300BCC4
:1054200048120423F4222414481300BC48124ABA38
:10543000447A427A4BBA447A427A617A4CBA647AB4
:10544000657A3DBA607A4DB942B83FBB5B796679FF
:105450006179020C6479050C63796079050C6279D5
:1054600065795A7900C2340102A8241305B819607D
:105470003140081242B86A78020C4A78020C40BCEB
:10548000FFB208DA06714ABA06704BBA627A657AD8
:10549000677A667A6A79667B0298F00800C31C1FF7
:1054A00000A000C274C000A8241448130423F422EE
:1054B000241448133FBC48120C2200BC48124ABABC
:1054C000647A627A4BBA647A627A617A4CBA647AA4
:1054D000657A3DBA607A00C3C41F00A0341301D9B5
:1054E0004E71647800C1708001A800C0800008007F
:1054F00008110698780942B861784DB97F797E79AC
:105500006A7868786278020C7B790F0C7A79140CCF
:105510007479417860787579050CFFB208DA067104
:105520004AB804704BB8657801BC1664407002D963
:105530003C710698780942B84DB96878407841784E
:105540007F797E797B790F0C7A79140CFFB208DAB7
:10555000087171794ABA067070794BBA7279657AB6
:105560006A78020C4A78050C01BC1664020C417979
:1055700040790C0C00C04C0102A848100698F403B6
:10558000511400C05C1F00A00410012C17B00111C1
:105590008768015841280E7605218769415C412DB5
:1055A000112D06700698A20300C0581F00A017B165
:1055B00018100698AC0951140698A203020C42B8C0
:1055C0004478FFB101D90C7100C1548001A8CBB857
:1055D000081100C0501F00A017B11810911004D876
:1055E000127100C0A81E00A0041080D8067107B870
:1055F000537800F8B11094782E7106985602E4B9E9
:1056000011591128067600B80C70A0B9115901295A
:105610000475A0B88260012B341000C1080102A8F3
:1056200014122140081100A042B84DBB7C7B647865
:10563000020C29B8687800A01DB09178EA7142B8D0
:105640006478020C00BA29AA00C4548001A842B8A8
:105650004DB900C3C04001A83413977B047240ECDD
:10566000020C44785C7953AA0A0C281442B84DB94C
:10567000FFB301DB26711C2400C3FF0FFF013814A8
:105680005479407841785579020C5B795A79140C39
:105690005F795E794A784278347002DB147152790E
:1056A00051795079020C5B795A795F795E791E7075
:1056B00004DB1A7100C4FF07000000C3342102A8F4
:1056C00048133FBB467B020C5B795A793DBB407B5C
:1056D0004CBB447B457B00C3201F00A03414403CDE
:1056E000167100C068C000A848102813FC230C20C5
:1056F0003414481028134AAA4BAA04B86D781DB870
:10570000517800A0B11001D8047200A000C074C08C
:1057100000A80411108800B91810A82004111088DE
:1057200001B90B611810142004111088008800C101
:10573000231C000018104AB864784BB86478260C13
:1057400028B000C1FFFF0FF0113871B90B61114093
:1057500028A828B97379747900C21010303045AA8E
:1057600054790E0C00C0E84001A8041100C230308A
:10577000101045AA0E0C0410008810880698540BCF
:105780000091009020888F618F600698540B0090E4
:10579000886A21400112906A035800C13F3F00000F
:1057A000113800C40101000041281138014245AA06
:1057B00028B953794AB844784BB84478009000919E
:1057C00018100091EC20181000915820181000A01B
:1057D0009168436091694361115B012B112841601D
:1057E0003128315B00BA302806763128204A4163DF
:1057F000302806763128104A416330280676312851
:10580000084A4163302806763128044A416330282B
:1058100006763128024A416330280476014A00A006
:10582000115910D906710860086008D90471086020
:1058300004D90471046002D90471026001D90471B1
:10584000016000A01088041102300671086108612F
:1058500000C0FFFF00001138009100A000C2FFFF50
:1058600000002138213900BA01D806710148112AF7
:105870001F61016001D8F6720138F67200A000C203
:1058800020C001A8241211592129127300210E7180
:1058900000C238C001A824120121212900A002B0B1
:1058A00020D8147100C0B01E00A0041002B94579C0
:1058B00006983410EA7003B09F78087200B806A802
:1058C00000F800C5781F00A05088FC251CBC00C053
:1058D000B41E00A0811101D91E71407C00950115F4
:1058E000042550880425FFBB1863315B041106981A
:1058F000020C3129F87506988015541506980C0687
:10590000009500F80698F2060E700698BC090698F5
:10591000F2060698520F0698C20500F810B902BAAE
:105920000698A8100698520E00C5781F00A000F82F
:10593000911120311D6106987A0E911104D90C72D3
:1059400000C13C1F00A00698740E03321CB900C3AE
:10595000A81E00A0341300C4B040004403DE3E7211
:105960007179A11020D80A7106980C060298680D6A
:1059700080DB1C7102D8187205B80814A110103011
:105980000248081400B808149110086008141DB8E3
:105990006278A11040D80671517900BA00C0204049
:1059A00000A80533054B1A72082403DE0671802413
:1059B000F024441400C3FF1F0000413BFF233810B4
:1059C00018627F2015200698500D04200878097869
:1059D00004112141181000A000BD0698300210B932
:1059E00003DC047100B902BA0698A81004D9067144
:1059F00000406E7203B118610F31811008D8147124
:105A000006DD0A710698300203DC08720698E81079
:105A100026700698A20EFFD8127206DD22711CB8FD
:105A20004778457802B844786670911010D80871AC
:105A300002BB0698C41020B804A806DD227206989E
:105A4000F2060698C2051CB8767800C0204001A86E
:105A500035787F206120007801F840B804A800F86C
:105A600000C0A81E00A00413086301DB227191107E
:105A70001DB910D80E710860FFD8087244790298D9
:105A8000680D02DBFA72A11328DBF47203BD0698DD
:105A9000460E0698F20600C57C1F00A0069830024C
:105AA00000BA03DC0E72042500C00CC101A80698E0
:105AB000BE035415212D0698CA050698280402989D
:105AC0000E079110015503355150011900A000C176
:105AD000381F00A0141101D9447111100148086049
:105AE000FE201475811020D80E7100C13C1F00A04B
:105AF000141101D9287100C02C4001A804122151B1
:105B000008610F3118611152281000C0084001A827
:105B100004119112215120311152211900A0811339
:105B200080DB067201B800A000C314C001A83410C5
:105B30000630307264233412EC23341018600230C3
:105B40002272811080D8DE713410014A086204602C
:105B5000803021508C480C7100C330C101A8341032
:105B6000013000A00698F20600BD0698460E1CB84B
:105B70004778457802B8447800C5841F00A05415C2
:105B80000698280402980E0700C4981F00A0441429
:105B900017B3315B302C20750698A20300C0684013
:105BA00000A804101E6001D80E7100C0684000A853
:105BB000237804B865780698A20EFFD8067204B858
:105BC000607800C2000002020698B21000F800B926
:105BD00000C2A440004418121C220AB918121CBAB0
:105BE000911104310472487A507A517A1DB9427980
:105BF0005F7900A00698300207DC10729110002037
:105C00000A750698520F0298AC0C0698C20501B9A5
:105C1000911004D8047100B901BA0F620698A81057
:105C20000040207100C0A81E00A00411086101D925
:105C3000127104D9E2728110086001D8DA721DB8BD
:105C400064780698520F00C5881F00A0541500C044
:105C50001CC101A80698BE0380B81860002A04750C
:105C6000212D06980C0600C58C1F00A000F881119C
:105C700008D90C710698E81020B804A800F8069816
:105C8000520F00BD0698460E1CB84778457802B8FA
:105C9000447800C5901F00A0541502980E07041107
:105CA000012114711CBA737A0420041228110420F3
:105CB00004110121F47200A00698F40301F8911078
:105CC00010D8287100C51CC101A854110698020CF7
:105CD00000C5C41E00A054155129EA7507B876788E
:105CE0001DB8447801B804A800F8B110186010D8A5
:105CF000307100C05040004400C3084000A8311477
:105D00006024282444113411086101D9FA71441225
:105D10002810086228100862281008622810E8700D
:105D200002986A0206984C0211380472186202BB8B
:105D300000C1C81E00A0141120390672417B00A0CA
:105D40000698DC1000C2A81E00A0241220DA0472FB
:105D5000617B1CBA527A00A01CBA727A811204DAF2
:105D6000FC7200A01CB86B7800C0684000A82F78B7
:105D700000A010631EB9637900B902EC00CD114593
:105D800002EC00CC01DB067102989C1403B84111AF
:105D90000731FA211C760621911210DA087102DD12
:105DA00010721E7020B80698A40B3038147208B810
:105DB00006988E0300C02C4000A82978207800F8AF
:105DC000056020D806710298621202EC00CA05B87C
:105DD00023DA187104DBDA7120DAD67110DAD272A4
:105DE0001EB8617800B801DA067202EC00C89111A1
:105DF00010D9227100C1B81E00A014111150FF303B
:105E00000C720761A110115002300A7180DB06721A
:105E10000AB89E7018609111173111402111C031DC
:105E2000114001191EB8411120D904726578A110E2
:105E300002D80672C0DA20711EB8273123DD0A723B
:105E40006078411108D90E7225DD0A7121DD0872D2
:105E500008DB0471627803B8411107310872A1159B
:105E60002035B07102DD2072A11120D9A67102D9AE
:105E70001672CCDA9E72411140D9987206B8054D5F
:105E8000927202989C1421114049C0D94C71A031E2
:105E900041154035026551410461086308DA1E72FC
:105EA00004DA36721049A1150235067110DB0E7244
:105EB00001340A7108DB22711EB86778CC321110E8
:105EC0001A300ADC0872CCDE0471FD3100C00D0FFF
:105ED0000C0D216001D85C7207B80298341100BA29
:105EE000411108D90C7102EC00CA05B830DAEC7225
:105EF0000734F031036101DA0471014900C0F30095
:105F0000A3E3216001D8D27100C0981440682160D9
:105F10004030014440DA0471204C04320262204ACD
:105F2000111006301F60014218311D6111420298A4
:105F30005211204A00C0051708500698A60B1130D0
:105F4000014220880DDA527100C1DE1B250180BCA0
:105F500004DA107208DA0A7200C120841000E0240A
:105F6000A024FFBB08634143026401DA06711E49A5
:105F7000024B00C0101F00A008633810BC2002DADA
:105F8000127100B9FF21A11380DB087100C100FC70
:105F9000FF011810029828141EBC437C00C4A81EE0
:105FA00000A0441380DB5071EFBA06989C02009267
:105FB0000462DDDA8E72A11105D93C7100C2404045
:105FC000004424120C242814106310DB267201D91B
:105FD000227102EC00C804D9167104BA1830087195
:105FE0000160FD20012A02EC00C8FF22FA7604DCE1
:105FF000067207B8737802989C14641000C69C1F40
:1060000000A0C3B80698360200C4301F00A014BA1E
:10601000281400B8011A91101730011900C20202A9
:1060200000000698B21004D9067101B804A800C097
:10603000A81E00A0041380DB06710298F61001DB95
:106040005E7100C2141F00A024111114FF3402EC71
:1060500000C8FF24FA7608610698B40B0461113871
:106060000F3004611114011141100698B40B01D8CE
:10607000087203B802983411042202DB167124104E
:10608000112811280698C80B00C2204000A8FF2044
:106090000812411008600698B40B01D87C7120BC2E
:1060A00010DB767100BB00C1101F00A01415C021C9
:1060B000112C511218620F320E714088511406983B
:1060C000BC1441430094511208651C620F320E71DA
:1060D000411151140698BC141C6441430865513B9E
:1060E00000C1CC1E00A01411111231100F3012711A
:1060F00000BA056101D80471114201600FD8F47231
:10610000311003601E30047201B8003A087204B8FE
:106110000298341102981C1300C0204201A80411F7
:10612000086130D906721DBA637A06988E0E0698F9
:106130009A0202B8477800F830885088FF34087116
:1061400002ECFF24F87002EC00CD141001BB51509A
:10615000FFD80471314408601F6310DBF271042121
:10616000FF22E4720F4C0095009300A000C1AC1E0A
:1061700000A0141100A030880698EC158111086168
:1061800002D9067202987C1508611CBB557B20D988
:1061900052720698F01408211415F025541300DFEC
:1061A0005871211120880698020C0092042554157C
:1061B0005129467500C1084001A8141102DB0C7179
:1061C0000731315B312932760C7004DF08720161CE
:1061D00080D926720698F01400C010C000A8069856
:1061E0002E160698F0141411FFD9067207B97579A6
:1061F0001CB9747904B96779009300A08110A0D804
:1062000008711CB949796070086002D85A71069803
:10621000F0141110008808208112106210DA0A713F
:106220000415F8251CBA547A04200698221000910F
:10623000108808211410069822100094441111129D
:106240000861FF31FF3201221052107218611814D8
:1062500004244413042438140E70186121411814C6
:1062600014200824081400A01CB900C3A81E00A014
:106270003413086308DB18718113A0DB06714979B8
:106280000E706979086302DB067204B9677900A0B1
:106290008111086102D910711CB975790698F01442
:1062A0001411FF3100A0FFB900A00410082114113F
:1062B000FC21081100A000008F050000193F010615
:1062C000041001000001010600102700000C00006E
:1062D000000000000000000004000000000040007A
:1062E00000000000BC620000C44800000000000084
:1062F000082F86000048E80140420F00010100001D
:10630000114950020400000000008000000000005D
:10631000BC620000D048000000000000004786007A
:106320000048E80180841E0001010000114950026C
:10633000040000000000800000000000BC620000BB
:10634000E848000000000000802596000048E801B1
:1063500040420F00010200001149500204000000F9
:106360000000800000000000BC620000DC4800006B
:1063700000000000802596000048E80140420F0020
:1063800001080000114950020C4002000181010087
:106390000041000018400100000000002040020001
:1063A0000000000001000000304003000000000079
:1063B0000000000000000000A840010007000000ED
:1063C000C0400100FF4D000008C0010000000000B7
:1063D0001CC0011000F807001CC00130F5020800C5
:1063E00020C0050000130000EC80B3034375A80231
:1063F000000000002E02000050C001008741300C58
:1064000058C0020054060708D1B6020064C0080054
:106410000430000040201006C8F248181FE8F600BB
:10642000BD4B721511A3180510325476980A00005E
:1064300088C00100000000000800010108070000FA
:1064400018000101AAAAAA00200001010060DA00D8
:106450001C40010110000000304003010000000357
:106460000000000000000000684002012941767130
:1064700000000000E04002013300000000000000C6
:106480000C410101B8551200244101010000000037
:106490005441050101000000000000000000000060
:1064A000000000000000000038420201000000006F
:1064B00000000000444201010000000010800101C2
:1064C00003000000388002011149100001000000A3
:1064D00088800101000000009C800101EB40020067
:1064E000B0800201000300023700000188000202B0
:1064F000000C00044C0000009400010200040000A5
:10650000D00002020E00000090029608E400010292
:106510003D094204F40001020000000018010102DC
:1065200060005102FFFFFFFFFC1F0103D862000063
:106530003C400400000000000000000000000000DB
:10654000A007000050400100000000005C40020075
:106550000000000000000000B440030001480000FB
:10656000FF4C00000149000054C001000E2D09E657
:1065700020400401000000861FC0010000600000F0
:106580000080000058400401180005008008000049
:10659000090000009100040080400C018C000C00F8
:1065A00000000000120022000000000000000000B7
:1065B0000002050E1C2F4353626968615543320483
:1065C00016E4B8C68A674533224A9204EC400701B4
:1065D00090382CAC000000005A10080AD007CA4AB4
:1065E00051104800F9541E804737414A10410201BA
:1065F00030194A0589BB400028410101FFFF000016
:1066000030410901F15004430C010000E853FA0045
:106610000000080010161C22282E343A4046214360
:106620006587A90B0000C0B4684103015A10080A2D
:10663000D0074104C1030000304202018993A30F37
:106640005EC25D0EA080020170780300D0000000E1
:10665000A8800111F0010000A88001310542CB01A2
:10666000AC800111F0010000AC800131053EFD005D
:10667000FFFFFFFFFC1F0103046300003C40040018
:10668000000000000000000000000000A007000063
:1066900050400100000000005C40020000000000CB
:1066A00000000000B440030001480000FF4C00005F
:1066B0000149000054C001000A2D09E620400401F0
:1066C000000000061FC000000060000000D0320083
:1066D000584004016402FF0080080000010000002F
:1066E0001100080080400C010804000000000000B8
:1066F000D903220000000000000000000102071181
:1067000021374B5A676962544029150500008020E3
:10671000434433332392A424EC40070190382CAC3B
:1067200000000000640483078813C83A9D200A0013
:10673000016120804737414A104102012A144A0270
:1067400089BBC00A28410101FFFF00003041090157
:106750006406660C0C010000E853FA000000080013
:1067600012181E242A30363C424821436587A90B63
:106770000000E0C4684103016404830788138200B9
:10678000C10800003042020145966B105C22670E82
:10679000A080020170780300D5C00000A88001111C
:1067A000F0010000A88001310542CB01AC8001114D
:1067B000F0010000AC80013105228D00FFFFFFFFDA
:1067C000FC1F0103306300003C4004001000000087
:1067D00000000000000000002017000050400100F1
:1067E000010400005C4002000D0F000001010000E8
:1067F000B440030003C00100FF4C0000FF4D000047
:1068000054C001000E2D09E6204004013000004470
:106810001FC8010000200010008000005840040143
:1068200018000500400800000900000091000A005F
:1068300080400C018C002C02000000001B001200A4
:106840005B808C1B00000000040A142232414A4F76
:106850000000000000000000000000000000000038
:1068600000000000EC40070180B0B18C0000000087
:10687000640483078813C83A9C200A0001612080C1
:10688000B756351210410201A01B042908884000A8
:106890002841010100000000304109016406660C36
:1068A0000C0100004CD4E83B04196F300A10161C90
:1068B00022282E343A4010325476980A1D5F80A464
:1068C000684103016404830788138200000000000C
:1068D00030420201000000000008000EA08002010A
:1068E00070380300D0000000A8800111F001000002
:1068F000A8800131055AFD01AC800111F0010000B2
:10690000AC800131053EFD00FFFFFFFFFC1F0103CE
:106910005C6300003C400400100000000000000028
:1069200000000000200700005040010000040000AB
:106930005C4002000D0F000001010000B4400300A4
:1069400003C00100FF4C0000FF4D000054C00100D7
:106950000E2D09E620400401300000441FC801004C
:1069600000200010008000005840040118000500BD
:10697000400800000900000091000A0080400C015E
:106980008C002C02000000001B0012005B808C1B9E
:1069900000000000040A142232414A4F00000000A7
:1069A00000000000000000000000000000000000E7
:1069B000EC40070180B0B18C000000006404830744
:1069C0008813C83A9C200A0001612080B75635120E
:1069D00010410201A01B0429088840002841010140
:1069E00000000000304109016406660C0C01000043
:1069F0004CD4E83B04196F30080E141A20262C32B0
:106A0000383E10325476980A1D5F00006841030139
:106A100064048307881382000000000030420201F2
:106A2000000000000008000EA08002017038030082
:106A3000D0000000A8800111F0010000A880013101
:106A4000055AFD01AC800111F0010000AC8001315C
:106A5000053EFD00FFFFFFFF28650000809C2B8F97
:106A600080841E000000000027007D00F833012014
:106A700074660000809C2B8F80841E000000000044
:106A800027007D00F8330120C0670000809C2B8F19
:106A900080841E000000000027007D00F8330120E4
:106AA0000C690000809C2B8F80841E000000000079
:106AB00027007D00F83301208863000000000000FB
:106AC000586A0000010000006CC2796D8863000004
:106AD00000000000706A000001000000BDCD28F039
:106AE0008863000000000000886A000001000000C8
:106AF000289204CF8863000000000000A06A000014
:106B000001000000B5C163B54145532D3132382D28
:106B1000454342004145532D3139322D4543420012
:106B20004145532D3235362D454342004145532DC5
:106B30003132382D435452004145532D3139322DD5
:106B4000435452004145532D3235362D43545200A3
:106B50004145532D3132382D43434D004145532D8E
:106B60003139322D43434D004145532D3235362DB9
:106B700043434D0002000000DDC60200E1C60200F2
:106B8000FBC60200F7C60200FFC6020019C70200DA
:106B90000201000080000000086B000000000000FF
:106BA0000000000010000000746B000003010000F2
:106BB000C0000000146B0000000000000000000096
:106BC00010000000746B00000401000000010000D0
:106BD000206B00000000000000000000100000001A
:106BE000746B00000B050000800000002C6B00009F
:106BF000100000000000000010000000746B000096
:106C00000C050000C0000000386B00001000000000
:106C10000000000010000000746B00000D05000073
:106C200000010000446B00001000000000000000A4
:106C300010000000746B0000020000000000000063
:106C4000000000002BC702002BC70200BDC60200D7
:106C5000D3C602002B08000080000000506B00002B
:106C60000C0000000100000010000000386C000063
:106C70002C080000C00000005C6B00000C0000004D
:106C80000100000010000000386C00002D0800001A
:106C900000010000686B00000C0000000100000013
:106CA00010000000386C000002000000906B000033
:106CB00003000000AC6B000004000000C86B000083
:106CC0000B000000E46B00000C000000006C0000F2
:106CD0000D0000001C6C00002B000000546C000034
:106CE0002C000000706C00002D0000008C6C000077
:106CF0000000000000000000000000020000000092
:106D00000000000000000000000000000000000083
:106D10000000000000000000000000000100000072
:106D20000000002000000000010000000000000042
:106D30000000000001000000000000000000000E44
:106D40000000000000000000000000000000000043
:106D50000000000000000000000000000000000033
:106D60000100000000000000000000000100000021
:106D70000000000000000000010000000000000012
:106D8000FFFFFFFFFFFFFFFFFFFFFFFF000000000F
:106D9000000000000000000001000000FFFFFFFFF6
:106DA0004B60D2273E3CCE3BF6B053CCB0061D65BF
:106DB000BC86987655BDEBB3E7933AAAD835C65A48
:106DC00096C298D84539A1F4A033EB2D817D037785
:106DD000F240A463E5E6BCF847422CE1F2D1176B20
:106DE000F551BF376840B6CBCE5E316B5733CE2BF3
:106DF000169E0F7C4AEBE78E9B7F1AFEE242E34F22
:106E0000512563FCC2CAB9F3849E17A7ADFAE6BC4C
:106E1000FFFFFFFFFFFFFFFF00000000FFFFFFFF7E
:106E200080B500F022FE02BD38B5040000200090BD
:106E30002000C0B2002844D0012846D0022848D003
:106E4000032850D0042858D0052861D0062864D0E3
:106E5000072867D008286AD009286DD00A2870D082
:106E60000B2873D00C2876D00D2879D00E282CD082
:106E70000F2857D012285AD0132826D0142832D0E1
:106E800015283AD016282ED0172841D018281CD003
:106E9000192847D01A2826D01B2861D01C283CD09E
:106EA0001D283AD01E2838D01F2836D020281AD0C6
:106EB000212818D0222816D023283DD0242840D0BD
:106EC00053E000F0BCFD00904FE000F0CEFD0090DC
:106ED0004BE000F0B4FD0500022000F0A4F8B5FB83
:106EE000F0F0009041E000F0C0FD0500032000F04C
:106EF0009AF8B5FBF0F0009037E000F0B6FD050021
:106F0000032000F090F8B5FBF0F0400800902CE072
:106F10000021684600F0C6FC27E00021684600F02A
:106F200013FC22E00021684600F03CFC1DE000213B
:106F3000684600F05DFC18E00021684600F023FD83
:106F400013E00021684600F03FF80EE0002168469B
:106F500000F0D0FB09E00021684600F008F804E0EA
:106F60000021684600F0DCFCFFE7009832BDF8B570
:106F700005000C000026DFF89005006810F0030003
:106F8000012804D018D3032811D00BD314E000F04B
:106F90006CFD0700032000F046F8B7FBF0F0060098
:106FA0000A200AE000F061FD06000B2005E000F079
:106FB00082FD0600052000E00020002D00D02E609C
:106FC000002C00D02070F1BD70B505000C0000262B
:106FD000DFF83805006810F00700012806D01AD342
:106FE00003280DD007D304280FD014E000F0A3FD30
:106FF0000600082010E000F0A4FD060007200BE0CA
:1070000000F09CFD0600092006E000F02EFD800A3D
:1070100006000C2000E00020002D00D02E60002C87
:1070200000D0207070BD010000200A00D2B2012AF9
:1070300005D0022A0BD0032A10D00E2A15D1DFF872
:10704000A0261268C2F30132100002280DE0DFF81A
:107050008C261268C2F30462100006E0DFF8802676
:107060001268C2F380221000FFE7401C704738B559
:1070700005000C002800C0B2012805D0022822D04B
:10708000032832D00E2842D1012C03D0022C01D08B
:10709000042C01D1012000E00020C0B200F06CFC03
:1070A00000F029FCDFF83806016831F44051621E17
:1070B00051EA02310160FFF7B3FE002100F012FB3C
:1070C00000F01FFC23E0002C03D0212C01D2012072
:1070D00000E00020C0B2DFF80406016831F0F8518A
:1070E000621E51EA0261016011E0012C01D0022C04
:1070F00001D1012000E00020C0B2DFF8E405016802
:1071000031F48061621E51EA82210160FFE731BDE6
:107110001CB5040000208DF800002000C0B200283B
:1071200028D0052848D006284BD007284ED008285C
:1071300051D0092854D00A2857D00B285AD00C28EF
:107140005DD00D2860D00F2840D0122843D01728DA
:1071500032D019283AD01B2856D01C2831D01D28EF
:107160002FD01E282DD01F282BD0232838D02428FC
:107170003BD04EE0DFF86805006810F007000128FA
:1071800012D015D3032807D002D3042808D00FE06B
:1071900004208DF800000EE003208DF800000AE0C6
:1071A00006208DF8000006E002208DF8000002E0C5
:1071B00000208DF800002CE06946002000F072FBF2
:1071C00027E06946002000F0BFFA22E0694600206F
:1071D00000F0E8FA1DE06946002000F009FB18E025
:1071E0006946002000F0CFFB13E069460020FFF75E
:1071F000EBFE0EE06946002000F07CFA09E06946EB
:107200000020FFF7B4FE04E06946002000F088FB90
:10721000FFE79DF8000016BDF8B504000D0000263C
:1072200000272000C0B2002836D0052876D00628D6
:1072300000F08D80072800F0A980082800F0BF80AA
:10724000092800F0D5800A2800F0F1800B2800F012
:107250000D810C2800F029810D2800F03A810F28BB
:1072600000F09480122800F0AA80172856D0192820
:1072700000F08C801B2800F02C811C2867D01D2872
:1072800065D01E2863D01F2861D0232800F0B0806D
:10729000242800F0CC8035E12800C0B202281AD0A2
:1072A000032807D0042802D0062811D016E00220B7
:1072B000060013E003200600DFF8D405006810F094
:1072C0000200400807000120DFF8C815086005E04B
:1072D0000420060002E001200600FFE700F04CFB5E
:1072E00000F009FBDFF8F8030168C908C900314361
:1072F0000160FFF795FD002100F0F4F900F001FBBB
:107300003800C0B2002808D12800C0B2032804D138
:107310000120DFF884150860FFE7F3E02800C0B221
:10732000022809D0052804D00D2808D10120060024
:1073300005E00220060002E003200600FFE7DFF878
:107340005C0501688908890031430160DAE02800A2
:10735000C0B202280FD011D3042803D005D30528CA
:1073600006D00BE00120060008E00220060005E040
:107370000320060002E004200600FFE7DFF8EC052A
:107380000168C908C90031430160BBE02800C0B2F0
:10739000072806D00BD3092806D008D20120060002
:1073A00005E00220060002E003200600FFE7DFF808
:1073B000C00501688908890031430160A2E0280006
:1073C000C0B2072806D00BD3092806D008D2012066
:1073D000060005E00220060002E003200600FFE7A9
:1073E000DFF890050168890889003143016089E070
:1073F0002800C0B2072809D0082804D0092808D0DE
:107400000C2809D00BE00120060008E0022006004D
:1074100005E00320060002E004200600FFE7DFF895
:1074200080040168C908C900314301606AE028008E
:10743000C0B2072809D0082804D0092808D00C2891
:1074400009D00BE00120060008E00220060005E05C
:107450000320060002E004200600FFE7DFF8AC008E
:107460000168C908C900314301604BE02800C0B27F
:1074700001280FD0032804D0062808D0072803D0FD
:107480000BE00120060008E00220060005E00320D2
:10749000060002E000200600FFE7DFF8480501686B
:1074A00089088900314301602CE02800C0B205281A
:1074B00004D00B2805D10220060002E003200600BC
:1074C000FFE7DFF844000168890889003143016063
:1074D00018E02800C0B2072806D00BD3092806D030
:1074E00008D20120060005E00220060002E0032089
:1074F0000600FFE7DFF8F0040168890889003143DE
:107500000160FFE7F1BD000080800040088200407C
:10751000F8B504002078102801D2012000E00020F6
:10752000C0B26078102801D2012000E00020C0B273
:10753000A078102801D2012000E00020C0B2E0783D
:10754000102801D2012000E00020C0B220791028CC
:1075500001D2012000E00020C0B26079402801D2B1
:10756000012000E00020C0B2A079402801D2012013
:1075700000E00020C0B2E079042801D2012000E040
:107580000020C0B2207A042801D2012000E00020AF
:10759000C0B2607B022801D2012000E00020C0B20E
:1075A0000020FFF7B5FD032800F09780DFF83C14BA
:1075B00045F60E000860DFF8DC3202201860DFF8C4
:1075C000D82201201060DFF828542868C003FAD4BC
:1075D000DFF82064207867783F0557EA0067E07895
:1075E00057EA0047207957EA0037607957EA801751
:1075F000A07907433760E079277A3F0657EA80672A
:10760000607A57EA0047A07A57EA0027E07A0743F2
:10761000DFF8E4030760DFF8E473D7F800C0607BAD
:10762000002801D1002000E008203CF00D0C50EAB9
:107630000C0C207B5CEA800C607B50EA0C0CC7F8D9
:1076400000C0607B002831D1DFF84402076837F0C2
:10765000330794F80EC057EA4C1794F80FC057EA56
:107660000C1757F001070760DFF894032F680740F5
:107670008742F9D10220186028684000FCD43068A5
:1076800030F47000A37850EA035030605FF000409F
:10769000DFF870331860207C002801D102201060D0
:1076A000607C002813D10120106010E0DFF8E02199
:1076B000136833F03303A07B53EA4013E07B53EAB3
:1076C0000013207C53EA4003607C03431360A07CDA
:1076D000002802D0DFF830030860F1BD9080004040
:1076E0007080004038B504000D002900200000F033
:1076F000A5F831BD70B505000C000026DFF8E402E6
:10770000006810F00300002814D0022808D002D32B
:1077100003280AD010E000F0B7F9060003200CE0BF
:1077200000F00FFA0600072007E000F0C0F906009D
:10773000062002E0012000E00020002D00D02E6095
:10774000002C00D0207070BD70B505000C00002624
:10775000DFF81802006810F00700012806D019D3DE
:1077600003280DD007D304280FD013E000F09CF9B4
:10777000060004200FE000F087F9060003200AE06D
:1077800000F099F90600052005E000F092F90600E6
:10779000022000E00020002D00D02E60002C00D040
:1077A000207070BD70B505000C00002670480068A0
:1077B00010F00300012804D012D303280BD005D306
:1077C0000EE000F0B8F9060008200AE000F0B9F970
:1077D0000600072005E000F0B1F90600092000E0EE
:1077E0000020002D00D02E60002C00D0207070BD35
:1077F00070B505000C0000265E48006810F003001C
:10780000012804D012D303280BD005D30EE000F0DA
:1078100092F9060008200AE000F093F9060007201C
:1078200005E000F08BF90600092000E00020002DA3
:1078300000D02E60002C00D0207070BDF0B4DFF8B6
:10784000CC21146814F48034240CDFF8C45141F6C0
:1078500071322A60DFF8BC311A6832F440126E4E81
:10786000B04201D352F480121A606C4E336833F088
:1078700002036B4FB84201D353F00203336022007E
:10788000D2B2002A01D000222A60F0BC704700006A
:1078900028C0004028D0004028E0004080810040FF
:1078A0000082004038B504000D00002000905D48C3
:1078B000006810F00300012804D013D303280CD073
:1078C00006D30FE000216846FFF73EFF0D200AE0D7
:1078D00000F0F1F80090052005E000F0EAF80090D3
:1078E000022000E00020002C01D000992160002D32
:1078F00000D0287031BD80B502210320FFF7B7FB0F
:1079000001BD10B502240120FFF78EFA44498842D8
:1079100001D20120040021000320FFF7A8FB10BDC5
:1079200070B505000C0000262F48006810F0030019
:10793000012804D012D303280BD005D30EE000F0A9
:10794000FAF8060008200AE000F0FBF8060007201D
:1079500005E000F0F3F80600092000E00020002D0B
:1079600000D02E60002C00D0207070BD208100401F
:10797000408100406081004080B500F083F8002124
:10798000FFF75CFF01BD70B505000C00002626481E
:10799000006810F00700012806D01AD303280DD084
:1079A00007D304280FD014E000F0C5F80600082023
:1079B00010E000F0C6F8060007200BE000F0BEF86B
:1079C0000600092006E000F050F8800A06000C20AE
:1079D00000E00020002D00D02E60002C00D0207090
:1079E00070BD0000008100404082004080C0004027
:1079F00058C0004010C0004018C0004020C00040E7
:107A00000300014018D00040F1A7FFFF1C00034015
:107A10003C00034008000340C117530218C207404E
:107A200081F0FA02808100400082004046484749C8
:107A300008604748016851F470010160704710B553
:107A400000244448006810F00700012809D00AD338
:107A5000032803D007D200F027F805E03E4800686D
:107A600002E03E4800E0FEE710BD80B5FFF7E7FF0B
:107A700038490968C1F301314A1CB0FBF2F0384AB9
:107A8000106002BD3748704733480068704710B532
:107A90000400314804602F48006810F007000328F4
:107AA00001D1FFF7E2FF10BD2F48006870470020AA
:107AB00070472A48704700202C490A68120C12F0BF
:107AC0001F02002A0CD0062A22D0072A23D0082A17
:107AD00024D00A2A25D00B2A26D00C2A27D029E028
:107AE000096811F04071002906D0B1F1807F06D0FD
:107AF000B1F1007F06D008E01D49080007E01D49EC
:107B0000080004E01C49080001E00021080011E021
:107B10001A4908000EE01A4908000BE0194908004C
:107B200008E01949080005E01849080002E0184972
:107B30000800FFE770474FF4004070474FF47A7039
:107B400070471448006870470040000008ED00E0EE
:107B500088ED00E070800040A42A0120002D310152
:107B6000B02A012000B4C404AC2A01200840014A14
:107B700000093D0080841E0040420F00405DC600A9
:107B80000024F400C0EA210180BA8C010048E80119
:107B9000005A6202A82A0120010049B2002904D437
:107BA000454940B2085C000907E0444940B210F082
:107BB0000F00084410F8040C000970470100080089
:107BC00040B2002805D4080040B23D2801DA012067
:107BD00000E00020C0B23A480A0052B2520950F800
:107BE000220011F01F01C84010F0010090F00100C8
:107BF000C0B27047020052B212F1100F05DB020052
:107C000052B23D2A01DA012200E00022D2B22D4A0E
:107C1000126803005BB202EB830211647047F0B498
:107C20000400049E059DB2F1005F04D32648824201
:107C300001D2012000E00020C0B212F07F00002835
:107C400001D1012000E00020C0B201209F007F1E72
:107C5000B7FA87F7D7F12007B840401E024201D19A
:107C6000012000E00020C0B200279F4220D228005F
:107C7000C0B2002809D08F4204D254F8270042F83D
:107C8000270013E042F8276010E08F4208D252F834
:107C9000270000280AD154F8270042F8270005E001
:107CA00052F82700002801D142F827607F1CDCE74A
:107CB00004480260F0BC704700E400E018ED00E00A
:107CC00000E100E008ED00E00080012072B670479E
:107CD000F8B50600300040B210F10C0F05DB3000A3
:107CE00040B23D2801DA012000E00020C0B2EFF3ED
:107CF0001080C00701D5012025E0300040B2FFF719
:107D00005DFF002801D001201DE0300040B2FFF7E8
:107D100043FF0700EFF31184002C04D0B7EB141FCE
:107D200001D301200FE008480568ED05ED0D002D99
:107D300008D02800103840B2FFF72EFF874201D349
:107D4000012000E00020F2BD04ED00E080B5FFF767
:107D50008CFE01BD4AF6E8502F4908607047704715
:107D600010B504002000C0B2002802D00020FFF7A8
:107D7000F6FF2A48016851F00401016000F052F852
:107D800030BF00F050F82000C0B2002803D001201E
:107D9000FFF7E5FF01E0FFF7D9FF10BD10B50400C4
:107DA0002000C0B2002802D00020FFF7D8FF1B48F7
:107DB000016851F00401016000F034F830BF00F0B8
:107DC00032F82000C0B2002803D00120FFF7C7FF1F
:107DD00001E0FFF7BBFF10BD80B50020FFF7BFFF3C
:107DE00001BD80B50120FFF7BAFF01BD70B50C4D94
:107DF0002C68A408A40054F002042E6856F0030670
:107E0000FFF7A8FF0020042803DA2C602E60401C36
:107E1000F9E72C6070BD00006040004010ED00E00C
:107E20006C4000407047704710B4002A02D010F533
:107E3000805301E010F5005301248C401C6010BCFD
:107E4000704710F580521160704710F500521160B4
:107E5000704770B504000D00160029002000FFF7E0
:107E6000F4FF31002000FFF7ECFF70BDDFF8CC130A
:107E70000860704730B40200D2B2002A01D11E223D
:107E80003CE00200D2B2012A01D1002236E0020019
:107E9000D2B2022A01D13F2230E00200D2B2032A3C
:107EA00001D103222AE00200D2B2042A01D1002229
:107EB00024E00200D2B2052A01D100221EE0020015
:107EC000D2B2062A01D1002218E00200D2B2072A5B
:107ED00001D1002212E00200D2B2082A01D1002210
:107EE0000CE00200D2B2092A01D1002206E0020011
:107EF000D2B20A2A01D1002200E00022CA4012F0C8
:107F0000010201238B40DFF838430500EDB2302237
:107F1000554304EB0502136130BC704730B40200D6
:107F2000D2B2002A01D11E223CE00200D2B2012AC4
:107F300001D1002236E00200D2B2022A01D13F2252
:107F400030E00200D2B2032A01D103222AE002006B
:107F5000D2B2042A01D1002224E00200D2B2052AC2
:107F600001D100221EE00200D2B2062A01D1002275
:107F700018E00200D2B2072A01D1002212E002006A
:107F8000D2B2082A01D100220CE00200D2B2092AA2
:107F900001D1002206E00200D2B20A2A01D1002259
:107FA00000E00022CA4012F0010201238B40DFF8FA
:107FB00094420500EDB23022554304EB05021361F3
:107FC00030BC70472DE9F84306000F0090469946F3
:107FD000089C099D3000C0B2002801D11E203CE061
:107FE0003000C0B2012801D1002036E03000C0B21C
:107FF000022801D13F2030E03000C0B2032801D177
:1080000003202AE03000C0B2042801D1002024E07F
:108010003000C0B2052801D100201EE03000C0B2FF
:10802000062801D1002018E03000C0B2072801D195
:10803000002012E03000C0B2082801D100200CE07E
:108040003000C0B2092801D1002006E03000C0B2E3
:108050000A2801D1002000E00020F84010F00100C3
:108060005FEA98008000B9088900884201D10120A8
:1080700000E00020C0B2B8F1080F0DD23200D2B239
:108080004046C0B28000824003214046C0B280001A
:1080900081406D48FFF7DDFEB8F1080F0DD217F0F3
:1080A00003024046C0B28000824003214046C0B275
:1080B000800081406548FFF7CCFE4A46D2B2414677
:1080C0006348FFF7B1FE2200D2B241466148FFF794
:1080D000ABFE012010FA08F0FFF7C8FE2A00D2B26A
:1080E00041465D48FFF7A0FEBDE8F183F8B5050005
:1080F0000E0017001C002800C0B2002801D11E206D
:108100003CE02800C0B2012801D1002036E0280060
:10811000C0B2022801D13F2030E02800C0B20328BD
:1081200001D103202AE02800C0B2042801D1002098
:1081300024E02800C0B2052801D100201EE028005C
:10814000C0B2062801D1002018E02800C0B20728DC
:1081500001D1002012E02800C0B2082801D100207F
:108160000CE02800C0B2092801D1002006E0280058
:10817000C0B20A2801D1002000E00020F04010F039
:1081800001003800C0B200280CD0002C05D031000E
:108190002800C0B2FFF7C2FE04E031002800C0B2E0
:1081A000FFF768FE082E1AD230202C4A2900C9B2E7
:1081B000414311442B00DBB200FB03F01044426842
:1081C0000F233000C0B2800083409A433B00DBB2F3
:1081D0003000C0B2800083401A434A601BE0302068
:1081E0001E4A2900C9B2414311442B00DBB200FBF7
:1081F00003F01044C2680F2330000838C0B280007A
:1082000083409A433B00DBB230000838C0B28000A4
:1082100083401A43CA603800C0B200280CD1002C39
:1082200005D031002800C0B2FFF778FE04E031002D
:108230002800C0B2FFF71EFEF1BD000020E403409D
:1082400000E0034000D0034000C4034008C40340E2
:1082500010C4034014C4034024C4034000C00340BE
:10826000010049B200290AD4012210F01F018A40FE
:10827000DFF8C81203005BB25B0941F823207047A6
:10828000010049B2002909D4012210F01F018A40DF
:10829000AB4903005BB25B0941F82320704710B47F
:1082A000020052B2002A05D40A01A64B040064B2AF
:1082B0001A5508E00A01A44B040064B214F00F043C
:1082C000234403F8042C10BC704710B4002A02D0D9
:1082D00010F5805301E010F5005301248C401C6020
:1082E00010BC704710F500521160704738B504009B
:1082F0000D00082C01DA012000E00020C0B22800A7
:10830000C0B2002801D1012200E00022D2B2210037
:108310009148FFF7DAFF31BD38B50400002C01D0D9
:10832000012000E00020C0B220787FF0F85111EA6F
:10833000006F01D1012000E00020C0B20120012027
:10834000E078102801DA012000E00020C0B201200E
:108350008049086025782D06804805606078A178FE
:1083600051EA00417E480160FF2079490860002001
:108370007C4908600020784908605FF0004073493C
:1083800008605FF0FF30784908601520FFF778FF3C
:10839000E1781520FFF783FF1520FFF761FF31BD5E
:1083A0002DE9F04105000C0016000127AF40082D13
:1083B00001DA012000E00020C0B2002C01D0012031
:1083C00000E00020C0B220686849084201D10120C5
:1083D00000E00020C0B20120012001200120A07A8D
:1083E0007FF4403111EA004F01D1012000E000206C
:1083F000C0B2E07A7FF4801111EA005F01D1012060
:1084000000E00020C0B2207B7FF4001111EA405F41
:1084100001D1012000E00020C0B2012020685449B1
:1084200041F8250030205349627B00FB05F30B44E3
:108430009A60A27AE37A1B0553EA0243227B53EA4D
:10844000425300FB05F20A445360B208920000FB5D
:1084500005F0084482614448076000F097F88046C0
:108460003A48016839430160207A002803D03A482D
:10847000016839430160607A002803D039480168F7
:10848000394301602079A17951EA00413A480160FD
:108490006079E17951EA0041384801603900384893
:1084A000FFF720FF37480760404600F073F8BDE84B
:1084B000F08170B504000125A540082C01DA0120E7
:1084C00000E00020C0B200F061F806001F4801681B
:1084D000A94301601E480560300000F05BF870BDE4
:1084E0002DE9F84306000127B740082E01DA0120E4
:1084F00000E00020C0B200F049F88046224804683D
:108500001F4805681B48302101FB06F10844D0F8DC
:108510000C90404600F03EF83C403D40C9F30A1143
:10852000002D03D1002903D1002C01D0002001E04F
:10853000491C0800BDE8F2830000000000E100E0F3
:1085400080E200E000E400E018ED00E054000440A8
:108550002800044004000440400004400800044097
:10856000180004403800044050200440F0FFC0FFD1
:1085700000400440580004401820044018100440F3
:10858000340004404800044050000440EFF31080E1
:1085900072B67047002800D162B6704741F671305C
:1085A000074908600120074908607047044841F600
:1085B000713101600121034A11600021016070479F
:1085C0003C0003400C2003405FF400300349086086
:1085D000704703480068704700000000705000407A
:1085E000944000401E480068002803D01D480068E1
:1085F0000028F7D1704710B504001948006800281A
:1086000001D0FFF7EFFF01201949086060780028CA
:1086100001D0012100E00021A078002801D0012232
:1086200000E00022E078002801D0012000E00020D6
:1086300051EA420151EA8001207951EA0011607942
:1086400051EAC0010B480160012008490860207808
:10865000002801D0012000E002200349086010BD7D
:1086600004000048280000480C000048041000489E
:1086700004200048080000484268002A01D14160F7
:1086800006E042685368012B01D05268FAE7516056
:1086900070478268002A01D1816006E082685368D1
:1086A000012B01D05268FAE751607047C269042A71
:1086B00007D3C269042A01D2012200E00022D2B20B
:1086C00006E0C26900EB8202D160C269521CC2613D
:1086D0007047C169052907D3C169052901D2012164
:1086E00000E00021C9B21CE0DFF838100968C902B7
:1086F000FAD5C169091D8900DFF82C2011605FF0EF
:10870000984102680A6042680A6082680A60002232
:10871000C3699A4205D200EB8203DB680B60521CEE
:10872000F6E770474000004C5000004C06490968CD
:108730000A00920912F03F02827011F03F0242706B
:108740000A00120B0270704714C00740DFF8E822DD
:10875000904205D10A00D2B2DFF8E0321A6012E08E
:10876000DFF8DC22904205D10A00D2B2DFF8D43221
:108770001A6008E0DFF8D022904204D10A00D2B299
:10878000DFF8C8321A60C26D52F08002C2657047CD
:10879000F8B505000C0016001F00002C03D10320C3
:1087A000FEF742FB04003800C0B2002806D02028A3
:1087B0000ED0402816D060281FD028E020000009E5
:1087C000B04201D3012000E00020C0B210211FE020
:1087D0002000C008B04201D3012000E00020C0B258
:1087E000082115E00620B4FBF0F0B04201D30120CF
:1087F00000E00020C0B206210AE020008008B0425C
:1088000001D3012000E00020C0B2042100E01FE0FD
:1088100006FB01F0400810EB441006FB01F2B0FB30
:10882000F2F02038C200DFF82802824201D2012093
:1088300000E00020C0B2DFF81C020240A86830F05F
:108840006000A860AB683800C0B20343AB60EA6167
:10885000F1BD10B4DFF8E021904207D0DFF8E0214D
:10886000904203D0DFF8E021904201D1012200E0E4
:108870000022D2B2012241F20403C2500A00D2B255
:10888000D24312F00502530043610B00DBB2436197
:108890000B00DBB2002B03D1012342F2040403518D
:1088A00010BC704770B504000D00DFF88C61B44255
:1088B00007D0DFF88C01844203D0DFF88C018442BA
:1088C00001D1012000E00020C0B2200000F072F8C9
:1088D000012041F204016050A87C002803D0A06868
:1088E00050F08040A060E87C002803D0297D200063
:1088F000FFF72CFF697BB5F910000143B5F90E00B5
:108900000143E1602B7BAA6869682000FFF740FF04
:10891000687D002803D0A06850F48030A060A87D56
:10892000000710F0E040E97D090511F4E00108437B
:10893000A065287E022802D0287E032814D1B442E4
:1089400001D100200BE03E48844201D1012006E025
:108950003D48844201D1022001E05FF0FF30022156
:108960003D4A4001115013E0B44201D100200BE018
:108970003348844201D1012006E03348844201D1CA
:10898000022001E05FF0FF300221344A4001115023
:10899000287E012802D0287E032804D1042041F239
:1089A0005C01605003E0042042F25C0160502878D2
:1089B000606170BD2049884205D0214A904202D0B2
:1089C000214A904201D1012200E00022D2B20122CC
:1089D00041F20403C25040F6AA6242610022826062
:1089E0000022C26541F20502C2600022026100223B
:1089F000C2610022C2641A4A42F24803C2500022F5
:108A00008265884205D00E4A904202D00E4A9042BA
:108A100001D100220265884205D00949884202D06E
:108A20000949884201D100214165012142F2040235
:108A300081507047000000000080054084810340A1
:108A400000C005409481034000000640A48103401B
:108A5000F9FF7F00F8FF7F00ACD50340ACE5034091
:108A6000FFFF010082695206FCD50A00D2B2C26340
:108A70007047010142F24802815070470068C840C7
:108A800010F00100704738B505000C002800C0B296
:108A9000002801D11E203CE02800C0B2012801D1ED
:108AA000002036E02800C0B2022801D13F2030E08B
:108AB0002800C0B2032801D103202AE02800C0B258
:108AC000042801D1002024E02800C0B2052801D1EB
:108AD00000201EE02800C0B2062801D1002018E0C6
:108AE0002800C0B2072801D1002012E02800C0B23F
:108AF000082801D100200CE02800C0B2092801D1CB
:108B0000002006E02800C0B20A2801D1002000E0C1
:108B10000020E04010F001002100DFF8C42A2B0003
:108B2000DBB23020434302EB03001430FFF7A6FF13
:108B300032BD30B40200D2B2002A01D11E223CE084
:108B40000200D2B2012A01D1002236E00200D2B2E4
:108B5000022A01D13F2230E00200D2B2032A01D121
:108B600003222AE00200D2B2042A01D1002224E02A
:108B70000200D2B2052A01D100221EE00200D2B2C8
:108B8000062A01D1002218E00200D2B2072A01D140
:108B9000002212E00200D2B2082A01D100220CE029
:108BA0000200D2B2092A01D1002206E00200D2B2AC
:108BB0000A2A01D1002200E00022CA4012F001027C
:108BC00001238B40DFF88C4B0500EDB2302255437A
:108BD00004EB0502136130BC704730B40200D2B21E
:108BE000002A01D11E223CE00200D2B2012A01D1AA
:108BF000002236E00200D2B2022A01D13F2230E048
:108C00000200D2B2032A01D103222AE00200D2B22A
:108C1000042A01D1002224E00200D2B2052A01D1A7
:108C200000221EE00200D2B2062A01D1002218E082
:108C30000200D2B2072A01D1002212E00200D2B211
:108C4000082A01D100220CE00200D2B2092A01D187
:108C5000002206E00200D2B20A2A01D1002200E07E
:108C60000022CA4012F0010201238B40DFF85C4B66
:108C70000500EDB23022554304EB0502136130BC10
:108C800070472DE9FC4105000E0017009846089C2E
:108C90002000C0B201904046C0B200903B00DBB261
:108CA000320031002800C0B2FFF78CF9BDE8F38133
:108CB000704701000022042A0CD2DFF8140B50F890
:108CC000223093F821308B4202D150F8220002E08A
:108CD000521CF0E70020704710B5040094F83100F2
:108CE000022806D194F82110607FFFF7CCFEC0B2B5
:108CF00000E0002010BD7CB506003000C0B2FFF7D8
:108D0000D8FF0400002C2DD094F83100022829D17E
:108D10002000FFF7E1FF2076607E022822D194F840
:108D20002E0000281ED100208DF800006946A068A2
:108D300000F098FF0500207E002803D094F82F0053
:108D4000002806D0002084F82F00A06800F04DFF16
:108D500008E0002D06D19DF80000002802D0A06890
:108D600000F024FF73BD1CB5040094F83100022804
:108D700020D1607E002805D194F82210A07FFFF753
:108D8000D8FE3BE0607E012805D194F82210A07F38
:108D9000FFF723FF32E0207E002805D194F822104F
:108DA000A07FFFF7C6FE29E094F82210A07FFFF70E
:108DB00014FF23E094F8310001281FD1207E002801
:108DC0000ED111208DF80000200000F04CFD012292
:108DD0006946200000F0FEFC200000F09FFD0DE041
:108DE00013208DF80000200000F03DFD01226946AF
:108DF000200000F0EFFC200000F090FD002016BDE8
:108E00002DE9F84F04000D001600FFF7BFFB070027
:108E1000A088E188884207D3002030603800FFF73F
:108E2000B9FBDFF8F00A26E020885FF01408A946B5
:108E30005FF0140A80B20AFB00F0204410F1080B26
:108E400042464946584601F07FF820880AFB00FA5E
:108E500004EB0A00083030602088401CE18890FB59
:108E6000F1F201FB12002080A088401CA080380095
:108E7000FFF790FB0020BDE8F28F70B504000D00F5
:108E8000FFF784FB0600A088002807D10020286097
:108E90003000FFF77FFBDFF8800A15E061881420BF
:108EA000414304EB0100083028606088401CE188E1
:108EB00090FBF1F201FB12006080A088401EA080B0
:108EC0003000FFF767FB002070BD70B504000D0097
:108ED000FFF75CFB0600A088002807D1002028606F
:108EE0003000FFF757FBDFF8300A0AE061881420F2
:108EF000414304EB0100083028603000FFF74AFBD3
:108F0000002070BD042102685161016889698907E8
:108F1000FBD51021DFF8442A03795B01D15070475B
:108F20001021DFF83C2A03795B01D1500821026847
:108F30005161704701210268516101688969C9075F
:108F4000FBD50421DFF8142A03795B01D150704767
:108F50000421DFF80C2A03795B01D1500221026859
:108F600051617047F0B585B004000D000026012066
:108F700084F82C0094F83200002813D1206810F1F6
:108F8000240704940FF27100039000200290686897
:108F90000190012000903B002A686169E06800F0C0
:108FA000DDFD02E0002084F82C0005B0F0BDF0B536
:108FB00085B004000D000026012084F82D0094F8EF
:108FC0003200002813D1206810F13C0704940FF2FE
:108FD00035100390002002906868019001200090F5
:108FE0002B683A002169A06800F090FD02E00020A3
:108FF00084F82D0005B0F0BD2DE9F84304000D0004
:10900000160037006946786AFFF75FFF8046DFF891
:109010000809804501D1012072E00098002801D0A4
:10902000012000E00020C0B297F83200002811D1E2
:109030003868806C80050DD5DFF8A40900990861B7
:109040000020009988604FF40070396842F24802AD
:1090500088501BE097F83200002811D13868806CE6
:10906000C0050DD5DFF8800900990861002000993E
:1090700088604FF48070396842F24802885005E0F9
:10908000002000990861002000998860FFF77EFAAF
:1090900081460098C06800280ED000984368009868
:1090A00080681B1A00980268009801693800DDF892
:1090B00000C0DCF80CC0E0476946786AFFF7DDFEC7
:1090C000786A8088002808D06946786AFFF7FDFE34
:1090D00000993800FFF746FF0EE00120387638008F
:1090E000FFF741FE002087F82C0097F83100032895
:1090F00002D03800FFF72CFF4846FFF74BFA01205B
:10910000BDE8F2832DE9F84304000D001600370096
:109110006946B86AFFF7D9FE8046DFF8C80880457F
:1091200001D1012036E00098002801D0012000E0A4
:109130000020C0B2002000990861002000998860DA
:10914000FFF724FA81460098C06800280AD00098EA
:1091500043680098026800213800DDF800C0DCF8A0
:109160000CC0E0476946B86AFFF787FEB86A808896
:10917000002808D06946B86AFFF7A7FE00993800B2
:10918000FFF715FF02E0002087F82D004846FFF7A3
:1091900001FA0120BDE8F2830300002B02D1DFF8C1
:1091A0004C080BE0002905D0002A03D040F601004E
:1091B000824202D3DFF8380800E000207047020046
:1091C000087AD076887AD077487A1077C87A82F889
:1091D0002000487D5077887D82F82100C87D9077F7
:1091E000087E82F822000020704738B504000D0088
:1091F0002800C0B200283BD001230422E17FE07E9A
:10920000FEF774FF0123022294F82010207FFEF75E
:109210006DFF94F83100022817D10023012294F841
:109220002110607FFEF762FF0023042294F82210D1
:10923000A07FFEF75BFF012000900123012294F83C
:109240002110607FFFF71DFD4DE094F831000328E9
:1092500049D10023012294F82110607FFEF746FFD8
:109260000023042294F82210A07FFEF73FFF3AE08B
:1092700000230022E17FE07EFEF738FF002300227A
:1092800094F82010207FFEF731FF94F83100022877
:1092900017D10023002294F82110607FFEF726FFEB
:1092A0000023002294F82210A07FFEF71FFF002069
:1092B00000900123012294F82110607FFFF7E1FC68
:1092C00011E094F8310003280DD10023002294F816
:1092D0002110607FFEF70AFF0023002294F822107D
:1092E000A07FFEF703FF002032BD10B40100DFF8BD
:1092F0000427107800280CD100200300042B06D28C
:109300000020DFF8CC4444F823005B1CF6E7012082
:10931000107000220024042C10D2DFF8B43453F86B
:109320002400002803D053F82400884204D143F8D5
:1093300024100120020001E0641CECE71000C0B220
:10934000002802D1DFF8A40600E0002010BC70471E
:1093500010B441620023446A23800023446A63807E
:109360000023446AA380002380F82C30826200230B
:10937000846A23800023846A63800023846AA38034
:10938000002380F82D30002380F82F3010BC704768
:1093900010B50400DFF8601694F8210000F04BFED1
:1093A00000F03BFE0020A0760020207602206076B0
:1093B0002000FFF7D8FC10BD10B5040000F078FBCA
:1093C000002114F1080000F041FB002802D0DFF872
:1093D0002C060AE0002114F10C0000F037FB0028F5
:1093E00002D0DFF8180600E0002010BD2DE9F8419A
:1093F00087B004000D006846DFF804161C2200F058
:10940000B3FD002C02D1DFF8E405E6E0002D02D127
:10941000DFF8DC05E1E034275FF000082600424673
:109420003900300000F056FE2000FFF75EFF060016
:10943000002E01D03000D0E0287D84F8310028686B
:109440002060002084F83200287B20712868DFF833
:10945000B415884209D1202084F82300DFF8A8053C
:1094600020615FF48020606120E02868DFF89C15AF
:10947000884209D1212084F82300DFF89405206177
:109480005FF4A020606111E02868DFF88815884249
:1094900009D1222084F82300DFF87C0520615FF4E5
:1094A000C020606102E0DFF8480596E02A6AE969B9
:1094B0002000FFF74DFF68680290E889ADF81000C2
:1094C000288AADF80E00A87C8DF80C00E87C8DF899
:1094D000120005208DF80D0001211420FFF7E8FB94
:1094E000012194F82300FFF7E3FB00208DF8000032
:1094F00069462868FFF7D6F9DFF8200514212A7B92
:1095000052018150297B490101442A7AAB7A52EAFF
:1095100003428A61297B49010844697AEA7A51EA5F
:109520000241016129002000FFF749FE8046002822
:1095300001D0404651E001212000FFF756FE070010
:10954000002801D0380048E0FFF720F88046287D49
:1095500003281BD1DFF8040402212A7B5201815029
:1095600004212A6841F25C03D150297B490101445E
:10957000EA7D2B7E52EA0342CA60297B49010844F6
:10958000697DAA7D51EA0241816005E0287D0228BB
:1095900002D12000FFF7FCFE5FF0FF312868FFF7E3
:1095A00069FA287D032804D105212868FFF751F9BD
:1095B00003E004212868FFF74CF94FF44060296864
:1095C00048612000FFF7F8FE06004046FEF7E2FF84
:1095D000002E01D0300000E0002008B0BDE8F0818E
:1095E00000C00340FEB504000D00002C02D1DFF8DE
:1095F000FC03AEE0FEF7CAFF06002800C0B2012857
:1096000009D1A06A8088002805D13000FEF7C2FF8A
:10961000DFF80C049DE02800C0B2022809D1606A7E
:109620008088002805D13000FEF7B4FFDFF8F00392
:109630008FE02800C0B203280DD1A06A80880028DE
:1096400009D1606A8088002805D13000FEF7A2FFAA
:10965000DFF8CC037DE02800C0B2012803D0280049
:10966000C0B2032833D1A06800F0DEFA002084F8ED
:109670002D00A06A8088002824D06946A06AFFF7E0
:1096800024FC009810F10801A06800F013FBDFF83B
:10969000947300980761A06A8088002812D06946F8
:1096A000A06AFFF7EAFB0098C0680028F3D0009892
:1096B0008368002239002000DDF800C0DCF80CC00F
:1096C000E047E8E7200000F047F88004FAD52800DA
:1096D000C0B2022803D02800C0B2032835D1E06808
:1096E00000F0A2FA002084F82C00606A808800282C
:1096F00024D001A9606AFFF7E8FB019810F1080186
:10970000E06800F0D7FADFF81C7301980761606A1F
:109710008088002812D001A9606AFFF7AEFB01988B
:10972000C0680028F3D00198836800223900200027
:10973000DDF804C0DCF80CC0E047E8E794F831003D
:10974000032802D02000FFF703FC3000FEF722FFC1
:109750000020FEBD00E0034001000022086880698F
:1097600070472DE9FC4105000E00170098460020C7
:109770000090002400200190686A8088002808D0AA
:109780006946686AFFF7A1FB040001A9E86800F0D8
:1097900091FA009800280DD0002C0BD10098416858
:1097A0000198091A39600198C8F80000009800680B
:1097B000306006E00020C8F800000020386000207B
:1097C00030602800FFF7C8FFBDE8F68100D00340F5
:1097D000803801202DE9F84306000F0090464246EC
:1097E00039003000FFF7D8FC0500002D01D028001B
:1097F00037E01520FEF76CFA8146B06A80880028B1
:109800000AD096F82E00002806D14846C0B200289B
:10981000F3D000F06CFAF0E73068846914F00204C9
:10982000002C02D13000FFF76DFB012086F83000DC
:1098300096F8320000280ED14046B0F10108002809
:1098400005D039783068FFF70DF97F1CF4E73068F0
:1098500080698006FBD5002C02D13000FFF760FB49
:109860000020BDE8F28310B50400002C01D15F4850
:1098700011E094F82E00002807D12000FFF72CFA01
:10988000002802D1A06800F091F994F82E00401C45
:1098900084F82E00002010BD2DE9F84386B00600A4
:1098A0000F0090469946424639003000FFF774FC9D
:1098B0000400002C01D0200027E00197CDF808809B
:1098C000CDF80C80CDF81090584805906A4601A953
:1098D000706AFFF795FA0500002D01D0280014E00A
:1098E00096F82C0000280FD13000FFF723FB0099D9
:1098F0003000FFF737FB96F83100032804D0002032
:1099000030763000FFF72FFA002007B0BDE8F08373
:10991000000000000A7000F00B7000F010B50400A9
:10992000002C01D1314817E094F82E00002812D005
:1099300094F82E00012807D12000FFF7CDF9002868
:1099400002D1A06800F051F994F82E00401E84F86E
:109950002E00002000E0344810BD0000ACD50340CC
:10996000ACE503402DE9F84386B006000F009046B1
:109970009946424639003000FFF70EFC0400002CE7
:1099800001D0200028E00197CDF80880CDF80C80A8
:10999000CDF81090254805906A4601A9B06AFFF7F6
:1099A0002FFA0500002D01D0280015E096F82D00B3
:1099B000002810D1FEF7EAFD0400B06A8088002874
:1099C00006D000993000FFF7F2FA012086F8300047
:1099D0002000FEF7DFFD002007B0BDE8F0830000A7
:1099E0000D7000F00B7000F00C7000F0027000F0D1
:1099F000037000F076720120F78C00000E7000F00A
:109A000084420000008005400200040000C00540C0
:109A1000020005000000064002000600ACC503403D
:109A2000087000F0097000F0057000F0017000F09F
:109A30000100002901D4202901DB002005E0DFF826
:109A4000CC040068C84010F001007047F8B504006D
:109A50000D00DFF8BC040078002802D1DFF8B40460
:109A600025E0002C02D1DFF8B00420E0FEF78EFDE7
:109A700006000027082F15DADFF8A0143801084483
:109A8000007B00280CD1276001203A010A441073A2
:109A900000203A0188503000FEF77CFD002006E0EF
:109AA0007F1CE7E73000FEF775FDDFF87404F2BDB8
:109AB00038B5DFF870040068009000208DF80000D1
:109AC000FEF764FD0400DFF848140878002805D08C
:109AD0002000FEF75FFDDFF8500416E0012008705B
